:020000040800F2
:1000000000000120B9ED0008EFEC0008F1EC000859
:10001000F3EC0008F5EC0008F7EC00080000000025
:10002000000000000000000000000000F9EC0008E3
:10003000FBEC000800000000FDEC0008FFEC0008ED
:1000400009EE000809EE000809EE000809EE0008B4
:1000500009EE000809EE000809EE000809EE0008A4
:1000600009EE000809EE000809EE000809EE000894
:1000700009EE000809EE000809EE000809EE000884
:1000800009EE000809EE000809EE000809EE000874
:100090000000000009EE000809EE000809EE000863
:1000A00009EE000809EE000809EE000809EE000854
:1000B000093E0008153B000809EE000809EE00089B
:1000C00009EE000809EE000809EE000809EE000834
:1000D00021380008F16D000809EE000809EE00085B
:1000E00009EE0008F9C6000809EE000809EE00084C
:1000F00009EE0008000000000000000009EE000802
:1001000009EE000809EE00088DC6000809EE000897
:1001100009EE000809EE000809EE000809EE0008E3
:1001200009EE000809EE000809EE000809EE0008D3
:0801300009EE000809EE0008C9
:1001400010F8012B11F8013B012A28BF9A42F7D081
:10015000D01A7047034613F8012B002AFBD1181A56
:10016000013870470000000000000000000000009F
:1001700001F0FF01102A2BDB10F0070F08D010F858
:10018000013B013A8B422DD010F0070F42B3F6D15C
:10019000F0B441EA012141EA014122F007047FF075
:1001A00000070023F0E80256083C85EA010586EACC
:1001B000010685FA47F5A3FA87F586FA47F6A5FA08
:1001C00087F68EB9EED1F0BC01F0FF0102F0070214
:1001D00032B110F8013B013A83EA010313B1F8D1BF
:1001E0000020704701387047002D06BF35460338A0
:1001F000073815F0010F07D1013015F4807F02BFD9
:10020000013015F4C03F0130F0BC0138704700BF29
:1002100081F0004102E000BF83F0004330B54FEAB7
:1002200041044FEA430594EA050F08BF90EA020F24
:100230001FBF54EA000C55EA020C7FEA645C7FEAB7
:10024000655C00F0E2804FEA5454D4EB5555B8BFDA
:100250006D420CDD2C4480EA020281EA030382EA4B
:10026000000083EA010180EA020281EA0303362DDD
:1002700088BF30BD11F0004F4FEA01314FF4801CB0
:100280004CEA113102D0404261EB410113F0004FC2
:100290004FEA03334CEA133302D0524263EB430379
:1002A00094EA050F00F0A780A4F10104D5F1200E17
:1002B0000DDB02FA0EFC22FA05F2801841F1000172
:1002C00003FA0EF2801843FA05F359410EE0A5F146
:1002D00020050EF1200E012A03FA0EFC28BF4CF077
:1002E000020C43FA05F3C01851EBE37101F000452D
:1002F00007D54FF0000EDCF1000C7EEB00006EEB3A
:100300000101B1F5801F1BD3B1F5001F0CD34908C3
:100310005FEA30004FEA3C0C04F101044FEA44521A
:1003200012F5800F80F09A80BCF1004F08BF5FEAA1
:10033000500C50F1000041EB045141EA050130BD81
:100340005FEA4C0C404141EB0101013C28BFB1F593
:10035000801FE9D291F0000F04BF01460020B1FADE
:1003600081F308BF2033A3F10B03B3F120020CDAB1
:100370000C3208DD02F1140CC2F10C0201FA0CF08F
:1003800021FA02F10CE002F11402D8BFC2F1200CF4
:1003900001FA02F120FA0CFCDCBF41EA0C019040AA
:1003A000E41AA2BF01EB0451294330BD6FEA0404F3
:1003B0001F3C1CDA0C340EDC04F11404C4F12002DE
:1003C00020FA04F001FA02F340EA030021FA04F3F0
:1003D00045EA030130BDC4F10C04C4F1200220FA47
:1003E00002F001FA04F340EA0300294630BD21FA85
:1003F00004F0294630BD94F0000F83F4801306BF4B
:1004000081F480110134013D4EE77FEA645C18BF3E
:100410007FEA655C29D094EA050F08BF90EA020FD5
:1004200005D054EA000C04BF1946104630BD91EACD
:10043000030F1EBF0021002030BD5FEA545C05D1D0
:100440004000494128BF41F0004130BD14F580040F
:100450003CBF01F5801130BD01F0004545F0FE4183
:1004600041F470014FF0000030BD7FEA645C1ABFB8
:10047000194610467FEA655C1CBF0B46024650EAEF
:10048000013406BF52EA033591EA030F41F400211B
:1004900030BD00BF90F0000F04BF0021704730B5A1
:1004A0004FF4806404F132044FF000054FF0000176
:1004B00050E700BF90F0000F04BF0021704730B537
:1004C0004FF4806404F1320410F0004548BF40420C
:1004D0004FF000013EE700BF42004FEAE2014FEA61
:1004E00031014FEA02701FBF12F07F4393F07F4F3C
:1004F00081F06051704732F07F4208BF704793F03F
:100500007F4F04BF41F40021704730B54FF4607451
:1005100001F0004521F000411CE700BF50EA010254
:1005200008BF704730B54FF000050AE050EA0102FD
:1005300008BF704730B511F0004502D5404261EB6D
:1005400041014FF4806404F132045FEA915C3FF4AE
:10055000D8AE4FF003025FEADC0C18BF03325FEA4B
:10056000DC0C18BF033202EBDC02C2F1200300FAFC
:1005700003FC20FA02F001FA03FE40EA0E0021FA21
:1005800002F11444BDE600BF70B54FF0FF0C4CF40F
:10059000E06C1CEA11541DBF1CEA135594EA0C0FC1
:1005A00095EA0C0F00F0DEF82C4481EA030621EAFC
:1005B0004C5123EA4C5350EA013518BF52EA033537
:1005C00041F4801143F4801338D0A0FB02CE4FF0E9
:1005D0000005E1FB02E506F00042E0FB03E54FF019
:1005E0000006E1FB03569CF0000F18BF4EF0010E11
:1005F000A4F1FF04B6F5007F64F5407404D25FEA0D
:100600004E0E6D4146EB060642EAC62141EA5551BF
:100610004FEAC52040EA5E504FEACE2EB4F1FD0C01
:1006200088BFBCF5E06F1ED8BEF1004F08BF5FEA7F
:10063000500E50F1000041EB045170BD06F0004631
:1006400046EA010140EA020081EA0301B4EB5C04DE
:10065000C2BFD4EB0C0541EA045170BD41F48011D6
:100660004FF0000E013C00F3AB8014F1360FDEBFFB
:10067000002001F0004170BDC4F10004203C35DAD7
:100680000C341BDC04F11404C4F1200500FA05F35A
:1006900020FA04F001FA05F240EA020001F00042FB
:1006A00021F0004110EBD37021FA04F642EB060171
:1006B0005EEA430E08BF20EAD37070BDC4F10C049B
:1006C000C4F1200500FA04F320FA05F001FA04F25F
:1006D00040EA020001F0004110EBD37041F100014B
:1006E0005EEA430E08BF20EAD37070BDC4F1200556
:1006F00000FA05F24EEA020E20FA04F301FA05F2BE
:1007000043EA020321FA04F001F0004121FA04F265
:1007100020EA020000EBD3705EEA430E08BF20EA35
:10072000D37070BD94F0000F0FD101F0004640006F
:1007300041EB010111F4801F08BF013CF7D041EAF1
:10074000060195F0000F18BF704703F000465200F5
:1007500043EB030313F4801F08BF013DF7D043EAC6
:100760000603704794EA0C0F0CEA135518BF95EA7C
:100770000C0F0CD050EA410618BF52EA4306D1D103
:1007800081EA030101F000414FF0000070BD50EA22
:10079000410606BF1046194652EA430619D094EAAC
:1007A0000C0F02D150EA013613D195EA0C0F05D196
:1007B00052EA03361CBF104619460AD181EA0301EA
:1007C00001F0004141F0FE4141F470014FF00000A2
:1007D00070BD41F0FE4141F4780170BD70B54FF03D
:1007E000FF0C4CF4E06C1CEA11541DBF1CEA1355BD
:1007F00094EA0C0F95EA0C0F00F0A7F8A4EB05049F
:1008000081EA030E52EA03354FEA013100F0888095
:100810004FEA03334FF0805545EA131343EA12635E
:100820004FEA022245EA111545EA10654FEA002613
:100830000EF000419D4208BF964244F1FD0404F5CC
:10084000407402D25B084FEA3202B61A65EB030528
:100850005B084FEA32024FF480104FF4002CB6EBE5
:10086000020E75EB030E22BFB61A754640EA0C0065
:100870005B084FEA3202B6EB020E75EB030E22BFA5
:10088000B61A754640EA5C005B084FEA3202B6EBE6
:10089000020E75EB030E22BFB61A754640EA9C00A5
:1008A0005B084FEA3202B6EB020E75EB030E22BF75
:1008B000B61A754640EADC0055EA060E18D04FEA33
:1008C000051545EA16754FEA06164FEAC30343EAD3
:1008D00052734FEAC2025FEA1C1CC0D111F4801FA0
:1008E0000BD141EA00014FF000004FF0004CB6E799
:1008F00011F4801F04BF01430020B4F1FD0C88BF38
:10090000BCF5E06F3FF6AFAEB5EB030C04BFB6EB42
:10091000020C5FEA500C50F1000041EB045170BD35
:100920000EF0004E4EEA113114EB5C04C2BFD4EB62
:100930000C0541EA045170BD41F480114FF0000EE6
:10094000013C90E645EA060E8DE60CEA135594EA62
:100950000C0F08BF95EA0C0F3FF43BAF94EA0C0F65
:100960000AD150EA01347FF434AF95EA0C0F7FF4DA
:1009700025AF104619462CE795EA0C0F06D152EA2E
:1009800003353FF4FDAE1046194622E750EA410612
:1009900018BF52EA43067FF4C5AE50EA41047FF423
:1009A0000DAF52EA43057FF4EBAE12E74A0011D2D5
:1009B00012F5001211D20DD56FF47873B3EB6252B9
:1009C0000ED44FEAC12343F0004343EA505323FAC5
:1009D00002F070474FF00000704750EA013002D13A
:1009E0004FF0FF3070474FF00000704780F000403C
:1009F00002E000BF81F0004142001FBF5FEA4103F7
:100A000092EA030F7FEA226C7FEA236C6AD04FEAF6
:100A10001262D2EB1363C1BFD2184140484041403B
:100A2000B8BF5B42192B88BF704710F0004F40F4ED
:100A3000000020F07F4018BF404211F0004F41F409
:100A4000000121F07F4118BF494292EA030F3FD0D5
:100A5000A2F1010241FA03FC10EB0C00C3F12003E8
:100A600001FA03F100F0004302D5494260EB400077
:100A7000B0F5000F13D3B0F1807F06D340084FEAE2
:100A8000310102F10102FE2A51D2B1F1004F40EBD7
:100A9000C25008BF20F0010040EA0300704749003F
:100AA00040EB0000013A28BFB0F5000FEDD2B0FADC
:100AB00080FCACF1080CB2EB0C0200FA0CF0AABFFF
:100AC00000EBC25052421843BCBFD040184370479D
:100AD00092F0000F81F4000106BF80F400000132A3
:100AE000013BB5E74FEA41037FEA226C18BF7FEA7A
:100AF000236C21D092EA030F04D092F0000F08BFBC
:100B00000846704790EA010F1CBF0020704712F0A2
:100B10007F4F04D1400028BF40F00040704712F1E1
:100B200000723CBF00F50000704700F0004343F046
:100B3000FE4040F4000070477FEA226216BF08467C
:100B40007FEA23630146420206BF5FEA412390EA3F
:100B5000010F40F4800070474FF0000304E000BF35
:100B600010F0004348BF40425FEA000C08BF7047E6
:100B700043F0964301464FF000001CE050EA0102AA
:100B800008BF70474FF000030AE000BF50EA0102BF
:100B900008BF704711F0004302D5404261EB4101AC
:100BA0005FEA010C02BF84460146002043F0B643D1
:100BB00008BFA3F18053A3F50003BCFA8CF2083AF6
:100BC000A3EBC25310DB01FA02FC634400FA02FCFF
:100BD000C2F12002BCF1004F20FA02F243EB020006
:100BE00008BF20F00100704702F1200201FA02FC68
:100BF000C2F1200250EA4C0021FA02F243EB02005B
:100C000008BF20EADC7070474FF0FF0C1CEAD0529E
:100C10001EBF1CEAD15392EA0C0F93EA0C0F6FD05F
:100C20001A4480EA010C400218BF5FEA41211ED03D
:100C30004FF0006343EA501043EA5111A0FB013129
:100C40000CF00040B1F5000F3EBF490041EAD371FE
:100C50005B0040EA010062F17F02FD2A1DD8B3F17A
:100C6000004F40EBC25008BF20F00100704790F0E9
:100C7000000F0CF0004C08BF49024CEA502040EA3B
:100C800051207F3AC2BFD2F1FF0340EAC250704701
:100C900040F400004FF00003013A5DDC12F1190F3F
:100CA000DCBF00F000407047C2F10002410021FAB1
:100CB00002F1C2F1200200FA02FC5FEA310040F1C9
:100CC000000053EA4C0308BF20EADC70704792F042
:100CD000000F00F0004C02BF400010F4000F013A7A
:100CE000F9D040EA0C0093F0000F01F0004C02BF75
:100CF000490011F4000F013BF9D041EA0C018FE7E4
:100D00000CEAD15392EA0C0F18BF93EA0C0F0AD0E9
:100D100030F0004C18BF31F0004CD8D180EA01000F
:100D200000F00040704790F0000F17BF90F0004FA8
:100D3000084691F0000F91F0004F14D092EA0C0F8A
:100D400001D142020FD193EA0C0F03D14B0218BF1D
:100D5000084608D180EA010000F0004040F0FE4063
:100D600040F40000704740F0FE4040F440007047FF
:100D70004FF0FF0C1CEAD0521EBF1CEAD15392EA7E
:100D80000C0F93EA0C0F69D0A2EB030280EA010C6E
:100D900049024FEA402037D04FF0805343EA111107
:100DA00043EA10130CF000408B4238BF5B0042F165
:100DB0007D024FF4000C8B4224BF5B1A40EA0C000A
:100DC000B3EB510F24BFA3EB510340EA5C00B3EB3C
:100DD000910F24BFA3EB910340EA9C00B3EBD10F2A
:100DE00024BFA3EBD10340EADC001B0118BF5FEA7C
:100DF0001C1CE0D1FD2A3FF650AF8B4240EBC250A5
:100E000008BF20F0010070470CF0004C4CEA502065
:100E10007F32C2BFD2F1FF0340EAC250704740F4B4
:100E200000004FF00003013A37E792F0000F00F0A6
:100E3000004C02BF400010F4000F013AF9D040EA24
:100E40000C0093F0000F01F0004C02BF490011F4B8
:100E5000000F013BF9D041EA0C0195E70CEAD153B0
:100E600092EA0C0F08D142027FF47DAF93EA0C0F97
:100E70007FF470AF084676E793EA0C0F04D14B027B
:100E80003FF44CAF08466EE730F0004C18BF31F02D
:100E9000004CCAD130F000427FF45CAF31F0004327
:100EA0007FF43CAF5FE700BF4FF0FF3C06E000BFC0
:100EB0004FF0010C02E000BF4FF0010C4DF804CDE3
:100EC0004FEA40024FEA41037FEA226C18BF7FEAF3
:100ED000236C11D001B052EA530C18BF90EA010FF5
:100EE00058BFB2EB030088BFC81738BF6FEAE17084
:100EF00018BF40F0010070477FEA226C02D15FEA20
:100F0000402C05D17FEA236CE4D15FEA412CE1D08B
:100F10005DF8040B704700BF844608466146FFE752
:100F20000FB5FFF7C9FF002848BF10F1000F0FBD34
:100F30004DF808EDFFF7F4FF0CBF012000205DF82D
:100F400008FB00BF4DF808EDFFF7EAFF34BF0120B2
:100F500000205DF808FB00BF4DF808EDFFF7E0FF4B
:100F600094BF012000205DF808FB00BF4DF808ED9C
:100F7000FFF7D2FF94BF012000205DF808FB00BFFF
:100F80004DF808EDFFF7C8FF34BF012000205DF8E1
:100F900008FB00BF4FEA40024FEA41037FEA226CA0
:100FA00002D15FEA402C08D17FEA236C02D15FEACC
:100FB000412C02D14FF0000070474FF00100704704
:100FC0004FEA4002B2F1FE4F0FD34FF09E03B3EB56
:100FD00012620DD94FEA002343F0004310F0004F96
:100FE00023FA02F018BF404270474FF000007047EC
:100FF00012F1610F01D1420205D110F0004008BF8B
:101000006FF0004070474FF00000704742000ED272
:10101000B2F1FE4F0BD34FF09E03B3EB126209D433
:101020004FEA002343F0004323FA02F070474FF0E9
:101030000000704712F1610F01D1420202D14FF05E
:10104000FF3070474FF00000704700BF7BB972B9A6
:101050000029BEBF00204FF0004106E008BF002875
:101060001CBF6FF000414FF0FF3000F057B8ADF1FA
:10107000080C6DE904CE002909DB002B1ADB11F006
:1010800009FEDDF804E0DDE9022304B070474042C8
:1010900061EB4101002B1BDB11F0FCFDDDF804E0EE
:1010A000DDE9022304B0404261EB4101524263EBAF
:1010B00043037047524263EB430311F0EBFDDDF84D
:1010C00004E0DDE9022304B0404261EB41017047D6
:1010D000524263EB430311F0DDFDDDF804E0DDE98E
:1010E000022304B0524263EB4303704753B94AB939
:1010F000002908BF00281CBF4FF0FF314FF0FF3020
:1011000000F00CB8ADF1080C6DE904CE11F0C2FD91
:10111000DDF804E0DDE9022304B07047704700BF4A
:101120000348044B834202D0034B03B11847704776
:10113000F4020020F4020020000000000548064BE5
:101140001B1AD90F01EBA301491002D0034B03B1C5
:1011500018477047F4020020F4020020000000004D
:1011600010B5064C237843B9FFF7DAFF044B13B1EF
:101170000448AFF300800123237010BDF802002063
:10118000000000005C2F010808B5054B1BB10549A4
:101190000548AFF30080BDE80840FFF7CFBF00BFB0
:1011A00000000000FC0200205C2F010800224270B9
:1011B00082700122C270B1FA81F1022249090271E2
:1011C000032201704271704743788B421FD001297E
:1011D00041700AD0022910D0C1B90123C3708170B7
:1011E00002230371032343717047037843B1012342
:1011F00083700223C3700023F3E70378002BF6D03B
:10120000022383700023C3700123EAE7FEE77047DF
:1012100082B00B88ADF800304B88ADF802308B8877
:10122000ADF80430CB88ADF806300239431C0530E8
:1012300013F8012F0DF1080C0CEB4202834232F837
:10124000082C21F8022FF3D102B0704710B50C46DC
:101250001146FFF7B9FF2146BDE81040FFF7D8BFA0
:101260000B4B10B54FF07F32C0E923234FF47F437F
:10127000A0F89430FF23044680F89630983000F0B0
:10128000B9FC002384F8A43084F8A83010BD00BF56
:10129000FFFF7F0070B51146154604461E4600F05C
:1012A000CFFC294604F1140000F0CAFC294604F1E1
:1012B000280000F0C5FC294604F13C0000F0C0FC09
:1012C000294604F1500000F0BBFC294604F16400FB
:1012D00000F0B6FC294604F1780000F0B1FC4FF4B0
:1012E000FA7332464FF4FA6104F1980000F068FC9A
:1012F0002046FFF7B5FF002384F8A5304FF47F4365
:10130000A4F8A63070BD022380F8A830704770475B
:1013100000F09DBC143000F09ABC08B5503000F0CD
:10132000A0FC292100F114030246B3FBF1F313F0F2
:10133000FF0002D1101E18BF012008BD08B564309F
:1013400000F08FFC292100F114030246B3FBF1F3F6
:1013500013F0FF0002D1101E18BF012008BD90F845
:10136000903013B990F98C00704790F98D00704758
:1013700090F8903013B990F98E00704790F98F0073
:10138000704710B504460BF0E3FA50B194F8A8305A
:1013900043B904F13C0000F05EFC012838BF012095
:1013A000C0B210BD6420FCE790F8A83013B990F8E3
:1013B0009300704764207047783000F054BC783058
:1013C00000F059BC10B5044600F01BFC04F11400F9
:1013D00000F017FC04F1280000F013FC04F13C00BD
:1013E00000F00FFC04F1500000F017FC04F1640061
:1013F00000F013FC04F1780000F015FC94F8A8301C
:1014000013B1013B84F8A83010BD7F2807D0002815
:1014100007DA10F1800F06D04042C0B270470020BA
:101420007047012070477F20704710B1404240B2A2
:1014300070477F2070477F280FD010F1310F0EDAF0
:1014400010F1780F0DDB7830FE2340B25843233083
:101450004623B0FBF3F0C0B27047FF207047FE2078
:10146000704700207047012805DD40F2FE73984266
:1014700003DC80B270470120704740F2FF70704774
:10148000A0F57870C0EBC02040F2AE7390FBF3F093
:1014900000F58060FFF7E7BFFFF7F2BF032812DD1A
:1014A0000C2812DD0F2812DD122812DD162812DD9D
:1014B000192812DD1C2812DD1F2812DD2128CCBFBF
:1014C000FF2006207047002070470120704702204F
:1014D000704708207047032070470720704704209A
:1014E000704705207047000005289ABF014B185C23
:1014F000FF207047D82F010805289ABF014B185CC0
:10150000FF207047DE2F01087F2803D0002803DA70
:10151000C0B2704700207047FF2070477F2811D06D
:1015200010F1320F10DA884210DD401A6423C1F145
:10153000FF21584301F57F01CE31313090FBF1F0AE
:10154000C0B27047FF20704764207047002070478A
:10155000014B4840185C7047E42F010852B110B4A9
:10156000054C0A4411F8013B58408A42205CF9D1ED
:1015700010BC7047704700BFE42F0108392808D815
:1015800022280ED9094B2338C0B2C34003F0010012
:1015900070475F2807D0613819288CBF00200120D0
:1015A0007047002070470120704700BF01EC7F00AA
:1015B000F8B50246451E461D00245F2715F8010FA9
:1015C000FF2804BF0134E4B2FFF7D8FF00B92F7041
:1015D000AE42F3D1062C04D119B10B6813608B888D
:1015E000938000239371F8BD2DE9F843DFF8349020
:1015F000471E441D012500264FF0280817F8011F3B
:10160000084810F032FA034610B1A0EB0903DBB230
:10161000A3FB05329E19A742A5FB0853EED1304625
:10162000BDE8F883E430010810B54179A1F130003C
:10163000C3B2092B07D80523B0FBF3F303EB8303F5
:10164000C01AC0B210BD044C204610F00EFA00289B
:10165000F1D0001BC0B2EEE7E4300108F0B5094B51
:10166000094F821D2826B1FBF3F4272C94BF3D5D62
:10167000302502F8015D824203FB1411B3FBF6F33F
:10168000F1D1F0BD00801A06E430010870B50446BF
:10169000FEF760FD02B20023551E18B2A84204FAFC
:1016A00083F104DA265C302E03F10103F5D0121A1F
:1016B00001322046BDE8704010F0F6BB2DE9F0473E
:1016C000432B28BF432396B00C46154600211A46EB
:1016D0009846074610F002FC0021412205A804911B
:1016E00010F0FCFBDFF87C90DFF87CA004EB4505F4
:1016F000AC4210D104A8FEF72DFD28B100F158032B
:101700006B44002203F8492C04A9384610F096F9DE
:1017100016B0BDE8F08734F9020B47F6FF73984224
:10172000E8D0002812DC5146684610F087F904A87A
:10173000FEF710FD06466846FEF70CFD0644B04570
:10174000D6D3694604A810F081F9D1E7694680B282
:101750000CF047FE6846FFF799FF4946684610F0CF
:1017600075F9E4E7D12F0108CC2F0108F0B589B055
:101770006D4600242F468E1CE1B28A4204D83946B9
:10178000FFF79CFF09B0F0BD36F8241025F8021BC6
:101790000134F1E742F210736421B0FBF3F203FB72
:1017A0001200B0FBF1F301FB130000EB023000EB81
:1017B000831080B27047020B00F03F0342F21071B9
:1017C00001FB0233C0F38510642202FB0030704736
:1017D0002DE9F04142F2107388B0B1FBF3F603FB40
:1017E00016141F49DFF87C80054610F027F969467A
:1017F000F0B20CF0D3FD6846FFF748FF6946284673
:1018000010F024F94146284610F020F96427694673
:10181000B4FBF7F6F0B20CF0C1FD6846FFF736FFF7
:101820006946284610F012F907FB1644414628463F
:1018300010F00CF96946E0B20CF0B0FD9DF80130F3
:101840008DF800309DF802308DF801306946002394
:1018500028468DF8023010F0F9F808B0BDE8F081A4
:10186000F5420108D62F010870B50E460021054645
:10187000144610F033FB00239AB2944200D870BD96
:10188000F25C002AFBD0EA540133F5E770B50E464E
:10189000144600210132054610F020FB00239AB2C5
:1018A000944200D870BDF25C002AFBD0EA540133A8
:1018B000F5E730B50023044698B2904201D30120E9
:1018C00005E0E55CC85C1DB9B0FA80F0400930BDA8
:1018D0000028FCD0854203F10103EDD00020F6E79B
:1018E000914206D19DF900008342CCBF0020012027
:1018F0007047022909D0022A05D0012905D0531EBC
:1019000058425841704701207047002070477D239E
:10191000438043F2390309B2C36000230180818010
:10192000C380037270470000C2680449044B01FB86
:10193000023323F00043C360980F7047FD43030058
:10194000C39E260010B50129044680791AD80428C0
:1019500001D80130A071012AE07917D8042801D8F4
:101960000130E07191424AD8914245D3012930D1EA
:10197000012A2ED1A279E3799A4228D322D96FF095
:101980007C0310E00028E6D00138E3E708B1013815
:10199000E0710229E6D1022AE6D19DF9082093429E
:1019A0000BDDB4F9003062881A4412B27C2A28DDBB
:1019B0007D2262800022227227E01BDA23885B42AC
:1019C0001BB2F0E72046FFF7AFFF0028D7D07D23FA
:1019D000E9E7B4F90400B4F900302288B4F9021040
:1019E000002804DB7C29DEDD524213B2DBE77C31C8
:1019F000D9DBF9E70023D6E76FF04A03D3E74B239F
:101A0000D1E712F17C0F02DB6280A38010BD4FF69C
:101A1000837262800122CEE702680449044B01FB15
:101A2000023323F000430360180C7047FD430300AA
:101A3000C39E2600F0B5002597B00160858004465E
:101A400056222946684610F049FA0126627CAA42CD
:101A500009D80023802104F1B400237417B0BDE835
:101A6000F04010F03BBA2046FFF7D6FFE7797B1B2A
:101A7000002190FBF3F202FB1300C0B2EC460A46D1
:101A8000CBB29F421DD80023227B9A42DED0A2799E
:101A9000033A012A04EB050105D925B191F911207A
:101AA000D2B9012BD2D98B74A26852F823105833C3
:101AB00004EB85026B440135516303F8586CEDB2B9
:101AC000C4E71CF801EBBEF1000F03D18242DBD06A
:101AD0000132D2B20131D3E7501E8342E3DB01323F
:101AE0009342E0DCB2E72DE9F047154696B0013DA0
:101AF0000160027104464371EDB25622002168462E
:101B000010F0ECF90027022D84BF4FF001090025E9
:101B10003E464FF0010A94F807809CBF4FF003093E
:101B2000B8FBF9F8627CB24209D80023802104F1A5
:101B3000B400237416B0BDE8F04710F0CFB92046CA
:101B4000FFF76AFFA8EB0603002190FBF3F202FB0C
:101B50001300C0B2EC460A46CBB2984506D91CF831
:101B600001EBBEF1000F22D182421ED1434528BFB6
:101B70004346227B03FB095101F0FF018A42D1D089
:101B800016B1B7B9012BCDD9A2191F469174A2681D
:101B900052F8211004EB86020136516303F158021A
:101BA0006A44F6B202F858ACBCE70132D2B2013155
:101BB000D2E77A1E9342E7DB7A1C9342E4DCB1E77A
:101BC0002DE9F041044610461D4616468846FEF7AC
:101BD000C3FF074606EB0800FEF7BEFF0146384686
:101BE000FFF7C6F8656020602846FEF7B9FFA060E1
:101BF000BDE8F08110B504464068FEF7B1FFA06073
:101C000010BDD0E901236421D31AC36082604B4325
:101C1000418AB3FBF1F303747047D0E90123D31A6F
:101C2000C0E90223704743682BB1C26864214A436C
:101C3000B2FBF3F2D3B203740023C3604360704776
:101C40000023C0E902334182436003747047436854
:101C5000013343607047007C704743680B44436026
:101C60007047C068704711B1C3680133C3604368EF
:101C7000013343607047007C70470000072800D99B
:101C8000FEE7014B185C70473C31010800230380DC
:101C9000837080F8293070470346007810B1002225
:101CA0001A707047587810B100225A7070479878AF
:101CB00010B100229A70704793F8290010B10022E9
:101CC00083F8292070470170704701707047817058
:101CD00070478170426070474068704708307047B5
:101CE00010B50229044680EAE070A0EBE47068D1E8
:101CF0005AB9002CACBF7F233F239842A8BF184697
:101D0000002C01DA40F0400010BD012A1AD16328EE
:101D100005DC4000002CF7DA40F48070F4E740F274
:101D2000F54398420CDCFEF717FF5749FEF76CFFAE
:101D30000EF082FBFFF76AF9400040F00100E9E78E
:101D4000FF20E7E7022A40F09C80632805DC800042
:101D5000002CD9DA40F40070D6E7B0F57A7F0CDABF
:101D6000FEF7FAFE4849FEF74FFF0EF065FBFFF75E
:101D70004DF9800040F00100EAE742F20F7398420B
:101D80000CD8FEF7E9FE4149FEF73EFF0EF054FB8A
:101D9000FFF73CF9800040F00200D9E73C4B984245
:101DA0000CD8FEF7D9FE3B49FEF72EFF0EF044FBA0
:101DB000FFF72CF9800040F00300C9E740F2FF1064
:101DC000C6E703295DD1012A1BD1B0F57A7F05DA78
:101DD0004000002C98DA40F4006095E7B0F5205FF1
:101DE0000CDAFEF7B9FE2849FEF70EFF0EF024FBD1
:101DF000FFF70CF9400040F00100EAE740F2FF7005
:101E0000E7E7022A3DD1B0F57A7F06DA8000002CA0
:101E1000BFF67AAF40F4805076E742F20F739842F3
:101E20000CDCFEF799FE1849FEF7EEFE0EF004FBFF
:101E3000FFF7ECF8800040F00100E8E7164B98420D
:101E40000CD8FEF789FE1149FEF7DEFE0EF0F4FA1B
:101E5000FFF7DCF8800040F00200D8E7B0F57A2FF9
:101E60000CD2FEF779FE0B49FEF7CEFE0EF0E4FA37
:101E7000FFF7CCF8800040F00300C8E740F6FF70A1
:101E8000C5E7002040E700BFCDCCCC3D0AD7233CBE
:101E900017F001006F12833A9F8601000023436010
:101EA000038170470A2310B50446838001F070FF58
:101EB0002368E0809B6820469847208110BD0389F5
:101EC00070B504469BB1858845B1013DADB28580B2
:101ED0006DB903681B68BDE87040184701F058FFF2
:101EE000E388C01A238980B2834201D2258170BD64
:101EF000236820465B68EEE700230360704700001C
:101F000038B5084B09291B7828BF09218B420446A4
:101F10000D4602D10023036038BD01F02DFF25716D
:101F20002060F9E714030020036810B504460BB9DC
:101F3000002010BD01F020FF2368C01A40F2EE23FC
:101F40009842F5D90023054A2360127823799A42F2
:101F5000EED0034A0120D377EBE700BF1403002043
:101F600070030020FF2343710023017183710381FB
:101F70008372704738B5037904460D465BB14179E9
:101F8000A94208D041B101290AD00023A37165718B
:101F900055B1012D0FD038BD03689B689847F4E711
:101FA00003680021DB68F9E723689B68012120466C
:101FB0009847A071EFE723682946DB68F7E72DE92A
:101FC000F04F077CC37B857CC67C90F815E090F8C9
:101FD000208090F80EC0BF000C4647EA931703F02C
:101FE0003F01437C03F0010247EA822705F00F021C
:101FF000D20142EA530206F07F031B0143EA1513A4
:10200000057D89B06D0045EAD6150EF003060593EF
:1020100045EA4623867D009306F01F05AD0145EA9B
:102020009E03C57D90F819E00193ED0045EA561333
:10203000057E02930EF0070645EA0623857E03938C
:1020400005F03F06760146EADE03C67E90F81CE006
:102050000493B60046EA95160EF0010546EA852679
:10206000457F069205F00F0B4FEACB1B4BEA5E0B48
:1020700090F81EE00EF07F0A4FEA0A1A4AEA151A93
:10208000C57F6D0045EADE1508F0030E45EA4E25D2
:1020900090F821E00EF01F094FEA891949EA9809E2
:1020A000490190F82280407B41EADC010CF0070CEA
:1020B00040EA0C204FEAC80848EA5E180791FFF78B
:1020C000DFF9079920800846FFF7DAF96080384683
:1020D000FFF7D6F9069AA0801046FFF7D1F9059BC5
:1020E000E0801846FFF7CCF920810098FFF7C8F987
:1020F00060810198FFF7C4F9A0810298FFF7C0F949
:10210000E0810398FFF7BCF920820498FFF7B8F943
:1021100060823046FFF7B4F9A0825846FFF7B0F965
:10212000E0825046FFF7ACF920832846FFF7A8F974
:1021300060834846FFF7A4F9A0834046FFF7A0F963
:102140004FF48063E0832384638409B0BDE8F08F9B
:102150002DE9F04104460F4601F01AFE4FF0010848
:102160000546236820461B689847064650B9A37A5F
:10217000012B1FD12389ED1A40F6C4139D42C8BF1D
:10218000A07217E0236820465B689847A37AA3B93A
:102190000F2814D1A4F80A80E37AE2180133DBB2E5
:1021A000182B1073E3720AD939462046FFF707FF50
:1021B0000023A3723046BDE8F081012BECD02581CD
:1021C000CFE7827922B14379012B01D8FFF7C0BF55
:1021D0000020704770477047704700207047704775
:1021E0000020704700207047704700207047002093
:1021F000704770474FF0B04382B0DA6C0243DA6444
:10220000DB6C03400193019B02B070474FF0B04379
:1022100082B09A6D02439A659B6D03400193019BC6
:1022200002B070474FF0B04382B01A6E02431A6694
:102230001B6E03400193019B02B0704750E8003FC2
:1022400043F0800340E80032002AF7D1704750E89D
:10225000003F23F0200340E80032002AF7D1704706
:1022600050E8003F23F0400340E80032002AF7D155
:10227000704750E8003F23F0800340E80032002A16
:10228000F7D170470288044B5140C9B233F811307E
:1022900083EA122303807047D46001089AB110B416
:1022A000B0F800C0084C0A4411F8013B83EA0C0363
:1022B000DBB2914234F8133083EA1C2CA0F800C042
:1022C000F2D110BC70477047D460010837B54FF6A3
:1022D000FF730446ADF806304518AC4203D1BDF893
:1022E000060003B030BD14F8011B0DF10600FFF726
:1022F000C9FFF2E71629A8BF16216FF00800814236
:10230000B8BF01461170197070471629A8BF162171
:102310006FF008008142B8BF014611701970704714
:10232000044B1888044B1B8880B29BB2C01A18BF9C
:10233000012070475A41002058410020044A0023E0
:102340001380044A1380044A1380044A13807047A0
:10235000584100205A4100205C4300205E43002089
:10236000002070470649074A0B8812880133C3F3DF
:10237000080392B29A421EBF034AD0540B807047A2
:102380005237002050370020503500200023A0F89D
:102390007032A0F86E3270470023A0F85C32A0F8CB
:1023A0005A327047044B1888044B1B8880B29BB28A
:1023B000C01A18BF01207047523700205037002044
:1023C0000278024B51405B5C03707047B84C0108C7
:1023D000FF230370704700BF7047B0F86E32B0F84B
:1023E00070229B1A98B21B0444BF00F5006080B2B3
:1023F000003818BF01207047A0F11400EDE7B0F8D5
:102400007022B0F86E12914203461FBF811801324C
:1024100091F87402B3F872121ABF0A40A3F870223E
:1024200000207047A0F11400E9E770B50B78037045
:102430004B7843700B78FD2B05460C4638D18B78D2
:102440008370CB78C3700B7903714B7943718B79AF
:1024500083718B68C3718B68C3F30F2303728B7A0C
:1024600043720A26627804F10C01A8190FF014FBDC
:102470006378B4F80C213344981CEA545A1CB4F81D
:102480000C1192B2090AA954A278D20780B20ED5D3
:1024900004F58872054404F58E7452F8041B45F85F
:1024A000041BA242F9D112782A700F3398B270BD82
:1024B00000238B700B7983704B79C3708B79037118
:1024C0008B6843710626CDE738B54A78352A0D4624
:1024D000044601F10C010AD80FF0DEFA68780021F9
:1024E000C0F136022044BDE838400FF0F7BC40355B
:1024F00051F8043B40F8043BA942F9D10B88038012
:1025000038BD38B54A781B2A0C46054601F10C0146
:102510000AD80FF0C1FA60780021C0F11C022844EB
:10252000BDE838400FF0DABC283451F8043B45F8D8
:10253000043BA142F9D138BD38B54A78082A0D4686
:10254000044601F10C010AD80FF0A6FA68780021C0
:10255000C0F109022044BDE838400FF0BFBCEB6871
:1025600003604B6843600B7A037238BD38B54A7814
:10257000072A0C46054601F10C010AD80FF08CFA27
:1025800060780021C0F108022844BDE838400FF00F
:10259000A5BCE36803604B68436038BD08B52C22D6
:1025A000034800210FF09AFC024B00221A7008BD6C
:1025B000F40D0020F40500202DE9F041137803709C
:1025C00092F8018080F80180FD2B04460F461546E5
:1025D00054D193788370D378C3701379037153798E
:1025E0004371937983716B7A127A1B0403EB022394
:1025F000EA79134423F07F430A26A26863F31702A3
:10260000A260A919424604F10C000FF045FA7A7B4A
:10261000904507D208F10C00A2EB080200212044EB
:102620000FF05CFC63781E44AB195A78AB5D03EB8A
:102630000223A4F80C31A378DB070ED5023615FA75
:1026400086F304F5887203F10C0153F8040B42F889
:10265000040B8B42F9D11B781370BB7A84F82131BB
:10266000FB7A84F822313B7B84F823317B7B84F82E
:1026700024313B7884F82031BDE8F0810023438089
:1026800093780371D3784371137983715379062654
:10269000B3E738B54A78132A0C46054601F10C0118
:1026A0000AD80FF0F9F960780021C0F1140228442B
:1026B000BDE838400FF012BC203451F8043B45F817
:1026C000043BA142F9D138BD2DE9F04F0C465188A9
:1026D000B1F58C7F054685B04FF0000010D3107027
:1026E000D91CC9B2012995BF012100235180538013
:1026F0009CBF237011700020287005B0BDE8F08FDA
:1027000016780E2E00F2908001A757F826F000BF31
:10271000E12600084D2700087527000893270008C8
:102720002928000829280008292800082928000845
:102730002928000829280008292800082928000835
:102740002928000829280008A5270008481C5080CF
:1027500063542178FD299BB206D10C330A21D38022
:10276000918002231370C6E708330621D38091803D
:102770000E23F7E7481C50806354D80742BFD18826
:102780000D31D1800020012B8CBF03460323137031
:10279000B2E7481C508000208342635414BF0346B4
:1027A0000E23F4E7481C508063545388D1888B4231
:1027B00032D300235380137002232B706980237857
:1027C000FD2B37D163792B72A3796B72637A227AEE
:1027D0001B0403EB0223E27913446B60637803F17B
:1027E0000C026A80A278D10701D519336B800026CC
:1027F0006968DFF800816E8140F285120C20B31801
:1028000001335B0800FB03F758F80770B9421AD28E
:102810005A1EB242F3D818E092889A423FF66BAF44
:1028200001232B70002068E7107050809080D080CA
:102830002870F7E7E3782B7223796B7263796B600A
:1028400063780833D2E71E46E3D80C27774358F85D
:102850000730994227D123782046FD2B10F801BF7D
:102860000CBF4FF00A094FF0060909EB0B03591E84
:1028700089B247440193FFF729FD97F804A0ADF80A
:102880000E0051460DF10E00FFF7FCFC019BE21813
:10289000E35C527803EB0223BDF80E209BB29A4210
:1028A00009D0052000E003202870023801288CBFE1
:1028B0000020012021E7BB79DA0706D5FA79934594
:1028C00082BF04EB09018A5CAA729B0709D50C231D
:1028D00003FB068362781B7A9A4282BF4C44E35C16
:1028E000EB720C2303FB068385F80CA05B796B73FA
:1028F0000220DAE7B84D0108084B5B6A4FF040222E
:1029000002F5806353E8003F43F0200302F5806046
:1029100040E800310029F3D1704700BF0044004077
:102920000A4A0B4B12680B49A3FB02323220920C6D
:1029300000FB02F2084B486802F5FA72A3FB023270
:1029400092094B681B1A9A42FBD8704784020020F8
:1029500083DE1B43001000E0D34D621008B5FFF783
:10296000DFFF024B4FF480529A6108BD000400481B
:10297000024B4FF480529A62FFF7D2BF0004004826
:1029800030B587B0034601AC00F1100518685968EE
:10299000224603C20833AB421446F7D10024094D46
:1029A0008DF81440A96801A8FDF7CAFB10B920B240
:1029B00007B030BD0134302C05F10C05F2D14FF0D9
:1029C000FF30F5E72C00002002780A4B90F801C098
:1029D0008178D243D2B29A5C82EA0C0290F803C0AA
:1029E0009A5C4A40995C027981EA0C01595C4A4040
:1029F000985C7047B84C0108028810B58488531C55
:102A0000234044889C421EBF12189171038010BD60
:102A1000411A88B20B0444BF00F5007080B27047C1
:102A200070B5104C0025234626782EB166788E426C
:102A300002D1A67896420BD001350C2D04F1040486
:102A4000F2D1002413F824501DB101340C2CF9D11B
:102A500070BD012503F8245003EB8403D87059702E
:102A60009A70F5E7F90500202DE9F8430B460D793A
:102A70005A7A9E7ADF7A204B097A1B5CDB07044680
:102A800000D50DB9FFF7CCFF00231C491A48984622
:102A90004FF0010E9C4201F8018B25D02DB9027830
:102AA000920702D501F801EC1EE0154A4FF0000C28
:102AB00092F80090B9F1000F0FD092F80390994569
:102AC0000BD1002EEED092F80190B14505D1002F28
:102AD000E8D092F80290B945E4D00CF1010CBCF1B9
:102AE0000C0F02F10402E3D10133DBB2042B00F13D
:102AF0000100CFD1BDE8F88329060020F5050020AC
:102B0000F905002007B503688DF807101B6901223D
:102B10000DF10701984703B05DF804FBF0B50546D9
:102B2000FD2305F80C3B85B004468DF8043090F881
:102B3000243103F10C020244012B42D800266370B9
:102B400066808DF805308B7A23718DF808308B7A8A
:102B5000ADF8066001338B7263798DF80930A37983
:102B60008DF80A30A368C3F317031A128DF80B30DF
:102B700009211B140DF105008DF80D308DF80C2086
:102B8000FFF7A4FB6778ADF802003A4629460DF13D
:102B90000200FFF783FB94F82311FFF773FB94F80F
:102BA0002421BDF80230A4F80C31974210D207F16D
:102BB0000C00D21B3146204405B0BDE8F0400FF0B8
:102BC0008DB912F8010D0028B8D1013BDBB2B3E793
:102BD00005B0F0BD70477047044AD2F8903023F436
:102BE0000043C2F89030FFF79BBE00BF00040058BE
:102BF00008B5FFF795FE044AD2F8903043F400433D
:102C0000C2F8903008BD00BF00040058074B084AC6
:102C10005B6A02F5006353E8003F43F0200302F5CE
:102C2000006040E800310029F3D1704700380140CE
:102C30000030014070B5044608460D46FDF78AFA9B
:102C4000236882B2294620461B69BDE870401847B8
:102C500010B5484B5A6A037A044692B263B183892D
:102C6000D31A9BB2B3F5FA7F84BF00230372837A31
:102C70004F2B84BF00230372237AA281082B21D813
:102C8000DFE803F005202020202025323D00EE293A
:102C9000B4F8C00401D0C82915D10123A3720623BA
:102CA0006175237270B1012809D00BF027FC014631
:102CB0003148FFF7BFFF31492F48FFF7BBFF002323
:102CC000A4F8C03410BD0130A4F8C004FAE73D29CF
:102CD0009FBFA37A5A1C1B19A2728FBF002359757C
:102CE000617207232372EDE7A27A531C2244DBB200
:102CF000A3725175627A9A42E4D20823F2E7A37A6A
:102D00005A1C2344A2725975E37D162B04D101236A
:102D100084F865300923E5E76369194A03F0FF2366
:102D2000934203D1012384F86730F3E7154A9342B5
:102D30001CD1A37E102B19D1E37E022B08D0052BCA
:102D40000DD0012BE6D1227EEE2A08BF84F86A302E
:102D5000237EEE2BDED1012384F86B30DAE70123EA
:102D600084F86830237F84F86930D3E7012384F83E
:102D70006630CFE7004401402800002044310108BC
:102D800000C8002800C8003208B5FFF753FF08BD8F
:102D9000B0F1904F02D10120FFF72CBA084B9842B6
:102DA00005D003F58063984203D10420F4E70220A4
:102DB000F2E7044B984201D18020EDE7704700BF55
:102DC00000040048001C00480C4B984203D14FF40B
:102DD0000060FFF727BAB0F1804F05D0084B98424A
:102DE00005D14FF40030F4E70120FFF70FBA054B8F
:102DF000984202D14FF48020EBE77047002C01404D
:102E000000440140004801402DE9F04387B00E46E0
:102E1000054614460021142201A89DF838809DF82B
:102E20003C901F460FF05AF800960B2C07D8DFE8AD
:102E300004F007070A121414141616161A1CFEE7DB
:102E40000323019301E002230493032F11D8DFE849
:102E500007F0111321110123F6E70123F1E7012304
:102E600001930393F1E70223EBE70223019301238C
:102E7000F7E7FEE702230293B8F1100F0CD8DFE862
:102E800008F02D2D0C11131517191B1D1F212325BB
:102E900027292B000123EEE7FEE7012305930223F8
:102EA00001931EE00223F9E70323F7E70423F5E784
:102EB0000523F3E70623F1E70723EFE70823EDE710
:102EC0000923EBE70A23E9E70B23E7E70C23E5E710
:102ED0000D23E3E70E23E1E70F23DFE7B8F1000F4F
:102EE000DDD1B9F1000F02D02846FFF751FF053CB4
:102EF000042C05D8DFE804F0030B04030B00AE62DA
:102F0000694628460CF01CFE07B0BDE8F083AE61B0
:102F1000F6E713B54FF0010C0024CDE9004CFFF7A4
:102F200073FF02B010BD000030B587B00023154616
:102F30000446ADF80630FFF747FF042D04D8DFE85C
:102F400005F02E3204363F00FEE71E4B1E4A1B687A
:102F5000B3FBF2F39BB20022CDE90221013B01A9B0
:102F60002046ADF80430049205920DF039F823683C
:102F700023F080032360A36823F4A03323F0070326
:102F8000A360636823F070036360636823F47003D5
:102F90006360A36823F08003A36007B030BD094BD2
:102FA0000A4A1B68D4E7074B094A1B68D0E7054B60
:102FB000064A1B68B3FBF2F303EB83035B00C9E72C
:102FC0000123C8E78402002080A8120140420F00BC
:102FD00000127A0010B50446FFF7A6FF236843F0FD
:102FE0000103236010BD00224FF0FF31FFF7F2BF55
:102FF000204B10B5204C5B6823600BF007FF4FF0AF
:1030000090400CF05FFD1D480CF05CFD1C480CF07E
:1030100059FD1C480DF072F91B480DF06FF91B4863
:103020000CF080FF0CF0EAFE4FF0E02200234FF09E
:10303000B0411361536193618A6822F0030242F048
:1030400001028A6072B64FF0FF319A0002F16042CD
:1030500002F561420133082BC2F88010C2F88011DA
:10306000F3D162B6034B1B6883F308882368984743
:10307000FEE700BF0000FF1FF0050020000400482D
:103080000008004800380140004400400030014082
:103090000749084A881AEFF30883521A1A44013A7A
:1030A000013B984288BF0022AA210EF017BF00BF43
:1030B0000000012000040000044B5A69586910F018
:1030C000020018BFC2F38000704700BF0004005820
:1030D0004FF0B042D2F8943043F40043C2F8943039
:1030E0004FF47A7300BF013B9BB2002BFAD14FF033
:1030F000B043D3F8942022F40042C3F89420D3F8CC
:1031000094205204FBD40C4BD3F8902022F40042BC
:10311000C3F890204FF47A7200BF013A92B2002AAD
:10312000FAD1D3F8902042F40042C3F890204FF433
:1031300000629A61704700BF0004005810B5032375
:10314000052240214FF09040FFF7E3FEBDE810401C
:103150000323052280214FF09040FFF7DABE08B527
:10316000FFF7AAFF003818BF012008BD08B5FFF718
:10317000F6FF00B908BD00BFF9E74FF09043802289
:103180009A6240229A6170474FF0904340229A62BF
:1031900080229A6170470000024B4FF480225A60EF
:1031A000704700BF00E100E010B5134C0323204638
:1031B00006220421FFF7ADFE1048032302224FF43C
:1031C0000051FFF7A6FE03231A464FF400414FF0CB
:1031D0009040FFF79EFE2046032305224FF48071A6
:1031E000FFF797FEBDE810400323052201214FF0B1
:1031F0009040FFF78EBE00BF000400480008004862
:103200004FF090431869C0F3C030704708B5FFF71E
:10321000F7FF00B908BD00BFF9E74FF09043012266
:103220009A624FF48072C3F818247047044B4FF42D
:1032300080729A624FF0904301229A61704700BFFA
:103240000004004816484169F02321F0F00193FA88
:10325000A3F3B3FA83F3022203F00F0302FA03F39A
:103260000B4343610F4BD3F8842022F40052C3F880
:103270008420D3F8802022F40052C3F880205A68BA
:1032800022F400525A601A6842F400521A60064B47
:10329000D02283F829234FF400725A60704700BF90
:1032A000000001400008005800E100E0054B4FF429
:1032B0000052DA60D3F8802042F40052C3F8802034
:1032C000704700BF000800580023032202214FF07E
:1032D0009040FFF71EBE4FF09043186980F0020047
:1032E000C0F340007047000010B5074C0023204693
:1032F00005221021FFF70DFE20460023BDE81040F7
:1033000005220821FFF705BE0004004805494B6966
:103310001A04DB4302F4801203F0100313438B61A1
:10332000704700BF0004004805494B691A04DB439D
:1033300002F4002203F0080313438B61704700BFBF
:103340000004004808B5032200234FF090400221FA
:10335000FFF7DFFD102300204FF09042116989072D
:1033600058BF013003F1FF3358BFC0B213F0FF0361
:10337000F4D108288CBF0020012008BD0C4BD3F8E5
:10338000FC2022F08072C3F8FC20D3F8FC2042F02D
:103390008072C3F8FC20A3F55D431A6822F0010295
:1033A0001A601A6842F001021A6000225A607047DF
:1033B00000ED00E00649074B074A1B68B3FBF2F338
:1033C00010B54C6843434A68121B9A42FBD310BDA8
:1033D000001000E08402002040420F001FB50223CD
:1033E000CDE9013101A80123694603930BF078FE72
:1033F00000280CBF0420052005B05DF804FB014641
:1034000008B501200BF026FE00280CBF0420052083
:1034100008BD08B5FFF7E2FF031F5842584108BD39
:1034200008B5FFF7ECFF031F5842584108BD0000E4
:103430002DE9F047294B2A4D01280E46144629490B
:10344000294A0FBF79277827AA461D4606BF884616
:103450009A4690460BF0B2FD39462846FFF7D9FF51
:1034600028B900240BF0BCFD2046BDE8F087002EF3
:1034700008BF4FF4FC64073424F0070405F110077B
:10348000B1463444AAEB050AA1450BD14FF01132E5
:103490004FF0FF332846FFF7C3FF041E18BF012477
:1034A000A400DFE76EB90AEB0703D3E90023B3F109
:1034B000FF3F08BFB2F1FF3F06D1083709F1080905
:1034C000E2E7D9E90023F2E7B84505D93846FFF726
:1034D000A7FF0028F1D1C4E70324C3E700C0030815
:1034E00000C80308FFCF0308FFC7030810B50BF09F
:1034F00065FD09487821FFF78CFF044638B107487D
:103500007921FFF786FF041E18BF0124A4000BF0E9
:1035100067FD204610BD00BF00C0030800C80308B7
:1035200030B5084D002340F2EF749AB2914201D8B1
:10353000042030BDA34203D05A5DC2540133F4E7E6
:103540000320F6E710C0030838B504460D4672B6EE
:103550000A4601460020FFF76BFF62B6042806D139
:1035600072B601202A462146FFF762FF62B638BDD7
:1035700038B5124B1C68D3F80058B4F1113F09D18B
:10358000B5F1113F17D0002211460120BDE83840A7
:10359000FFF74EBFB5F1113F03D10022114610468F
:1035A000F4E7FFF7A3FF042804D12C4001340CBF3B
:1035B0000220012038BD0420FCE700BF00C0030842
:1035C000044B9A689107FCD518739A68D207FCD50A
:1035D000187B70470000015870B50C46451E8E18C8
:1035E000B44200D170BD15F8010FFFF7E9FF04F8F0
:1035F000010BF5E7084611461A46FFF7EDBF00003C
:1036000070B5064E04464518A54200D170BD30780D
:10361000FFF7D6FF04F8010BF6E700BF6C020020AD
:1036200008461146FFF7ECBF38B504464518AC42D2
:1036300000D138BD14F8010BFFF7C2FFF7E70846C9
:103640001146FFF7F1BF000010B58CB02822002111
:1036500002A80EF043FC4FF0B0431C4C5A6E42F0EF
:1036600001025A665B6E03F001030193019BFFF7B1
:103670002FFD082208924FF48272002303924FF428
:103680000072CDE90533CDE9093302930792072390
:103690004FF4E06202A920460B9304920CF066FC02
:1036A000636823F010036360636823F008036360BA
:1036B000236843F040032360A3689B07FCD5237B6A
:1036C000034BFF221A700CB010BD00BF0000015860
:1036D0006C020020034B18739A68D207FCD5187B44
:1036E000704700BF0030014038B5441E8D18A94214
:1036F00000D138BD14F8010FFFF7ECFF01F8010B02
:10370000F5E7084611461A46FFF7EEBF38B5064DF5
:1037100004460144A14200D138BD2878FFF7DAFF02
:1037200004F8010BF6E700BF6D02002008461146C1
:10373000FFF7ECBF10B5014404468C4200D110BD28
:1037400014F8010BFFF7C6FFF7E708461146FFF72D
:10375000F1BF000070B58CB02E4C2822002102A8C9
:103760000EF0BCFB4FF48050FEF75CFD01460323D6
:10377000204606224FF48056FFF7CBFB0125A661B9
:103780000624CDE9004503230A2220214FF0904072
:10379000FFF73AFBCDE9004503230A2231464FF0FB
:1037A0009040FFF731FB03231A46CDE900454FF463
:1037B00000614FF09040FFF727FB0822164C08925B
:1037C0004FF48272002303924FF40072CDE9053367
:1037D000CDE909330293079207234FF4E06202A96F
:1037E00020460B9304920CF0C1FB636823F0100396
:1037F0006360636823F008036360236843F0400359
:103800002360A3689B07FCD5237B044BFF221A701F
:103810000CB070BD00040048003001406D02002073
:103820001B4B10B4DC69A00611D51A6891060ED5A1
:10383000184819495A6A038809880133C3F30A03EF
:1038400089B299421FBF1549D2B2CA5403801048A9
:103850001F232206036215D503681B0612D5104BE1
:10386000104A1988138889B29BB299420CD01388E8
:103870000133C3F30803138013880B4A9BB2D35C54
:10388000DBB2836210BC704710BCFEF7F2BC00BF15
:10389000003801405A41002058410020583900208A
:1038A0005E4300205C4300205C4100200A490B4A33
:1038B00008B50B8812880133C3F3080392B29A4209
:1038C00007D0074AD05407480B80FEF7B7FC012009
:1038D00008BD0020FCE700BF5E4300205C430020E1
:1038E0005C4100200038014038B504464518AC4220
:1038F00000D138BD14F8010BFFF7D8FFF7E70846F1
:103900001146FFF7F1BF0000054B064A1B881088DF
:103910000133C3F3080380B2181A18BF012070479F
:103920005E4300205C43002008B5FFF7EDFFB0FACE
:1039300080F0400908BD0000054B064A1B8812882C
:103940009B1A98B21B0444BF00F5006080B2704718
:103950005A41002058410020FFF7EEBF0848094AAD
:103960000188138889B29BB29942F9D01388013338
:10397000C3F30A0313801388034A9BB2D05C7047D9
:103980005A4100205841002058390020FFF7E6BF77
:1039900070B588B00C4606461546002120226846C0
:1039A0000EF09CFA231E18BF01231B03CDE902353C
:1039B00069460C2303480196049405930CF0C2FC5D
:1039C00008B070BD0038014010B5064C236823F0E4
:1039D00001032360FFF7DCFF236843F0010323604A
:1039E00010BD00BF00380140002208461146FFF715
:1039F000EBBF000073B5304C236823F00103236054
:103A0000082501264FF48040FEF70CFC4021CDE94B
:103A100000562A4803230A22FFF7F6F903231A4621
:103A2000CDE9005625488021FFF7EEF90022114626
:103A30004FF4E130FFF7ACFF636823F49043636019
:103A4000A36823F02A03A3601D4BB02283F824232C
:103A500010225A602046FEF70CFCFEF701FC4023C2
:103A60002362184B00211980174B1980FEF7EFFBDA
:103A7000164B1980164B1980636823F4006363604A
:103A8000A36823F00803A360636823F480436360A2
:103A9000A36823F02203A360A36843F48053A360C8
:103AA000236833432360E3699A02FCD5E3695B0230
:103AB000F9D502B070BD00BF0038014000040048D5
:103AC00000E100E05C4300205E43002058410020FC
:103AD0005A41002008B5FFF78DFFBDE80840FFF709
:103AE00095B8FFF7F7BF0000084BDA6892070CD4CF
:103AF000074A012111805A6A10325A636FF002029C
:103B00001A61DA6842F00202DA6070470048014048
:103B100008320020324A13699B0710B526D56FF092
:103B2000020313612F4B1B88516B11FA83F353630C
:103B30002D4B198889B2002946D01988013189B2E4
:103B40001980198889B2022911D84FF090434FF497
:103B500000729A62254A13880133C3F30803138065
:103B60001388234A9BB2D35C224A138010BD198864
:103B700089B20A290FD81F4B1A8812F0010F4FF093
:103B800090424FF4007114BF916191621A88C2F3A0
:103B90004E021A80EAE7198889B20B294FF090414A
:103BA0004FF40070886109D1134A11880F4A1288B6
:103BB00089B292B29142D9D00122EAE7D16821F0CC
:103BC0000201D1600022E4E74FF090404FF400740E
:103BD0008461D06820F00200D0601980C6E700BF81
:103BE0000048014004320020083200200C3400203C
:103BF0000A3200200A3400200E34002009490A4A03
:103C000008B50B8812880133C3F3080392B29A42B5
:103C100006D0064AD0540B80FFF766FF012008BD8E
:103C20000020FCE70E3400200C3400200A32002073
:103C300038B504464518AC4200D138BD14F8010B24
:103C4000FFF7DCFFF7E708461146FFF7F1BF00007A
:103C5000B0F5614F0D4A0E4B0CD0B0F5E13F10D0DE
:103C6000B0F5165F0DD172B640F24131118040F2CD
:103C7000E24203E072B68B211180D0221A8062B634
:103C8000704772B6452111805422F7E704320020B4
:103C90000632002010B5032388B005224FF40071CE
:103CA0004FF09040FFF735F9194C4FF090434FF427
:103CB00000729A61204601224FF0FF31FFF78AF926
:103CC0002022002168460EF009F96A4601212046AB
:103CD0000CF0C0F90F4AD2F8183823F00403C2F8E8
:103CE00018386FF0020323610B4B902283F81D23D9
:103CF0004FF000521A604FF4E130FFF7A9FF074A76
:103D000000231380064A1380064A138008B010BDB2
:103D1000004801400040014000E100E00C34002078
:103D20000E34002008320020FFF7B4BF024B1A689F
:103D3000024B1A60704700BF90430020E00B002048
:103D4000054A064B1968136899421DBF01330120CB
:103D500013600020704700BFE00B0020904300205C
:103D6000034A044B11681B780B441360704700BF73
:103D70009043002088020020014B1868704700BF64
:103D8000904300200148FFF72EB900BF00440140D6
:103D9000014B586A80B270470044014008B5FFF7F4
:103DA000F1FFBDE80840FFF7C1BF0000044BDA682F
:103DB00022F00202DA606FF002021A61704700BF5F
:103DC00000440140002208B50260FFF7EFFF044BFA
:103DD000F02283F81C234FF080521A6008BD00BF08
:103DE00000E100E008B5036853B1FFF7DFFF054BC2
:103DF0005A6A114489B25963DA6842F00202DA6001
:103E000008BD00BF00440140074B1A69920709D55D
:103E10006FF002021A61DA6822F00202DA60034BE4
:103E20001B681847704700BF004401404C35002014
:103E30002DE9F0411D4CDFF87880C0220021201DC3
:103E40000EF04CF81623062563800F23A3802A4624
:103E50004323414660192580FDF788FC154B052654
:103E6000C4E913363F231F27A4F854302A464323BE
:103E7000414604F15600A4F84A70FDF777FC4FF470
:103E80008033C4F89C300C49A4F89A70002304F1E4
:103E9000AC00C4E9293384F8A0300DF0CFFD7F23B6
:103EA00084F8C13084F8C260BDE8F0812C050020A0
:103EB000444501080F0003009731010870B5094E11
:103EC00005460C46415C30460DF0CFFD034628B157
:103ED000831B0133DBB2282B28BF0023F35C2B5557
:103EE00070BD00BF8C4C010870B50C4611460646EB
:103EF0000DF0A4FD44B10025052130460135FFF742
:103F0000DDFFEBB29C42F7D870BD000073B50546EB
:103F100005F11106214C224A014636016846FFF799
:103F2000E3FFB01C694620440DF088FD264404EBF5
:103F30000511002302227272A1F81A31142101FB2B
:103F400005400425012180F850504FF4807640F25E
:103F50000115A0F84A20C164A0F8521080F855104D
:103F6000A0F85660A0F8585040F2032084F834308E
:103F7000E284A662A08584F82E1084F8302084F8AC
:103F80003330C4F83A30C4F83E30C4F84230A4F8B4
:103F90004650A4F8485002B070BD00BF7003002026
:103FA00052310108F7B50546B14CB24A05F1110688
:103FB000014637016846FFF797FFB81C274469465A
:103FC0002044FDF7F5FA7B7AAB4A072B88BF022322
:103FD00004EB061088BF7B721188437A41FA03F321
:103FE000DF070FD40223437261B14807C1F3800396
:103FF00008D441FA03F7FF07D8B240F1D88104EBA7
:104000000613587204EB05112B0191F81A010528CB
:1040100002D9002081F81A01E718508897F81A1180
:1040200040FA01F1C90711D4012187F81A1168B1CA
:104030008707C0F3400109D440FA01FC1CF0010FCE
:10404000CFB200F0B981E11881F81A71E11891F846
:104050001B01032802D9002081F81B0104EB06167E
:10406000717A012903D9042901D000219180E61831
:10407000908896F81B1140FA01F111F001010ED160
:1040800086F81B1158B110F0010108D140FA01F770
:10409000FF07CEB240F19581234483F81B611423BE
:1040A00003FB054191F84A00052802D9022081F856
:1040B0004A0003FB054393F84B10042902D9002161
:1040C00083F84B10142303FB0543B2F84A1093F80E
:1040D0004B0041FA00F0C00712D4012083F84B00D6
:1040E00071B18807C1F340030AD441FA03F6F70718
:1040F000D8B240F16B81142303FB054383F84B00D6
:10410000142303FB054393F84C10032902D9012122
:1041100083F84C10142000FB0540B2F84C1090F8C6
:104120004C3041FA03F313F0010310D180F84C3006
:1041300069B111F001030AD141FA03F6F607D8B2CA
:1041400040F14981142303FB054383F84C001423F9
:1041500003FB054393F84E10012902D9002183F88F
:104160004E10142000FB0540B2F84E1090F84E306F
:1041700041FA03F313F0010310D180F84E3069B116
:1041800011F001030AD141FA03F6F707D8B240F162
:104190002781142303FB054383F84E00142303FBFC
:1041A000054393F84F10022902D9002183F84F10DC
:1041B000142000FB0540B2F8503090F84F1043FA3D
:1041C00001F111F0010110D180F84F106BB113F023
:1041D00001010AD143FA01F6F607C8B240F10581A0
:1041E000142101FB054181F84F00142101FB05401A
:1041F00090F84D60022E02D9002680F84D6001FB38
:10420000054191F85000052802D9042081F850009A
:10421000142101FB054090F85260012E02D90126BD
:1042200080F8526001FB054191F85500012802D940
:10423000012081F85500142101FB054191F853003C
:10424000022802D9002081F85300142606FB0546F7
:10425000B2F8520096F8531040FA01F111F0010142
:1042600017D186F85310A0B110F0010111D105E06B
:1042700070030020523101082C05002040FA01F79C
:10428000FF07CEB240F1B680142101FB054181F851
:104290005360142101FB054090F856600C2E02D9A2
:1042A000002680F8566001FB054191F84C0001287A
:1042B00009D191F84F60022E05D1DF0740F19F80B0
:1042C000002381F84F30142303FB0543012183F8B9
:1042D000571040F20111A3F8581094F82630052B1E
:1042E00002D9022384F8263094F82730042B02D90F
:1042F000002384F82730B2F89A0094F8273040FA67
:1043000003F313F0010F8A4B0ED1012184F827101B
:1043100050B18607C0F3400106D440FA01F7FF0709
:10432000CEB271D583F8276094F82810022902D9FB
:10433000002184F8281094F82910022902D90121BB
:1043400084F82910B2F89C1094F8292041FA02F25E
:1043500012F001020CD184F8292049B111F00102B8
:1043600006D141FA02F6F607D0B251D583F82900FA
:1043700094F82A200C2A02D9002284F82A2093F8E3
:1043800032200C2A02D9002283F8322093F82B2005
:10439000042A02D9002283F82B2000226549104606
:1043A00011F9014F14F1780F36DA087036E0013355
:1043B000102B7FF41EAE25E6013110297FF43CAEB0
:1043C00044E6013110297FF461AE68E60133102B19
:1043D0007FF48BAE94E60133102B7FF4ADAEB6E6DE
:1043E0000133102B7FF4CFAED8E6013110297FF4D2
:1043F000F1AEFAE6013110297FF440AF49E713F03E
:10440000020318BF03465CE70131102985D18BE711
:104410000132102AA5D1ABE7782CC6DC0132D2B22A
:104420000C2ABDD144490022012011F8014F01326C
:10443000022CD2B288BF0870042AF6D193F8342037
:10444000012A02D9002283F834203C4AB2F89E1097
:1044500093F8342041FA02F212F001020CD183F8F1
:10446000342049B111F0010206D141FA02F4E40707
:10447000D0B211D583F8340093F82C20052A02D944
:10448000032283F82C2093F82D20032A08D80AD180
:10449000002283F8342006E00132102AE5D1EBE750
:1044A000022283F82D2093F82E20022A02D901221D
:1044B00083F82E2093F83020022A02D9022283F8B2
:1044C000302093F833200C2A02D9002283F83320BD
:1044D00093F83520042A02D9002283F835201422CB
:1044E00002FB053191F85A00012802D9002081F819
:1044F0005A0002FB0532FF2103EB05154FF6FF7052
:1045000082F8511082F8541083F82F1083F831107C
:104510004FF0FF31C5F81C11A5F8200119629984EC
:1045200082F85B00A2F85C10D986198703B0F0BD51
:1045300070030020A9030020B50300202C050020F3
:10454000034670B50846052B04D8DFE803F01D04C8
:1045500021191D21FEE720261F250F22174CA370CD
:104560002277013B0122A4F84860A4F84A50A276C1
:10457000A273042B10D8DFE803F010181B1B1800DF
:1045800009266F250722E9E7142632250A22E5E7E6
:10459000352613251922E1E7FEE700232371237452
:1045A000FDF76CFB6073607670BD22712274F7E7D3
:1045B000002323712374A376A373F1E7140300206F
:1045C000042804D8DFE800F0040F141B2500FEE7E0
:1045D000154B002283F8512040F20112A3F852201B
:1045E000A3F854207047104B012283F85120F5E7BF
:1045F0000D4B022283F851204FF48072EEE70A4BF4
:10460000032283F8512040F20112A3F85220012224
:10461000E6E7054B042283F8512040F20112A3F88B
:1046200052204FF48072DBE7140300202DE9F043A1
:10463000944D954C00F1110805EB081702378BB02B
:1046400006463846FCF7D0FF042100906846FDF787
:104650003DFE05EB0613E08393F81B314FEA061984
:104660002BB103EB031303EB03231844E08305EBA7
:1046700008135B7A062B40F0B680E38B03F5B54355
:104680002533E383142303FB065305EB081893F843
:104690004B00FFF795FF98F8091061708B1FA94434
:1046A000012B8CBF0023012399F81A0184F856309E
:1046B000FFF746FF99F81B21E18B009BE1806182A7
:1046C000A36063612AB14FF0113000FB0233A36095
:1046D0006361142303FB0653616293F84A006B4B3A
:1046E00084F8292013F9203023732376002384F8DB
:1046F0002A30637B23B93846FCF796FF84F82A00FA
:104700006078FDF7BBFA624A84F82800128802F04C
:104710000101970748BF41F00201A18503465007F8
:1047200042BFA18D41F00401A185110742BFA18DB7
:1047300041F01001A185D70642BFA18D41F02001B3
:10474000A185900642BFA28D42F00802A285514A7F
:1047500001AF02F1200E10685168BC46ACE80300BE
:10476000083272456746F6D11068CCF80000A2788E
:10477000494F06210AA801FB0303134413F8248CB4
:1047800084F8208017E90F0087E80F0040F2E24329
:104790004046A4F84C30FCF7E3F94FF07F51FCF7AA
:1047A00033FAFCF733FCB4F848204FF47A73B3FBC8
:1047B000F2F3A4F84030142303FB06534FEA5808E1
:1047C000B8F1050F93F85030C0B238BF4FF005086C
:1047D000A4F84E0084F85080052B33D8DFE803F0AE
:1047E0000B382C2F3235072B7FF44CAFE38BA3F51E
:1047F000B543263B45E74FF416536364002384F822
:10480000573084F85930142303FB065696F84C3081
:10481000032B03D096F84F20022A02D1012284F8FC
:104820005720591E4A424A4184F8582094F857208C
:104830008AB1012B0FD1FEE74FF41643DDE74FF4A9
:104840006143DAE74FF4E133D7E74FF46133D4E75C
:104850004FF49643D1E72178142000FB015595F8D9
:104860004C10022907D1012184F8591022B194F883
:1048700059301BB1FEE70AB9012BF8D00BB0BDE8E7
:10488000F08300BF7003002014030020444501089A
:104890002C050020742F01084403002002484FF427
:1048A000DE72FF210DF01ABB7003002002484FF4A6
:1048B000DE71FEF749BE00BF7003002002484FF4CE
:1048C000DE71FEF72DBE00BF7003002008B5FFF7B4
:1048D000F5FF034B1878BDE80840FFF763BB00BF46
:1048E0001403002038B5FFF7D9FFFEF741FE042876
:1048F0000CD0FFF7D3FFFEF73BFE042803D1FFF7F0
:10490000DDFF042806D0FFF7C9FF03E0FFF7D6FF5D
:104910000428EED12F4930482F4C10220DF0CAF850
:1049200038B12E49102220460DF0C4F808B1FFF727
:10493000B5FFA38AB3F5215F28D008D30025E8B2DC
:104940000135FFF7E3FA0A2DF9D10023E3774FF49D
:104950002153A382012522691E491F4842F6A10363
:104960009A424FF010021CBF236101250DF0A2F8FE
:1049700070B1184918481022FCF776FF18491948F9
:104980000822FCF771FFFFF791FF03E00025E2E743
:10499000002DF8D1E37F104A092B84BF0023E37771
:1049A000E17F1420002300FB0144013394F84C0004
:1049B00082F84C000A2B02F11402F6D10A4C217045
:1049C000FFF736FA2078FFF7EDFA2078BDE8384097
:1049D000FFF72CBE59310108700300206A3101082D
:1049E0007B31010822050020140300200129F7B5BE
:1049F000054600D9FEE70B4E06EB01131C460F01DE
:104A00006278F15D03619B7809F0F2FEE37901932E
:104A1000A379009322796379E178284609F00FFFA2
:104A200003B0F0BDF4620108836810B5044603B911
:104A3000FEE70A781A70002109F09CFE4FF47A70A4
:104A4000FEF7B8FC2046012109F0ABFEA368204622
:104A50001978FFF7CBFF10BD38B5836804466BB1FA
:104A6000024652F8183BDD6900F11903A847217E80
:104A700020460222BDE8384009F043BF38BD00009F
:104A800070B58160897A86B0044601B1012109F0D0
:104A900088FE20460AF007F8204609F0DFFF217B58
:104AA000FF2903D0FA22204609F0E4FFA3685B7ACD
:104AB000013B042B04D8DFE803F0043E3E414100F3
:104AC000FEE7E922E12120460AF012F80121204602
:104AD00009F0A1FF9621204609F0DEFF382120468B
:104AE00009F0F0FF204609F0F5FFA368204693F98E
:104AF0000810FFF7B1FFA3689D7A15B31978204617
:104B0000FFF774FF00221146204609F064FE0023DF
:104B1000009340F2032220464FF6FF7109F0BEFEDB
:104B200020464FF6FF7109F0E0FE204606B0BDE8D2
:104B3000704009F080BFDB22D721C4E76F226B21D0
:104B4000C1E75E880E4B63614CF250330093204600
:104B50000C4919230B2209F0DBFF0123CDE90333B4
:104B60005B23CDE90153102319462046009504220A
:104B70000AF00CF8314620460AF02CF8C2E700BFD4
:104B8000D4620108A086010038B504461D461346CC
:104B90000A46002109F098FD20464FF6FF7109F002
:104BA000A4FEA9012046BDE8384009F0B7BE10B503
:104BB0004FF6FF71044609F098FE20460021BDE83B
:104BC000104009F0C6BE10B5044609F034FF204677
:104BD0004FF6FF71BDE8104009F087BE836873B5DA
:104BE0000D46144623B981220A70237002B070BDAD
:104BF0009E7A0DF10601B6B109F0C6FE94F90030B7
:104C0000002B04DABDF806201344ADF80630BDF9D8
:104C10000630002B0BDB4FF6FF73ADF80630BDF806
:104C200006302B70E2E709F0E6FF2670EFE77F33EE
:104C3000F5DA4FF68173F0E738B58168036891F9CA
:104C40000810DD69044600F1190300F11802A847B5
:104C5000A3689A7A42B11A78012A00D9FEE7044B78
:104C600003EB0213236138BD024B6361FBE700BF16
:104C7000F4620108D462010810B50A4CA06858B16A
:104C8000236923B9636913B92046FFF7D5FFA368E9
:104C90009B7A23B123699868A0F57A7010BD636987
:104CA0009869F9E710340020836810B5044683B191
:104CB00003691BB943690BB9FFF7BEFFA3689B7A71
:104CC0001BB12369B3F90C0010BD6369B3F91C0073
:104CD000FAE71846F8E7836810B5044643B103695C
:104CE0001BB943690BB9FFF7A7FF94F9190010BD71
:104CF0001846FCE708B5836843B9FFF7C1FE7D207D
:104D0000FEF758FBBDE80840FEF746BA08BD08B5F7
:104D1000836843B9FFF7B4FE7D20FEF74BFBBDE887
:104D20000840FEF7C3BA08BD90F8D43053B190F8EC
:104D3000D520074B03EBC20153F83230497953F8C1
:104D400021007047037C00EB8300406B704700BF7D
:104D50001445010838B51546044604EB8504084699
:104D600006490CF06BFE606BFBF7F6FE0449FBF79F
:104D70004BFF0BF061FBFCF749F938BD81310108AD
:104D800000007A3A2DE9F3419DF824701646402F31
:104D900088464FF05B024FF0000104461D4628BFD5
:104DA00040270DF09BF8A24BDB8B23803278A37851
:104DB00062F30203A37071784FEA0818C90001F08A
:104DC000080108F03008DBB223F0380341EA08019B
:104DD0001943A1707279E37862F38203E370B279C8
:104DE000A37962F30003A37196F90200FCF70DFBAF
:104DF000E37800F01F0203F0070343EAC203E37005
:104E00002379C0F3411023F0030303432371F279A4
:104E100062F382032371327ADBB202F01F0203F0E5
:104E2000070343EAC2032371327A6379C2F3401263
:104E300023F0010313436371327962F34703637113
:104E4000727AA37802F0030203F03F0343EA82136D
:104E5000A370727AE378C2F3800223F00103134354
:104E6000E370B27A62F34103E370A37967F3470317
:104E7000A3712B78AA78E3716B7802F01F0203F01C
:104E8000070343EAC20323726A88637AC2F34512B6
:104E900023F03F03134363722A79DBB202F003026B
:104EA00003F03F0343EA82136372AB88C3F38703C3
:104EB000A3726A79E37AC2F3800223F001031343F9
:104EC000E372AA79DBB202F07F0203F0010343EA46
:104ED0004203E372EA88237BC2F3C31223F00F0379
:104EE000134323732B7AAA7AE3736B7A02F01F02BF
:104EF00003F0070343EAC20323746A89637CC2F3A5
:104F0000451223F03F03134363742A7BDBB202F0A4
:104F1000030203F03F0343EA82136374AB89C3F3D4
:104F20008703A3746A7BE37CC2F3800223F001034E
:104F30001343E374AA7BDBB202F07F0203F00103A8
:104F400043EA4203E374EA89237DC2F3C31223F0E8
:104F50000F03134323752B8ADB0863756B8ADB0809
:104F6000A375AB8ADB08E375EB8ADB0823762B8B12
:104F7000B3F5C06F4ED2B3F5007F94BF0023012379
:104F8000227B63F3051222736B8BB3F5C06F43D2A0
:104F9000B3F5007F94BF00230123227B63F38712C4
:104FA0002273AB8BB3F5C06F38D2B3F5007F94BFDB
:104FB00000230123227D63F305122275EB8BB3F5E9
:104FC000C06F2DD2B3F5007F94BF00230123227D53
:104FD00063F38712089B22751F4404F11802BB4239
:104FE00020D14FF6FF7321460DF106000D22ADF8DA
:104FF0000630FDF753F92146BDF8063021F80D3F84
:105000004C22FDF74BF9BDF80630A4F8593002B038
:10501000BDE8F0810223B3E70223BEE70223C9E71C
:105020000223D4E713F8011B02F8011FD7E700BFE2
:105030001403002013B59DF81040CDE90034134649
:105040000A460021FFF79EFE02B010BD13B5144BB7
:105050000288DB8B9A4204461DD1837803F030032B
:10506000102B01D0202B18D1A379A52B15D84FF6E2
:10507000FF730DF1060059222146ADF80630FDF709
:105080000DF9B4F85900BDF80630C01A18BF012058
:10509000800002B010BD0120FBE70220F9E700BF4D
:1050A0001403002030B53A4B027893F8261061F3D0
:1050B0000302027093F8271061F30712027093F84D
:1050C0002810427861F30302427093F8291061F3CB
:1050D0000712427093F82A10827861F303028270FB
:1050E00093F83210827961F30302827193F82B10E6
:1050F000827861F30712827093F83410C27961F3F9
:105100000302C27193F82C10C27861F30302C270DB
:1051100093F82D1061F30712C27093F82E100279E4
:1051200061F303020271427993F8301061F30302D4
:10513000427193F83310827961F30712827193F808
:105140003510C27961F30712C27103F1390100F120
:105150000A0200F1160411F9015F02F8015FA24290
:10516000F9D193F84610C27D61F30102C27593F83C
:10517000471061F38302C27593F8481061F305127A
:10518000C27593F8493063F38712C27530BD00BF12
:10519000700300200278344BC2F3030230B583F869
:1051A00026200278C2F3031283F827204278C2F344
:1051B000030283F828204278C2F3031283F82920DF
:1051C0008278C2F3030283F82A208279C2F30302B1
:1051D00083F832208278C2F3031283F82B20C2793D
:1051E000C2F3030283F83420C278C2F3030283F8C7
:1051F0002C20C278C2F3031283F82D200279C2F367
:10520000030283F82E204279C2F3030283F8302090
:105210008279C2F3031283F83320C279C2F30312F6
:1052200083F8352003F1390100F10A0200F1160478
:1052300012F9015F01F8015FA242F9D1C27DC2F308
:10524000010283F84620C27DC2F3810283F8472021
:10525000C27DC2F3011283F84820C27DC2F38112DD
:1052600083F8492030BD00BF700300201FB58DF8C2
:105270000C300123019303AB009313460A4602212D
:10528000FFF780FD05B05DF804FB0000F0B5234D8D
:10529000012385F8A030044685B0B0F80900FCF77A
:1052A0008AFAC5F8A400B4F80B00FCF784FA1422BB
:1052B000C5F8A80004F10D0105F1AC00FCF7E6FA11
:1052C00094F9213085F8C13094F8223085F8C23045
:1052D00004F12300FFF75EFF6E4604F1410304F181
:1052E000510718685968324603C20833BB42164654
:1052F000F7D10B48432308226946FCF7DFF994F8FD
:105300005130A5F89A3094F85230A5F89C3094F8B2
:105310005330A5F89E3005B0F0BD00BF2C0500202D
:10532000820500202DE9F04792B0DFF890A0244CD0
:105330000DF108084FF0400905460E4617460021BA
:105340004A4640460CF0CAFD9AF8001004EB0111E1
:1053500022230DF10A00062201F589718DF808302B
:10536000FCF782FA9AF8001004EB011205A892F8F3
:105370001A3192F8194103F00F0304F00F0444EAC4
:10538000031492F81B3103F00F0344EA0324BDF821
:10539000103023F47F6323F00F031C43ADF810405B
:1053A000FFF780FECDE900893B46324602212846C0
:1053B000FFF7E8FC12B0BDE8F08700BF140300203F
:1053C00070030020034B04491A68044801FB0200E3
:1053D00018607047300600200D6619005FF36E3CC0
:1053E00038B50B4A0B4D13782C78A34205D1013305
:1053F0002B70287800F0010038BD1470FFF7E2FF31
:105400006FF0004398423CBF01342C70F1E700BFBD
:105410002D0600202E0600200B4A0C4912688260DF
:105420000A6802614A680A4942610A6882614A68F8
:10543000C26100234EF660228380837183810384DE
:1054400002600385704700BF904300208631010849
:105450008F31010810B50E4C94F8523013B994F8FE
:1054600054301BB10B490C48FFF7DEFA94F8533067
:1054700013B994F855301BB108490948FFF7D4FA1D
:105480000548FFF7A0FB0648FFF79DFB10BD00BFD6
:1054900014030020180300201034002024030020EF
:1054A0002C34002038B51D4D0446A87869780528AD
:1054B00028D14FF6FF732385FFF742F86B7801225E
:1054C0009A40238D23EA0203238515491548FFF7E7
:1054D00011FC15491548FFF71AFC1248FFF773FB3A
:1054E0001248FFF770FB0F486FF07F01FFF7B4FA27
:1054F0000E486FF07F01FFF7AFFA2046BDE8384055
:10550000FFF7A8BF002323850220FFF719F86A7868
:1055100001239340228D13439BB2D5E7140300204F
:105520001803002010340020240300202C34002015
:1055300008B590F8203002468BB9FDF7CCFE10B9C3
:1055400082F8210008BD92F8213001335BB2312B83
:1055500082F82130F6DD012382F82030F2E7FDF7F2
:10556000BAFE18B1322382F82130EBE792F82130ED
:10557000013B5BB2002B82F82130D8BF82F82000BB
:10558000E0E70000134B90F820201B68CAB1826846
:105590009B1AB3F57A6F01D9012343710379ABB13B
:1055A0000D4B427B1B781AB1022B1CBF03220273E6
:1055B0009A1E534253414373837953B103230373B8
:1055C00070478360EAE701230371F8E74379002B12
:1055D000F9D1704790430020110700200346007B5B
:1055E000821E012A4FF0000202D893F8201009B958
:1055F0001A7370471046704770B51D4C1D4E054616
:105600005B22002120460CF069FC2B6923606B694A
:105610006360194B194D1B7831789A1E53425341E0
:10562000627A05EB011163F30002627201F5897180
:10563000062204F10A00FCF717F9337805EB031290
:1056400005EB031592F81B1195F8193192F81A2100
:1056500003F00F0343EA02132374637C204661F3D3
:10566000030359216374FCF731FEA4F8590070BD9F
:105670009134002014030020110700207003002043
:105680000A4A38B5138801339BB2502B04460D46A5
:1056900001D8138038BD002305491380FDF7CAFAED
:1056A00029462046FDF7C6FAF4E700BFEA0B0020C2
:1056B000053301082DE9F84F154604460F466B499E
:1056C0006B4EFDF7B7FA29462046FDF7B3FA694B52
:1056D0000022012F1A800FD11023B362082746F24F
:1056E000A810B761FDF766FEB762FDF763FE2946B5
:1056F0002046FFF7C5FFF2E7BB1E08220C2B00F285
:10570000A880DFE803F03141521C07A6A6A662621A
:1057100062626200564E4FF008081027C6F81880E3
:1057200046F2A810B762FDF745FEC6F82880B761BB
:10573000FDF740FE29462046FFF7A2FFEDE74C4E5D
:105740004FF008081027C6F8188046F2A810B76175
:10575000FDF730FEC6F82880B762FDF72BFE29461C
:105760002046FFF78DFFEDE7B262414E102746F26B
:10577000A810B761FDF71EFEB762FDF71BFE2946B4
:105780002046FFF77DFFF2E71023B361384E08276C
:1057900046F2A810B761FDF70DFEB762FDF70AFEED
:1057A00029462046FFF76CFFF2E7B261304E102722
:1057B00046F2A810B761FDF7FDFDB762FDF7FAFDEF
:1057C00029462046FFF75CFFF2E7A7F1090BDFF857
:1057D000A0805FFA8BFB00264FF0080A5E453CBFB5
:1057E0001023C8F818304FF0040946F2A810C8F882
:1057F00018A0FDF7DFFDC8F828A0FDF7DBFD09F1D3
:10580000FF3929462046FFF73BFF19F0FF09ECD18D
:105810001023C8F828304FF0040946F2A810C8F841
:1058200018A0FDF7C7FDC8F828A0FDF7C3FD09F1D2
:10583000FF3929462046FFF723FF19F0FF09ECD175
:105840000136A7F10803F6B2DBB2B34238BF002637
:10585000C4E71023B261B3614CF25030FDF7AAFDEA
:1058600029462046FFF70CFFF6E700BF0533010885
:1058700000040048EA0B002010B5437802789A42F1
:105880001BD0052B8ABF052303700370027888BFE5
:1058900043700A4B0A4813F922100A4C836821739B
:1058A000217613B11972FFF7D7F80748836823B13F
:1058B00094F918101972FFF7CFF810BD444501088C
:1058C00010340020140300202C34002010B50AB935
:1058D000437010BD541E0B2CFBD80332D2B231F9E9
:1058E0001220C83A03FB022240F2716192FBF1F2EE
:1058F00012B222EAE2729A42C8BF1AB24270E8E7D4
:10590000034B044A1A60044B044A1A60704700BFF4
:105910005031002078020020040700207C02002083
:10592000034B044A1A60044B04481860704700BFD8
:10593000503100207C020020040700207802002063
:1059400008B5FDF7FFFC28B1FFF7DAFF064B074A61
:105950001A6008BDFFF7E4FF054B186803684FF4B1
:10596000E1319B689847F1E7543100208002002024
:105970000407002010B40C46014620B90348224613
:1059800010BC08F0C8BE02480021F9E7103400201E
:105990002C34002070B5124C15461E4680B9FDF718
:1059A000ECFB104833462A46FFF7EEF894F85330E4
:1059B00013B994F8553013B10B48FFF704F970BDD3
:1059C000FDF72BFC084833462A46FFF7DDF894F82C
:1059D00052301BB994F85430002BF0D00148ECE75A
:1059E00014030020103400202C34002008B530B9F6
:1059F000054801F18E028C31FFF7F0F808BD01F186
:105A00008F0202488D31F7E7103400202C3400203B
:105A100070B5114C0D4606465B23224621462846AA
:105A2000FFF7A8FFD6E90613206862689A4208BF0C
:105A300088420ED120465921FCF748FCB4F8594061
:105A4000231A5C425C4128460449FFF7CFFF601CE3
:105A500070BD0024F7E700BF3D3000205831002022
:105A60000A4608B501460148FFF724FE2800002039
:105A700000B591B00446684616461D460BF0DEFFA1
:105A8000184968460BF0E2FF304608F04BFD01462E
:105A900068460BF0DBFF144968460BF0D7FF134B49
:105AA000684653F82510124D0BF0D0FF1149684697
:105AB0000BF0CCFF9DF84830684655F823100BF0EA
:105AC000C5FF0D4968460BF0C1FF9DF84C30684694
:105AD00055F823100BF0BAFF08486A462146FFF735
