:020000040800F2
:1000000000800020159F0008ED9E0008EF9E00086C
:10001000F19E0008F39E0008F59E00080000000015
:10002000000000000000000000000000F79E000833
:10003000F99E000800000000FB9E0008FD9E0008DD
:10004000659F0008659F0008659F0008659F000880
:10005000659F0008659F0008659F0008659F000870
:10006000659F0008659F0008417A0008659F0008A9
:10007000659F0008659F0008659F0008659F000850
:10008000659F000800000000659F0008659F00084C
:10009000659F0008659F0008659F0008659F000830
:1000A000659F0008659F0008659F0008659F000820
:1000B000FD2C0008659F0008659F0008659F0008EB
:1000C000659F0008659F0008659F0008659F000800
:1000D000659F00081526000849480008659F00082C
:1000E000659F0008659F0008659F0008659F0008E0
:1000F000659F0008659F0008659F000800000000DC
:1001000000000000659F000800000000659F0008D7
:10011000659F000800000000659F0008659F0008BB
:10012000659F0008659F0008659F0008659F00089F
:10013000659F00080000000000000000659F0008A7
:10014000659F0008659F0008000000000000000097
:10015000000000000000000000000000000000009F
:10016000000000000000000000000000659F000883
:10017000659F000800000000000000000000000073
:1001800000000000659F0008000000000000000063
:1001900000000000659F0008000000000000000053
:1001A0000000000000000000659F00080929000809
:1001B000659F0008659F0008659F0008000000001B
:1001C00000000000659F0008000000000000000023
:0801D000659F0008659F00080F
:1001D80010F8012B11F8013B012A28BF9A42F7D0E9
:1001E800D01A7047034613F8012B002AFBD1181ABE
:1001F8000138704781F0004102E000BF83F00043FE
:1002080030B54FEA41044FEA430594EA050F08BFA9
:1002180090EA020F1FBF54EA000C55EA020C7FEA6D
:10022800645C7FEA655C00F0E2804FEA5454D4EBEA
:100238005555B8BF6D420CDD2C4480EA020281EAB4
:10024800030382EA000083EA010180EA020281EAEC
:100258000303362D88BF30BD11F0004F4FEA01313E
:100268004FF4801C4CEA113102D0404261EB41014D
:1002780013F0004F4FEA03334CEA133302D05242D3
:1002880063EB430394EA050F00F0A780A4F101048F
:10029800D5F1200E0DDB02FA0EFC22FA05F28018C9
:1002A80041F1000103FA0EF2801843FA05F35941AF
:1002B8000EE0A5F120050EF1200E012A03FA0EFC2E
:1002C80028BF4CF0020C43FA05F3C01851EBE37158
:1002D80001F0004507D54FF0000EDCF1000C7EEB75
:1002E80000006EEB0101B1F5801F1BD3B1F5001FB3
:1002F8000CD349085FEA30004FEA3C0C04F10104D2
:100308004FEA445212F5800F80F09A80BCF1004FFA
:1003180008BF5FEA500C50F1000041EB045141EA7C
:10032800050130BD5FEA4C0C404141EB0101013C45
:1003380028BFB1F5801FE9D291F0000F04BF014634
:100348000020B1FA81F308BF2033A3F10B03B3F106
:1003580020020CDA0C3208DD02F1140CC2F10C0296
:1003680001FA0CF021FA02F10CE002F11402D8BFF4
:10037800C2F1200C01FA02F120FA0CFCDCBF41EAC0
:100388000C019040E41AA2BF01EB0451294330BD8F
:100398006FEA04041F3C1CDA0C340EDC04F114046C
:1003A800C4F1200220FA04F001FA02F340EA030043
:1003B80021FA04F345EA030130BDC4F10C04C4F189
:1003C800200220FA02F001FA04F340EA0300294669
:1003D80030BD21FA04F0294630BD94F0000F83F4B3
:1003E800801306BF81F480110134013D4EE77FEA96
:1003F800645C18BF7FEA655C29D094EA050F08BFE2
:1004080090EA020F05D054EA000C04BF19461046C2
:1004180030BD91EA030F1EBF0021002030BD5FEA06
:10042800545C05D14000494128BF41F0004130BD2E
:1004380014F580043CBF01F5801130BD01F0004582
:1004480045F0FE4141F470014FF0000030BD7FEAF5
:10045800645C1ABF194610467FEA655C1CBF0B46F0
:10046800024650EA013406BF52EA033591EA030F07
:1004780041F4002130BD00BF90F0000F04BF0021FF
:10048800704730B54FF4806404F132044FF0000532
:100498004FF0000150E700BF90F0000F04BF0021AB
:1004A800704730B54FF4806404F1320410F0004511
:1004B80048BF40424FF000013EE700BF42004FEA0C
:1004C800E2014FEA31014FEA02701FBF12F07F4389
:1004D80093F07F4F81F06051704732F07F4208BF40
:1004E800704793F07F4F04BF41F40021704730B547
:1004F8004FF4607401F0004521F000411CE700BF93
:1005080050EA010208BF704730B54FF000050AE015
:1005180050EA010208BF704730B511F0004502D516
:10052800404261EB41014FF4806404F132045FEA18
:10053800915C3FF4D8AE4FF003025FEADC0C18BFC1
:1005480003325FEADC0C18BF033202EBDC02C2F1B3
:10055800200300FA03FC20FA02F001FA03FE40EA45
:100568000E0021FA02F11444BDE600BF70B54FF049
:10057800FF0C4CF4E06C1CEA11541DBF1CEA135527
:1005880094EA0C0F95EA0C0F00F0DEF82C4481EA8F
:10059800030621EA4C5123EA4C5350EA013518BFAF
:1005A80052EA033541F4801143F4801338D0A0FB9C
:1005B80002CE4FF00005E1FB02E506F00042E0FB49
:1005C80003E54FF00006E1FB03569CF0000F18BF4F
:1005D8004EF0010EA4F1FF04B6F5007F64F54074F7
:1005E80004D25FEA4E0E6D4146EB060642EAC6218A
:1005F80041EA55514FEAC52040EA5E504FEACE2EF7
:10060800B4F1FD0C88BFBCF5E06F1ED8BEF1004FF9
:1006180008BF5FEA500E50F1000041EB045170BD75
:1006280006F0004646EA010140EA020081EA0301B9
:10063800B4EB5C04C2BFD4EB0C0541EA045170BDB5
:1006480041F480114FF0000E013C00F3AB8014F12F
:10065800360FDEBF002001F0004170BDC4F1000478
:10066800203C35DA0C341BDC04F11404C4F12005F9
:1006780000FA05F320FA04F001FA05F240EA020054
:1006880001F0004221F0004110EBD37021FA04F68A
:1006980042EB06015EEA430E08BF20EAD37070BD44
:1006A800C4F10C04C4F1200500FA04F320FA05F0A3
:1006B80001FA04F240EA020001F0004110EBD370A5
:1006C80041F100015EEA430E08BF20EAD37070BD15
:1006D800C4F1200500FA05F24EEA020E20FA04F3EE
:1006E80001FA05F243EA020321FA04F001F000419D
:1006F80021FA04F220EA020000EBD3705EEA430E0E
:1007080008BF20EAD37070BD94F0000F0FD101F03C
:100718000046400041EB010111F4801F08BF013C75
:10072800F7D041EA060195F0000F18BF704703F0B3
:100738000046520043EB030313F4801F08BF013D3A
:10074800F7D043EA0603704794EA0C0F0CEA1355F6
:1007580018BF95EA0C0F0CD050EA410618BF52EAB0
:100768004306D1D181EA030101F000414FF00000B6
:1007780070BD50EA410606BF1046194652EA4306C4
:1007880019D094EA0C0F02D150EA013613D195EA38
:100798000C0F05D152EA03361CBF104619460AD180
:1007A80081EA030101F0004141F0FE4141F470018A
:1007B8004FF0000070BD41F0FE4141F4780170BD7A
:1007C80070B54FF0FF0C4CF4E06C1CEA11541DBFDF
:1007D8001CEA135594EA0C0F95EA0C0F00F0A7F8E1
:1007E800A4EB050481EA030E52EA03354FEA01310E
:1007F80000F088804FEA03334FF0805545EA131321
:1008080043EA12634FEA022245EA111545EA1065E8
:100818004FEA00260EF000419D4208BF964244F17F
:10082800FD0404F5407402D25B084FEA3202B61A9E
:1008380065EB03055B084FEA32024FF480104FF472
:10084800002CB6EB020E75EB030E22BFB61A7546E6
:1008580040EA0C005B084FEA3202B6EB020E75EB79
:10086800030E22BFB61A754640EA5C005B084FEAE1
:100878003202B6EB020E75EB030E22BFB61A7546AE
:1008880040EA9C005B084FEA3202B6EB020E75EBB9
:10089800030E22BFB61A754640EADC0055EA060E7A
:1008A80018D04FEA051545EA16754FEA06164FEABD
:1008B800C30343EA52734FEAC2025FEA1C1CC0D169
:1008C80011F4801F0BD141EA00014FF000004FF0F6
:1008D800004CB6E711F4801F04BF01430020B4F1B7
:1008E800FD0C88BFBCF5E06F3FF6AFAEB5EB030C6F
:1008F80004BFB6EB020C5FEA500C50F1000041EB6C
:10090800045170BD0EF0004E4EEA113114EB5C0438
:10091800C2BFD4EB0C0541EA045170BD41F480110B
:100928004FF0000E013C90E645EA060E8DE60CEA13
:10093800135594EA0C0F08BF95EA0C0F3FF43BAF30
:1009480094EA0C0F0AD150EA01347FF434AF95EAE7
:100958000C0F7FF425AF104619462CE795EA0C0FCB
:1009680006D152EA03353FF4FDAE1046194622E798
:1009780050EA410618BF52EA43067FF4C5AE50EA72
:1009880041047FF40DAF52EA43057FF4EBAE12E762
:100998004A0011D212F5001211D20DD56FF47873F6
:1009A800B3EB62520ED44FEAC12343F0004343EA4B
:1009B800505323FA02F070474FF00000704750EA96
:1009C800013002D14FF0FF3070474FF00000704700
:1009D80053B94AB9002908BF00281CBF4FF0FF319E
:1009E8004FF0FF3000F00CB8ADF1080C6DE904CE03
:1009F8000AF0BCFEDDF804E0DDE9022304B070472C
:100A0800704700BF0348044B834202D0034B03B135
:100A180018477047680000206800002000000000A8
:100A28000548064B1B1AD90F01EBA301491002D048
:100A3800034B03B118477047680000206800002086
:100A48000000000010B5064C237843B9FFF7DAFF21
:100A5800044B13B10448AFF300800123237010BD89
:100A680068000020000000003CBA000808B5054BEB
:100A78001BB105490548AFF30080BDE80840FFF702
:100A8800CFBF00BF000000006C0000203CBA000887
:100A98000022427082700122C270B1FA81F10222F2
:100AA80049090271032201704271704743788B42F1
:100AB8001FD0012941700AD0022910D0C1B90123E1
:100AC800C370817002230371032343717047037855
:100AD80043B1012383700223C3700023F3E7037833
:100AE800002BF6D0022383700023C3700123EAE7AA
:100AF800FEE7704782B00B88ADF800304B88ADF840
:100B080002308B88ADF80430CB88ADF80630023956
:100B1800431C053013F8012F0DF1080C0CEB4202B1
:100B2800834232F8082C21F8022FF3D102B0704723
:100B380001448878704738B54FF07F33C0F8A0304B
:100B480004464FF6FF737F220025A0F8A43080F8F2
:100B5800A62080F8A950A0F8AA30AC3000F047FCD5
:100B6800A4F8B85038BD37B5154604461146019368
:100B780000F07DFC294604F1140000F078FC2946B9
:100B880004F1280000F073FC294604F13C0000F051
:100B98006EFC294604F1500000F069FC294604F176
:100BA800640000F064FC294604F1780000F05FFC62
:100BB800294604F18C0000F05AFC04F1AC00019ABB
:100BC8004FF4FA734FF4FA6100F0FCFB204603B0CF
:100BD800BDE83040FFF7AFBF704700F04FBC14309E
:100BE80000F04CBC283000F049BC90F8A43013B990
:100BF80090F9A000704790F9A100704790F8A430D0
:100C080013B990F9A200704790F9A300704710B586
:100C1800044607F071F938B104F1140000F032FC11
:100C2800012838BF0120C0B210BD10B5044607F036
:100C380063F938B104F1500000F024FC012838BFF2
:100C48000120C0B210BD4FF47A71AC3000F0D6BBB1
:100C58000021AC3000F0D2BB08B5AC3000F0DDFBB1
:100C6800B0F57A7FA8BF4FF47A7020EAE07008BD2B
:100C780010B5044600F0DCFB04F1140000F0D8FBCA
:100C880004F1280000F0D4FB04F13C0000F0D0FB94
:100C980004F1500000F0CCFB04F1640000F0D4FB38
:100CA80004F1780000F0D0FB94F8B93013B1013B9F
:100CB80084F8B93010BD7F2807D0002807DA10F172
:100CC800800F06D04042C0B2704700207047012014
:100CD80070477F20704710B1404240B270477F2074
:100CE80070477F280FD010F1310F0EDA10F1780F0E
:100CF8000DDB7830FE2340B2584323304623B0FB47
:100D0800F3F0C0B27047FF207047FE207047002004
:100D180070477F2805D031B1002806DA4042C0B2BA
:100D28007047FF207047FE207047002070477F28DB
:100D380011D010F1310F10DA10F1780F10DB783084
:100D480040F2A96340B2584323304623B0FBF3F086
:100D5800AC3080B270470020704740F25570704741
:100D6800AC20704763289FBF40F2A96358433230D4
:100D780064239DBFB0FBF3F0AC3080B240F25570F5
:100D880070474FF4F063A0F58060584340F2FF735A
:100D980090FBF3F000F5787080B27047FFF7F1BF71
:100DA8004FF49663A0F58060584340F2FF7390FBC0
:100DB800F3F000F2DC5080B27047A0F58060D0EB11
:100DC800001048BF033040F38F007047032812DD3E
:100DD8000C2812DD0F2812DD122812DD162812DD6C
:100DE800192812DD1C2812DD1F2812DD2128CCBF8E
:100DF800FF2006207047002070470120704702201E
:100E08007047082070470320704707207047042068
:100E1800704705207047000005289ABF014B185CF1
:100E2800FF207047D8BA00087F281ABF4042C0B2D6
:100E3800002070477F2811D010F1320F10DA884255
:100E480010DD401A6423C1F1FF21584301F57F01E9
:100E5800CE31313090FBF1F0C0B27047FF207047BF
:100E68006420704700207047014B4140585C704730
:100E7800E0BA00085AB110B4054C0A4411F8013B15
:100E880058408A42205CF9D15DF8044B704770479E
:100E9800E0BA0008002805DB212805DC044B33F8FC
:100EA80010007047002070474FF4FA60704700BF89
:100EB8000ABC0008392808D822280ED9094B23383B
:100EC800C0B2C34003F0010070475F2807D0613803
:100ED80019288CBF0020012070470020704701208E
:100EE800704700BF01EC7F00F8B50246451E461D5D
:100EF80000245F2715F8010FFF2804BF0134E4B26E
:100F0800FFF7D8FF00B92F70AE42F3D1062C04D1F9
:100F180019B10B6813608B88938000239371F8BD17
:100F28002DE9F843DFF83490471E441D01250026BB
:100F38004FF0280817F8011F08480AF0C8FB0346B5
:100F480010B1A0EB0903DBB2A3FB05329E19A7423F
:100F5800A5FB0853EED13046BDE8F883E0BB000896
:100F680010B54179A1F13000C3B2092B07D8052388
:100F7800B0FBF3F303EB8303C01AC0B210BD044CFB
:100F880020460AF0A4FB0028F1D0001BC0B2EEE70F
:100F9800E0BB000870B50446FFF724F902B200234D
:100FA800551E18B2A84204FA83F104DA265C302EE2
:100FB80003F10103F5D0121A01322046BDE8704052
:100FC8000AF0B2BB2DE9F047432B28BF432396B064
:100FD8000C46154600211A46984607460AF0BEFBFD
:100FE8000021412205A804910AF0B8FBDFF87C90A3
:100FF800DFF87CA004EB4505AC4210D104A8FFF74C
:10100800F1F828B100F158036B44002203F8492C89
:1010180004A938460AF044FB16B0BDE8F08734F955
:10102800020B47F6FF739842E8D0002812DC5146BD
:1010380068460AF035FB04A8FFF7D4F80646684668
:10104800FFF7D0F80644B045D6D3694604A80AF09D
:101058002FFBD1E7694680B208F01BFB6846FFF713
:1010680099FF494668460AF023FBE4E78FBA00086F
:101078008ABA0008F0B589B06D4600242F468E1C48
:10108800E1B28A4204D83946FFF79CFF09B0F0BDA7
:1010980036F8241025F8021B0134F1E742F21073E8
:1010A8006421B0FBF3F203FB1200B0FBF1F301FB88
:1010B800130000EB023000EB831080B2704770B56C
:1010C8000E460021054614460AF048FB00239AB252
:1010D800944200D870BDF25C002AFBD0EA54013378
:1010E800F5E70000072914D8DFE801F00407090B29
:1010F8000D0F11110849FFF7E2BF0849FBE708493E
:10110800F9E70849F7E70849F5E70849F3E708491F
:10111800F1E70849EFE700BF94BA000899BA000858
:101128009EBA0008A3BA0008A8BA0008ADBA000819
:10113800B2BA0008B7BA0008052911D8DFE801F0EB
:101148000306080A0C0E0749FFF7B9BF0649FBE773
:101158000649F9E70649F7E70649F5E70649F3E7D7
:101168000649F1E7B9BA0008BEBA0008C3BA0008D0
:10117800C8BA0008CDBA0008D1BA0008B7BA000842
:1011880070B50E4614460021013205460AF0E6FA0B
:1011980000239AB2944200D870BDF25C002AFBD0BA
:1011A800EA540133F5E77D23438043F2390309B25A
:1011B800C360002301808180C380037270470000F0
:1011C80002680449044B01FB023323F00043036027
:1011D800180C7047FD430300C39E2600F0B5002598
:1011E80097B00160858004465622294668460AF071
:1011F800B5FA0126627CAA4209D80023802104F1AD
:10120800B400237417B0BDE8F0400AF0A7BA20462E
:10121800FFF7D6FFE7797B1B002190FBF3F202FB77
:101228001300C0B2EC460A46CBB29F421DD8002339
:10123800227B9A42DED0A279033A012A04EB050107
:1012480005D925B191F91120D2B9012BD2D98B74C6
:10125800A26852F82310583304EB85026B44013519
:10126800516303F8586CEDB2C4E71CF801EBBEF10A
:10127800000F03D18242DBD00132D2B20131D3E771
:10128800501E8342E3DB01329342E0DCB2E72DE9F2
:10129800F047154696B0013D01600271044643715E
:1012A800EDB25622002168460AF058FA0027022DAE
:1012B80084BF4FF0010900253E464FF0010A94F81B
:1012C80007809CBF4FF00309B8FBF9F8627CB24273
:1012D80009D80023802104F1B400237416B0BDE8B6
:1012E800F0470AF03BBA2046FFF76AFFA8EB06036F
:1012F800002190FBF3F202FB1300C0B2EC460A4651
:10130800CBB2984506D91CF801EBBEF1000F22D1EB
:1013180082421ED1434528BF4346227B03FB095125
:1013280001F0FF018A42D1D016B1B7B9012BCDD94E
:10133800A2191F469174A26852F8211004EB860284
:101348000136516303F158026A44F6B202F858AC08
:10135800BCE70132D2B20131D2E77A1E9342E7DB11
:101368007A1C9342E4DCB1E70023C0E90133C3608F
:1013780003747047F0B5047C0360012C11D94468EC
:101388008568C668141B4FF47A774D1B7C4305FBB0
:1013980016442B4494FBF3F33344C360C0E90121A2
:1013A800F0BD1CB9C46001230374F7E743684FF428
:1013B8007A74D31A634384680C1B93FBF4F3C360F9
:1013C8000223F1E707EE902A0A44F8EE676A07EE6F
:1013D800902AF8EE677A436086EEA77A07EE903A8D
:1013E800F8EEE77A80ED007AC0ED027A7047D0ED2A
:1013F800017AF8EEE77AC0ED027A704707EE901AA4
:1014080090ED027AD0ED006AF8EEE77A77EEC77AC7
:10141800A6EEA77A80ED027A7047D0ED027AB6EE92
:10142800007A77EE877AFDEEE77A17EE900A704732
:10143800D0E901236421D31AC36082604B43418AF7
:10144800B3FBF1F303747047D0E90123D31AC0E961
:101458000223704743682BB1C26864214A43B2FB38
:10146800F3F2D3B203740023C360436070470023D0
:10147800C0E9023341824360037470474368013313
:1014880043607047007C7047436819444160704767
:10149800072800D9FEE7014B185C704784BC000898
:1014A800052800D9FEE7014B185C70478CBC000882
:1014B8007047704700207047002070470020704731
:1014C800704700207047002070470000054BDA6C19
:1014D8000243DA64DB6C82B003400193019B02B0E3
:1014E800704700BF00100240054B9A6D02439A6591
:1014F8009B6D82B003400193019B02B0704700BF0F
:1015080000100240054B1A6E02431A661B6E82B029
:1015180003400193019B02B0704700BF00100240D6
:1015280050E8003F43F0800340E80032002AF7D13A
:10153800704750E8003F23F0400340E80032002A9B
:10154800F7D1704750E8003F23F0800340E80032AD
:10155800002AF7D170470000044B1888044B1B88F9
:1015680080B29BB2C01A18BF01207047C028002063
:10157800BE280020704700000288044B5140C9B2C1
:1015880033F8113083EA12230380704740D50008EE
:10159800A2B110B4B0F800C0094C0A4411F8013BDC
:1015A80083EA0C03DBB2914234F8133083EA1C2C33
:1015B800A0F800C0F2D15DF8044B7047704700BF37
:1015C80040D5000837B54FF6FF730446ADF806302E
:1015D8004518AC4203D1BDF8060003B030BD14F87D
:1015E800011B0DF10600FFF7C7FFF2E71629A8BF98
:1015F80016216FF008008142B8BF014611701970BA
:10160800704708B5FFF7A8FF003818BF012008BDCC
:10161800012070470278024B51405B5C03707047B1
:1016280024C10008FF230370704700BF704770B5DE
:101638000B7803704B7843700B78FD2B05460C46EE
:1016480038D18B788370CB78C3700B7903714B7961
:1016580043718B7983718B68C3718B68C3F30F23D4
:1016680003728B7A43720A26627804F10C01A81976
:101678000AF03AF86378B4F80C213344981CEA5419
:101688005A1CB4F80C1192B2090AA954A278D207CC
:1016980080B20ED504F58872054404F58E7452F8AC
:1016A800041B45F8041BA242F9D112782A700F33A3
:1016B80098B270BD00238B700B7983704B79C3701F
:1016C8008B7903718B6843710626CDE708B52C2208
:1016D800034800210AF042F8024B00221A7008BDA4
:1016E800BC050020680300202DE9F0411378037041
:1016F80092F8018080F80180FD2B04460F461546BC
:1017080054D193788370D378C37013790371537964
:101718004371937983716B7A127A1B0403EB02236A
:10172800EA79134423F07F430A26A26863F3170279
:10173800A260A919424604F10C0009F0D5FF7A7B92
:10174800904507D208F10C00A2EB080200212044C2
:101758000AF004F863781E44AB195A78AB5D03EBC2
:101768000223A4F80C31A378DB070ED5023615FA4C
:1017780086F304F5887203F10C0153F8040B42F860
:10178800040B8B42F9D11B781370BB7A84F8213192
:10179800FB7A84F822313B7B84F823317B7B84F805
:1017A80024313B7884F82031BDE8F0810023438060
:1017B80093780371D378437113798371537906262B
:1017C800B3E7000070B50F4C0F4D0646062204F132
:1017D8000A0105F58970FFF7D3FC237CC3F30302E4
:1017E800C3F3031385F81A31637C85F81921C3F311
:1017F800030385F81B31637ADB0744BF0223337385
:1018080070BD00BFA91E0020E400002070B504468A
:10181800BDF81450E2702420237122461B0A207060
:10182800637158202B0AA1706070A57102F8073FF8
:10183800049B59198B420CD16A1D92B2E11C0020FD
:10184800FFF718FB05F10806A05505F1090080B25D
:1018580070BD13F8010B02F8010FEBE70A4A0B4BB6
:1018680012680B49A3FB02323220920C00FB02F2F1
:10187800084B486802F5FA72A3FB023292094B68DA
:101888001B1A9A42FBD870473C00002083DE1B439A
:10189800001000E0D34D621008B5FFF7DFFF4FF0EE
:1018A800904310229A6108BD4FF0904310229A622B
:1018B800FFF7D4BF02780A4B90F801C08178D24371
:1018C800D2B29A5C82EA0C0290F803C09A5C4A4051
:1018D800995C027981EA0C01595C4A40985C70472E
:1018E80024C10008F8B53C29BDF81C50044635D081
:1018F800A1F12106714271414900D00748BF41F06A
:101908000801E37092074FEA13234FF0240248BFFF
:1019180041F01001227023716F222B0AA61C6270FD
:10192800A170A37165713046FFF7C4FF2246069B7C
:1019380002F8070F59198B4212D1A91D89B23046F6
:10194800FFF740FE05F1080705F109039BB2E055D2
:10195800000AE05405F10A0080B2F8BD0121CCE785
:1019680013F8010B02F8010FE5E70000074B084ADE
:101978005B6A02F5006353E8003F43F0200302F579
:10198800006040E800310029F3D170470038014079
:10199800003001402DE9F04F0C465188B1F58C7F9D
:1019A80085B0054611D300211170D91CC9B201298F
:1019B80095BF01210023518053809CBF2370117073
:1019C80000232B7005B0BDE8F08F10780E2800F2C8
:1019D8008B8001A656F820F0B31900081D1A0008DC
:1019E800451A00085F1A0008F11A0008F11A0008E1
:1019F800F11A0008F11A0008F11A0008F11A000893
:101A0800F11A0008F11A0008F11A0008F11A000882
:101A1800711A0008481C508063542178FD299BB234
:101A280006D10C330A21D380918002231370C7E7B3
:101A380008330621D38091800E23F7E7481C508095
:101A48006354D80742BFD1880D31D180012B8CBF98
:101A580000230323EAE7002B01F1010050806354BF
:101A680014BF00230E23E1E7481C508063545388B9
:101A7800D1888B4232D300235380137002232B70FA
:101A880069802378FD2B35D163792B72A3796B722A
:101A9800637A227A1B0403EB0223E27913446B6016
:101AA800637803F10C026A80A278D10701D5193353
:101AB8006B8000266968DFF8F0806E8140F285123D
:101AC8000C20B31801335B0800FB03F758F80770C4
:101AD800B94218D25A1EB242F3D816E092889A42F6
:101AE8003FF66EAF01236CE7002313705380938099
:101AF800D38066E7E3782B7223796B7263796B6026
:101B080063780833D4E71E46E5D80C27774358F89E
:101B18000730994227D123782046FD2B10F801BFC2
:101B28000CBF4FF00A094FF0060909EB0B03591EC9
:101B380089B247440193FFF745FD97F804A0ADF833
:101B48000E0051460DF10E00FFF716FD019BE2183D
:101B5800E35C527803EB0223BDF80E209BB29A4255
:101B680003D005232DE703232BE7BB79DA0706D536
:101B7800FA79934582BF04EB09018A5CAA729B0734
:101B880009D50C2303FB068362781B7A9A4282BF2D
:101B98004C44E35CEB720C2303FB068385F80CA032
:101BA8005B796B730EE700BF24C20008F0B50546E9
:101BB800FD2305F80C3B85B004468DF8043090F8F9
:101BC800243103F10C020244012B42D80026637031
:101BD80066808DF805308B7A23718DF808308B7A02
:101BE800ADF8066001338B7263798DF80930A379FB
:101BF8008DF80A30A368C3F317031A128DF80B3057
:101C080009211B140DF105008DF80D308DF80C20FD
:101C1800FFF7D8FC6778ADF802003A4629460DF17F
:101C28000200FFF7B5FC94F82311FFF7A5FC94F820
:101C38002421BDF80230A4F80C31974210D207F1E4
:101C48000C00D21B3146204405B0BDE8F04009F035
:101C580085BD12F8010D0028B8D1013BDBB2B3E70E
:101C680005B0F0BD044A00231380044A1380044AD7
:101C78001380044A13807047BE280020C028002023
:101C8800C22C0020C42C002007B503688DF807106B
:101C98001B6901220DF10701984703B05DF804FBA9
:101CA80013B5044608460191FEF79CFA236801998A
:101CB8001B6982B2204602B0BDE8104018470000F8
:101CC800B0F1904F08B5014607D10120FFF7FEFBA0
:101CD800114B99420BD1202014E0104B98420BD0A5
:101CE80003F58063984209D10420FFF7EFFB0C4B02
:101CF800994210D1402005E00220E7E7094B9842BD
:101D080004D10820BDE80840FFF7E0BB064B984225
:101D1800DED11020F6E708BD001400480004004892
:101D280000180048000C00480010004808B5224B75
:101D3800984201460BD14FF40060FFF7E3FB1F4BBD
:101D480099420DD1BDE808402020FFF7CDBBB0F186
:101D5800804F0ED01A4B98420FD10220FFF7C4FBD8
:101D6800184B99420FD14FF40050BDE80840FFF7D7
:101D7800C9BB0120FFF7B8FBE1E7134B984208D134
:101D88000420FFF7B1FB114B99420CD14FF480307E
:101D9800EBE70F4B9842D2D11020FFF7A5FB0D4B74
:101DA800994206D008BD0C4B9942F8D14FF4003047
:101DB800DBE74FF48020D8E7002C014000140040F6
:101DC8000004004000340140000800400040014089
:101DD8000010004000480140004401402DE9F04354
:101DE80087B00E46054614460021142201A89DF826
:101DF80038809DF83C901F4609F0B0FC00960B2CEB
:101E080007D8DFE804F007070A1214141416161688
:101E18001A1CFEE70323019301E002230493032F16
:101E280011D8DFE807F0111321110123F6E7012388
:101E3800F1E7012301930393F1E70223EBE7022380
:101E480001930123F7E7FEE702230293B8F1100F8D
:101E58000CD8DFE808F02D2D0C11131517191B1DD0
:101E68001F21232527292B000123EEE7FEE7012365
:101E78000593022301931EE00223F9E70323F7E702
:101E88000423F5E70523F3E70623F1E70723EFE744
:101E98000823EDE70923EBE70A23E9E70B23E7E744
:101EA8000C23E5E70D23E3E70E23E1E70F23DFE744
:101EB800B8F1000FDDD1B9F1000F02D02846FFF7C5
:101EC800FFFE053C042C05D8DFE804F0030B0403EF
:101ED8000B00AE626946284608F04CFE07B0BDE824
:101EE800F083AE61F6E713B54FF0010C0024CDE99D
:101EF800004CFFF773FF02B010BD000070B586B04C
:101F08000023164604460D46ADF80630FFF70EFFCF
:101F1800042E04D8DFE806F0303404384100FEE728
:101F28001F4B204A1B68B3FBF2F39BB20022013B14
:101F380001A92046ADF80430CDE9022504920592A6
:101F480009F0C4F8236823F080032360A36823F40E
:101F5800A03323F00703A360636823F0007323F022
:101F680070036360636823F470036360A36823F0FD
:101F78008003A36006B070BD094B0B4A1B68D2E70B
:101F8800074B0A4A1B68CEE7054B074A1B68B3FB99
:101F9800F2F303EB83035B00C7E70123C6E700BF47
:101FA8003C00002080A8120140420F008096980053
:101FB80010B50446FFF7A2FF236843F0010323602E
:101FC80010BD00224FF0FF31FFF7F2BF274B10B5CD
:101FD800274C5B68236007F0C3FF4FF0904008F080
:101FE80069FD244808F066FD234808F063FD23488E
:101FF80009F05CFA224809F059FA224809F056FA21
:10200800214809F053FA214808F0F4FF204808F065
:10201800F1FF08F0F5FE4FF0E02200231D4913619F
:10202800536193618A6822F0030242F001028A60D8
:1020380072B64FF0FF319A0002F1604202F5614238
:102048000133082BC2F88010C2F88011F3D162B6B0
:10205800114A136823F0070343F001031360034B8D
:102068001B6883F3088823689847FEE70000FF1F72
:1020780064030020000400480008004800380140BC
:102088000044004000480040004C0040003001403F
:10209800003C004000100240000001400749084A87
:1020A800881AEFF30883521A1A44013A013B9842FE
:1020B80088BF0022AA2109F051BB00BF0080002080
:1020C8000004000010B51048032306224021FFF742
:1020D8000AFF0D48032302221021FFF704FF032300
:1020E8001A4609482021FFF7FEFE07480323052268
:1020F8008021FFF7F8FEBDE81040034803230522BE
:102108000121FFF7F0BE00BF00040048024B186928
:10211800C0F34010704700BF0004004808B5FFF73F
:10212800F5FF00B908BD00BFF9E70000024B012226
:102138009A6280229A61704700040048024B80220C
:102148009A6201229A617047000400481448C168E5
:102158000F2321F00F0193FAA3F3B3FA83F30122BB
:1021680003F01F0302FA03F30B43C3600D4B5A68D5
:1021780022F010025A601A6822F010021A60DA6817
:1021880022F01002DA609A6842F010029A60064B58
:10219800D02283F80A234FF480621A60704700BF88
:1021A800000001400004014000E100E0034B102260
:1021B8005A611A6842F010021A6070470004014020
:1021C800064B1A6822F001021A605A6822F400329B
:1021D8005A601A6842F001021A60704700440040D1
:1021E800064B1A6822F001021A605A6842F400325B
:1021F8005A601A6842F001021A60704700440040B1
:10220800002303224FF400614FF09040FFF76BBEAC
:102218004FF09043186980F40060C0F3C020704705
:1022280008B50522002302214FF09040FFF75BFE1E
:102238000023052201214FF09040FFF754FE4FF094
:10224800904302229A6201229A6208BD4FF090419F
:102258004B691A04DB4302F4003203F00203134310
:102268008B6170474FF090414B691A04DB4302F4CD
:10227800803203F0010313438B6170470C4BD3F892
:10228800FC2022F08072C3F8FC20D3F8FC2042F036
:102298008072C3F8FC20A3F55D431A6822F001029E
:1022A8001A601A6842F001021A6000225A607047E8
:1022B80000ED00E0064A074B51681B6810B5064C54
:1022C800B3FBF4F3584353685B1A8342FBD310BD46
:1022D800001000E03C00002040420F007FB50123C1
:1022E800CDE90413002201A902A8CDE9022307F0D1
:1022F800D3FF00280CBF0420052007B05DF804FBBD
:10230800014608B5002007F031FF00280CBF042063
:10231800052008BD08B5FFF7E1FF031F58425841E3
:1023280008BD08B5FFF7ECFF031F5842584108BD28
:102338002DE9F3472A4B2B4D012814462A482B4AEE
:102348000E4617BFAA463D213C211D46019106BFF6
:102358009A468046904607F0C3FE01992846FFF743
:10236800D9FF30B9002407F0CDFE204602B0BDE801
:10237800F087002E08BF4FF4FC64073424F00704EC
:1023880005F11007B1463444AAEB050AA1450BD163
:102398004FF011324FF0FF332846FFF7C2FF0038E5
:1023A80018BF01208400DEE76EB90AEB0703D3E902
:1023B8000023B3F1FF3F08BFB2F1FF3F06D1083752
:1023C80009F10809E2E7D9E90023F2E7B84505D998
:1023D8003846FFF7A6FF0028F1D1C3E70324C2E778
:1023E80000E0010800E80108FFEF0108FFE7010825
:1023F80010B507F075FE09483C21FFF78BFF58B16F
:1024080007483D21FFF786FF003818BF01208400E8
:1024180007F078FE204610BD0446F9E700E0010801
:1024280000E8010830B5084D002340F2EF749AB275
:10243800914201D8042030BDA34203D05A5DC25452
:102448000133F4E70320F6E710E0010813B50A4664
:10245800044672B6019101460020FFF769FF62B693
:102468000428019A05D172B601202146FFF760FFC2
:1024780062B602B010BD000038B5124B1C68D3F824
:102488000058B4F1113F09D1B5F1113F17D000221E
:1024980011460120BDE83840FFF74ABFB5F1113FAA
:1024A80003D1002211461046F4E7FFF7A1FF0428E4
:1024B80004D12C4001340CBF0220012038BD042077
:1024C800FCE700BF00E00108034B18739A68D207C5
:1024D800FCD5187B704700BF0030014038B5441E5A
:1024E8008D18A94200D138BD14F8010FFFF7ECFF91
:1024F80001F8010BF5E7084611461A46FFF7EEBF4B
:1025080038B5064D04460144A14200D138BD2878AB
:10251800FFF7DAFF04F8010BF6E700BF34000020EC
:1025280008461146FFF7ECBF10B5014404468C423B
:1025380000D110BD14F8010BFFF7C6FFF7E70846F6
:102548001146FFF7F1BF000030B58DB028220021F9
:1025580002A809F003F94FF48050FEF7D3FF1021C9
:10256800032306224FF09040FFF7BDFC4FF0904048
:1025780006240125102383610A22CDE9004503239F
:102588002021FFF72BFCCDE9004503230A228021F7
:102598004FF09040FFF722FC03231A46CDE900458F
:1025A80040214FF09040FFF719FC1822154C089273
:1025B8004FF48272002303924FF40072CDE9053381
:1025C800CDE909330293079207234FF4E06202A989
:1025D80020460B93049208F03FFD636823F0100334
:1025E8006360636823F008036360236843F0400373
:1025F8002360A3689B07FCD5237B034BFF221A703B
:102608000DB030BD00300140340000201C4B10B428
:10261800DC69A00611D51A6891060ED519481A4921
:102628005A6A038809880133C3F30A0389B29942B5
:102638001FBF1649D2B2CA54038011481F2322066D
:10264800036215D503681B0612D5114B114A198868
:10265800138889B29BB299420DD013880133C3F312
:102668000903138013880C4A9BB2D35CDBB28362E4
:102678005DF8044B70475DF8044BFEF763BF00BF7D
:1026880000380140C0280020BE280020BE200020BD
:10269800C42C0020C22C0020C22800200A490B4A62
:1026A80008B50B8812880133C3F3090392B29A4222
:1026B80007D0074AD05407480B80FEF731FF0120A6
:1026C80008BD0020FCE700BFC42C0020C22C00205D
:1026D800C22800200038014038B504464518AC42ED
:1026E80000D138BD14F8010BFFF7D8FFF7E708460B
:1026F8001146FFF7F1BF0000054B064A1B881288F8
:102708009B1A98B21B0444BF00F5006080B2704762
:10271800C0280020BE280020FFF7EEBF0848094A5D
:102728000188138889B29BB29942F9D01388013382
:10273800C3F30A0313801388034A9BB2D05C704723
:10274800C0280020BE280020BE200020FFF7E6BFDA
:1027580070B588B00C46064615460021202268460A
:1027680008F0FCFF231E18BF01231B03CDE9023527
:1027780069460C23034801960494059308F0D8FE93
:1027880008B070BD0038014010B5064C236823F02E
:1027980001032360FFF7DCFF236843F00103236094
:1027A80010BD00BF00380140002208461146FFF75F
:1027B800EBBF000073B5464C236823F00103236088
:1027C8004FF4804008250126FEF79CFE4FF4007167
:1027D80003230A224FF09040CDE90056FFF7FEFA96
:1027E80003231A464FF480614FF09040CDE900561C
:1027F800FFF7F4FA002211464FF46140FFF7A8FFF3
:102808006368344A23F490436360A36823F02A037F
:10281800A360236823F00053236002F6080353E8FB
:10282800003F23F0604302F6080040E80031002929
:10283800F3D102F6080353E8003F23F0606302F681
:10284800080040E800310029F3D1234BB02283F877
:10285800252320225A601E48FEF774FEFEF769FE03
:10286800402303621D4B19801D4B1980194901F53E
:10287800006353E8003F23F0200301F5006040E8BF
:102888000032002AF3D1174B1A80174B1A80104BCD
:102898005A6822F400625A609A6822F008029A6024
:1028A8005A6822F480425A609A6822F022029A609A
:1028B8009A6842F480529A601A6842F001021A60DB
:1028C800DA699102FCD5DA695202F9D502B070BD15
:1028D800003801400030014000E100E0C22C002037
:1028E800C42C0020BE280020C028002008B5FFF70F
:1028F80061FFBDE80840FFF739B8FFF7F7BF0000F0
:102908000E48C3691A0618D503681B0615D50C4B63
:102918000C4A1988138889B29BB299420BD0138844
:102928000133C3F3080313801388074A9BB2D35CAF
:10293800DBB283627047FEF705BE70470080004037
:10294800C82E0020C62E0020C62C00200A490B4A9B
:1029580008B50B8812880133C3F3080392B29A4270
:1029680007D0074AD05407480B80FEF7D9FD01204D
:1029780008BD0020FCE700BFC82E0020C62E00209E
:10298800C62C00200080004038B504464518AC42EB
:1029980000D138BD14F8010BFFF7D8FFF7E7084658
:1029A8001146FFF7F1BF000070B588B00C46064627
:1029B800154600211C2201A808F0D0FE231E18BFCE
:1029C80001231B03CDE9033501A90C230348029613
:1029D8000594069308F068F908B070BD00800040BF
:1029E8001FB5374C236823F001032360354BDA6D9C
:1029F80042F00102DA65DB6D03F001030393039BE8
:102A080001210D23CDE900310A22032304214FF0CF
:102A18009040FFF7E3F9002211464FF4E130FFF749
:102A2800C3FF236823F00053236004F1080353E82D
:102A3800003F23F0604304F1080141E80032002A16
:102A4800F3D104F1080353E8003F23F0606304F175
:102A5800080242E800310029F3D11B4BB02283F869
:102A68005B234FF000629A601548FEF76BFDFEF796
:102A780060FD40232362154B1980154B198063684C
:102A880023F400636360A36823F00803A36063680A
:102A980023F480436360A36823F02203A360A36840
:102AA80043F48053A360236843F001032360C369A0
:102AB8009A02FCD5C3695B02F9D504B010BD00BF0A
:102AC800008000400010024000E100E0C62E002017
:102AD800C82E0020FFF784BF024B1A68024B1A6009
:102AE800704700BFEC2E0020AC030020054A064BBF
:102AF8001968136899421DBF013301201360002033
:102B0800704700BFAC030020EC2E0020034A0449A4
:102B1800136809680B441360704700BFEC2E00204F
:102B2800400000200148FFF74CBA00BF00040040F5
:102B3800014B586A80B270470004004008B5FFF79F
:102B4800F1FFBDE80840FFF7C7BF70B504460D4662
:102B5800164607F0C5FA083D04EBC606B44204D190
:102B6800042407F0CFFA204670BD55F8082FD4E9A1
:102B780000016B68994208BF904201D10834EDE723
:102B88002046FFF7CEFB0028F8D10446E9E700000D
:102B98001FB503788BB10A4B1B68B3F5FA6F0CD3DA
:102BA8000023002203700023CDE90023CDE902238E
:102BB800406802226946FFF7C8FF05B05DF804FBCC
:102BC800EC2E0020000000000123F0B50380444BE8
:102BD800444AD3E9005104464348914208BF85421C
:102BE80085B04FF0000202D1227005B0F0BD3AA1C5
:102BF800D1E900013D4F6260C3E900013C484FF054
:102C0800AA33D0E90021B1F1FF3F08BFB2F1FF3F7D
:102C1800D0E9026505D0994208BF9A4201D00A431B
:102C280009D1B5F1FF3F08BFB6F1FF3F0DD09D4276
:102C380008BF9E4209D01030B842E2D172B63E2198
:102C48002B48FFF767FB62B629486060D0E900327D
:102C5800CDE90032B2F1FF3F08BFB3F1FF3FD0E941
:102C6800025109D1B1F1FF3F08BFB5F1FF3F22D1B1
:102C78004FF0AA331A4623E04FF0AA36B24208BFF3
:102C8800B3420BD1B1F1FF3F08BFB5F1FF3F0FD001
:102C9800B14208BFB5420ED10023EBE753EA020761
:102CA80009D1B14208BFB54205D14FF480712180E6
:102CB8001D46114604E0002323701A461D46194696
:102CC800CDE90032CDE9025102226946FFF73DFF06
:102CD8008BE700BFAFF3008012345678FEDCBA9061
:102CE80020000020FEDCBA901234567800F8010863
:102CF80000F001084FF080431A6991070AD56FF078
:102D080002021A615A6B6432DA63084A596B1288F4
:102D18000A445A634FF080431A69120705D56FF0C9
:102D280008021A61024B01221A70704784000020C1
:102D3800A90300200A490B8803B9FEE772B64FF0D1
:102D4800804309885A6A114464325963DA636FF020
:102D580002021A616FF008021A6162B6704700BF7A
:102D68008400002000B5032289B04FF0FF314FF0F6
:102D78008040FFF71DF920220021684608F0EEFC8C
:102D880064236A4601214FF08040039308F0FAF962
:102D9800C8236A464FF480714FF08040039308F0CF
:102DA800F1F9054BA02283F81C234FF080521A60DA
:102DB80009B05DF804FB00BF00E100E04FF080437C
:102DC800DA6842F00202DA60DA6842F00802DA6091
:102DD8007047000010B501EB8101084B01EB810140
:102DE80089001980064B044600221A70FFF7BAFFC3
:102DF8002046BDE81040FFF7E1BF00BF8400002077
:102E0800A903002038B51B4CC0220021201D08F062
:102E1800A5FC1623062263800F23A0181649A38059
:102E280043232280FEF726F90123C4E913333F2305
:102E38001149A4F8543002254323062204F1560010
:102E4800A4F84A50FEF716F90C4BC4F89C300C490C
:102E5800A4F89A50002304F1AC00C4E9293384F89B
:102E6800A03008F01DFC7F2384F8C130052384F8C6
:102E7800C23038BDA0020020E0C000080F000100E9
:102E8800E1BC000870B5094E05460C46415C304669
:102E980008F01DFC034628B1831B0133DBB2282B45
:102EA80028BF0023F35C2B5570BD00BFF8C0000895
:102EB80070B50C461146064608F0F2FB44B10025F1
:102EC800052130460135FFF7DDFFEBB29C42F7D80C
:102ED80070BD0000F7B5054605F11106214C224AE0
:102EE800014636016846FFF7E3FFB01C69462044F7
:102EF80008F0D6FB264404EB05120023022777725C
:102F0800A2F81A31142202FB05400421012280F89C
:102F180050104FF4807540F20111A0F84A70C26455
:102F2800A0F8522080F85520A0F85650A0F8581064
:102F380040F2032084F83430E784A562A08584F841
:102F48002E2084F8303084F83330C4F83A30C4F88E
:102F58003E30C4F84230A4F84610A4F8481003B034
:102F6800F0BD00BFE400002092BC0008F7B505469C
:102F7800B14CB24A05F11106014637016846FFF720
:102F880097FFB81C274469462044FDF7ADFF7B7ABC
:102F9800AB4A072B88BF022304EB061088BF7B725D
:102FA8001188437A41FA03F3DF070FD402234372EF
:102FB80061B14807C1F3800308D441FA03F7FF075A
:102FC800D8B240F1D88104EB0613587204EB05110E
:102FD8002B0191F81A01052802D9002081F81A015D
:102FE800E718508897F81A1140FA01F1C90711D467
:102FF800012187F81A1168B18707C0F3400109D485
:1030080040FA01FC1CF0010FCFB200F0B981E118C1
:1030180081F81A71E11891F81B01032802D90020E0
:1030280081F81B0104EB0616717A012903D90429DA
:1030380001D000219180E618908896F81B1140FA7B
:1030480001F111F001010ED186F81B1158B110F0F1
:10305800010108D140FA01F7FF07CEB240F195818E
:10306800234483F81B61142303FB054191F84A00AC
:10307800052802D9022081F84A0003FB054393F88A
:103088004B10042902D9002183F84B10142303FBA9
:103098000543B2F84A1093F84B0041FA00F0C00714
:1030A80012D4012083F84B0071B18807C1F34003A3
:1030B8000AD441FA03F6F707D8B240F16B8114231A
:1030C80003FB054383F84B00142303FB054393F8E4
:1030D8004C10032902D9012183F84C10142000FB5D
:1030E8000540B2F84C1090F84C3041FA03F313F055
:1030F800010310D180F84C3069B111F001030AD1F5
:1031080041FA03F6F607D8B240F14981142303FBCC
:10311800054383F84C00142303FB054393F84E1032
:10312800012902D9002183F84E10142000FB054024
:10313800B2F84E1090F84E3041FA03F313F0010341
:1031480010D180F84E3069B111F001030AD141FA6B
:1031580003F6F707D8B240F12781142303FB054390
:1031680083F84E00142303FB054393F84F100229FC
:1031780002D9002183F84F10142000FB0540B2F853
:10318800503090F84F1043FA01F111F0010110D1BD
:1031980080F84F106BB113F001010AD143FA01F620
:1031A800F607C8B240F10581142101FB054181F8F9
:1031B8004F00142101FB054090F84D60022E02D902
:1031C800002680F84D6001FB054191F85000052864
:1031D80002D9042081F85000142101FB054090F821
:1031E8005260012E02D9012680F8526001FB054188
:1031F80091F85500012802D9012081F855001421C1
:1032080001FB054191F85300022802D9002081F8FA
:103218005300142606FB0546B2F8520096F85310E0
:1032280040FA01F111F0010117D186F85310A0B14D
:1032380010F0010111D105E0E400002092BC000863
:10324800A002002040FA01F7FF07CEB240F1B68095
:10325800142101FB054181F85360142101FB05404D
:1032680090F856600C2E02D9002680F8566001FBB3
:10327800054191F84C00012809D191F84F60022EC0
:1032880005D1DF0740F19F80002381F84F301423D8
:1032980003FB0543012183F8571040F20111A3F8FD
:1032A800581094F82630052B02D9022384F82630CA
:1032B80094F82730042B02D9002384F82730B2F879
:1032C8009A0094F8273040FA03F313F0010F8A4B61
:1032D8000ED1012184F8271050B18607C0F34001B0
:1032E80006D440FA01F7FF07CEB271D583F82760FC
:1032F80094F82810022902D9002184F8281094F89B
:103308002910032902D9012184F82910B2F89C1048
:1033180094F8292041FA02F212F001020CD184F843
:10332800292049B111F0010206D141FA02F6F60747
:10333800D0B251D583F8290094F82A200C2A02D952
:10334800002284F82A2093F832200C2A02D900227D
:1033580083F8322093F82B20042A02D9002283F81C
:103368002B2000226549104611F9014F14F1780FFE
:1033780036DA087036E00133102B7FF41EAE25E6EE
:10338800013110297FF43CAE44E6013110297FF465
:1033980061AE68E60133102B7FF48BAE94E60133FF
:1033A800102B7FF4ADAEB6E60133102B7FF4CFAE11
:1033B800D8E6013110297FF4F1AEFAE6013110297F
:1033C8007FF440AF49E713F0020318BF03465CE7F8
:1033D8000131102985D18BE70132102AA5D1ABE73D
:1033E800782CC6DC0132D2B20C2ABDD14449002265
:1033F800012011F8014F0132022CD2B288BF0870A7
:10340800042AF6D193F83420012A02D9002283F83D
:1034180034203C4AB2F89E1093F8342041FA02F264
:1034280012F001020CD183F8342049B111F00102E5
:1034380006D141FA02F4E407D0B211D583F834007A
:1034480093F82C20052A02D9032283F82C2093F81C
:103458002D20032A08D80AD1002283F8342006E058
:103468000132102AE5D1EBE7022283F82D2093F8E8
:103478002E20022A02D9012283F82E2093F8302028
:10348800022A02D9002283F8302093F833200C2A2C
:1034980002D9002283F8332093F83520042A02D970
:1034A800002283F83520142202FB053191F85A00D6
:1034B800012802D9002081F85A0002FB0532FF21B9
:1034C80003EB05154FF6FF7082F8511082F854107F
:1034D80083F82F1083F831104FF0FF31C5F81C1115
:1034E800A5F820011962998482F85B00A2F85C10A3
:1034F800D986198703B0F0BDE40000201D01002023
:1035080029010020A0020020034670B50846052BBB
:1035180004D8DFE803F01D0421191D21FEE7202649
:103528001F250F22174CA3702277013B0122A4F814
:103538004860A4F84A50A276A273042B10D8DFE89A
:1035480003F010181B1B180009266F250722E9E74E
:10355800142632250A22E5E7352613251922E1E744
:10356800FEE7002323712374FDF792FF60736076F2
:1035780070BD22712274F7E7002323712374A376A8
:10358800A373F1E788000020044B012283F851203F
:10359800A3F85220A3F85420704700BF88000020E9
:1035A8002DE9F043794D7A4C00F1110805EB081725
:1035B80002378DB006463846FDF7B2FC4FEA0619C9
:1035C8000290042102A805EB0616FDF7FBFF96F80A
:1035D8001B31E0832BB103EB031303EB03231844E4
:1035E800E08305EB08135B7A062B40F0AC80E38B95
:1035F80003F5B5432533E38305EB081895F8270051
:10360800FFF7C2FF98F8091061708B1FA944012BBE
:103618008CBF0023012399F81A0184F85630FFF76C
:1036280073FF99F81B21E18B029BE1806182A36003
:1036380063612AB14FF0113000FB0233A36063616C
:1036480095F82600534B616213F9203023732376D3
:10365800002384F82A30637B84F8292023B938466C
:10366800FDF77EFC84F82A006078FDF711FF4A4ACE
:1036780084F82800128802F00101970748BF41F03A
:103688000201A185560742BFA18D41F00401A18521
:103698000346100742BFA18D41F01001A185D10654
:1036A80042BFA18D41F02001A185920642BFA28DA3
:1036B80042F00802A285394A03AE02F1200C1068D4
:1036C8005168374603C7083262453E46F7D110684D
:1036D8003860A278324E06210CA801FB030313447C
:1036E800B7EE087A13F8247C84F8207007EE907AF5
:1036F800F8EEE77A16E90F0067EE877A86E80F009A
:10370800FCEEE77A40F2E243CDED017A7F08A4F8B7
:103718004C309DF80430B4F84820A4F84E30052FFA
:103728004FF47A73B3FBF2F3A4F8403095F82C30D9
:1037380038BF052784F85070052B1AD8DFE803F046
:103748000B2216191C1F072B7FF456AFE38BA3F52A
:10375800B543263B4FE74FF416536364002384F8C0
:103768005730A4F858300DB0BDE8F0834FF4164335
:10377800F3E74FF46143F0E74FF4E133EDE74FF43B
:103788006133EAE74FF49643E7E700BFE40000201F
:1037980088000020E0C00008A002002054BA0008F9
:1037A800B800002002484FF4DE72FF2107F0D6BFB0
:1037B800E400002002484FF4DE71FEF747BE00BF68
:1037C800E400002002484FF4DE71FEF72BBE00BF74
:1037D800E400002008B5FFF7F5FF034B1878BDE8B3
:1037E8000840FFF7C3BB00BF8800002038B5FFF7CB
:1037F800D9FFFEF741FE04280CD0FFF7D3FFFEF7F0
:103808003BFE042803D1FFF7DDFF042806D0FFF7AD
:10381800C9FF03E0FFF7D6FF0428EED12649274861
:10382800264C102207F06EFF38B125491022204699
:1038380007F068FF08B1FFF7B5FFA38AB3F5215F6A
:1038480028D008D30025E8B20135FFF743FB0A2D3D
:10385800F9D10023E3774FF42153A382012522698C
:103868001549164842F6A1039A424FF010021CBFB0
:103878002361012507F046FF70B10F490F48102258
:10388800FDF71DFC0F4910480822FDF718FCFFF74B
:1038980091FF03E00025E2E7002DF8D10023E3774C
:1038A8000A4C2370FFF7AEFA2078FFF75FFB207809
:1038B800BDE83840FFF774BE99BC0008E40000205A
:1038C800AABC0008BBBC00089602002088000020A3
:1038D8000129F7B5054600D9FEE70B4E06EB0113A3
:1038E8001C460F016278F15D03619B7806F074F85D
:1038F800E3790193A379009322796379E1782846E3
:1039080006F091F803B0F0BD60D7000838B58368B9
:1039180004466BB1024652F8183BDD6900F1190301
:10392800A847217E20460222BDE8384006F0DDB8CF
:1039380038BD000070B58160897A86B0044601B14F
:10394800012106F022F8204606F0A2F9204606F0EA
:103958007AF9217BFF2903D0FA22204606F07FF965
:10396800A3685B7A013B042B04D8DFE803F0043E2C
:103978003E414100FEE7E922E121204606F0ACF98C
:103988000121204606F03CF99621204606F079F9F7
:103998003821204606F08BF9204606F08FF9A368F7
:1039A800204693F90810FFF7B1FFA3689D7A15B375
:1039B80019782046FFF78CFF00221146204605F0B3
:1039C800FEFF0023009340F2032220464FF6FF71CA
:1039D80006F058F820464FF6FF7106F07AF82046B0
:1039E80006B0BDE8704006F01BB9DB22D721C4E75A
:1039F8006F226B21C1E75E880E4B63614CF2503336
:103A0800009320460C4919230B2206F075F901236F
:103A1800CDE903335B23CDE9015310231946204632
:103A28000095042206F0A6F93146204606F0C6F9AC
:103A3800C2E700BF40D70008A086010010B50446C1
:103A480006F0EEF820464FF6FF71BDE8104006F08C
:103A580040B8000038B58168036891F90810DD693D
:103A6800044600F1190300F11802A847A3689A7ADE
:103A780042B11A78012A00D9FEE7044B03EB02137E
:103A8800236138BD024B6361FBE700BF60D70008C4
:103A980040D70008836810B5044683B103691BB991
:103AA80043690BB9FFF7D6FFA3689B7A1BB123695B
:103AB800B3F90C0010BD6369B3F91C00FAE71846A6
:103AC800F8E7836810B5044643B103691BB9436935
:103AD8000BB9FFF7BFFF94F9190010BD1846FCE7B2
:103AE80008B5836843B9FFF725FF7D20FEF7E2FBA1
:103AF800BDE80840FEF75ABB08BD000090F8D43076
:103B080053B190F8D520074B03EBC20153F832307C
:103B1800497953F821007047037C00EB8300406B20
:103B2800704700BFB0C0000813B5184B0288DB8B84
:103B38009A42044626D18378DB0625D48379812BE3
:103B480022D84FF6FF730D2201460DF10600ADF89D
:103B58000630FDF71DFDB4F80D20BDF806309A4279
:103B68000ED14C2204F10D01FDF712FDB4F85900F5
:103B7800BDF80630C01A18BF0120800002B010BD81
:103B88000320FBE70120F9E70220F7E7880000207F
:103B98000A7ACB7902F0070243EA022303804B7AC0
:103BA8000A7A03F03F035B0143EAD20343808B7A2E
:103BB8004A7A9B0043EA9213CA7A02F0010243EA66
:103BC800822383800B7BCA7A03F00F03DB0143EA6D
:103BD8005203C3800B7BC3F30112012A11D813F0DF
:103BE800300F14BF012300239B0203830B7B7F2B21
:103BF8000AD813F0C00F14BF012300239B0243838C
:103C0800704740F2FF73F0E740F2FF73F7E70A7A74
:103C1800CB7902F0070243EA022303804B7A0A7A3F
:103C280003F03F035B0143EAD20343808B7A4A7A6D
:103C38009B0043EA9213CA7A02F0010243EA822304
:103C480083800B7BCA7A03F00F03DB0143EA52033C
:103C5800C3800A7CCB7B02F0070243EA022303817C
:103C68004B7C0A7C03F03F035B0143EAD2034381A8
:103C78008B7C4A7C9B0043EA9213CA7C02F00102C7
:103C880043EA822383810B7DCA7C03F00F03DB01A7
:103C980043EA5203C3814B7DDB0003828B7DDB004B
:103CA8004382CB7DDB0083820B7EDB00C3820B7BF0
:103CB800C3F30112012A2BD813F0300F14BF0123CC
:103CC80000239B0203830B7B7F2B24D813F0C00FA8
:103CD80014BF012300239B0243830B7DC3F301120E
:103CE800012A1BD813F0300F14BF012300239B02B5
:103CF80083830B7D7F2B14D813F0C00F14BF0123CF
:103D080000239B02C3834FF480630384438470477A
:103D180040F2FF73D6E740F2FF73DDE740F2FF732E
:103D2800E6E740F2FF73EDE737B52E4BDB8B0380F8
:103D38004A78837862F3C30383704A79C37862F35D
:103D48008203C3708A79837962F30003837104461E
:103D580091F902000D46FCF7AEFFE37800F01F0270
:103D680003F0070343EAC203E3702379C0F3411069
:103D780023F0030303432371EA78DBB202F03F0226
:103D880003F0030343EA82032371EA786379C2F3F9
:103D9800801223F00103134363712A7962F3470306
:103DA80063716A7AA37802F0030203F03F0343EADF
:103DB8008213A3706A7AE378C2F3800223F00103C6
:103DC8001343E37059224FF6FF7321460DF10600A5
:103DD800ADF80630FDF7DCFBBDF80630A4F8593025
:103DE80003B030BD880000202DE9F3419DF8207014
:103DF8001546522F88464FF05B024FF000010446EB
:103E080028BF52271E4607F0A9FC3C4BDB8B2380BA
:103E18002A78A37862F30203A3706B784FEA081834
:103E2800DB0003F0080308F0300843EA0801A37830
:103E380023F038031943A1706A79E37862F38203A7
:103E4800E370AA79A37962F30003A37195F90200DC
:103E5800FCF731FFE37800F01F0203F0070343EAA1
:103E6800C203E3702379C0F3411023F00303034333
:103E78002371EA78DBB202F03F0203F0030343EA5E
:103E880082032371EB786279C3F3801322F0010275
:103E98001A4362712B7963F3470262716A7AA378D5
:103EA80002F0030203F03F0343EA8213A3706A7A25
:103EB800E378C2F3800223F001031343A279E3708D
:103EC800234667F3470203F8062F3744BE4210D152
:103ED8004FF6FF73592221460DF10600ADF8063062
:103EE800FDF756FBBDF80630A4F8593002B0BDE81E
:103EF800F08116F8012B03F8012FE7E7880000206E
:103F080007B5009313460A460121FFF76DFF03B07A
:103F18005DF804FB30B53A4B027893F8261061F34C
:103F28000302027093F8271061F30712027093F8E6
:103F38002810427861F30302427093F8291061F364
:103F48000712427093F82A10827861F30302827094
:103F580093F83210827961F30302827193F82B107F
:103F6800827861F30712827093F83410C27961F392
:103F78000302C27193F82C10C27861F30302C27075
:103F880093F82D1061F30712C27093F82E1002797E
:103F980061F303020271427993F8301061F303026E
:103FA800427193F83310827961F30712827193F8A2
:103FB8003510C27961F30712C27103F1390100F1BA
:103FC8000A0200F1160411F9015F02F8015FA2422A
:103FD800F9D193F84610C27D61F30102C27593F8D6
:103FE800471061F38302C27593F8481061F3051214
:103FF800C27593F8493063F38712C27530BD00BFAC
:10400800E40000200278344BC2F3030230B583F891
:1040180026200278C2F3031283F827204278C2F3DD
:10402800030283F828204278C2F3031283F8292078
:104038008278C2F3030283F82A208279C2F303024A
:1040480083F832208278C2F3031283F82B20C279D6
:10405800C2F3030283F83420C278C2F3030283F860
:104068002C20C278C2F3031283F82D200279C2F300
:10407800030283F82E204279C2F3030283F830202A
:104088008279C2F3031283F83320C279C2F3031290
:1040980083F8352003F1390100F10A0200F1160412
:1040A80012F9015F01F8015FA242F9D1C27DC2F3A2
:1040B800010283F84620C27DC2F3810283F84720BB
:1040C800C27DC2F3011283F84820C27DC2F3811277
:1040D80083F8492030BD00BFE400002070B55226A7
:1040E80098B0324604460D4603A8002107F036FB77
:1040F800212342F6A1008DF80C30FCF7CFFFADF874
:104108000E004FF42150FCF7C9FF1C49ADF8100010
:1041180014220DF11200FCF7D2FF1948FFF7D1FC69
:10412800184B8DF8260093F851308DF827300AA8DF
:10413800FFF7F0FE4FF68073ADF84630124A134B86
:10414800CDE91223124B149347F6FF73ADF85430A0
:10415800104BB3F89A208DF85620B3F89C20B3F88A
:104168009E308DF857208DF85830009603AB2A46BC
:1041780002212046FFF738FE18B070BDC1BC000808
:10418800701E00208800002001000A001900640049
:104198009E00FF7FA002002038B5104D044600F1B4
:1041A8001B01062205F58970FCF7EAFF94F8213017
:1041B800C3F3030385F8193194F82130C3F30313CB
:1041C80085F81A3194F82230C3F3030385F81B31BC
:1041D80004F12500BDE83840FFF714BFE4000020D3
:1041E8000B4A0C49126882600A6802614A680A49E7
:1041F80042610A6882614A68C26100234EF6602201
:10420800838083718381038402600385704700BFC4
:10421800EC2E0020D0BC0008D9BC000810B50E4C0C
:10422800A36803B9FEE70D4A12791A7000212046E7
:1042380005F094FB4FF47A70FEF73CF82046012114
:1042480005F0A3FBA36820461978FFF741FB204639
:10425800FFF7F4FB10BD00BF701E0020880000208F
:1042680038B5174D0446A878697805281CD14FF64B
:10427800FF732385FFF748F96B7801229A40238D55
:1042880023EA020323850F490F48FFF729FC0E484C
:10429800FFF7D4FB0C486FF07F01FFF737FB204690
:1042A800BDE83840FFF7BABF002323850220FFF797
:1042B8002BF96A7801239340228D13439BB2E1E7DF
:1042C800880000208C000020701E002008B590F89F
:1042D800203002468BB9FDF79BFF10B982F8210008
:1042E80008BD92F8213001335BB2312B82F82130BE
:1042F800F6DD012382F82030F2E7FDF789FF18B1D7
:10430800322382F82130EBE792F82130013B5BB28F
:10431800002B82F82130D8BF82F82000E0E70000A7
:104328000A4B90F820201B6872B182689B1AB3F57B
:104338007A6F01D901234371037923B9437913B102
:1043480001230371037370478360F5E7EC2E0020A7
:10435800037B9A1E012A4FF0000202D890F8201021
:1043680011B90273184670471346FBE70A4A38B575
:10437800138801339BB2502B04460D4601D8138095
:1043880038BD002305491380FDF78AFC29462046DD
:10439800FDF786FCF4E700BFB0030020E2BC00088C
:1043A8002DE9F84F154604460F467749FDF778FC86
:1043B80029462046FDF774FC744B0022012F1A8011
:1043C8004FF0904610D10223B362B76146F2A810AD
:1043D800FDF770FFB76246F2A810FDF76BFF29469C
:1043E8002046FFF7C3FFF0E7BB1E01220C2B00F2AB
:1043F800BE80DFE803F0374A5E1F07BCBCBC7171A2
:10440800717171004FF090464FF001080227C6F80D
:10441800188046F2A810B762FDF74CFFC6F828804E
:1044280046F2A810B761FDF745FF29462046FFF779
:104438009DFFEBE74FF090464FF001080227C6F8C2
:10444800188046F2A810B761FDF734FFC6F8288037
:1044580046F2A810B762FDF72DFF29462046FFF760
:1044680085FFEBE7B26202274FF09046B76146F24C
:10447800A810FDF71FFFB76246F2A810FDF71AFF54
:1044880029462046FFF772FFF0E70223B3610127B0
:104498004FF09046B76146F2A810FDF70BFFB762E0
:1044A80046F2A810FDF706FF29462046FFF75EFFF3
:1044B800F0E7B26102274FF09046B76146F2A810C4
:1044C800FDF7F8FEB76246F2A810FDF7F3FE29469D
:1044D8002046FFF74BFFF0E7A7F1090A5FFA8AFACF
:1044E80000264FF0010956453EBF4FF09043022287
:1044F8009A614FF004084FF0904B46F2A810CBF8A1
:104508001890FDF7D7FE46F2A810CBF82890FDF7D3
:10451800D1FE08F1FF3829462046FFF727FF18F09B
:10452800FF08EAD10223CBF828304FF004084FF0F7
:10453800904B46F2A810CBF81890FDF7BBFE46F258
:10454800A810CBF82890FDF7B5FE08F1FF382946EA
:104558002046FFF70BFF18F0FF08EAD10136A7F154
:104568000803F6B2DBB2B34238BF0026BBE702232A
:10457800B261B3614CF25030FDF79CFE29462046EB
:10458800FFF7F4FEF6E700BFE2BC0008B003002026
:1045980008B5437802789A4213D0052B8ABF0523C1
:1045A80003700370027888BF4370064B064813F9FE
:1045B8002210064B19731976836813B11972FFF725
:1045C800A5F908BDE0C00008701E00208800002082
:1045D8000A46014610B9024805F091B9704700BF74
:1045E800701E002038B515461C4690B9FDF79EFD93
:1045F8002B460A460146094805F05AF907484FF67E
:10460800FF7105F066FAA1010448BDE8384005F0DD
:1046180079BA0248FFF712FA38BD00BF701E0020B1
:104628002DE9F041194C05465B270E463A46002114
:10463800204607F093F8AB692360EB696360144B7D
:1046480014491B789A1E53425341627A63F300025D
:1046580062726FF05E02A27228220023E27204F1F5
:104668000E00142223736373FCF729FD5921204699
:10467800FCF7A8FF084BA4F859003A4621463046F3
:104688001B7FBDE8F041FFF7ADBF00BFFB1C00205A
:10469800A3030020C1BC00088800002037B50C46E1
:1046A80038B91A48836833B9812281F8A02081F883
:1046B800A23003B030BD9D7ADDB101F1A2020DF147
:1046C800060105F055FA94F9A230002B04DABDF87A
:1046D80006201344ADF80630BDF90630002B0FDB79
:1046E8004FF6FF73ADF80630BDF8063084F8A030F9
:1046F800DFE70DF1060105F072FB84F8A250EBE745
:104708007F33F1DA4FF68173ECE700BF701E0020AB
:104718000A4608B501460148FFF742FE2C00002072
:1047280000B591B00446684616461D4606F0B8FF27
:104738001849684606F0BCFF304604F0E7FF01461A
:10474800684606F0B5FF1449684606F0B1FF134BFA
:10475800684653F82510124D06F0AAFF114968461D
:1047680006F0A6FF9DF84830684655F8231006F075
:104778009FFF0D49684606F09BFF9DF84C30684640
:1047880055F8231006F094FF08486A462146FFF7BB
:1047980007FE00BFE4BC0008EBBC000800000020D6
:1047A80010000020F0BC0008F7BC00082C00002016
:1047B800024608B501480021FFF7F2FD2C00002051
:1047C8000023FF22037043708370C2700371704727
:1047D800C17829B98378017101338370012070474A
:1047E8000378012B1DD0022B05D08BB982780132BA
:1047F80082700371F2E7827843785340DB0703D471
:10480800013282700023F4E7FF2903D100230371EA
:104818000020704703790133DBB299420371EFD36B
:10482800F6E7FF29F2D002790132D2B29142027141
:10483800EED282780132827000220271CEE7000047
:104848000E48C3691A0617D503681B0614D50C4B06
:104858000C4A1988138889B29BB299420AD01388E6
:104868000133DBB213801388074A9BB2D35CDBB2F7
:1048780083627047FCF766BE704700BF0044004083
:10488800BC200020BA200020BA1F002009490A4A8B
:1048980008B50B8812880133DBB292B29A4207D06E
:1048A800064AD05406480B80FCF73AFE012008BDA2
:1048B8000020FCE7BC200020BA200020BA1F0020FE
:1048C8000044004038B504464518AC4200D138BD14
:1048D80014F8010BFFF7DAFFF7E708461146FFF770
:1048E800F1BF000070B588B00C4606461546002199
:1048F8002022684606F032FF231E18BF01231B033F
:10490800CDE9023569460C230348019604940593C2
:1049180006F00EFE08B070BD0044004010B5064C0D
:10492800236823F001032360FFF7DCFF236843F0CB
:104938000103236010BD00BF0044004008B531B139
:10494800002211460348FFF7E9FFFDF749FC012063
:1049580008BD00BF801A060008B541B14FF40052E7
:1049680004484FF48061FFF7D9FFFDF729FC0120C7
:1049780008BD00BFA086010008B531B1002211466C
:104988000348FFF7CBFFFDF71BFC012008BD00BF64
:104998009A5B060008B541B14FF4005204484FF441
:1049A8008061FFF7BBFFFDF71BFC012008BD00BFBE
:1049B800A086010013B5374C236823F00103236058
:1049C8004FF40030FCF790FD08210123CDE90013D6
:1049D800314803230A22FDF701FA002211462F4825
:1049E800FFF780FF636823F490436360A36823F0B4
:1049F8002A03A360236823F0005323604FF040226A
:104A080002F5816353E8003F23F0604302F58160BB
:104A180040E800310029F3D14FF0402202F58163CC
:104A280053E8003F23F0606302F5816040E80031FD
:104A38000029F3D11A4BC02283F8262340245C6056
:104A48001448FCF77FFDFCF774FD164B04621980CF
:104A5800154B1980436823F400634360836823F08F
:104A680008038360436823F480434360836823F02A
:104A780022038360836843F480538360036843F0B0
:104A880001030360C3699A02FCD5C3695B02F9D5C7
:104A980002B010BD0044004000040048A086010098
:104AA80000E100E0BA200020BC20002030B51C4CFA
:104AB80085B00E2200210546684606F04FFEB4F880
:104AC800A030ADF800302046FCF7A1F88DF80200C0
:104AD8002046FCF793F8B4F8A4308DF80300114889
:104AE800ADF80430FEF7EDFF94F8A6308DF80730E6
:104AF80094F8A9308DF80830B4F8AA30ADF80A3027
:104B0800094B8DF806009B788DF80C306946012317
:104B180028468DF80D3004F0A2F805B030BD00BF6E
:104B2800B41D0020701E0020880000200148FEF7F8
:104B380001B900BFB11D0020F8B5154D0E46074656
:104B48005B232946304614462A46FFF741FDD7E93C
:104B5800041328686A689A4208BF884209D000246A
:104B680030460C49FFF79AFD002C0CBF01200320AA
:104B7800F8BD59212846FCF725FDB5F85930834280
:104B8800EDD114B1FFF7D2FFEAE70124E8E700BF4F
:104B9800A91E0020B41D002013B5012104460844B5
:104BA800FCF710FDA178ADF806000DF10600FCF742
:104BB800E3FCE178FCF7E0FC2179FCF7DDFC6179A6
:104BC800FCF7DAFCA179FCF7D7FC04F10801032211
:104BD800FCF7DEFC627804F10C01FCF7D9FC94F8D0
:104BE8002311FCF7C9FCBDF80630A4F80C3102B05B
:104BF80010BD00000038024B18BF01201870704724
:104C08006803002070B552BB042B5BD89EB22BB34F
:104C18004F4C94F828301546626A0333DBB2D20051
:104C280084F82830626213E0083BDBB284F828304D
:104C3800B1F800C0BCF5817F0CF1010E40D2626A68
:104C4800A1F800E022FA03F300F80C3094F82830B9
:104C5800072BE9D80135AAB29642DDD870BDFF2AE4
:104C6800FCD1032B51D81FFA83FC002BF6D0384C0B
:104C780094F828304FF0000E626A04331201DBB258
:104C880042F0020284F82830626210E0083BDBB28E
:104C980084F828300A88B2F5817F02F1010610D223
:104CA800656A0E8025FA03F3835494F82830072B9D
:104CB800ECD80EF1010E1FFA8EF29445DCD870BDC7
:104CC800FEE7FEE7224C626A03F5C06343EA42321C
:104CD80094F8283062620D33DBB284F8283010E093
:104CE800083BDBB284F828300A88B2F5817F02F1EC
:104CF800010609D2656A0E8025FA03F3835494F8F5
:104D08002830072BECD870BDFEE7114C626A03F51A
:104D1800E06343EA423394F82820636202F10D030A
:104D2800DBB284F828300EE0083BDBB284F8283088
:104D38000A88B2F5817F09D2656ADD40531C0B8071
:104D4800855494F82830072BEED870BDFEE700BFD5
:104D5800BC0500202DE9F84F644C0027FF250F8083
:104D680005708025676284F82870A5779946002B1E
:104D780000F0AF8003F1FF3A0B8812FA8AFA561E48
:104D880002F1FF08BB463A46FF2B16F8015F0DD823
:104D98008AB15D450BD10137BFB2994540F2868093
:104DA800B24500F08680B045EED1FEE7FEE7FBB2E3
:104DB8005A46FFF727FF6B1EDBB2FD2B2AD83F2B85
:104DC80051D905F14103DBB23F2B28D894F82820AC
:104DD800636A0135EDB20832D2B245EA032384F89A
:104DE8002820636211E0083AD2B284F828200B88A0
:104DF800B3F5817F03F1010C34D2656AA1F800C0D4
:104E080025FA02F2C25494F82820072AEBD80B8816
:104E18000022C2E701270B88AB463A46BDE794F863
:104E28002820636A3F35EDB20932D2B245EA4323FE
:104E380084F82820636211E0083AD2B284F8282066
:104E48000B88B3F5817F03F1010C0AD2656AA1F8DA
:104E580000C025FA02F2C25494F82820072AEBD899
:104E6800D5E7FEE7FEE794F82820636A7F35EDB2C0
:104E78000832D2B245EA032384F82820636211E09D
:104E8800083AD2B284F828200B88B3F5817F03F161
:104E9800010C0AD2656AA1F800C025FA02F2C254D0
:104EA80094F82820072AEBD8B1E7FEE70020BDE8F0
:104EB800F88FAAB994F8282062B1646AC2F108028E
:104EC8000125944005FA02F2013A22435C190C804C
:104ED800C2540B88994594BF00200120BDE8F88F83
:104EE800FBB25A46FFF78EFE0B88E3E7BC050020AD
:104EF8002DE9F04F47F26F730022827003800B7820
:104F0800A3F1FE03B3FA83F35B0983708A780D4635
:104F180012F001011CBF43F080038370D5F82021F3
:104F280022F07F4222F0FF0285B0044612B143F01E
:104F380008038370AA68C2F31702FF2A1ED9B2F5C4
:104F4800803F18D363F07F03A37041F002014FF054
:104F5800020E09234FF00A0C0822E1700B20CDF84D
:104F680004C01E4617464FF007094FF0060A4FF0D7
:104F7800050B042117E043F00203A370180600F1A3
:104F8800DF8008234FF0090C07220A204FF0000E9B
:104F9800CDF804C01E4617464FF006094FF0050A23
:104FA8004FF0040B032195F8018004F8018004EB0D
:104FB8000108297904F80B10697904F80A10A9790D
:104FC80004F80910A178090709D595F82111A15409
:104FD80095F82211A1550346674662460646A96818
:104FE800A154A278900707D5BA1C1F46AB68C3F333
:104FF8000F23A35596B23346BEF1000F05D05A1CB5
:105008001F46AB7AA35596B23346A278D10606D589
:105018005A1C1F4695F82331A35596B233464A4A7F
:10502800127803F1010914FA89FA05F10C0B42B15F
:105038006B785A460DF10E015046FFF78BFE00289B
:105048005CD16A78504659461FFA82FA06F04CFB42
:1050580022783E4B6178D243D2B2072F9A5C82EA1B
:105068000102995CA27882EA0102995CE27882EAFC
:105078000102995C227982EA0102995C627982EAEA
:105088000102995CA27982EA0102995CE27982EADA
:1050980001029A5C1BD0217A4A40082F9A5C16D0EC
:1050A800617A4A40092F9A5C11D0A17A4A400A2FA6
:1050B8009A5C0CD0E17A4A400B2F9A5C07D0217B8E
:1050C8004A400C2F9A5C1EBF617B4A409A5CA255ED
:1050D8001AFA89F39BB2B3F5947F0ED2B5F80C2176
:1050E800E254981CB5F80C115A1C92B280B2090A05
:1050F800B0F5947FA1540AD3FEE7FEE7A378BDF884
:105108000EA043F04003A37088F800A0A0E7AA7897
:10511800D20702D405B0BDE8F08FD5F81071D5F8E4
:105128001811D5F81461275022180F335660916072
:1051380098B295F81C111173B0F5947FEAD3FEE785
:105148004FF0000E05E700BF6803002024C10008E7
:105158002DE9F84FB14C15460F4680460146B04838
:1051680006F0C2FA00228023B5F5817F3A802284B6
:10517800626284F822304FD2A94E84F828204FF07A
:10518800FF099246012A76D8B4F820C0654540F256
:10519800B180616A16F80C3002F108000CF1010CBC
:1051A800C0B243EA0123A4F820C0A0F1020C23FAFC
:1051B8000CF1063201F003015FFA82FE02296362F4
:1051C80084F828E000F0BD80032944D0012924D1C7
:1051D800BEF1060F0DD8228C954240F28B80B15C4F
:1051E80000F1060E41EA032301325FFA8EFE2284A3
:1051F8006362AEF1070E23FA0EF303F07F037D2BF3
:1052080084F828E076D83A88FF2A23D84133511CFD
:10521800398008F8023019E0FEE7BEF1000F6BD1C3
:10522800228C954266D9B15C013241EA032322847B
:10523800072284F828201A06636200F1C8803B8898
:10524800FF2B06D85A1C3A8008F803A094F82820A7
:1052580098E7FEE7FEE7AEF1060E5FFA8EF284F8F5
:1052680028203A8823FA0EF3FF2A03F03F0301D8D7
:10527800413BCCE7FEE7636AA2F1020C23FA0CF18A
:1052880001F003015FFA8CFE022984F828E003D0BC
:1052980003291CD0104699E7BEF1050F51D8218C7F
:1052A8008D4227D9705C02F1060E40EA03230131D2
:1052B8005FFA8EFE63622184AEF1060E23FA0EF3C6
:1052C80084F8282003F03F033A8801339FE7BEF1B2
:1052D800050FC0D8218C8D420CD9705C02F1060EE6
:1052E80040EA032301315FFA8EFE21846362AEF146
:1052F800060EB4E7BDE8F88F0CF1FF3123FA01F18F
:105308000EF1FF32D2B2C90784F8282097D5F2B936
:10531800228C9542EED9B15C013241EA0323228402
:105328000722636284F8282013F0800F40F08C80F5
:105338003B88FF2B00F287805A1C3A8008F80390BC
:1053480084E7AEF1060E636A5FFA8EF2B6E7013AB9
:1053580023FA02F1AEF10202D2B2C80784F828207B
:10536800E6D5002A5ED1228C9542C3D9B15C41EAC8
:1053780003230132072118062284636284F8281067
:1053880058BF08222AD4B4F820C06545B2D90732DC
:10539800D0B216F80C2042EA03220CF10103238450
:1053A80062621346083884F82810C34038885FFAC8
:1053B80083FB00EB0B03FF2B0FDC40445A46002114
:1053C80006F0CCF93B880BEB03023A803EE7062255
:1053D80084F8282013F0400FA8E7FEE708460822C3
:1053E800218C8D4286D916F801C007324CEA032376
:1053F8000131D2B22184636284F82800083A23FA82
:1054080002F238885FFA82FB00EB0B03FF2B03DC08
:1054180040445A46FF21D3E7FEE700BFBC05002001
:1054280090040020511EAEF1030023FA01F1C0B22E
:10543800C90784F8280011D407280DD9AEF10B014B
:10544800636AC9B2AEE7FEE7511EC8B223FA01F19A
:10545800C90784F8280001D4014694E70728BFD972
:10546800A0F108010246C8B2C6E700BF2DE9F04F17
:105478005788B7F58F7F8BB0144606460BD90022A4
:10548800227000226F2B628000F025810023337088
:105498000BB0BDE8F08F12780E2A0D4624D80E2ADC
:1054A80000F2D58001A151F822F000BF8B5400080A
:1054B80063560008575600085756000863560008F8
:1054C80063560008635600086356000863560008D0
:1054D80063560008BB560008575600085756000880
:1054E8005756000897560008692A40F2AE806A2A83
:1054F80040F0AD80A74FF98A4A1E92B2002900F009
:1055080021810332DFF890E207EB020CB91CFF227D
:1055180011F8010B424061451EF80220F8D1934270
:1055280000F0FE804FF0000984F80090C4F8029063
:10553800A4F80690B7F81680B8F1020FA6D997F824
:1055480004A0BAF16F0F00F05A83B8F1030F9DD091
:105558007A796F2A00F06F83B8F1040F96D0BA7980
:105568006F2A00F06E83B8F1050F8FD0FA796F2A91
:1055780000F06483B8F1060F88D03A7A6F2A00F0F9
:105588006C83B8F1070F81D07A7A6F2A00F06283B2
:10559800B8F1080F3FF47AAFBA7A6F2A00F0578350
:1055A800B8F1090F3FF472AFFA7A6F2A00F04C8312
:1055B800B8F10A0F3FF46AAF3A7B6F2A00F05383C1
:1055C800B8F10B0F3FF462AF7A7B6F2A00F04E837D
:1055D800B8F10C0F3FF45AAFBA7B6F2A00F08D81F7
:1055E800B8F10D0F3FF452AFFA7B6F2A00F06683D3
:1055F800B8F10E0F3FF44AAF3A7C6F2A00F06A8385
:10560800B8F10F0F3FF442AF7A7C6F2A00F05F8346
:10561800B8F1100F3FF43AAFBA7C6F2A00F0548308
:10562800B8F1110F3FF432AFFA7C6F2A00F04983CA
:10563800B8F1120F3FF42AAF3A7D6F2A00F04D837C
:10564800B8F1130F3FF422AFFEE7632A05D8002311
:105658002370C4F80230E38019E74E4FFA8A122A01
:1056680014D8B91801328B70FA822278092A3AD9EB
:10567800A2F1640105293FF609AF653A042A00F250
:105688007783DFE802F06D6965618300FEE77A1CC5
:105698006280EB55E38862889A4245D30022628093
:1056A8002270B3F5947F4FF002020270438075D3E5
:1056B800FEE77A1C6280374EEB55A088727F6188BE
:1056C80083189942FFF6E4AE33785F0600F1B281A1
:1056D8000E232370DCE62F490A800122CA82642245
:1056E8008B702270D2E6002A3FF4D0AE013A082A25
:1056F8003FF6CCAE01A151F822F000BFB95800081E
:105708009554000895540008355700083557000887
:10571800E5580008775800083F580008AF580008B7
:105728000A2201232270B2E60123B0E66288B2F5AC
:10573800947F06D2511C6180AB54237801332370C7
:10574800A4E6FEE7FF22EAE60722FB7622709DE642
:105758006822BB76227099E601227B70227095E65A
:1057680062883B700021B2F5947F79700DD203F006
:105778000103033B511C6180AB5497F90030002BA7
:10578800C0F2BB820123237080E6FEE76A223B77E2
:1057980022707BE6BC05002024C100082B78FD2B75
:1057A80000F02681EB7803722B7943726B794360A2
:1057B8006A7808327280002240F28510DFF808C447
:1057C8007281FE210446013499424FEA540400F2E2
:1057D800DF80C0F0EA808B4240F023812B78FD2BDC
:1057E80000F01C814FF0060B2846DFF8DC8310F828
:1057F80001AF0BEB0A0909F1FF3189B2FBF7E2FEB1
:1058080004EB440708EB8707ADF8080039790191E4
:1058180002A8FBF7B1FE05EB090215F8093052782A
:10582800019903EB0223BDF808209BB29A4200F0CD
:10583800BE8005232BE66288B2F5947F15D2511CF1
:105848006180AB547B7813F0020340F012826288C7
:10585800B2F5947F0AD2511C6180AB543B78DD06C7
:105868004CBF69236A23237010E6FEE7FEE76288CF
:10587800B2F5947F15D2511C6180AB543B787A788D
:10588800134313F0020340F0EB816288B2F5947F72
:1058980008D2511C6180AB546288B2F5947FDAD388
:1058A800FEE7FEE7FEE76288B2F5947FD3D3FEE712
:1058B80062883A83B2F5947F0FD2511C6180AB5451
:1058C8003A787B7712F0010200F0D681062208337D
:1058D800A280E38004232370D8E5FEE76288B2F54E
:1058E800947F09D2511C6180AB543B781F074CBF91
:1058F800672307232370C9E5FEE74FF00C09B8F1C9
:10590800120F00D9FEE707EB080208F1010A1FFA97
:105918008AFA937002AB52461846AA49A7F816A00D
:1059280005F0E2FE00223A800122FA826F22BA7064
:105938006422227009F1010252450346BFF4A6AD64
:1059480008F1FF310DF10902A1EB09014A4412FAED
:1059580081F24B4401924FF06A0E4FF007084FF066
:10596800010900224FF0690AF98A12290FD878181C
:105978000131F98213F8011F81702078092800F29B
:10598800078100286FD101999942EDD17EE5FEE7A4
:10599800601E1418824204F1010744D227F0010165
:1059A80001EB57015CF821100DE72246F1E7BB79BE
:1059B800DA0706D5FA79924582BF521912F80B20F8
:1059C800B2729B070BD56300234408EB83036A7804
:1059D8001B7A9A4282BF5B1913F80B30F37263008B
:1059E800234408EB8308317398F8053073734FE547
:1059F8006B790372AB7943726B7A297AEA791B0463
:105A080003EB0123134443606A7802F10C014180DF
:105A1800A978C9077FF5CFAE1932CBE64FF00A0B4C
:105A2800E2E6032333E5684902EB4200144651F8E5
:105A38002010D0E602A92844FFF78AFB737FBDF83F
:105A480008106288CB1A9BB21A446280727F1A448B
:105A58007277E2881344E380338BB3F5947F01D2E5
:105A6800E95435E6FEE7013808288CD80FF2040C13
:105A78005CF820F0BD5A00088F5900088F590008BB
:105A8800A15A0008A15A00084F5B00080F5B0008E4
:105A9800715B0008ED5A00086088B0F5947F08D261
:105AA80000F1010CA4F802C02954217801312170B9
:105AB80069E7FEE760883883B0F5947F11D200F17A
:105AC800010CA4F802C029543878797710F0010045
