:020000040800F2
:1000000000000120E5B50008CFB50008D1B5000813
:10001000D3B50008D5B50008D7B50008000000002A
:10002000000000000000000000000000D9B500083A
:10003000DBB5000800000000DDB50008DFB50008F2
:1000400035B6000835B6000835B6000835B60008E4
:1000500035B6000835B6000835B6000835B60008D4
:1000600035B6000835B6000835B6000835B60008C4
:1000700035B6000835B6000835B6000835B60008B4
:1000800035B6000835B6000835B6000835B60008A4
:100090000000000035B60008AD89000835B600083C
:1000A00035B6000835B6000835B600088D350008AD
:1000B00035B600085931000835B6000835B60008D5
:1000C00035B6000835B6000835B6000835B6000864
:1000D000552E00087156000835B6000835B60008E0
:1000E00035B6000835B6000835B6000835B6000844
:1000F00035B60008000000000000000035B600081A
:1001000035B6000835B600084189000835B6000844
:1001100035B6000835B6000835B6000835B6000813
:1001200035B6000835B6000835B6000835B6000803
:0801300035B6000835B60008E1
:1001380010F8012B11F8013B012A28BF9A42F7D089
:10014800D01A7047034613F8012B002AFBD1181A5E
:100158000138704781F0004102E000BF83F000439E
:1001680030B54FEA41044FEA430594EA050F08BF4A
:1001780090EA020F1FBF54EA000C55EA020C7FEA0E
:10018800645C7FEA655C00F0E2804FEA5454D4EB8B
:100198005555B8BF6D420CDD2C4480EA020281EA55
:1001A800030382EA000083EA010180EA020281EA8D
:1001B8000303362D88BF30BD11F0004F4FEA0131DF
:1001C8004FF4801C4CEA113102D0404261EB4101EE
:1001D80013F0004F4FEA03334CEA133302D0524274
:1001E80063EB430394EA050F00F0A780A4F1010430
:1001F800D5F1200E0DDB02FA0EFC22FA05F280186A
:1002080041F1000103FA0EF2801843FA05F359414F
:100218000EE0A5F120050EF1200E012A03FA0EFCCE
:1002280028BF4CF0020C43FA05F3C01851EBE371F8
:1002380001F0004507D54FF0000EDCF1000C7EEB15
:1002480000006EEB0101B1F5801F1BD3B1F5001F53
:100258000CD349085FEA30004FEA3C0C04F1010472
:100268004FEA445212F5800F80F09A80BCF1004F9B
:1002780008BF5FEA500C50F1000041EB045141EA1D
:10028800050130BD5FEA4C0C404141EB0101013CE6
:1002980028BFB1F5801FE9D291F0000F04BF0146D5
:1002A8000020B1FA81F308BF2033A3F10B03B3F1A7
:1002B80020020CDA0C3208DD02F1140CC2F10C0237
:1002C80001FA0CF021FA02F10CE002F11402D8BF95
:1002D800C2F1200C01FA02F120FA0CFCDCBF41EA61
:1002E8000C019040E41AA2BF01EB0451294330BD30
:1002F8006FEA04041F3C1CDA0C340EDC04F114040D
:10030800C4F1200220FA04F001FA02F340EA0300E3
:1003180021FA04F345EA030130BDC4F10C04C4F129
:10032800200220FA02F001FA04F340EA0300294609
:1003380030BD21FA04F0294630BD94F0000F83F453
:10034800801306BF81F480110134013D4EE77FEA36
:10035800645C18BF7FEA655C29D094EA050F08BF82
:1003680090EA020F05D054EA000C04BF1946104663
:1003780030BD91EA030F1EBF0021002030BD5FEAA7
:10038800545C05D14000494128BF41F0004130BDCF
:1003980014F580043CBF01F5801130BD01F0004523
:1003A80045F0FE4141F470014FF0000030BD7FEA96
:1003B800645C1ABF194610467FEA655C1CBF0B4691
:1003C800024650EA013406BF52EA033591EA030FA8
:1003D80041F4002130BD00BF90F0000F04BF0021A0
:1003E800704730B54FF4806404F132044FF00005D3
:1003F8004FF0000150E700BF90F0000F04BF00214C
:10040800704730B54FF4806404F1320410F00045B1
:1004180048BF40424FF000013EE700BF42004FEAAC
:10042800E2014FEA31014FEA02701FBF12F07F4329
:1004380093F07F4F81F06051704732F07F4208BFE0
:10044800704793F07F4F04BF41F40021704730B5E7
:100458004FF4607401F0004521F000411CE700BF33
:1004680050EA010208BF704730B54FF000050AE0B6
:1004780050EA010208BF704730B511F0004502D5B7
:10048800404261EB41014FF4806404F132045FEAB9
:10049800915C3FF4D8AE4FF003025FEADC0C18BF62
:1004A80003325FEADC0C18BF033202EBDC02C2F154
:1004B800200300FA03FC20FA02F001FA03FE40EAE6
:1004C8000E0021FA02F11444BDE600BF70B54FF0EA
:1004D800FF0C4CF4E06C1CEA11541DBF1CEA1355C8
:1004E80094EA0C0F95EA0C0F00F0DEF82C4481EA30
:1004F800030621EA4C5123EA4C5350EA013518BF50
:1005080052EA033541F4801143F4801338D0A0FB3C
:1005180002CE4FF00005E1FB02E506F00042E0FBE9
:1005280003E54FF00006E1FB03569CF0000F18BFEF
:100538004EF0010EA4F1FF04B6F5007F64F5407497
:1005480004D25FEA4E0E6D4146EB060642EAC6212A
:1005580041EA55514FEAC52040EA5E504FEACE2E97
:10056800B4F1FD0C88BFBCF5E06F1ED8BEF1004F9A
:1005780008BF5FEA500E50F1000041EB045170BD16
:1005880006F0004646EA010140EA020081EA03015A
:10059800B4EB5C04C2BFD4EB0C0541EA045170BD56
:1005A80041F480114FF0000E013C00F3AB8014F1D0
:1005B800360FDEBF002001F0004170BDC4F1000419
:1005C800203C35DA0C341BDC04F11404C4F120059A
:1005D80000FA05F320FA04F001FA05F240EA0200F5
:1005E80001F0004221F0004110EBD37021FA04F62B
:1005F80042EB06015EEA430E08BF20EAD37070BDE5
:10060800C4F10C04C4F1200500FA04F320FA05F043
:1006180001FA04F240EA020001F0004110EBD37045
:1006280041F100015EEA430E08BF20EAD37070BDB5
:10063800C4F1200500FA05F24EEA020E20FA04F38E
:1006480001FA05F243EA020321FA04F001F000413D
:1006580021FA04F220EA020000EBD3705EEA430EAE
:1006680008BF20EAD37070BD94F0000F0FD101F0DD
:100678000046400041EB010111F4801F08BF013C16
:10068800F7D041EA060195F0000F18BF704703F054
:100698000046520043EB030313F4801F08BF013DDB
:1006A800F7D043EA0603704794EA0C0F0CEA135597
:1006B80018BF95EA0C0F0CD050EA410618BF52EA51
:1006C8004306D1D181EA030101F000414FF0000057
:1006D80070BD50EA410606BF1046194652EA430665
:1006E80019D094EA0C0F02D150EA013613D195EAD9
:1006F8000C0F05D152EA03361CBF104619460AD121
:1007080081EA030101F0004141F0FE4141F470012A
:100718004FF0000070BD41F0FE4141F4780170BD1A
:1007280070B54FF0FF0C4CF4E06C1CEA11541DBF7F
:100738001CEA135594EA0C0F95EA0C0F00F0A7F881
:10074800A4EB050481EA030E52EA03354FEA0131AE
:1007580000F088804FEA03334FF0805545EA1313C1
:1007680043EA12634FEA022245EA111545EA106589
:100778004FEA00260EF000419D4208BF964244F120
:10078800FD0404F5407402D25B084FEA3202B61A3F
:1007980065EB03055B084FEA32024FF480104FF413
:1007A800002CB6EB020E75EB030E22BFB61A754687
:1007B80040EA0C005B084FEA3202B6EB020E75EB1A
:1007C800030E22BFB61A754640EA5C005B084FEA82
:1007D8003202B6EB020E75EB030E22BFB61A75464F
:1007E80040EA9C005B084FEA3202B6EB020E75EB5A
:1007F800030E22BFB61A754640EADC0055EA060E1B
:1008080018D04FEA051545EA16754FEA06164FEA5D
:10081800C30343EA52734FEAC2025FEA1C1CC0D109
:1008280011F4801F0BD141EA00014FF000004FF096
:10083800004CB6E711F4801F04BF01430020B4F157
:10084800FD0C88BFBCF5E06F3FF6AFAEB5EB030C0F
:1008580004BFB6EB020C5FEA500C50F1000041EB0C
:10086800045170BD0EF0004E4EEA113114EB5C04D9
:10087800C2BFD4EB0C0541EA045170BD41F48011AC
:100888004FF0000E013C90E645EA060E8DE60CEAB4
:10089800135594EA0C0F08BF95EA0C0F3FF43BAFD1
:1008A80094EA0C0F0AD150EA01347FF434AF95EA88
:1008B8000C0F7FF425AF104619462CE795EA0C0F6C
:1008C80006D152EA03353FF4FDAE1046194622E739
:1008D80050EA410618BF52EA43067FF4C5AE50EA13
:1008E80041047FF40DAF52EA43057FF4EBAE12E703
:1008F8004A0011D212F5001211D20DD56FF4787397
:10090800B3EB62520ED44FEAC12343F0004343EAEB
:10091800505323FA02F070474FF00000704750EA36
:10092800013002D14FF0FF3070474FF000007047A0
:1009380080F0004002E000BF81F0004142001FBF8C
:100948005FEA410392EA030F7FEA226C7FEA236C95
:100958006AD04FEA1262D2EB1363C1BFD21841408A
:1009680048404140B8BF5B42192B88BF704710F020
:10097800004F40F4000020F07F4018BF404211F0C3
:10098800004F41F4000121F07F4118BF494292EA2B
:10099800030F3FD0A2F1010241FA03FC10EB0C0057
:1009A800C3F1200301FA03F100F0004302D54942E4
:1009B80060EB4000B0F5000F13D3B0F1807F06D391
:1009C80040084FEA310102F10102FE2A51D2B1F189
:1009D800004F40EBC25008BF20F0010040EA03007E
:1009E8007047490040EB0000013A28BFB0F5000FFE
:1009F800EDD2B0FA80FCACF1080CB2EB0C0200FAB4
:100A08000CF0AABF00EBC25052421843BCBFD04002
:100A18001843704792F0000F81F4000106BF80F47C
:100A280000000132013BB5E74FEA41037FEA226C3F
:100A380018BF7FEA236C21D092EA030F04D092F00A
:100A4800000F08BF0846704790EA010F1CBF00203E
:100A5800704712F07F4F04D1400028BF40F000409B
:100A6800704712F100723CBF00F50000704700F0BB
:100A7800004343F0FE4040F4000070477FEA2262E2
:100A880016BF08467FEA23630146420206BF5FEAB3
:100A9800412390EA010F40F4800070474FF00003B3
:100AA80004E000BF10F0004348BF40425FEA000C7A
:100AB80008BF704743F0964301464FF000001CE022
:100AC80050EA010208BF70474FF000030AE000BF78
:100AD80050EA010208BF704711F0004302D54042B6
:100AE80061EB41015FEA010C02BF84460146002028
:100AF80043F0B64308BFA3F18053A3F50003BCFA43
:100B08008CF2083AA3EBC25310DB01FA02FC6344EF
:100B180000FA02FCC2F12002BCF1004F20FA02F2F6
:100B280043EB020008BF20F00100704702F12002E9
:100B380001FA02FCC2F1200250EA4C0021FA02F24A
:100B480043EB020008BF20EADC7070474FF0FF0C4F
:100B58001CEAD0521EBF1CEAD15392EA0C0F93EA4A
:100B68000C0F6FD01A4480EA010C400218BF5FEAEC
:100B780041211ED04FF0006343EA501043EA51115F
:100B8800A0FB01310CF00040B1F5000F3EBF490059
:100B980041EAD3715B0040EA010062F17F02FD2A5D
:100BA8001DD8B3F1004F40EBC25008BF20F0010040
:100BB800704790F0000F0CF0004C08BF49024CEA57
:100BC800502040EA51207F3AC2BFD2F1FF0340EAE9
:100BD800C250704740F400004FF00003013A5DDC5A
:100BE80012F1190FDCBF00F000407047C2F100029B
:100BF800410021FA02F1C2F1200200FA02FC5FEA88
:100C0800310040F1000053EA4C0308BF20EADC70D1
:100C1800704792F0000F00F0004C02BF400010F443
:100C2800000F013AF9D040EA0C0093F0000F01F0F0
:100C3800004C02BF490011F4000F013BF9D041EA12
:100C48000C018FE70CEAD15392EA0C0F18BF93EA14
:100C58000C0F0AD030F0004C18BF31F0004CD8D13E
:100C680080EA010000F00040704790F0000F17BFC5
:100C780090F0004F084691F0000F91F0004F14D00B
:100C880092EA0C0F01D142020FD193EA0C0F03D163
:100C98004B0218BF084608D180EA010000F0004066
:100CA80040F0FE4040F40000704740F0FE4040F441
:100CB800400070474FF0FF0C1CEAD0521EBF1CEAE0
:100CC800D15392EA0C0F93EA0C0F69D0A2EB0302FE
:100CD80080EA010C49024FEA402037D04FF0805398
:100CE80043EA111143EA10130CF000408B4238BF5D
:100CF8005B0042F17D024FF4000C8B4224BF5B1A6B
:100D080040EA0C00B3EB510F24BFA3EB510340EAB8
:100D18005C00B3EB910F24BFA3EB910340EA9C0066
:100D2800B3EBD10F24BFA3EBD10340EADC001B01D6
:100D380018BF5FEA1C1CE0D1FD2A3FF650AF8B427A
:100D480040EBC25008BF20F0010070470CF0004C87
:100D58004CEA50207F32C2BFD2F1FF0340EAC250B2
:100D6800704740F400004FF00003013A37E792F073
:100D7800000F00F0004C02BF400010F4000F013AD1
:100D8800F9D040EA0C0093F0000F01F0004C02BFCC
:100D9800490011F4000F013BF9D041EA0C0195E735
:100DA8000CEAD15392EA0C0F08D142027FF47DAFCE
:100DB80093EA0C0F7FF470AF084676E793EA0C0FBE
:100DC80004D14B023FF44CAF08466EE730F0004CBC
:100DD80018BF31F0004CCAD130F000427FF45CAF4C
:100DE80031F000437FF43CAF5FE700BF4FF0FF3CBA
:100DF80006E000BF4FF0010C02E000BF4FF0010C0D
:100E08004DF804CD4FEA40024FEA41037FEA226CD5
:100E180018BF7FEA236C11D001B052EA530C18BFF7
:100E280090EA010F58BFB2EB030088BFC81738BF5C
:100E38006FEAE17018BF40F0010070477FEA226C4A
:100E480002D15FEA402C05D17FEA236CE4D15FEA46
:100E5800412CE1D05DF8040B704700BF844608467A
:100E68006146FFE70FB5FFF7C9FF002848BF10F13B
:100E7800000F0FBD4DF808EDFFF7F4FF0CBF012080
:100E880000205DF808FB00BF4DF808EDFFF7EAFF0A
:100E980034BF012000205DF808FB00BF4DF808EDC5
:100EA800FFF7E0FF94BF012000205DF808FB00BFBA
:100EB8004DF808EDFFF7D2FF94BF012000205DF840
:100EC80008FB00BF4DF808EDFFF7C8FF34BF01204D
:100ED80000205DF808FB00BF4FEA4002B2F1FE4F68
:100EE8000FD34FF09E03B3EB12620DD94FEA0023E4
:100EF80043F0004310F0004F23FA02F018BF4042BD
:100F080070474FF00000704712F1610F01D14202A3
:100F180005D110F0004008BF6FF0004070474FF057
:100F28000000704742000ED2B2F1FE4F0BD34FF0D3
:100F38009E03B3EB126209D44FEA002343F0004347
:100F480023FA02F070474FF00000704712F1610F6A
:100F580001D1420202D14FF0FF3070474FF000003C
:100F6800704700BF0348044B834202D0034B03B1D0
:100F78001847704748000020480000200000000083
:100F88000548064B1B1AD90F01EBA301491002D0E3
:100F9800034B03B118477047480000204800002061
:100FA8000000000010B5064C237843B9FFF7DAFFBC
:100FB800044B13B10448AFF300800123237010BD24
:100FC800480000200000000088CD000808B5054B47
:100FD8001BB105490548AFF30080BDE80840FFF79D
:100FE800CFBF00BF000000004C00002088CD0008E3
:100FF8000022427082700122C270B1FA81F102228D
:1010080049090271032201704271704743788B428B
:101018001FD0012941700AD0022910D0C1B901237B
:10102800C3708170022303710323437170470378EF
:1010380043B1012383700223C3700023F3E70378CD
:10104800002BF6D0022383700023C3700123EAE744
:10105800FEE7704782B00B88ADF800304B88ADF8DA
:1010680002308B88ADF80430CB88ADF806300239F1
:10107800431C053013F8012F0DF1080C0CEB42024C
:10108800834232F8082C21F8022FF3D102B07047BE
:1010980008448078704738B54FF07F33C0F8A030E7
:1010A80004464FF6FF737F220025A0F8A43080F88D
:1010B800A62080F8A950A0F8AA30AC3000F010FDA6
:1010C800A4F8B85038BD70B51146154604461E46FA
:1010D80000F046FD294604F1140000F041FD2946C0
:1010E80004F1280000F03CFD294604F13C0000F022
:1010F80037FD294604F1500000F032FD294604F17D
:10110800640000F02DFD294604F1780000F028FD68
:10111800294604F18C0000F023FD04F1AC003246AE
:101128004FF4FA734FF4FA6100F0C0FC2046BDE8B2
:101138007040FFF7B0BF704700F019BD143000F0E1
:1011480016BD283000F013BD90F8A43013B990F9FB
:10115800A000704790F9A100704790F8A43013B927
:1011680090F9A200704790F9A300704710B50446A3
:1011780007F078FE38B104F1140000F0FCFC0128F7
:1011880038BF0120C0B210BD10B5044607F06AFE92
:1011980038B104F1500000F0EEFC012838BF0120FE
:1011A800C0B210BD4FF47A71AC3000F0A0BC002181
:1011B800AC3000F09CBC08B5AC3000F0A9FCB0F530
:1011C8007A7FA8BF4FF47A7020EAE07008BD10B5A6
:1011D800044600F0A6FC04F1140000F0A2FC04F19F
:1011E800280000F09EFC04F13C0000F09AFC04F199
:1011F800500000F096FC04F1640000F09EFC04F13D
:10120800780000F09AFC94F8B93013B1013B84F8E7
:10121800B93010BD7F2807D0002807DA10F1800FF9
:1012280006D04042C0B27047002070470120704786
:101238007F20704710B1404240B270477F2070470E
:101248007F280FD010F1310F0EDA10F1780F0DDB77
:101258007830FE2340B2584323304623B0FBF3F0E6
:10126800C0B27047FF207047FE20704700207047CB
:101278007F2805D031B1002806DA4042C0B2704755
:10128800FF207047FE207047002070477F2811D04C
:1012980010F1310F10DA10F1780F10DB783040F2CE
:1012A800A96340B2584323304623B0FBF3F0AC3077
:1012B80080B270470020704740F255707047AC20EC
:1012C800704763289FBF40F2A963584332306423B4
:1012D8009DBFB0FBF3F0AC3080B240F25570704760
:1012E8004FF4F063A0F58060584340F2FF7390FB21
:1012F800F3F000F5787080B27047FFF7F1BF4FF454
:101308009663A0F58060584340F2FF7390FBF3F0BA
:1013180000F2DC5080B27047A0F58060D0EB00107E
:1013280048BF033040F38F007047032812DD0C28B4
:1013380012DD0F2812DD122812DD162812DD1928F9
:1013480012DD1C2812DD1F2812DD2128CCBFFF204A
:101358000620704700207047012070470220704720
:101368000820704703207047072070470420704703
:101378000520704705289ABF014B185CFF2070476D
:1013880032CE00087F281ABF4042C0B20020704702
:101398007F2811D010F1320F10DA884210DD401A80
:1013A8006423C1F1FF21584301F57F01CE3131306B
:1013B80090FBF1F0C0B27047FF207047642070477F
:1013C80000207047014B4840185C704738CE000831
:1013D80052B110B4054C0A4411F8013B58408A42F6
:1013E800205CF9D110BC7047704700BF38CE0008A8
:1013F800002805DB212805DC044B33F81000704772
:10140800002070474FF4FA60704700BF62CF0008B1
:10141800392808D822280ED9094B2338C0B2C3402E
:1014280003F0010070475F2807D0613819288CBF86
:10143800002001207047002070470120704700BF3E
:1014480001EC7F00F8B50246451E461D00245F27C3
:1014580015F8010FFF2804BF0134E4B2FFF7D8FFE5
:1014680000B92F70AE42F3D1062C04D119B10B6824
:1014780013608B88938000239371F8BD2DE9F8439E
:10148800DFF83490471E441D012500264FF0280838
:1014980017F8011F08480BF024FC034610B1A0EB15
:1014A8000903DBB2A3FB05329E19A742A5FB08532B
:1014B800EED13046BDE8F88338CF000810B5417941
:1014C800A1F13000C3B2092B07D80523B0FBF3F311
:1014D80003EB8303C01AC0B210BD044C20460BF0C6
:1014E80000FC0028F1D0001BC0B2EEE738CF00089E
:1014F80070B50446FEF726FE02B20023551E18B248
:10150800A84204FA83F104DA265C302E03F10103C1
:10151800F5D0121A01322046BDE870400BF00EBC1F
:101528002DE9F047432B28BF432396B00C461546B8
:1015380000211A46984607460BF01AFC0021412262
:1015480005A804910BF014FCDFF87C90DFF87CA070
:1015580004EB4505AC4210D104A8FEF7F3FD28B111
:1015680000F158036B44002203F8492C04A93846BB
:101578000BF0A0FB16B0BDE8F08734F9020B47F674
:10158800FF739842E8D0002812DC514668460BF0F9
:1015980091FB04A8FEF7D6FD06466846FEF7D2FD85
:1015A8000644B045D6D3694604A80BF08BFBD1E7B7
:1015B800694680B209F0F5F86846FFF799FF494691
:1015C80068460BF07FFBE4E7E9CD0008E4CD0008AE
:1015D800F0B589B06D4600242F468E1CE1B28A42D0
:1015E80004D83946FFF79CFF09B0F0BD36F824103F
:1015F80025F8021B0134F1E742F210736421B0FBB5
:10160800F3F203FB1200B0FBF1F301FB130000EB54
:10161800023000EB831080B2704770B50E4600218F
:10162800054614460BF0A4FB00239AB2944200D856
:1016380070BDF25C002AFBD0EA540133F5E70000E4
:10164800072914D8DFE801F00407090B0D0F111161
:101658000849FFF7E2BF0849FBE70849F9E70849E5
:10166800F7E70849F5E70849F3E70849F1E70849C2
:10167800EFE700BFEECD0008F3CD0008F8CD000875
:10168800FDCD000802CE000807CE00080CCE0008E9
:1016980011CE0008052911D8DFE801F00306080A71
:1016A8000C0E0749FFF7B9BF0649FBE70649F9E7FA
:1016B8000649F7E70649F5E70649F3E70649F1E77A
:1016C80013CE000818CE00081DCE000822CE000850
:1016D80027CE00082BCE000811CE000870B50E46A4
:1016E80014460021013205460BF042FB00239AB252
:1016F800944200D870BDF25C002AFBD0EA54013352
:10170800F5E7914206D19DF900008342CCBF002045
:101718000120704703290DD0032A09D0022909D0D6
:10172800022A05D0012905D0531E58425841704756
:1017380001207047002070477D23438043F239031E
:1017480009B2C360002301808180C380037270479F
:10175800C2680449044B01FB023323F00043C36011
:10176800980F7047FD430300C39E260010B501295A
:10177800044680790ED8042801D80130A071012AC6
:10178800E0790BD8042801D80130E071032925D16C
:101798004B2319E00028F2D00138EFE708B10138EF
:1017A800E07103290AD1032A18D19DF90820934230
:1017B80008DC3ADA23885B421BB205E002290DD126
:1017C800022AF1E7B4F9003062881A4412B27C2A7E
:1017D80030DD7D226280002222722FE09142D7D82C
:1017E80025D3012910D1012A0ED1A279E3799A4291
:1017F80008D302D96FF07C03E6E72046FFF7A8FF7D
:101808000028F7D07D23DFE7B4F90400B4F90030ED
:101818002288B4F90210002804DB7C29D4DD524266
:1018280013B2D1E77C31CFDBF9E70023CCE76FF0C7
:101838004A03C9E712F17C0F02DB6280A38010BD66
:101848004FF6837262800122C6E7000002680449ED
:10185800044B01FB023323F000430360180C70476C
:10186800FD430300C39E2600F0B5002597B0016034
:10187800858004465622294668460BF079FA0126E7
:10188800627CAA4209D80023802104F1B4002374A1
:1018980017B0BDE8F0400BF06BBA2046FFF7D6FF53
:1018A800E7797B1B002190FBF3F202FB1300C0B227
:1018B800EC460A46CBB29F421DD80023227B9A42AF
:1018C800DED0A279033A012A04EB050105D925B136
:1018D80091F91120D2B9012BD2D98B74A26852F890
:1018E8002310583304EB85026B440135516303F828
:1018F800586CEDB2C4E71CF801EBBEF1000F03D140
:101908008242DBD00132D2B20131D3E7501E83428A
:10191800E3DB01329342E0DCB2E700002DE9F04F4F
:10192800154697B0013D0160027104464371EDB25E
:10193800562200216846994600270BF019FA022D15
:1019480084BF4FF0010A00253E4694F807809CBFEB
:101958004FF0030AB8FBFAF8627CB24209D80023B8
:10196800802104F1B400237417B0BDE8F04F0BF0E8
:10197800FFB92046FFF76AFFA8EB060390FBF3F2D6
:1019880002FB13030020DBB2EC460246C1B28845D5
:1019980006D91CF801EBBEF1000F1BD19A4217D1F2
:1019A800414528BF4146227B01FB0A5303F0FF0350
:1019B8009A42D1D0A0680FFA83FC09F1FF3E50F893
:1019C8002C20BEF1030F0DD8DFE80EF006212427E6
:1019D8000132D2B20130D9E7DFF860E09644184A04
:1019E8009645B9D916B10FBB0129B5D9A2190F4629
:1019F800937404EB860350F82C205A6301F15803C2
:101A080001226B44164403F8582CF6B2A4E7DFF819
:101A180034E0E3E7DFF830E0E0E7A2F53D02DFF885
:101A28002CE0A2F59D42443A7245DAE77A1E9142CB
:101A3800DCDB7A1C9142D9DC8EE700BFC54E47FF3C
:101A48003BB10100776245FF287643FF3CB10100B6
:101A58000023C0E90133C36003747047F0B5047C08
:101A68000360012C11D944688568C668141B4FF4BB
:101A78007A774D1B7C4305FB16442B4494FBF3F308
:101A88003344C360C0E90121F0BD1CB9C46001231F
:101A98000374F7E743684FF47A74D31A634384688E
:101AA8000C1B93FBF4F3C3600223F1E72DE9F0412B
:101AB800044610461D4616468846FEF7EFFF0746C1
:101AC80006EB0800FEF7EAFF01463846FFF7F2F892
:101AD800656020602846FEF7E5FFA060BDE8F0815C
:101AE80010B504464068FEF7DDFFA06010BD38B5AC
:101AF800856804460846FEF7D5FF2946FEF71CFF11
:101B08002168FFF723F82946FEF718FFA06038BDC3
:101B180008B54FF07C518068FEF710FFFFF7DCF93D
:101B280008BDD0E901236421D31AC36082604B4306
:101B3800418AB3FBF1F303747047D0E90123D31A48
:101B4800C0E90223704743682BB1C26864214A4345
:101B5800B2FBF3F2D3B203740023C360436070474F
:101B68000023C0E90233418243600374704743682D
:101B7800013343607047007C704743680B444360FF
:101B880070470000072800D9FEE7014B185C704732
:101B9800DCCF0008052800D9FEE7014B185C704728
:101BA800E4CF000870477047002070470020704756
:101BB80000207047704700207047002070474FF0A2
:101BC800B04382B0DA6C0243DA64DB6C0340019301
:101BD800019B02B070474FF0B04382B09A6D024348
:101BE8009A659B6D03400193019B02B070474FF0CB
:101BF800B04382B01A6E02431A661B6E034001930B
:101C0800019B02B0704750E8003F23F0800340E892
:101C18000032002AF7D17047044B1888044B1B8800
:101C280080B29BB2C01A18BF01207047A42B0020B5
:101C3800A22B0020704770470288044B5140C9B25C
:101C480033F8113083EA12230380704744EA00080E
:101C58009AB110B4B0F800C0084C0A4411F8013B1E
:101C680083EA0C03DBB2914234F8133083EA1C2C6C
:101C7800A0F800C0F2D110BC7047704744EA0008D1
:101C880037B54FF6FF730446ADF806304518AC4239
:101C980003D1BDF8060003B030BD14F8011B0DF1E7
:101CA8000600FFF7C9FFF2E71629A8BF16216FF053
:101CB80008008142B8BF014611701970704708B515
:101CC800FFF7AAFF003818BF012008BD00207047A1
:101CD8000278024B51405B5C03707047E8D40008FF
:101CE800FF230370704700BF704770B50B7803700F
:101CF8004B7843700B78FD2B05460C4638D18B7812
:101D08008370CB78C3700B7903714B7943718B79EE
:101D180083718B68C3718B68C3F30F2303728B7A4B
:101D280043720A26627804F10C01A8190AF0E6FF4A
:101D38006378B4F80C213344981CEA545A1CB4F85C
:101D48000C1192B2090AA954A278D20780B20ED512
:101D580004F58872054404F58E7452F8041B45F89E
:101D6800041BA242F9D112782A700F3398B270BDC1
:101D780000238B700B7983704B79C3708B79037157
:101D88008B6843710626CDE708B52C22034800214D
:101D98000AF0EEFF024B00221A7008BD78060020F8
:101DA800480300202DE9F0411378037092F8018070
:101DB80080F80180FD2B04460F46154654D19378D0
:101DC8008370D378C370137903715379437193790E
:101DD80083716B7A127A1B0403EB0223EA791344AA
:101DE80023F07F430A26A26863F31702A260A919A9
:101DF800424604F10C000AF081FF7A7B904507D235
:101E080008F10C00A2EB0802002120440AF0B0FF00
:101E180063781E44AB195A78AB5D03EB0223A4F830
:101E28000C31A378DB070ED5023615FA86F304F5D4
:101E3800887203F10C0153F8040B42F8040B8B422F
:101E4800F9D11B781370BB7A84F82131FB7A84F8B6
:101E580022313B7B84F823317B7B84F824313B7827
:101E680084F82031BDE8F081002343809378037122
:101E7800D37843711379837153790626B3E7000049
:101E880070B50F4C0F4D0646062204F10A0105F500
:101E98008970FFF723FC237CC3F30302C3F3031306
:101EA80085F81A31637C85F81921C3F3030385F893
:101EB8001B31637ADB0744BF0223337370BD00BF55
:101EC8008D210020C400002070B50446BDF81450D0
:101ED800E2702420237122461B0A20706371582067
:101EE8002B0AA1706070A57102F8073F049B59196D
:101EF8008B420CD16A1D92B2E11C0020FFF768FAF0
:101F080005F10806A05505F1090080B270BD13F867
:101F1800010B02F8010FEBE70A4A0B4B12680B4959
:101F2800A3FB02323220920C00FB02F2084B4868F5
:101F380002F5FA72A3FB023292094B681B1A9A4205
:101F4800FBD870473C00002083DE1B43001000E0F4
:101F5800D34D621008B5FFF7DFFF024B04229A61E8
:101F680008BD00BF00040048024B04229A62FFF734
:101F7800D3BF00BF0004004802780A4B90F801C0A4
:101F88008178D243D2B29A5C82EA0C0290F803C0FC
:101F98009A5C4A40995C027981EA0C01595C4A4092
:101FA800985C7047E8D40008F8B53C29BDF81C5087
:101FB800044635D0A1F12106714271414900D0078C
:101FC80048BF41F00801E37092074FEA13234FF02E
:101FD800240248BF41F01001227023716F222B0A9E
:101FE800A61C6270A170A37165713046FFF7C4FF2B
:101FF8002246069B02F8070F59198B4212D1A91DD8
:1020080089B23046FFF73CFE05F1080705F10903E0
:102018009BB2E055000AE05405F10A0080B2F8BD11
:102028000121CCE713F8010B02F8010FE5E70000E6
:10203800074B084A5B6A02F5006353E8003F43F028
:10204800200302F5006040E800310029F3D1704711
:1020580000380140003001402DE9F04F0C4651880E
:10206800B1F58C7F85B0054611D300211170D91CBC
:10207800C9B2012995BF01210023518053809CBF1B
:102088002370117000232B7005B0BDE8F08F107815
:102098000E2800F28B8001A656F820F07720000861
:1020A800E12000080921000823210008B5210008C3
:1020B800B5210008B5210008B5210008B5210008A0
:1020C800B5210008B5210008B5210008B521000890
:1020D800B521000835210008481C50806354217838
:1020E800FD299BB206D10C330A21D38091800223AB
:1020F8001370C7E708330621D38091800E23F7E7D2
:10210800481C50806354D80742BFD1880D31D18014
:10211800012B8CBF00230323EAE7002B01F1010008
:102128005080635414BF00230E23E1E7481C5080FD
:1021380063545388D1888B4232D300235380137061
:1021480002232B7069802378FD2B35D163792B729C
:10215800A3796B72637A227A1B0403EB0223E27978
:1021680013446B60637803F10C026A80A278D1078C
:1021780001D519336B8000266968DFF8F0806E811D
:1021880040F285120C20B31801335B0800FB03F7FB
:1021980058F80770B94218D25A1EB242F3D816E05E
:1021A80092889A423FF66EAF01236CE700231370C2
:1021B80053809380D38066E7E3782B7223796B7220
:1021C80063796B6063780833D4E71E46E5D80C273B
:1021D800774358F80730994227D123782046FD2BBA
:1021E80010F801BF0CBF4FF00A094FF0060909EBC0
:1021F8000B03591E89B247440193FFF741FD97F835
:1022080004A0ADF80E0051460DF10E00FFF714FDC5
:10221800019BE218E35C527803EB0223BDF80E2021
:102228009BB29A4203D005232DE703232BE7BB7902
:10223800DA0706D5FA79934582BF04EB09018A5C6F
:10224800AA729B0709D50C2303FB068362781B7AC5
:102258009A4282BF4C44E35CEB720C2303FB068377
:1022680085F80CA05B796B730EE700BFE8D5000812
:10227800F0B50546FD2305F80C3B85B004468DF8FE
:10228800043090F8243103F10C020244012B42D8A7
:102298000026637066808DF805308B7A23718DF87F
:1022A80008308B7AADF8066001338B7263798DF84C
:1022B8000930A3798DF80A30A368C3F317031A12FB
:1022C8008DF80B3009211B140DF105008DF80D3028
:1022D8008DF80C20FFF7D4FC6778ADF802003A4679
:1022E80029460DF10200FFF7B3FC94F82311FFF71C
:1022F800A3FC94F82421BDF80230A4F80C319742CD
:1023080010D207F10C00D21B3146204405B0BDE8BD
:10231800F0400AF02DBD12F8010D0028B8D1013B9C
:10232800DBB2B3E705B0F0BD044A00231380044ACA
:102338001380044A1380044A13807047A22B00209C
:10234800A42B0020A62F0020A82F0020044AD2F892
:10235800903023F40043C2F89030FFF7DDBD00BF92
:102368000004005808B5FFF7D7FD044AD2F89030AA
:1023780043F40043C2F8903008BD00BF0004005881
:1023880007B503688DF807101B6901220DF10701D5
:10239800984703B05DF804FB70B5044608460D463F
:1023A800FDF7D0FE236882B2294620461B69BDE8A6
:1023B80070401847B0F1904F02D10120FFF7FFBBE2
:1023C800084B984205D003F58063984203D1042056
:1023D800F4E70220F2E7044B984201D18020EDE7B0
:1023E800704700BF00040048001C00480C4B98428E
:1023F80003D14FF40060FFF7FABBB0F1804F05D06E
:10240800084B984205D14FF40030F4E70120FFF75C
:10241800E2BB054B984202D14FF48020EBE77047AE
:10242800002C014000440140004801402DE9F043E0
:1024380087B00E46054614460021142201A89DF8CF
:1024480038809DF83C901F460AF092FC00960B2CB1
:1024580007D8DFE804F007070A1214141416161632
:102468001A1CFEE70323019301E002230493032FC0
:1024780011D8DFE807F0111321110123F6E7012332
:10248800F1E7012301930393F1E70223EBE702232A
:1024980001930123F7E7FEE702230293B8F1100F37
:1024A8000CD8DFE808F02D2D0C11131517191B1D7A
:1024B8001F21232527292B000123EEE7FEE701230F
:1024C8000593022301931EE00223F9E70323F7E7AC
:1024D8000423F5E70523F3E70623F1E70723EFE7EE
:1024E8000823EDE70923EBE70A23E9E70B23E7E7EE
:1024F8000C23E5E70D23E3E70E23E1E70F23DFE7EE
:10250800B8F1000FDDD1B9F1000F02D02846FFF76E
:1025180051FF053C042C05D8DFE804F0030B040345
:102528000B00AE626946284609F01CFF07B0BDE8FB
:10253800F083AE61F6E713B54FF0010C0024CDE946
:10254800004CFFF773FF02B010BD000030B587B034
:10255800002315460446ADF80630FFF747FF042D63
:1025680004D8DFE805F02E3204363F00FEE71E4BA4
:102578001E4A1B68B3FBF2F39BB20022CDE902218D
:10258800013B01A92046ADF80430049205920AF0F7
:1025980039F9236823F080032360A36823F4A03368
:1025A80023F00703A360636823F070036360636824
:1025B80023F470036360A36823F08003A36007B06B
:1025C80030BD094B0A4A1B68D4E7074B094A1B6808
:1025D800D0E7054B064A1B68B3FBF2F303EB830312
:1025E8005B00C9E70123C8E73C00002080A812016E
:1025F80040420F0000127A0010B50446FFF7A6FF0C
:10260800236843F00103236010BD00224FF0FF311F
:10261800FFF7F2BF204B10B5204C5B68236009F030
:1026280007F84FF0904009F05FFE1D4809F05CFE86
:102638001C4809F059FE1C480AF072FA1B480AF0B7
:102648006FFA1B480AF080F809F0EAFF4FF0E02221
:1026580000234FF0B0411361536193618A6822F0FF
:10266800030242F001028A6072B64FF0FF319A000D
:1026780002F1604202F561420133082BC2F8801072
:10268800C2F88011F3D162B6034B1B6883F3088844
:1026980023689847FEE700BF0000FF1F440300209F
:1026A8000004004800080048003801400044004089
:1026B800003001400749084A881AEFF30883521A84
:1026C8001A44013A013B984288BF0022AA210AF025
:1026D8004FBB00BF0000012000040000044B5A69F2
:1026E800586910F0020018BFC2F38000704700BF9D
:1026F800000400584FF0B042D2F8943043F400433D
:10270800C2F894304FF47A7300BF013B9BB2002BA0
:10271800FAD14FF0B043D3F8942022F40042C3F822
:102728009420D3F894205204FBD40C4BD3F8902077
:1027380022F40042C3F890204FF47A7200BF013AA5
:1027480092B2002AFAD1D3F8902042F40042C3F89A
:1027580090204FF400629A61704700BF000400584F
:1027680010B50323052240214FF09040FFF7E3FE08
:10277800BDE810400323052280214FF09040FFF769
:10278800DABE08B5FFF7AAFF003818BF012008BD58
:1027980008B5FFF7F6FF00B908BD00BFF9E74FF02D
:1027A800904380229A6240229A6170474FF090438A
:1027B80040229A6280229A6170470000024B4FF4CF
:1027C80080225A60704700BF00E100E010B5134C4A
:1027D8000323062202214FF09040FFF7ACFE20466B
:1027E800032302224FF48071FFF7A5FE03231A4644
:1027F80001214FF09040FFF79EFE03230522102190
:102808004FF09040FFF797FE20460323BDE81040A5
:1028180005224FF48051FFF78EBE00BF0004004828
:102828004FF09043186900F00100704708B5FFF7B2
:10283800F7FF00B908BD00BFF9E70000044B4FF4EB
:1028480080529A624FF0904310229A61704700BFFD
:10285800000400484FF0904310229A624FF48052CF
:10286800C3F8182470470000164801690F2321F0A7
:102878000F0193FAA3F3B3FA83F3012203F00F03D2
:1028880002FA03F30B4303610F4BD3F8842022F4BD
:102898008072C3F88420D3F8802022F48072C3F8B1
:1028A80080205A6822F480725A601A6842F4807252
:1028B8001A60064BD02283F816234FF480021A6060
:1028C800704700BF000001400008005800E100E028
:1028D800054B4FF48072DA60D3F8802042F480729E
:1028E800C3F88020704700BF00080058064B1A68DC
:1028F80022F001021A605A6822F400325A601A68FB
:1029080042F001021A60704700440040064B1A6802
:1029180022F001021A605A6842F400325A601A68BA
:1029280042F001021A60704700440040002303226D
:102938004FF400414FF09040FFF7FDBD4FF090433A
:10294800186980F40040C0F3C030704710B5074CD8
:102958000023204605221021FFF7EDFD2046002325
:10296800BDE8104005220821FFF7E5BD0004004836
:1029780005494B691A04DB4302F4801203F0100383
:1029880013438B61704700BF0004004805494B6939
:102998001A04DB4302F4002203F0080313438B619B
:1029A800704700BF000400480C4BD3F8FC2022F00D
:1029B8008072C3F8FC20D3F8FC2042F08072C3F880
:1029C800FC20A3F55D431A6822F001021A601A6818
:1029D80042F001021A6000225A60704700ED00E0E0
:1029E8000649074B074A1B68B3FBF2F310B54C685E
:1029F80043434A68121B9A42FBD310BD001000E003
:102A08003C00002040420F001FB50223CDE90131F0
:102A180001A801236946039308F074FF00280CBF3E
:102A28000420052005B05DF804FB014608B5012027
:102A380008F022FF00280CBF0420052008BD08B5B7
:102A4800FFF7E2FF031F5842584108BD08B5FFF7DA
:102A5800ECFF031F5842584108BD00002DE9F0471C
:102A6800294B2A4D01280E4614462949294A0FBFE9
:102A780079277827AA461D4606BF88469A46904673
:102A880008F0AEFE39462846FFF7D9FF28B90024DA
:102A980008F0B8FE2046BDE8F087002E08BF4FF4C6
:102AA800FC64073424F0070405F11007B1463444E8
:102AB800AAEB050AA1450BD14FF011324FF0FF33B5
:102AC8002846FFF7C3FF041E18BF0124A400DFE750
:102AD8006EB90AEB0703D3E90023B3F1FF3F08BF40
:102AE800B2F1FF3F06D1083709F10809E2E7D9E951
:102AF8000023F2E7B84505D93846FFF7A7FF0028B5
:102B0800F1D1C4E70324C3E700C0030800C80308E1
:102B1800FFCF0308FFC7030810B508F061FE094896
:102B28007821FFF78CFF044638B107487921FFF771
:102B380086FF041E18BF0124A40008F063FE204687
:102B480010BD00BF00C0030800C8030830B5084D19
:102B5800002340F2EF749AB2914201D8042030BDAC
:102B6800A34203D05A5DC2540133F4E70320F6E7C9
:102B780010C0030838B504460D4672B60A46014629
:102B88000020FFF76BFF62B6042806D172B6012059
:102B98002A462146FFF762FF62B638BD38B5124BA8
:102BA8001C68D3F80058B4F1113F09D1B5F1113FB1
:102BB80017D0002211460120BDE83840FFF74EBF6C
:102BC800B5F1113F03D1002211461046F4E7FFF793
:102BD800A3FF042804D12C4001340CBF022001209B
:102BE80038BD0420FCE700BF00C00308044B9A6806
:102BF8009107FCD518739A68D207FCD5187B7047E3
:102C08000000015870B50C46451E8E18B44200D11C
:102C180070BD15F8010FFFF7E9FF04F8010BF5E7A0
:102C2800084611461A46FFF7EDBF000070B5064E7C
:102C380004464518A54200D170BD3078FFF7D6FF8D
:102C480004F8010BF6E700BF3400002008461146DF
:102C5800FFF7ECBF38B504464518AC4200D138BD83
:102C680014F8010BFFF7C2FFF7E708461146FFF714
:102C7800F1BF000010B58CB02822002102A80AF08C
:102C880077F84FF0B0431C4C5A6E42F001025A6676
:102C98005B6E03F001030193019BFFF72BFD0822F4
:102CA80008924FF48272002303924FF40072CDE928
:102CB8000533CDE909330293079207234FF4E06205
:102CC80002A920460B93049209F062FD636823F081
:102CD80010036360636823F008036360236843F0AC
:102CE80040032360A3689B07FCD5237B034BFF228B
:102CF8001A700CB010BD00BF00000158340000204D
:102D0800034B18739A68D207FCD5187B704700BF2D
:102D18000030014038B5441E8D18A94200D138BD95
:102D280014F8010FFFF7ECFF01F8010BF5E708466F
:102D380011461A46FFF7EEBF38B5064D0446014462
:102D4800A14200D138BD2878FFF7DAFF04F8010B5B
:102D5800F6E700BF3500002008461146FFF7ECBF34
:102D680010B5014404468C4200D110BD14F8010B83
:102D7800FFF7C6FFF7E708461146FFF7F1BF000067
:102D880030B58DB02E4C2822002102A809F0F0FFA2
:102D98004FF48050FEF72BFF042120460323062220
:102DA800FFF7C9FB0423A36101250624CDE90045EB
:102DB80003230A2220214FF09040FFF737FBCDE98B
:102DC800004503230A224FF480514FF09040FFF74B
:102DD8002DFB03231A46CDE900454FF400614FF05F
:102DE8009040FFF723FB0822164C08924FF482729A
:102DF800002303924FF40072CDE90533CDE909337E
:102E08000293079207234FF4E06202A920460B932E
:102E1800049209F0BDFC636823F0100363606368E3
:102E280023F008036360236843F040032360A3682A
:102E38009B07FCD5237B044BFF221A700DB030BDD5
:102E48000004004800300140350000201B4B10B43E
:102E5800DC69A00611D51A6891060ED518481949DB
:102E68005A6A038809880133C3F30A0389B299426D
:102E78001FBF1549D2B2CA54038010481F23220627
:102E8800036215D503681B0612D5104B104A198822
:102E9800138889B29BB299420CD013880133C3F3CB
:102EA8000903138013880B4A9BB2D35CDBB283629D
:102EB80010BC704710BCFEF7A6BE00BF003801402A
:102EC800A42B0020A22B0020A2230020A82F002042
:102ED800A62F0020A62B00200E490F4A0B88128827
:102EE8000133C3F3090392B29A4211D00B4AD0546A
:102EF8000B4A0B8002F5006353E8003F43F0800360
:102F080002F5006040E800310029F3D10120704744
:102F180000207047A82F0020A62F0020A62B0020F5
:102F28000030014038B504464518AC4200D138BDE0
:102F380014F8010BFFF7D0FFF7E708461146FFF733
:102F4800F1BF0000054B064A1B8812889B1A98B2ED
:102F58001B0444BF00F5006080B27047A42B00201A
:102F6800A22B0020FFF7EEBF0848094A0188138802
:102F780089B29BB29942F9D013880133C3F30A038B
:102F880013801388034A9BB2D05C7047A42B00209F
:102F9800A22B0020A2230020FFF7E6BF70B588B05F
:102FA8000C460646154600212022684609F0E0FE38
:102FB800231E18BF01231B03CDE9023569460C23E4
:102FC800034801960494059309F0CEFD08B070BD3E
:102FD8000038014010B5064C236823F00103236034
:102FE800FFF7DCFF236843F00103236010BD00BF37
:102FF80000380140002208461146FFF7EBBF0000E9
:1030080073B53B4C236823F0010323600825012690
:103018004FF48040FEF7EBFD4021CDE900563548DE
:1030280003230A22FFF702FA03231A46CDE90056C2
:1030380030488021FFF7FAF9002211464FF4614029
:10304800FFF7ACFF636823F490436360A36823F041
:103058002A03A360284BB02283F8242310225A6045
:103068002046FEF7D0FD254A02F5006353E8003FED
:1030780023F0400302F5006040E800310029F3D155
:10308800402323621E4B19801E4B198002F50063F2
:1030980053E8003F23F0200302F5006040E80031C8
:1030A8000029F3D1184B1980184B1980104B5A6816
:1030B80022F400625A609A6822F008029A605A68FC
:1030C80022F480425A609A6822F022029A609A6832
:1030D80042F480529A601A6842F001021A60DA6972
:1030E8009102FCD5DA695202F9D502B070BD00BF71
:1030F800003801400004004800E100E000300140D1
:10310800A62F0020A82F0020A22B0020A42B0020EF
:1031180008B5FFF775FFBDE80840FEF789BFFFF760
:10312800F7BF0000084BDA6892070CD4074A012160
:1031380011805A6A10325A636FF002021A61DA6813
:1031480042F00202DA60704700480140341F002054
:10315800324A13699B0710B526D56FF00203136135
:103168002F4B1B88516B11FA83F353632D4B19882E
:1031780089B2002946D01988013189B21980198885
:1031880089B2022911D84FF090434FF400729A6225
:10319800254A13880133C3F3080313801388234A8D
:1031A8009BB2D35C224A138010BD198889B20A29C0
:1031B8000FD81F4B1A8812F0010F4FF090424FF4AE
:1031C800007114BF916191621A88C2F34E021A808D
:1031D800EAE7198889B20B294FF090414FF4007043
:1031E800886109D1134A11880F4A128889B292B2AC
:1031F8009142D9D00122EAE7D16821F00201D160D9
:103208000022E4E74FF090404FF400748461D068E6
:1032180020F00200D0601980C6E700BF00480140D6
:10322800301F0020341F002038210020361F0020C6
:10323800362100203A21002009490A4A08B50B889E
:1032480012880133C3F3080392B29A4206D0064AA1
:10325800D0540B80FFF766FF012008BD0020FCE773
:103268003A21002038210020361F002038B50446B6
:103278004518AC4200D138BD14F8010BFFF7DCFF4C
:10328800F7E708461146FFF7F1BF0000B0F5614FB8
:103298000D4A0E4B0CD0B0F5E13F10D0B0F5165FDB
:1032A8000DD172B640F24131118040F2E24203E0A2
:1032B80072B68B211180D0221A8062B6704772B61E
:1032C800452111805422F7E7301F0020321F0020CB
:1032D80010B5032388B005224FF400714FF09040D9
:1032E800FFF729F9194C4FF090434FF400729A6197
:1032F800204601224FF0FF31FFF77EF920220021FE
:10330800684609F035FD6A460121204609F0B4FAFD
:103318000F4AD2F8183823F00403C2F818386FF0AF
:10332800020323610B4B902283F81D234FF00052B8
:103338001A604FF4E130FFF7A9FF074A0023138012
:10334800064A1380064A138008B010BD00480140A1
:103358000040014000E100E0382100203A2100202F
:10336800341F0020FFF7B4BF024B1A68024B1A60E3
:10337800704700BFCC2F00208C030020054A064B65
:103388001968136899421DBF01330120136000209A
:10339800704700BF8C030020CC2F0020034A044B49
:1033A80011681B780B441360704700BFCC2F0020B6
:1033B800400000200148FFF728B900BF0044014041
:1033C800014B586A80B270470044014008B5FFF7C6
:1033D800F1FFBDE80840FFF7C7BF70B504460D46CA
:1033E800164608F0FDF9083D04EBC606B44204D1C0
:1033F800042408F007FA204670BD55F8082FD4E9D0
:1034080000016B68994208BF904201D10834EDE78A
:103418002046FFF71BFB0028F8D10446E9E7000027
:103428001FB503788BB10A4B1B68B3F5FA6F0CD341
:103438000023002203700023CDE90023CDE90223F5
:10344800406802226946FFF7C8FF05B05DF804FB33
:10345800CC2F0020000000000123F0B50380444B6E
:10346800444AD3E9005104464348914208BF854283
:1034780085B04FF0000202D1227005B0F0BD3AA12C
:10348800D1E900013D4F6260C3E900013C484FF0BB
:10349800AA33D0E90021B1F1FF3F08BFB2F1FF3FE5
:1034A800D0E9026505D0994208BF9A4201D00A4383
:1034B80009D1B5F1FF3F08BFB6F1FF3F0DD09D42DE
:1034C80008BF9E4209D01030B842E2D172B67A21C4
:1034D8002B48FFF7B4FA62B629486060D0E9003299
:1034E800CDE90032B2F1FF3F08BFB3F1FF3FD0E9A9
:1034F800025109D1B1F1FF3F08BFB5F1FF3F22D119
:103508004FF0AA331A4623E04FF0AA36B24208BF5A
:10351800B3420BD1B1F1FF3F08BFB5F1FF3F0FD068
:10352800B14208BFB5420ED10023EBE753EA0207C8
:1035380009D1B14208BFB54205D14FF4807121804D
:103548001D46114604E0002323701A461D461946FD
:10355800CDE90032CDE9025102226946FFF73DFF6D
:103568008BE700BFAFF3008012345678FEDCBA90C8
:1035780020000020FEDCBA901234567800D80308E8
:1035880000D003084FF080431A6991070AD56FF0FD
:1035980002021A615A6B6432DA63084A596B12885C
:1035A8000A445A634FF080431A69120705D56FF031
:1035B80008021A61024B01221A7070476400002049
:1035C800890300200A490B8803B9FEE772B64FF059
:1035D800804309885A6A114464325963DA636FF088
:1035E80002021A616FF008021A6162B6704700BFE2
:1035F8006400002000B5032289B04FF0FF314FF07E
:103608008040FEF7F9FF20220021684609F0B0FB50
:1036180064236A4601214FF08040039309F02CF996
:10362800C8236A464FF480714FF08040039309F035
:1036380023F9054BA02283F81B234FF000621A6080
:1036480009B05DF804FB00BF00E100E04FF08043E3
:10365800DA6842F00202DA60DA6842F00802DA60F8
:103668007047000010B501EB8101084B01EB8101A7
:1036780089001980064B044600221A70FFF7BAFF2A
:103688002046BDE81040FFF7E1BF00BF64000020FE
:103698008903002070B51C4C1C4EC0220021201D3F
:1036A80009F066FBC72323801F23062263800F23AC
:1036B800A018A38031464323FDF78AFF0123C4E9FC
:1036C80013333F230725A4F85430062243233146F9
:1036D80004F15600A4F84A50FDF77AFF0C4BC4F8E1
:1036E8009C300C49A4F89A50002304F1AC00C4E9BA
:1036F800293384F8A03009F0DDFA7F2384F8C1303B
:10370800052384F8C23070BD80020020A4D40008CC
:103718000F0001003FD0000870B5094E05460C4661
:10372800415C304609F0DDFA034628B1831B0133BA
:10373800DBB2282B28BF0023F35C2B5570BD00BFDC
:10374800BCD4000870B50D4611460446164609F06B
:10375800B1FA2DB3013D082D08D8DFE805F00511B1
:10376800131517191B1D1F003523637162797379AF
:103778009A4215D120460521BDE87040FFF7CCBF1D
:103788006123F2E76623F0E76B23EEE77023ECE7AB
:103798007523EAE77A23E8E73123E6E73223E4E70B
:1037A80070BD0000F7B5054605F11106214C224A07
:1037B800014636016846FFF7C5FFB01C694620443C
:1037C80009F078FA264404EB0512002302277772E1
:1037D800A2F81A31142202FB05400421012280F8C4
:1037E80050104FF4807540F20111A0F84A70C2647D
:1037F800A0F8522080F85520A0F85650A0F858108C
:1038080040F2032084F83430E784A562A08584F868
:103818002E2084F8303084F83330C4F83A30C4F8B5
:103828003E30C4F84230A4F84610A4F8481003B05B
:10383800F0BD00BFC4000020EACF0008F7B5054678
:10384800204C214A05F11106014637016846FFF769
:1038580079FFB81C274469462044FDF7F3FD7B7ABD
:103868001A4A072B88BF022304EB061088BF7B7215
:103878001188437A41FA03F3DF070ED40223437217
:1038880059B14807C1F3800307D441FA03F7FF078A
:10389800D8B20DD504EB0613587204EB0616777AE6
:1038A800022F09D8A7B15388022103F0160313E0A9
:1038B8000133102BE9D1F0E7BB1F012B40F2DD816A
:1038C800FEE700BFC4000020EACF00088002002005
:1038D8005388042103F00F0304EB0516538096F870
:1038E8001AC1A2F84A10BCF1050FA2F89A104FEAC3
:1038F800051003D94FF0000C86F81AC104EB000C30
:103908009CF81A6143FA06F6F60713D401268CF8D8
:103918001A617BB113F0020FC3F340060AD143FAD0
:1039280006FE1EF0010F5FFA86FC00F0AB8123183B
:1039380083F81AC1231893F81B61032E02D90026B5
:1039480083F81B61012F03D9042F01D00023938032
:103958002718968897F81B3146FA03F313F00103EA
:103968000FD187F81B3166B116F0010309D146FA69
:1039780003FC1CF0010FDFB200F08981204480F8BD
:103988001B71142303FB054090F84A60052E02D9E9
:10399800022680F84A6003FB054393F84B0004288D
:1039A80002D9002083F84B00142303FB054393F846
:1039B8004B0041FA00F0C70711D401208F0783F8A4
:1039C8004B00C1F340030AD441FA03F6F607D8B214
:1039D80040F16281142303FB054383F84B00142351
:1039E80003FB054393F84C00032802D9012083F810
:1039F8004C00142606FB0546B2F84C0096F84C30ED
:103A080040FA03F313F0010310D186F84C3068B183
:103A180010F001030AD140FA03F7FF07DEB240F1C4
:103A28004081142303FB054383F84C60142303FBF4
:103A3800054393F84E00012802D9002083F84E0070
:103A4800142606FB0546B2F84E0096F84E3040FAAA
:103A580003F313F0010310D186F84E3068B110F06B
:103A680001030AD140FA03F7FF07DEB240F11E81D5
:103A7800142303FB054383F84E60142303FB05431B
:103A880093F84F00022802D9002083F84F0014262B
:103A980006FB0546B2F8503096F84F0043FA00F09E
:103AA80010F0010010D186F84F006BB113F001003F
:103AB8000AD143FA00F7FF07C6B240F1FC80142090
:103AC80000FB054080F84F60142000FB054696F87F
:103AD8004D70022F02D9002786F84D7000FB054073
:103AE80090F85060052E02D9042680F85060142002
:103AF80000FB054696F85270012F02D9012786F877
:103B0800527000FB054090F85560012E02D901263D
:103B180080F85560142000FB054090F85360022E91
:103B280002D9002680F85360142707FB0547B2F82E
:103B3800526097F8530046FA00F010F0010011D1D6
:103B480087F8530076B116F001000BD146FA00FC55
:103B58001CF0010FC7B200F0B380142000FB054031
:103B680080F85370142000FB054696F856700C2F09
:103B780002D9002786F8567000FB054090F84C6083
:103B8800012E09D190F84F70022F05D1DF0740F1BF
:103B98009C80002380F84F30142303FB0543012049
:103BA80083F8570040F20110A3F8580094F8263023
:103BB800052B02D9022384F8263094F82730042BE9
:103BC80002D9002384F8273094F8273041FA03F308
:103BD80013F0010F894B0DD101208E0784F82700BF
:103BE800C1F3400006D441FA00F7FF07C6B271D509
:103BF80083F8276094F82810022902D9002184F854
:103C0800281094F82910032902D9012184F82910D1
:103C1800B2F89C1094F8292041FA02F212F001023D
:103C28000CD184F8292049B111F0010206D141FADA
:103C380002F4E607D0B251D583F8290093F82A2078
:103C48000C2A02D9002283F82A2093F832200C2A61
:103C580002D9002283F8322093F82B20042A02D9B3
:103C6800002283F82B2000226549104611F9014FE4
:103C780014F1780F36DA087036E05388012103F022
:103C8800160329E60136102E7FF449AE52E60133B9
:103C9800102B7FF46CAE74E60133102B7FF494AED6
:103CA8009DE60133102B7FF4B6AEBFE60133102B2F
:103CB8007FF4D8AEE1E6013010287FF4FAAE03E7CE
:103CC800013010287FF442AF4CE713F0020318BF0D
:103CD80033465FE70130102885D18BE70132102A7F
:103CE800A5D1ABE7782CC6DC0132D2B20C2ABDD103
:103CF80044490022012011F8014F0132022CD2B2AE
:103D080088BF0870042AF6D193F83420012A02D912
:103D1800002283F834203C4AB2F89E1093F83420ED
:103D280041FA02F212F001020CD183F8342049B1B1
:103D380011F0010206D141FA02F4E407D0B211D51C
:103D480083F8340093F82C20052A02D9032283F83B
:103D58002C2093F82D20032A08D80AD1002283F8B2
:103D6800342006E00132102AE5D1EBE7022283F87D
:103D78002D2093F82E20022A02D9012283F82E2022
:103D880093F83020022A02D9002283F8302093F8D1
:103D980033200C2A02D9002283F8332093F83520E7
:103DA800042A02D9002283F83520142202FB0531A7
:103DB80091F85A00012802D9002081F85A0002FB24
:103DC8000532FF2103EB05154FF6FF7082F85110FD
:103DD80082F8541083F82F1083F831104FF0FF3118
:103DE800C5F81C11A5F820011962998482F85B00B6
:103DF800A2F85C10D986198703B0F0BDC400002072
:103E0800FD0000200901002080020020034670B553
:103E18000846052B04D8DFE803F01E04221A1E22E8
:103E2800FEE720261F250F221B4CA4F84A502277B4
:103E380001255A1EA370A4F84860A576A57300232F
:103E4800042A10D8DFE802F0121D20251D000926DB
:103E58006F250722E8E7142632250A22E4E73526EB
:103E680013251922E0E72371237401E023712574D7
:103E7800FDF788FE002808BF0220002360736376E0
:103E880070BD25710223EFE723712374A376A37312
:103E9800EEE72371A373E7E768000020012803D049
:103EA80002280FD088B1FEE702460021084B83F8AC
:103EB800510083F8542083F8522083F8551083F872
:103EC8005310704700220121F0E701221146EDE767
:103ED800680000202DE9F043834D844C00F111085F
:103EE80005EB081702378BB006463846FDF7C6FAC9
:103EF8004FEA061900900421684605EB0616FDF7FF
:103F0800BFFE96F81B31E0832BB103EB031303EBE1
:103F180003231844E08305EB08135B7A062B40F073
:103F2800C080E38B03F5B5432533E38305EB08181D
:103F380095F82700FFF7B2FF98F8091061708B1FFA
:103F4800A944012B8CBF0023012399F81A0184F896
:103F58005630FFF75BFF99F81B21E18B009BE1804E
:103F68006182A36063612AB14FF0113000FB023314
:103F7800A360636195F826005D4B616213F92030F8
:103F880023732376002384F82A30637B84F829205E
:103F980023B93846FDF792FA84F82A006078FDF7CD
:103FA800F1FD544A84F82800128802F001019707AD
:103FB80048BF41F00201A185560742BFA18D41F0DB
:103FC8000401A1850346100742BFA18D41F01001ED
:103FD800A185D10642BFA18D41F02001A18592069D
:103FE80042BFA28D42F00802A285434A01AE02F107
:103FF800200C10685168374603C7083262453E46B0
:10400800F7D11068386006220AA994F802C03B4E1E
:1040180002FB0313634413F8247C84F8207016E928
:104028000F0086E80F0094F8563053B1002384F847
:1040380038300CF128030DEB030C1CF8243C84F8F1
:10404800303094F83000874240F2E24328BF3846C7
:10405800A4F84C302CBF7E084608FCF723FD4FF02F
:104068007F51FCF773FDFCF75DFF042E98BF052315
:10407800B4F8482084F8506098BF84F850304FF462
:104088007A73B3FBF2F3A4F8403095F82C30C0B241
:10409800A4F84E00052B1AD8DFE803F00B221619F6
:1040A8001C1F072B7FF442AFE38BA3F5B543263BD8
:1040B8003BE74FF416536364002384F85730A4F8A1
:1040C80058300BB0BDE8F0834FF41643F3E74FF4D4
:1040D8006143F0E74FF4E133EDE74FF46133EAE78A
:1040E8004FF49643E7E700BFC400002068000020B3
:1040F800A4D4000880020020A0CD00089800002069
:1041080002484FF4DE72FF2108F032BEC4000020DE
:1041180002484FF4DE71FEF72DBD00BFC400002039
:1041280002484FF4DE71FEF711BD00BFC400002045
:1041380008B5FFF7F5FF034B1878BDE80840FFF70F
:104148007DBB00BF6800002038B5FFF7D9FFFEF738
:1041580025FD04280CD0FFF7D3FFFEF71FFD042828
:1041680003D1FFF7DDFF042806D0FFF7C9FF03E0FE
:10417800FFF7D6FF0428EED126492748264C1022FF
:1041880008F0CAFD38B125491022204608F0C4FDC0
:1041980008B1FFF7B5FFA38AB3F5215F28D008D38C
:1041A8000025E8B20135FFF7FDFA0A2DF9D1002301
:1041B800E3774FF42153A382012522691549164854
:1041C80042F6A1039A424FF010021CBF2361012559
:1041D80008F0A2FD70B10F490F481022FDF71DFA33
:1041E8000F4910480822FDF718FAFFF791FF03E07E
:1041F8000025E2E7002DF8D10023E3770A4C23706D
:10420800FFF748FA2078FFF719FB2078BDE8384017
:10421800FFF760BEF1CF0008C400002002D00008FC
:1042280013D0000876020020680000200129F7B5A5
:10423800054600D9FEE70B4E06EB01131C460F019D
:104248006278F15D03619B7806F04EFCE379019397
:10425800A379009322796379E178284606F06BFC0C
:1042680003B0F0BD64EC000838B5836804466BB150
:10427800024652F8183BDD6900F11903A847217E70
:1042880020460222BDE8384006F0B7BC38BD000021
:1042980070B58160897A86B0044601B1012106F0C3
:1042A800FCFB204606F07BFD204606F053FD217BF3
:1042B800FF2903D0FA22204606F058FDA3685B7A4E
:1042C800013B042B04D8DFE803F0043E3E414100E3
:1042D800FEE7E922E121204606F086FD012120467D
:1042E80006F015FD9621204606F052FD382120469D
:1042F80006F064FD204606F069FDA368204693F9A0
:104308000810FFF7B1FFA3689D7A15B31978204606
:10431800FFF78CFF00221146204606F0D8FB002349
:10432800009340F2032220464FF6FF7106F032FC5C
:1043380020464FF6FF7106F054FC204606B0BDE853
:10434800704006F0F4BCDB22D721C4E76F226B2152
:10435800C1E75E880E4B63614CF2503300932046F0
:104368000C4919230B2206F04FFD0123CDE9033335
:104378005B23CDE9015310231946204600950422FA
:1043880006F080FD3146204606F0A0FDC2E700BFDA
:1043980044EC0008A086010038B504461D461346C3
:1043A8000A46002106F00CFB20464FF6FF7106F086
:1043B80018FCA9012046BDE8384006F02BBC10B512
:1043C800044606F0B4FC20464FF6FF71BDE81040E5
:1043D80006F007BC38B58168036891F90810DD69F3
:1043E800044600F1190300F11802A847A3689A7A55
:1043F80042B11A78012A00D9FEE7044B03EB0213F5
:10440800236138BD024B6361FBE700BF64EC000821
:1044180044EC0008836810B5044683B103691BB9EE
:1044280043690BB9FFF7D6FFA3689B7A1BB12369D1
:10443800B3F90C0010BD6369B3F91C00FAE718461C
:10444800F8E7836810B5044643B103691BB94369AB
:104458000BB9FFF7BFFF94F9190010BD1846FCE728
:1044680008B5836843B9FFF713FF7D20FEF7B8FA54
:10447800BDE80840FEF7A2B908BD10B5C01A9DF9FD
:104488000840123080F30500A042A8BF2046123B26
:1044980008701844107010BD07B5084611461A4632
:1044A800122300931B23FFF7E8FF03B05DF804FB1A
:1044B8000229F7B5054600D9FEE70B4E06EB0113B6
:1044C8001C460F016278F15DC3609B7806F073FEAD
:1044D800E3790193A379009322796379E1782846F7
:1044E80006F092FE03B0F0BD98EC000838B583687A
:1044F80004466BB1024652F8143BDD6900F115031E
:10450800A847217D20462022BDE8384006F0D7BEC6
:1045180038BD00007FB58D7A8160044675B30121EE
:1045280006F01FFE0121204606F026FF0121204645
:1045380006F03CFFA368204693F90810FFF7D6FF62
:10454800A36820461978FFF7B3FF002211462046DA
:1045580006F024FE0023009344F2030220464FF69F
:10456800FF7106F06DFE20464FF6FF7106F08FFED4
:10457800204604B0BDE8704006F00ABF032106F0EB
:10458800F0FD2046012106F0F7FE2046012106F045
:104598000DFFA368204693F90810FFF7A7FFA3684B
:1045A8005E680C4B23612A4620461023862106F0BC
:1045B80021FF5B23CDE900532046029510230422F6
:1045C800702106F026FF2A463146204606F03FFFB6
:1045D800BBE700BF84EC000838B505461C46134607
:1045E8000A46002106F059FD28464FF6FF7106F0ED
:1045F8004EFE2201284692B2BDE83840012106F05D
:104608006EBE10B5044606F0C3FE20464FF6FF7195
:10461800BDE8104006F03BBE816838B50446E9B1F4
:10462800C368ABB903699BB9024691F9081052F8FF
:10463800143BDD6900F11503A847A3689A7A52B1C3
:104648001A78022A00D9FEE7054B03EB0213E36050
:1046580094F9150038BD034B2361F9E70846F9E7DB
:1046680098EC000884EC000808B5836843B9FFF7A4
:1046780051FF7D20FEF7B4F9BDE80840FEF728B9E0
:1046880008BD0000F8B504460846202811461D4616
:10469800BDF818C09DF81C209DF8203000D9FEE711
:1046A800052DA57100D9FEE72B4F57F8356006B9DF
:1046B800FEE707EBC507A6603E797F7927730027D9
:1046C800E67184F8D550A4F80EC084F8D470BCF113
:1046D800000F00D1FEE786429CBF06F1FF36F0B21C
:1046E800052D60742DD0012D32D802F1FF35EDB2C1
:1046F8001DD0022D16D85D1E032D0DD80C2801D90A
:104708000C256574657C854200D960742046FDF7E8
:1047180005F900232374F8BD122884BF122363749B
:104728000023EFE7042B88BF00230022EEE7022DC9
:1047380004D80C2803D90C23637400E0002200235A
:10474800E4E7531E022BF9D80828F8D90823F3E721
:104758002046FDF789F8DCE774D4000890F8D430D7
:1047680053B190F8D520074B03EBC20153F8323010
:10477800497953F821007047037C00EB8300406BB4
:10478800704700BF74D40008024690F8D40030B5D2
:1047980028B3B2F8D830B2F8D61001339BB2994298
:1047A800A2F8D8301BD80023A2F8D830D48992F8C0
:1047B800D53006210133DBB2062B28BF002344FA8B
:1047C80003F5ED0707D5074951F8331001B9FEE79E
:1047D80082F8D53030BD013911F0FF01EAD100204F
:1047E800F8E700BF74D40008037C427C0133DBB2D5
:1047F8009A4298BF0023037490F8EC3090F8ED20AB
:104808000133DBB29A4298BF002380F8EC3070473E
:1048180013B5184B0288DB8B9A42044626D183785D
:10482800DB0625D48379812B22D84FF6FF730D221E
:1048380001460DF10600ADF80630FDF709FAB4F8A7
:104848000D20BDF806309A420ED14C2204F10D011C
:10485800FDF7FEF9B4F85900BDF80630C01A18BFC4
:104868000120800002B010BD0320FBE70120F9E71A
:104878000220F7E7680000200A7ACB7902F00702E5
:1048880043EA022303804B7A0A7A03F03F035B0171
:1048980043EAD20343808B7A4A7A9B0043EA921315
:1048A800CA7A02F0010243EA822383800B7BCA7A28
:1048B80003F00F03DB0143EA5203C3800B7BC3F30E
:1048C8000112012A11D813F0300F14BF012300235D
:1048D8009B0203830B7B7F2B0AD813F0C00F14BFF6
:1048E800012300239B024383704740F2FF73F0E7E4
:1048F80040F2FF73F7E70A7ACB7902F0070243EA3E
:10490800022303804B7A0A7A03F03F035B0143EAF0
:10491800D20343808B7A4A7A9B0043EA9213CA7A7D
:1049280002F0010243EA822383800B7BCA7A03F0F8
:104938000F03DB0143EA5203C3800A7CCB7B02F0FE
:10494800070243EA022303814B7C0A7C03F03F03FE
:104958005B0143EAD20343818B7C4A7C9B0043EA98
:104968009213CA7C02F0010243EA822383810B7D01
:10497800CA7C03F00F03DB0143EA5203C3814B7D7A
:10498800DB0003828B7DDB004382CB7DDB008382EF
:104998000B7EDB00C3820B7BC3F30112012A2BD8E9
:1049A80013F0300F14BF012300239B0203830B7BFA
:1049B8007F2B24D813F0C00F14BF012300239B02C0
:1049C80043830B7DC3F30112012A1BD813F0300F68
:1049D80014BF012300239B0283830B7D7F2B14D8F4
:1049E80013F0C00F14BF012300239B02C3834FF4AD
:1049F800806303844384704740F2FF73D6E740F234
:104A0800FF73DDE740F2FF73E6E740F2FF73EDE77F
:104A180037B52E4BDB8B03804A78837862F3C30368
:104A280083704A79C37862F38203C3708A79837981
:104A380062F300038371044691F902000D46FCF706
:104A4800E9FBE37800F01F0203F0070343EAC2031F
:104A5800E3702379C0F3411023F003030343237168
:104A6800EA78DBB202F03F0203F0030343EA820371
:104A78002371EA786379C2F3801223F001031343A8
:104A880063712A7962F3470363716A7AA37802F043
:104A9800030203F03F0343EA8213A3706A7AE378C0
:104AA800C2F3800223F001031343E37059224FF647
:104AB800FF7321460DF10600ADF80630FDF7C8F882
:104AC800BDF80630A4F8593003B030BD68000020A6
:104AD8002DE9F3419DF820701546522F88464FF076
:104AE8005B024FF00001044628BF52271E4608F01B
:104AF8003FF93C4BDB8B23802A78A37862F30203CF
:104B0800A37069784FEA0818C90001F0080108F095
:104B18003008DBB223F0380341EA08011943A170D9
:104B28006A79E37862F38203E370AA79A37962F37E
:104B38000003A37195F90200FCF76CFBE37800F021
:104B48001F0203F0070343EAC203E3702379C0F3AB
:104B5800411023F0030303432371EA78DBB202F028
:104B68003F0203F0030343EA82032371EB7862797F
:104B7800C3F3801322F001021A4362712B7963F3A5
:104B8800470262716A7AA37802F0030203F03F03D6
:104B980043EA8213A3706A7AE378C2F3800223F0AF
:104BA80001031343A279E370234667F3470203F82E
:104BB800062F3744BE4210D14FF6FF7359222146C3
:104BC8000DF10600ADF80630FDF742F8BDF80630E5
:104BD800A4F8593002B0BDE8F08116F8012B03F8AB
:104BE800012FE7E76800002007B5009313460A463F
:104BF8000121FFF76DFF03B05DF804FB30B53A4BB8
:104C0800027893F8261061F30302027093F82710D4
:104C180061F30712027093F82810427861F30302D7
:104C2800427093F8291061F30712427093F82A1022
:104C3800827861F30302827093F83210827961F30B
:104C48000302827193F82B10827861F30712827045
:104C580093F83410C27961F30302C27193F82C10EF
:104C6800C27861F30302C27093F82D1061F3071242
:104C7800C27093F82E10027961F30302027142792F
:104C880093F8301061F30302427193F8331082797C
:104C980061F30712827193F83510C27961F3071234
:104CA800C27103F1390100F10A0200F1160411F989
:104CB800015F02F8015FA242F9D193F84610C27D64
:104CC80061F30102C27593F8471061F38302C2755C
:104CD80093F8481061F30512C27593F8493063F3ED
:104CE8008712C27530BD00BFC40000200278344B63
:104CF800C2F3030230B583F826200278C2F3031208
:104D080083F827204278C2F3030283F828204278E8
:104D1800C2F3031283F829208278C2F3030283F8CE
:104D28002A208279C2F3030283F832208278C2F300
:104D3800031283F82B20C279C2F3030283F83420CC
:104D4800C278C2F3030283F82C20C278C2F303129C
:104D580083F82D200279C2F3030283F82E204279CA
:104D6800C2F3030283F830208279C2F3031283F876
:104D78003320C279C2F3031283F8352003F13901D5
:104D880000F10A0200F1160412F9015F01F8015F4F
:104D9800A242F9D1C27DC2F3010283F84620C27D46
:104DA800C2F3810283F84720C27DC2F3011283F85F
:104DB8004820C27DC2F3811283F8492030BD00BF6C
:104DC800C400002070B598B0522204460D4603A8CE
:104DD800002107F0CDFF212342F6A1008DF80C3009
:104DE800FCF70AFCADF80E004FF42150FCF704FC68
:104DF800214EADF81000214914220DF11200FCF7E4
:104E08000CFC96F8523013B996F8543083B31C480A
:104E1800FFF717FB96F851308DF826000AA88DF891
:104E28002730FFF7EBFE4FF68073ADF84630154A92
:104E3800154BCDE91223154B149347F6FF73ADF8C4
:104E48005430134BB3F89A208DF85620B3F89C20B1
:104E5800B3F89E308DF8583052238DF857200093C0
:104E68002A4603AB02212046FFF732FE18B070BD78
:104E78000848FFF7D1FBCDE76800002019D00008EB
:104E88003C21002001000A00190064009E00FF7FF9
:104E9800800200205821002038B5104D044600F14A
:104EA8001B01062205F58970FCF718FC94F82130DF
:104EB800C3F3030385F8193194F82130C3F30313BE
:104EC80085F81A3194F82230C3F3030385F81B31AF
:104ED80004F12500BDE83840FFF708BFC4000020F2
:104EE8000B4A0C49126882600A6802614A680A49DA
:104EF80042610A6882614A68C26100234EF66022F4
:104F0800838083718381038402600385704700BFB7
:104F1800CC2F00202ED0000837D0000838B5214CFF
:104F280094F8523013B994F85430B3B11E4DAB68AD
:104F380003B9FEE722791A700021284605F096FD8C
:104F48004FF47A70FDF74CFD0121284605F0A5FDC8
:104F5800AB6828461978FFF769F994F8533013B904
:104F680094F85530B3B1114DAB6803B9FEE7227C14
:104F78001A700021284606F0DDF84FF47A70FDF724
:104F88002FFD0121284606F0ECF8AB682846197871
:104F9800FFF78EFA0448FFF712FA0448FFF731FBCF
:104FA80038BD00BF680000203C21002058210020A7
:104FB80038B51D4D0446A8786978052828D14FF6DC
:104FC800FF732385FEF722FF6B7801229A40238D19
:104FD80023EA0203238515491548FFF741FA1549C5
:104FE8001548FFF741FB1248FFF7E9F91248FFF7A8
:104FF80008FB0F486FF07F01FFF736F90E486FF096
:105008007F01FFF773FA2046BDE83840FFF786BFF7
:10501800002323850220FEF7F9FE6A7801239340D6
:10502800228D13439BB2D5E7680000206C00002056
:105038003C210020780000205821002010B50446AB
:1050480039B90220FEF72AFF2046BDE81040FFF7D5
:1050580065BF0120F6E708B590F8203002468BB905
:10506800FDF76CFC10B982F8210008BD92F82130D8
:1050780001335BB2312B82F82130F6DD012382F84F
:105088002030F2E7FDF75AFC18B1322382F82130BC
:10509800EBE792F82130013B5BB2002B82F821301C
:1050A800D8BF82F82000E0E70A4B90F820201B6860
:1050B80072B182689B1AB3F57A6F01D901234371E3
:1050C800037923B9437913B101230371037370473B
:1050D8008360F5E7CC2F00200346007B821E012A5F
:1050E8004FF0000202D893F8201009B91A737047DC
:1050F800104670470A4A38B5138801339BB2502BC3
:1051080004460D4601D8138038BD00230549138095
:10511800FDF742F929462046FDF73EF9F4E700BFBE
:105128009003002040D000082DE9F84F15460446AA
:105138000F466B496B4EFDF72FF929462046FDF7C0
:105148002BF9694B0022012F1A800FD11023B3626B
:10515800082746F2A810B761FDF742FCB762FDF7D1
:105168003FFC29462046FFF7C5FFF2E7BB1E082291
:105178000C2B00F2A880DFE803F03141521C07A68F
:10518800A6A6626262626200564E4FF008081027B7
:10519800C6F8188046F2A810B762FDF721FCC6F8D9
:1051A8002880B761FDF71CFC29462046FFF7A2FFBF
:1051B800EDE74C4E4FF008081027C6F8188046F265
:1051C800A810B761FDF70CFCC6F82880B762FDF798
:1051D80007FC29462046FFF78DFFEDE7B262414EF6
:1051E800102746F2A810B761FDF7FAFBB762FDF782
:1051F800F7FB29462046FFF77DFFF2E71023B3614E
:10520800384E082746F2A810B761FDF7E9FBB762E8
:10521800FDF7E6FB29462046FFF76CFFF2E7B2618F
:10522800304E102746F2A810B761FDF7D9FBB762D8
:10523800FDF7D6FB29462046FFF75CFFF2E7A7F10A
:10524800090BDFF8A0805FFA8BFB00264FF0080AF5
:105258005E453CBF1023C8F818304FF0040946F2E9
:10526800A810C8F818A0FDF7BBFBC8F828A0FDF7E0
:10527800B7FB09F1FF3929462046FFF73BFF19F034
:10528800FF09ECD11023C8F828304FF0040946F282
:10529800A810C8F818A0FDF7A3FBC8F828A0FDF7C8
:1052A8009FFB09F1FF3929462046FFF723FF19F034
:1052B800FF09ECD10136A7F10803F6B2DBB2B3421D
:1052C80038BF0026C4E71023B261B3614CF25030F6
:1052D800FDF786FB29462046FFF70CFFF6E700BFDF
:1052E80040D00008000400489003002010B543781F
:1052F80002789A421BD0052B8ABF052303700370DE
:10530800027888BF43700A4B0A4813F922100A4CE6
:1053180083682173217613B11972FEF7A5FF074838
:10532800836823B194F918101972FFF7DFF810BDDC
:10533800A4D400083C210020680000205821002047
:1053480010B40C46014620B92246044810BC05F0AA
:105358005EBB034810BC002105F0C6BE3C210020FE
:1053680058210020F8B51E4E1D4696F856300F46B7
:1053780014467BB1FDF713FA1A482B462246FFF76D
:105388000BF8FDF75BFA18482B4622463946FFF71B
:1053980023F9F8BD88B9FDF702FA12482B462246D0
:1053A800FEF7FAFF96F853301BB996F85530002BE4
:1053B800EFD00D48FFF725F9EBE7FDF73FFA0A486C
:1053C8002B462246FFF708F996F852301BB996F893
:1053D8005430002BDDD00348FEF7F1FFD9E700BFBA
:1053E800680000203C210020582100202DE9F041D0
:1053F800194C05465B270E463A460021204607F021
:10540800B7FCAB692360EB696360144B14491B78E4
:105418009A1E53425341627A63F3000262726FF03C
:105428005E02A27228220023E27204F10E00142206
:1054380023736373FCF7F1F859212046FCF720FC2D
:10544800084BA4F859003A46214630461B7FBDE870
:10545800F041FFF787BF00BFBC1D00208303002079
:1054680019D000086800002037B50C4698BB2F48B3
:10547800836833B9812281F8A02081F8A23003B073
:1054880030BD9D7ADDB101F1A2020DF1060105F0F2
:10549800F7FB94F9A230002B04DABDF80620134478
:1054A800ADF80630BDF90630002B0FDB4FF6FF7361
:1054B800ADF80630BDF8063084F8A030DFE70DF10E
:1054C800060105F014FD84F8A250EBE77F33F1DA0A
:1054D8004FF68173ECE7164883682BB9812281F86F
:1054E800A12081F8A330CAE79D7A95B101F1A30202
:1054F8000DF1060105F01DFFBDF90630002B0FDB8D
:105508004FF6FF73ADF80630BDF8063084F8A130C9
:10551800B5E70DF1060105F0D0FF84F8A350EBE7DD
:105528007F33F1DA4FF68173ECE700BF3C210020AE
:10553800582100200A4608B501460148FFF7F4FD46
:105548002C00002000B591B00446684616461D465A
:1055580007F0B0FB1849684607F0B4FB304605F081
:105568005DF90146684607F0ADFB1449684607F047
:10557800A9FB134B684653F82510124D07F0A2FB00
:105588001149684607F09EFB9DF84830684655F873
:10559800231007F097FB0D49684607F093FB9DF829
:1055A8004C30684655F8231007F08CFB08486A46CB
:1055B8002146FFF7B9FD00BF42D0000849D00008D6
:1055C80000000020100000204ED0000855D0000830
:1055D8002C000020024608B501480021FFF7A4FD71
:1055E8002C0000200023FF22037043708370C270D8
:1055F80003717047C178034629B982780171013275
:10560800827001207047007801281ED0022805D03A
:10561800C8B99A78187101329A70F2E798785A786E
:105628004240D20704D40130002298701A71E8E78A
:10563800FF2902D10020187170471A790132D2B2BD
:1056480091421A71EFD300207047FF29F2D01A79DE
:105658000132D2B291421A71F5D29A7801329A7017
:1056680000221A71704700000E48C3691A0617D540
:1056780003681B0614D50C4B0C4A1988138889B289
:105688009BB299420AD013880133DBB21380138886
:10569800074A9BB2D35CDBB283627047FCF7B3BAAC
:1056A800704700BF00440040A02300209E23002034
:1056B8009E2200200E490F4A0B8812880133DBB264
:1056C80092B29A4212D00C4AD0540B804FF040222A
:1056D80002F5806353E8003F43F0800302F58060E1
:1056E80040E800310029F3D10120704700207047BD
:1056F800A02300209E2300209E22002038B50446C7
:105708004518AC4200D138BD14F8010BFFF7D2FFA1
:10571800F7E708461146FFF7F1BF000070B588B0FB
:105728000C460646154600212022684607F020FB55
:10573800231E18BF01231B03CDE9023569460C233C
:10574800034801960494059307F00EFA08B070BD5B
:105758000044004010B5064C236823F00103236081
:10576800FFF7DCFF236843F00103236010BD00BF8F
:105778000044004008B531B1002211460348FFF744
:10578800E9FFFDF7C3F8012008BD00BF801A060035
:1057980008B541B14FF4005204484FF48061FFF757
:1057A800D9FFFDF7A3F8012008BD00BFA0860100BE
:1057B80008B531B1002211460348FFF7CBFFFDF7CA
:1057C80095F8012008BD00BF9A5B060008B541B1F5
:1057D8004FF4005204484FF48061FFF7BBFFFDF718
:1057E80095F8012008BD00BFA086010013B52F4C15
:1057F800236823F0010323604FF40030FCF7EBF932
:1058080008230120CDE900300A22032304214FF0A8
:105818009040FCF70BFE002211462548FFF77EFF5B
:10582800636823F490436360A36823F02A03A360AA
:10583800204BC02283F8252320225A602046FCF7FB
:10584800E2F94FF0402101F5806353E8003F23F06F
:10585800400301F5806040E80032002AF3D140237C
:105868002362154B1A80154B1A80636823F4006372
:105878006360A36823F00803A360636823F480438C
:105888006360A36823F02203A360A36843F48053F2
:10589800A360236843F001032360044BDA69910293
:1058A800FCD5DA695202F9D502B010BD00440040B7
:1058B800A086010000E100E09E230020A023002034
:1058C80030B5214C85B00E2200210546684607F008
:1058D8004FFAB4F8A030ADF800302046FBF746FC8C
:1058E8008DF802002046FBF738FCB4F8A4308DF898
:1058F80003001648ADF80430FEF7A3FD94F8A6306F
:105908008DF8073094F8A9308DF80830B4F8AA302B
:10591800ADF80A300E4B8DF806009A788DF80C20F9
:1059280093F8522093F853305AB1002B0CBF01233F
:105938000323694628468DF80D3004F018FA05B09F
:1059480030BD0133DBB2F4E7741E00203C21002097
:10595800680000200148FDF735BE00BF721E002018
:10596800F8B5154D0E4607465B23294630461446C2
:105978002A46FFF7E5FCD7E9041328686A689A42C3
:1059880008BF884209D0002430460C49FFF76CFD57
:10599800002C0CBF01200320F8BD59212846FCF734
:1059A8006FF9B5F859308342EDD114B1FFF7D2FF42
:1059B800EAE70124E8E700BF8D210020741E0020DB
:1059C80013B5012104460844FCF75AF9A178ADF84B
:1059D80006000DF10600FCF72FF9E178FCF72CF929
:1059E8002179FCF729F96179FCF726F9A179FCF707
:1059F80023F904F108010322FCF72AF9627804F17B
:105A08000C01FCF725F994F82311FCF715F9BDF8FA
:105A18000630A4F80C3102B010BD00000038024B6B
:105A280018BF0120187070474803002070B58C46D5
:105A380052BB042B5CD89EB22BB3524991F8283044
:105A480015464A6A0333DBB2D20081F828304A622D
:105A580013E0083BDBB281F82830BCF800E0BEF563
:105A6800817F0EF1010441D24A6AACF8004022FA63
:105A780003F300F80E3091F82830072BE9D80135E8
:105A8800AAB29642DDD870BDFF2AFCD1032B54D8A8
:105A98009EB2002BF7D03B4991F828304FF0000E0A
:105AA8004A6A04331201DBB242F0020281F828305C
:105AB8004A6212E0083BDBB281F82830BCF80020CB
:105AC800B2F5817F02F1010511D24C6AACF80050A1
