:020000040800F2
:10000000000001202DA4000817A4000819A400086E
:100010001BA400081DA400081FA400080000000085
:1000200000000000000000000000000021A4000803
:1000300023A400080000000025A4000827A400084D
:100040007DA400087DA400087DA400087DA400080C
:100050007DA400087DA400087DA400087DA40008FC
:100060007DA400087DA400087DA400087DA40008EC
:100070007DA400087DA400087DA400087DA40008DC
:100080007DA400087DA400087DA400087DA40008CC
:10009000000000007DA400087DA400087DA40008E5
:1000A0007DA400087DA400087DA400086D3100082F
:1000B0007DA400083D2D00087DA400087DA4000853
:1000C0007DA400087DA400087DA400087DA400088C
:1000D000392A0008B94D00087DA400087DA4000855
:1000E0007DA400087DA400087DA400087DA400086C
:1000F0007DA4000800000000000000007DA40008AE
:100100007DA400087DA400083D7F00087DA40008B0
:100110007DA400087DA400087DA400087DA400083B
:100120007DA400087DA400087DA400087DA400082B
:080130007DA400087DA4000875
:1001380010F8012B11F8013B012A28BF9A42F7D089
:10014800D01A7047034613F8012B002AFBD1181A5E
:100158000138704781F0004102E000BF83F000439E
:1001680030B54FEA41044FEA430594EA050F08BF4A
:1001780090EA020F1FBF54EA000C55EA020C7FEA0E
:10018800645C7FEA655C00F0E2804FEA5454D4EB8B
:100198005555B8BF6D420CDD2C4480EA020281EA55
:1001A800030382EA000083EA010180EA020281EA8D
:1001B8000303362D88BF30BD11F0004F4FEA0131DF
:1001C8004FF4801C4CEA113102D0404261EB4101EE
:1001D80013F0004F4FEA03334CEA133302D0524274
:1001E80063EB430394EA050F00F0A780A4F1010430
:1001F800D5F1200E0DDB02FA0EFC22FA05F280186A
:1002080041F1000103FA0EF2801843FA05F359414F
:100218000EE0A5F120050EF1200E012A03FA0EFCCE
:1002280028BF4CF0020C43FA05F3C01851EBE371F8
:1002380001F0004507D54FF0000EDCF1000C7EEB15
:1002480000006EEB0101B1F5801F1BD3B1F5001F53
:100258000CD349085FEA30004FEA3C0C04F1010472
:100268004FEA445212F5800F80F09A80BCF1004F9B
:1002780008BF5FEA500C50F1000041EB045141EA1D
:10028800050130BD5FEA4C0C404141EB0101013CE6
:1002980028BFB1F5801FE9D291F0000F04BF0146D5
:1002A8000020B1FA81F308BF2033A3F10B03B3F1A7
:1002B80020020CDA0C3208DD02F1140CC2F10C0237
:1002C80001FA0CF021FA02F10CE002F11402D8BF95
:1002D800C2F1200C01FA02F120FA0CFCDCBF41EA61
:1002E8000C019040E41AA2BF01EB0451294330BD30
:1002F8006FEA04041F3C1CDA0C340EDC04F114040D
:10030800C4F1200220FA04F001FA02F340EA0300E3
:1003180021FA04F345EA030130BDC4F10C04C4F129
:10032800200220FA02F001FA04F340EA0300294609
:1003380030BD21FA04F0294630BD94F0000F83F453
:10034800801306BF81F480110134013D4EE77FEA36
:10035800645C18BF7FEA655C29D094EA050F08BF82
:1003680090EA020F05D054EA000C04BF1946104663
:1003780030BD91EA030F1EBF0021002030BD5FEAA7
:10038800545C05D14000494128BF41F0004130BDCF
:1003980014F580043CBF01F5801130BD01F0004523
:1003A80045F0FE4141F470014FF0000030BD7FEA96
:1003B800645C1ABF194610467FEA655C1CBF0B4691
:1003C800024650EA013406BF52EA033591EA030FA8
:1003D80041F4002130BD00BF90F0000F04BF0021A0
:1003E800704730B54FF4806404F132044FF00005D3
:1003F8004FF0000150E700BF90F0000F04BF00214C
:10040800704730B54FF4806404F1320410F00045B1
:1004180048BF40424FF000013EE700BF42004FEAAC
:10042800E2014FEA31014FEA02701FBF12F07F4329
:1004380093F07F4F81F06051704732F07F4208BFE0
:10044800704793F07F4F04BF41F40021704730B5E7
:100458004FF4607401F0004521F000411CE700BF33
:1004680050EA010208BF704730B54FF000050AE0B6
:1004780050EA010208BF704730B511F0004502D5B7
:10048800404261EB41014FF4806404F132045FEAB9
:10049800915C3FF4D8AE4FF003025FEADC0C18BF62
:1004A80003325FEADC0C18BF033202EBDC02C2F154
:1004B800200300FA03FC20FA02F001FA03FE40EAE6
:1004C8000E0021FA02F11444BDE600BF70B54FF0EA
:1004D800FF0C4CF4E06C1CEA11541DBF1CEA1355C8
:1004E80094EA0C0F95EA0C0F00F0DEF82C4481EA30
:1004F800030621EA4C5123EA4C5350EA013518BF50
:1005080052EA033541F4801143F4801338D0A0FB3C
:1005180002CE4FF00005E1FB02E506F00042E0FBE9
:1005280003E54FF00006E1FB03569CF0000F18BFEF
:100538004EF0010EA4F1FF04B6F5007F64F5407497
:1005480004D25FEA4E0E6D4146EB060642EAC6212A
:1005580041EA55514FEAC52040EA5E504FEACE2E97
:10056800B4F1FD0C88BFBCF5E06F1ED8BEF1004F9A
:1005780008BF5FEA500E50F1000041EB045170BD16
:1005880006F0004646EA010140EA020081EA03015A
:10059800B4EB5C04C2BFD4EB0C0541EA045170BD56
:1005A80041F480114FF0000E013C00F3AB8014F1D0
:1005B800360FDEBF002001F0004170BDC4F1000419
:1005C800203C35DA0C341BDC04F11404C4F120059A
:1005D80000FA05F320FA04F001FA05F240EA0200F5
:1005E80001F0004221F0004110EBD37021FA04F62B
:1005F80042EB06015EEA430E08BF20EAD37070BDE5
:10060800C4F10C04C4F1200500FA04F320FA05F043
:1006180001FA04F240EA020001F0004110EBD37045
:1006280041F100015EEA430E08BF20EAD37070BDB5
:10063800C4F1200500FA05F24EEA020E20FA04F38E
:1006480001FA05F243EA020321FA04F001F000413D
:1006580021FA04F220EA020000EBD3705EEA430EAE
:1006680008BF20EAD37070BD94F0000F0FD101F0DD
:100678000046400041EB010111F4801F08BF013C16
:10068800F7D041EA060195F0000F18BF704703F054
:100698000046520043EB030313F4801F08BF013DDB
:1006A800F7D043EA0603704794EA0C0F0CEA135597
:1006B80018BF95EA0C0F0CD050EA410618BF52EA51
:1006C8004306D1D181EA030101F000414FF0000057
:1006D80070BD50EA410606BF1046194652EA430665
:1006E80019D094EA0C0F02D150EA013613D195EAD9
:1006F8000C0F05D152EA03361CBF104619460AD121
:1007080081EA030101F0004141F0FE4141F470012A
:100718004FF0000070BD41F0FE4141F4780170BD1A
:1007280070B54FF0FF0C4CF4E06C1CEA11541DBF7F
:100738001CEA135594EA0C0F95EA0C0F00F0A7F881
:10074800A4EB050481EA030E52EA03354FEA0131AE
:1007580000F088804FEA03334FF0805545EA1313C1
:1007680043EA12634FEA022245EA111545EA106589
:100778004FEA00260EF000419D4208BF964244F120
:10078800FD0404F5407402D25B084FEA3202B61A3F
:1007980065EB03055B084FEA32024FF480104FF413
:1007A800002CB6EB020E75EB030E22BFB61A754687
:1007B80040EA0C005B084FEA3202B6EB020E75EB1A
:1007C800030E22BFB61A754640EA5C005B084FEA82
:1007D8003202B6EB020E75EB030E22BFB61A75464F
:1007E80040EA9C005B084FEA3202B6EB020E75EB5A
:1007F800030E22BFB61A754640EADC0055EA060E1B
:1008080018D04FEA051545EA16754FEA06164FEA5D
:10081800C30343EA52734FEAC2025FEA1C1CC0D109
:1008280011F4801F0BD141EA00014FF000004FF096
:10083800004CB6E711F4801F04BF01430020B4F157
:10084800FD0C88BFBCF5E06F3FF6AFAEB5EB030C0F
:1008580004BFB6EB020C5FEA500C50F1000041EB0C
:10086800045170BD0EF0004E4EEA113114EB5C04D9
:10087800C2BFD4EB0C0541EA045170BD41F48011AC
:100888004FF0000E013C90E645EA060E8DE60CEAB4
:10089800135594EA0C0F08BF95EA0C0F3FF43BAFD1
:1008A80094EA0C0F0AD150EA01347FF434AF95EA88
:1008B8000C0F7FF425AF104619462CE795EA0C0F6C
:1008C80006D152EA03353FF4FDAE1046194622E739
:1008D80050EA410618BF52EA43067FF4C5AE50EA13
:1008E80041047FF40DAF52EA43057FF4EBAE12E703
:1008F8004A0011D212F5001211D20DD56FF4787397
:10090800B3EB62520ED44FEAC12343F0004343EAEB
:10091800505323FA02F070474FF00000704750EA36
:10092800013002D14FF0FF3070474FF000007047A0
:1009380080F0004002E000BF81F0004142001FBF8C
:100948005FEA410392EA030F7FEA226C7FEA236C95
:100958006AD04FEA1262D2EB1363C1BFD21841408A
:1009680048404140B8BF5B42192B88BF704710F020
:10097800004F40F4000020F07F4018BF404211F0C3
:10098800004F41F4000121F07F4118BF494292EA2B
:10099800030F3FD0A2F1010241FA03FC10EB0C0057
:1009A800C3F1200301FA03F100F0004302D54942E4
:1009B80060EB4000B0F5000F13D3B0F1807F06D391
:1009C80040084FEA310102F10102FE2A51D2B1F189
:1009D800004F40EBC25008BF20F0010040EA03007E
:1009E8007047490040EB0000013A28BFB0F5000FFE
:1009F800EDD2B0FA80FCACF1080CB2EB0C0200FAB4
:100A08000CF0AABF00EBC25052421843BCBFD04002
:100A18001843704792F0000F81F4000106BF80F47C
:100A280000000132013BB5E74FEA41037FEA226C3F
:100A380018BF7FEA236C21D092EA030F04D092F00A
:100A4800000F08BF0846704790EA010F1CBF00203E
:100A5800704712F07F4F04D1400028BF40F000409B
:100A6800704712F100723CBF00F50000704700F0BB
:100A7800004343F0FE4040F4000070477FEA2262E2
:100A880016BF08467FEA23630146420206BF5FEAB3
:100A9800412390EA010F40F4800070474FF00003B3
:100AA80004E000BF10F0004348BF40425FEA000C7A
:100AB80008BF704743F0964301464FF000001CE022
:100AC80050EA010208BF70474FF000030AE000BF78
:100AD80050EA010208BF704711F0004302D54042B6
:100AE80061EB41015FEA010C02BF84460146002028
:100AF80043F0B64308BFA3F18053A3F50003BCFA43
:100B08008CF2083AA3EBC25310DB01FA02FC6344EF
:100B180000FA02FCC2F12002BCF1004F20FA02F2F6
:100B280043EB020008BF20F00100704702F12002E9
:100B380001FA02FCC2F1200250EA4C0021FA02F24A
:100B480043EB020008BF20EADC7070474FF0FF0C4F
:100B58001CEAD0521EBF1CEAD15392EA0C0F93EA4A
:100B68000C0F6FD01A4480EA010C400218BF5FEAEC
:100B780041211ED04FF0006343EA501043EA51115F
:100B8800A0FB01310CF00040B1F5000F3EBF490059
:100B980041EAD3715B0040EA010062F17F02FD2A5D
:100BA8001DD8B3F1004F40EBC25008BF20F0010040
:100BB800704790F0000F0CF0004C08BF49024CEA57
:100BC800502040EA51207F3AC2BFD2F1FF0340EAE9
:100BD800C250704740F400004FF00003013A5DDC5A
:100BE80012F1190FDCBF00F000407047C2F100029B
:100BF800410021FA02F1C2F1200200FA02FC5FEA88
:100C0800310040F1000053EA4C0308BF20EADC70D1
:100C1800704792F0000F00F0004C02BF400010F443
:100C2800000F013AF9D040EA0C0093F0000F01F0F0
:100C3800004C02BF490011F4000F013BF9D041EA12
:100C48000C018FE70CEAD15392EA0C0F18BF93EA14
:100C58000C0F0AD030F0004C18BF31F0004CD8D13E
:100C680080EA010000F00040704790F0000F17BFC5
:100C780090F0004F084691F0000F91F0004F14D00B
:100C880092EA0C0F01D142020FD193EA0C0F03D163
:100C98004B0218BF084608D180EA010000F0004066
:100CA80040F0FE4040F40000704740F0FE4040F441
:100CB800400070474FF0FF0C1CEAD0521EBF1CEAE0
:100CC800D15392EA0C0F93EA0C0F69D0A2EB0302FE
:100CD80080EA010C49024FEA402037D04FF0805398
:100CE80043EA111143EA10130CF000408B4238BF5D
:100CF8005B0042F17D024FF4000C8B4224BF5B1A6B
:100D080040EA0C00B3EB510F24BFA3EB510340EAB8
:100D18005C00B3EB910F24BFA3EB910340EA9C0066
:100D2800B3EBD10F24BFA3EBD10340EADC001B01D6
:100D380018BF5FEA1C1CE0D1FD2A3FF650AF8B427A
:100D480040EBC25008BF20F0010070470CF0004C87
:100D58004CEA50207F32C2BFD2F1FF0340EAC250B2
:100D6800704740F400004FF00003013A37E792F073
:100D7800000F00F0004C02BF400010F4000F013AD1
:100D8800F9D040EA0C0093F0000F01F0004C02BFCC
:100D9800490011F4000F013BF9D041EA0C0195E735
:100DA8000CEAD15392EA0C0F08D142027FF47DAFCE
:100DB80093EA0C0F7FF470AF084676E793EA0C0FBE
:100DC80004D14B023FF44CAF08466EE730F0004CBC
:100DD80018BF31F0004CCAD130F000427FF45CAF4C
:100DE80031F000437FF43CAF5FE700BF4FF0FF3CBA
:100DF80006E000BF4FF0010C02E000BF4FF0010C0D
:100E08004DF804CD4FEA40024FEA41037FEA226CD5
:100E180018BF7FEA236C11D001B052EA530C18BFF7
:100E280090EA010F58BFB2EB030088BFC81738BF5C
:100E38006FEAE17018BF40F0010070477FEA226C4A
:100E480002D15FEA402C05D17FEA236CE4D15FEA46
:100E5800412CE1D05DF8040B704700BF844608467A
:100E68006146FFE70FB5FFF7C9FF002848BF10F13B
:100E7800000F0FBD4DF808EDFFF7F4FF0CBF012080
:100E880000205DF808FB00BF4DF808EDFFF7EAFF0A
:100E980034BF012000205DF808FB00BF4DF808EDC5
:100EA800FFF7E0FF94BF012000205DF808FB00BFBA
:100EB8004DF808EDFFF7D2FF94BF012000205DF840
:100EC80008FB00BF4DF808EDFFF7C8FF34BF01204D
:100ED80000205DF808FB00BF4FEA4002B2F1FE4F68
:100EE8000FD34FF09E03B3EB12620DD94FEA0023E4
:100EF80043F0004310F0004F23FA02F018BF4042BD
:100F080070474FF00000704712F1610F01D14202A3
:100F180005D110F0004008BF6FF0004070474FF057
:100F28000000704742000ED2B2F1FE4F0BD34FF0D3
:100F38009E03B3EB126209D44FEA002343F0004347
:100F480023FA02F070474FF00000704712F1610F6A
:100F580001D1420202D14FF0FF3070474FF000003C
:100F6800704700BF0348044B834202D0034B03B1D0
:100F78001847704748000020480000200000000083
:100F88000548064B1B1AD90F01EBA301491002D0E3
:100F9800034B03B118477047480000204800002061
:100FA8000000000010B5064C237843B9FFF7DAFFBC
:100FB800044B13B10448AFF300800123237010BD24
:100FC8004800002000000000D0BB000808B5054B11
:100FD8001BB105490548AFF30080BDE80840FFF79D
:100FE800CFBF00BF000000004C000020D0BB0008AD
:100FF8000022427082700122C270B1FA81F102228D
:1010080049090271032201704271704743788B428B
:101018001FD0012941700AD0022910D0C1B901237B
:10102800C3708170022303710323437170470378EF
:1010380043B1012383700223C3700023F3E70378CD
:10104800002BF6D0022383700023C3700123EAE744
:10105800FEE7704782B00B88ADF800304B88ADF8DA
:1010680002308B88ADF80430CB88ADF806300239F1
:10107800431C053013F8012F0DF1080C0CEB42024C
:10108800834232F8082C21F8022FF3D102B07047BE
:1010980008448078704738B54FF07F33C0F8A030E7
:1010A80004464FF6FF737F220025A0F8A43080F88D
:1010B800A62080F8A950A0F8AA30AC3000F04AFC6D
:1010C800A4F8B85038BD70B51146154604461E46FA
:1010D80000F080FC294604F1140000F07BFC29464E
:1010E80004F1280000F076FC294604F13C0000F0E9
:1010F80071FC294604F1500000F06CFC294604F10B
:10110800640000F067FC294604F1780000F062FCF6
:10111800294604F18C0000F05DFC04F1AC00324675
:101128004FF4FA734FF4FA6100F0FAFB2046BDE879
:101138007040FFF7B0BF704700F053BC143000F0A8
:1011480050BC283000F04DBC90F8A43013B990F989
:10115800A000704790F9A100704790F8A43013B927
:1011680090F9A200704790F9A300704710B50446A3
:1011780007F038F938B104F1140000F036FC012802
:1011880038BF0120C0B210BD10B5044607F02AF9D7
:1011980038B104F1500000F028FC012838BF0120C4
:1011A800C0B210BD4FF47A71AC3000F0DABB002148
:1011B800AC3000F0D6BB08B5AC3000F0E3FBB0F5BE
:1011C8007A7FA8BF4FF47A7020EAE07008BD10B5A6
:1011D800044600F0E0FB04F1140000F0DCFB04F12D
:1011E800280000F0D8FB04F13C0000F0D4FB04F127
:1011F800500000F0D0FB04F1640000F0D8FB04F1CB
:10120800780000F0D4FB94F8B93013B1013B84F8AE
:10121800B93010BD7F2807D0002807DA10F1800FF9
:1012280006D04042C0B27047002070470120704786
:101238007F20704710B1404240B270477F2070470E
:101248007F280FD010F1310F0EDA10F1780F0DDB77
:101258007830FE2340B2584323304623B0FBF3F0E6
:10126800C0B27047FF207047FE20704700207047CB
:101278007F2805D031B1002806DA4042C0B2704755
:10128800FF207047FE207047002070477F2811D04C
:1012980010F1310F10DA10F1780F10DB783040F2CE
:1012A800A96340B2584323304623B0FBF3F0AC3077
:1012B80080B270470020704740F255707047AC20EC
:1012C800704763289FBF40F2A963584332306423B4
:1012D8009DBFB0FBF3F0AC3080B240F25570704760
:1012E8004FF4F063A0F58060584340F2FF7390FB21
:1012F800F3F000F5787080B27047FFF7F1BF4FF454
:101308009663A0F58060584340F2FF7390FBF3F0BA
:1013180000F2DC5080B27047A0F58060D0EB00107E
:1013280048BF033040F38F007047032812DD0C28B4
:1013380012DD0F2812DD122812DD162812DD1928F9
:1013480012DD1C2812DD1F2812DD2128CCBFFF204A
:101358000620704700207047012070470220704720
:101368000820704703207047072070470420704703
:101378000520704705289ABF014B185CFF2070476D
:101388007ABC00087F281ABF4042C0B200207047CC
:101398007F2811D010F1320F10DA884210DD401A80
:1013A8006423C1F1FF21584301F57F01CE3131306B
:1013B80090FBF1F0C0B27047FF207047642070477F
:1013C80000207047014B4840185C704780BC0008FB
:1013D80052B110B4054C0A4411F8013B58408A42F6
:1013E800205CF9D110BC7047704700BF80BC000872
:1013F800002805DB212805DC044B33F81000704772
:10140800002070474FF4FA60704700BFAABD00087B
:10141800392808D822280ED9094B2338C0B2C3402E
:1014280003F0010070475F2807D0613819288CBF86
:10143800002001207047002070470120704700BF3E
:1014480001EC7F00F8B50246451E461D00245F27C3
:1014580015F8010FFF2804BF0134E4B2FFF7D8FFE5
:1014680000B92F70AE42F3D1062C04D119B10B6824
:1014780013608B88938000239371F8BD2DE9F8439E
:10148800DFF83490471E441D012500264FF0280838
:1014980017F8011F08480AF048FB034610B1A0EBF3
:1014A8000903DBB2A3FB05329E19A742A5FB08532B
:1014B800EED13046BDE8F88380BD000810B541790B
:1014C800A1F13000C3B2092B07D80523B0FBF3F311
:1014D80003EB8303C01AC0B210BD044C20460AF0C7
:1014E80024FB0028F1D0001BC0B2EEE780BD000845
:1014F80070B50446FEF726FE02B20023551E18B248
:10150800A84204FA83F104DA265C302E03F10103C1
:10151800F5D0121A01322046BDE870400AF032BBFD
:101528002DE9F047432B28BF432396B00C461546B8
:1015380000211A46984607460AF03EFB0021412240
:1015480005A804910AF038FBDFF87C90DFF87CA04E
:1015580004EB4505AC4210D104A8FEF7F3FD28B111
:1015680000F158036B44002203F8492C04A93846BB
:101578000AF0C4FA16B0BDE8F08734F9020B47F652
:10158800FF739842E8D0002812DC514668460AF0FA
:10159800B5FA04A8FEF7D6FD06466846FEF7D2FD62
:1015A8000644B045D6D3694604A80AF0AFFAD1E795
:1015B800694680B208F00BFB6846FFF799FF494679
:1015C80068460AF0A3FAE4E731BC00082CBC00081E
:1015D800F0B589B06D4600242F468E1CE1B28A42D0
:1015E80004D83946FFF79CFF09B0F0BD36F824103F
:1015F80025F8021B0134F1E742F210736421B0FBB5
:10160800F3F203FB1200B0FBF1F301FB130000EB54
:10161800023000EB831080B2704770B50E4600218F
:10162800054614460AF0C8FA00239AB2944200D834
:1016380070BDF25C002AFBD0EA540133F5E70000E4
:10164800072914D8DFE801F00407090B0D0F111161
:101658000849FFF7E2BF0849FBE70849F9E70849E5
:10166800F7E70849F5E70849F3E70849F1E70849C2
:10167800EFE700BF36BC00083BBC000840BC0008D0
:1016880045BC00084ABC00084FBC000854BC000810
:1016980059BC0008052911D8DFE801F00306080A3B
:1016A8000C0E0749FFF7B9BF0649FBE70649F9E7FA
:1016B8000649F7E70649F5E70649F3E70649F1E77A
:1016C8005BBC000860BC000865BC00086ABC000878
:1016D8006FBC000873BC000859BC000870B50E4602
:1016E80014460021013205460AF066FA00239AB230
:1016F800944200D870BDF25C002AFBD0EA54013352
:10170800F5E77D23438043F2390309B2C360002320
:1017180001808180C3800372704700000268044919
:10172800044B01FB023323F000430360180C70479D
:10173800FD430300C39E2600F0B5002597B0016065
:10174800858004465622294668460AF035FA01265D
:10175800627CAA4209D80023802104F1B4002374D2
:1017680017B0BDE8F0400AF027BA2046FFF7D6FFC9
:10177800E7797B1B002190FBF3F202FB1300C0B258
:10178800EC460A46CBB29F421DD80023227B9A42E0
:10179800DED0A279033A012A04EB050105D925B167
:1017A80091F91120D2B9012BD2D98B74A26852F8C1
:1017B8002310583304EB85026B440135516303F859
:1017C800586CEDB2C4E71CF801EBBEF1000F03D171
:1017D8008242DBD00132D2B20131D3E7501E8342BC
:1017E800E3DB01329342E0DCB2E72DE9F04715462E
:1017F80096B0013D0160027104464371EDB2562274
:10180800002168460AF0D8F90027022D84BF4FF05E
:10181800010900253E464FF0010A94F807809CBF55
:101828004FF00309B8FBF9F8627CB24209D80023EB
:10183800802104F1B400237416B0BDE8F0470AF023
:10184800BBB92046FFF76AFFA8EB0603002190FB0F
:10185800F3F202FB1300C0B2EC460A46CBB298453D
:1018680006D91CF801EBBEF1000F22D182421ED12D
:10187800434528BF4346227B03FB095101F0FF0182
:101888008A42D1D016B1B7B9012BCDD9A2191F46BA
:101898009174A26852F8211004EB86020136516354
:1018A80003F158026A44F6B202F858ACBCE70132B8
:1018B800D2B20131D2E77A1E9342E7DB7A1C934217
:1018C800E4DCB1E70023C0E90133C3600374704767
:1018D800F0B5047C0360012C11D944688568C6689A
:1018E800141B4FF47A774D1B7C4305FB16442B449D
:1018F80094FBF3F33344C360C0E90121F0BD1CB984
:10190800C46001230374F7E743684FF47A74D31A69
:10191800634384680C1B93FBF4F3C3600223F1E771
:101928002DE9F041044610461D4616468846FFF745
:10193800B5F8074606EB0800FFF7B0F80146384649
:10194800FFF7B8F9656020602846FFF7ABF8A0609C
:10195800BDE8F08110B504464068FFF7A3F8A06021
:1019680010BD38B5856804460846FFF79BF8294638
:10197800FEF7E2FF2168FFF7E9F82946FEF7DEFFE8
:10198800A06038BD08B54FF07C518068FEF7D6FFDF
:10199800FFF7A2FA08BDD0E901236421D31AC36076
:1019A80082604B43418AB3FBF1F303747047D0E97B
:1019B8000123D31AC0E90223704743682BB1C268D8
:1019C80064214A43B2FBF3F2D3B203740023C36029
:1019D800436070470023C0E90233418243600374C7
:1019E80070474368013343607047007C7047436821
:1019F8000B44436070470000072800D9FEE7014BFD
:101A0800185C704724BE0008052800D9FEE7014B82
:101A1800185C70472CBE000870477047002070475C
:101A28000020704700207047704700207047002052
:101A380070474FF0B04382B0DA6C0243DA64DB6C73
:101A480003400193019B02B070474FF0B04382B04E
:101A58009A6D02439A659B6D03400193019B02B006
:101A680070474FF0B04382B01A6E02431A661B6E7D
:101A780003400193019B02B0704750E8003F23F0F8
:101A8800800340E80032002AF7D17047044B1888D9
:101A9800044B1B8880B29BB2C01A18BF0120704744
:101AA800BC2A0020BA2A0020704700000288044B94
:101AB8005140C9B233F8113083EA122303807047CA
:101AC800DCD600089AB110B4B0F800C0084C0A443B
:101AD80011F8013B83EA0C03DBB2914234F813306E
:101AE80083EA1C2CA0F800C0F2D110BC70477047E4
:101AF800DCD6000837B54FF6FF730446ADF806305C
:101B08004518AC4203D1BDF8060003B030BD14F847
:101B1800011B0DF10600FFF7C9FFF2E71629A8BF60
:101B280016216FF008008142B8BF01461170197084
:101B3800704708B5FFF7AAFF003818BF012008BD95
:101B4800002070470278024B51405B5C037070477D
:101B5800C0C20008FF230370704700BF704770B50C
:101B68000B7803704B7843700B78FD2B05460C46B9
:101B780038D18B788370CB78C3700B7903714B792C
:101B880043718B7983718B68C3718B68C3F30F239F
:101B980003728B7A43720A26627804F10C01A81941
:101BA80009F0D0FF6378B4F80C213344981CEA5448
:101BB8005A1CB4F80C1192B2090AA954A278D20797
:101BC80080B20ED504F58872054404F58E7452F877
:101BD800041B45F8041BA242F9D112782A700F336E
:101BE80098B270BD00238B700B7983704B79C370EA
:101BF8008B7903718B6843710626CDE708B52C22D3
:101C08000348002109F0D8FF024B00221A7008BDD2
:101C1800A8050020480300202DE9F041137803703F
:101C280092F8018080F80180FD2B04460F46154686
:101C380054D193788370D378C3701379037153792F
:101C48004371937983716B7A127A1B0403EB022335
:101C5800EA79134423F07F430A26A26863F3170244
:101C6800A260A919424604F10C0009F06BFF7A7BC7
:101C7800904507D208F10C00A2EB0802002120448D
:101C880009F09AFF63781E44AB195A78AB5D03EBF1
:101C98000223A4F80C31A378DB070ED5023615FA17
:101CA80086F304F5887203F10C0153F8040B42F82B
:101CB800040B8B42F9D11B781370BB7A84F821315D
:101CC800FB7A84F822313B7B84F823317B7B84F8D0
:101CD80024313B7884F82031BDE8F081002343802B
:101CE80093780371D37843711379837153790626F6
:101CF800B3E7000070B50F4C0F4D0646062204F1FD
:101D08000A0105F58970FFF7E9FC237CC3F3030298
:101D1800C3F3031385F81A31637C85F81921C3F3DB
:101D2800030385F81B31637ADB0744BF022333734F
:101D380070BD00BFA5200020C400002070B5044677
:101D4800BDF81450E2702420237122461B0A20702B
:101D5800637158202B0AA1706070A57102F8073FC3
:101D6800049B59198B420CD16A1D92B2E11C0020C8
:101D7800FFF72EFB05F10806A05505F1090080B212
:101D880070BD13F8010B02F8010FEBE70A4A0B4B81
:101D980012680B49A3FB02323220920C00FB02F2BC
:101DA800084B486802F5FA72A3FB023292094B68A5
:101DB8001B1A9A42FBD870473C00002083DE1B4365
:101DC800001000E0D34D621002780A4B90F801C071
:101DD8008178D243D2B29A5C82EA0C0290F803C0AE
:101DE8009A5C4A40995C027981EA0C01595C4A4044
:101DF800985C7047C0C20008F8B53C29BDF81C5073
:101E0800044635D0A1F12106714271414900D0073D
:101E180048BF41F00801E37092074FEA13234FF0DF
:101E2800240248BF41F01001227023716F222B0A4F
:101E3800A61C6270A170A37165713046FFF7C4FFDC
:101E48002246069B02F8070F59198B4212D1A91D89
:101E580089B23046FFF74EFE05F1080705F1090380
:101E68009BB2E055000AE05405F10A0080B2F8BDC3
:101E78000121CCE713F8010B02F8010FE5E7000098
:101E8800074B084A5B6A02F5006353E8003F43F0DA
:101E9800200302F5006040E800310029F3D17047C3
:101EA80000380140003001402DE9F04F0C465188C0
:101EB800B1F58C7F85B0054611D300211170D91C6E
:101EC800C9B2012995BF01210023518053809CBFCD
:101ED8002370117000232B7005B0BDE8F08F1078C7
:101EE8000E2800F28B8001A656F820F0C71E0008C5
:101EF800311F0008591F0008731F0008052000083B
:101F08000520000805200008052000080520000815
:101F18000520000805200008052000080520000805
:101F280005200008851F0008481C5080635421784C
:101F3800FD299BB206D10C330A21D380918002235C
:101F48001370C7E708330621D38091800E23F7E783
:101F5800481C50806354D80742BFD1880D31D180C6
:101F6800012B8CBF00230323EAE7002B01F10100BA
:101F78005080635414BF00230E23E1E7481C5080AF
:101F880063545388D1888B4232D300235380137013
:101F980002232B7069802378FD2B35D163792B724E
:101FA800A3796B72637A227A1B0403EB0223E2792A
:101FB80013446B60637803F10C026A80A278D1073E
:101FC80001D519336B8000266968DFF8F0806E81CF
:101FD80040F285120C20B31801335B0800FB03F7AD
:101FE80058F80770B94218D25A1EB242F3D816E010
:101FF80092889A423FF66EAF01236CE70023137074
:1020080053809380D38066E7E3782B7223796B72D1
:1020180063796B6063780833D4E71E46E5D80C27EC
:10202800774358F80730994227D123782046FD2B6B
:1020380010F801BF0CBF4FF00A094FF0060909EB71
:102048000B03591E89B247440193FFF753FD97F8D4
:1020580004A0ADF80E0051460DF10E00FFF726FD65
:10206800019BE218E35C527803EB0223BDF80E20D3
:102078009BB29A4203D005232DE703232BE7BB79B4
:10208800DA0706D5FA79934582BF04EB09018A5C21
:10209800AA729B0709D50C2303FB068362781B7A77
:1020A8009A4282BF4C44E35CEB720C2303FB068329
:1020B80085F80CA05B796B730EE700BFC0C30008FE
:1020C800F0B50546FD2305F80C3B85B004468DF8B0
:1020D800043090F8243103F10C020244012B42D859
:1020E8000026637066808DF805308B7A23718DF831
:1020F80008308B7AADF8066001338B7263798DF8FE
:102108000930A3798DF80A30A368C3F317031A12AC
:102118008DF80B3009211B140DF105008DF80D30D9
:102128008DF80C20FFF7E6FC6778ADF802003A4618
:1021380029460DF10200FFF7C5FC94F82311FFF7BB
:10214800B5FC94F82421BDF80230A4F80C3197426C
:1021580010D207F10C00D21B3146204405B0BDE86F
:10216800F04009F029BD12F8010D0028B8D1013B53
:10217800DBB2B3E705B0F0BD044A00231380044A7C
:102188001380044A1380044A13807047BA2A002037
:10219800BC2A0020BE2E0020C02E0020044AD2F8FF
:1021A800903023F40043C2F89030FFF7EFBD00BF32
:1021B8000004005808B5FFF7E9FD044AD2F890304A
:1021C80043F40043C2F8903008BD00BF0004005833
:1021D80007B503688DF807101B6901220DF1070187
:1021E800984703B05DF804FB70B5044608460D46F1
:1021F800FDF7A8FF236882B2294620461B69BDE87F
:1022080070401847B0F1904F02D10120FFF711BC80
:10221800084B984205D003F58063984203D1042007
:10222800F4E70220F2E7044B984201D18020EDE761
:10223800704700BF00040048001C00480C4B98423F
:1022480003D14FF40060FFF70CBCB0F1804F05D00C
:10225800084B984205D14FF40030F4E70120FFF70E
:10226800F4BB054B984202D14FF48020EBE770474E
:10227800002C014000440140004801402DE9F04392
:1022880087B00E46054614460021142201A89DF881
:1022980038809DF83C901F4609F08EFC00960B2C68
:1022A80007D8DFE804F007070A12141414161616E4
:1022B8001A1CFEE70323019301E002230493032F72
:1022C80011D8DFE807F0111321110123F6E70123E4
:1022D800F1E7012301930393F1E70223EBE70223DC
:1022E80001930123F7E7FEE702230293B8F1100FE9
:1022F8000CD8DFE808F02D2D0C11131517191B1D2C
:102308001F21232527292B000123EEE7FEE70123C0
:102318000593022301931EE00223F9E70323F7E75D
:102328000423F5E70523F3E70623F1E70723EFE79F
:102338000823EDE70923EBE70A23E9E70B23E7E79F
:102348000C23E5E70D23E3E70E23E1E70F23DFE79F
:10235800B8F1000FDDD1B9F1000F02D02846FFF720
:1023680051FF053C042C05D8DFE804F0030B0403F7
:102378000B00AE626946284608F018FF07B0BDE8B2
:10238800F083AE61F6E713B54FF0010C0024CDE9F8
:10239800004CFFF773FF02B010BD000030B587B0E6
:1023A800002315460446ADF80630FFF747FF042D15
:1023B80004D8DFE805F02E3204363F00FEE71E4B56
:1023C8001E4A1B68B3FBF2F39BB20022CDE902213F
:1023D800013B01A92046ADF804300492059209F0AA
:1023E80035F9236823F080032360A36823F4A0331E
:1023F80023F00703A360636823F0700363606368D6
:1024080023F470036360A36823F08003A36007B01C
:1024180030BD094B0A4A1B68D4E7074B094A1B68B9
:10242800D0E7054B064A1B68B3FBF2F303EB8303C3
:102438005B00C9E70123C8E73C00002080A812011F
:1024480040420F0000127A0010B50446FFF7A6FFBD
:10245800236843F00103236010BD00224FF0FF31D1
:10246800FFF7F2BF204B10B5204C5B68236008F0E3
:1024780003F84FF0904008F05BFE1D4808F058FE46
:102488001C4808F055FE1C4809F06EFA1B4809F074
:102498006BFA1B4809F07CF808F0E6FF4FF0E022E1
:1024A80000234FF0B0411361536193618A6822F0B1
:1024B800030242F001028A6072B64FF0FF319A00BF
:1024C80002F1604202F561420133082BC2F8801024
:1024D800C2F88011F3D162B6034B1B6883F30888F6
:1024E80023689847FEE700BF0000FF1F4403002051
:1024F800000400480008004800380140004400403B
:10250800003001400749084A881AEFF30883521A35
:102518001A44013A013B984288BF0022AA2109F0D7
:102528004BBB00BF0000012000040000044B5A69A7
:10253800586910F0020018BFC2F38000704700BF4E
:10254800000400584FF0B042D2F8943043F40043EE
:10255800C2F894304FF47A7300BF013B9BB2002B52
:10256800FAD14FF0B043D3F8942022F40042C3F8D4
:102578009420D3F894205204FBD40C4BD3F8902029
:1025880022F40042C3F890204FF47A7200BF013A57
:1025980092B2002AFAD1D3F8902042F40042C3F84C
:1025A80090204FF400629A61704700BF0004005801
:1025B80010B50323052240214FF09040FFF7E3FEBA
:1025C800BDE810400323052280214FF09040FFF71B
:1025D800DABE08B5FFF7AAFF003818BF012008BD0A
:1025E80008B5FFF7F6FF00B908BD00BFF9E74FF0DF
:1025F800904380229A6240229A6170474FF090433C
:1026080040229A6280229A6170470000024B4FF480
:1026180080225A60704700BF00E100E0064B1A684C
:1026280022F001021A605A6822F400325A601A68CD
:1026380042F001021A60704700440040064B1A68D5
:1026480022F001021A605A6842F400325A601A688D
:1026580042F001021A607047004400400023032240
:1026680002214FF09040FFF78EBE4FF0904318695B
:1026780080F00200C0F340007047000010B5074C1E
:102688000023204605221021FFF77DFE2046002367
:10269800BDE8104005220821FFF775BE0004004878
:1026A80005494B691A04DB4302F4801203F0100356
:1026B80013438B61704700BF0004004805494B690C
:1026C8001A04DB4302F4002203F0080313438B616E
:1026D800704700BF000400480C4BD3F8FC2022F0E0
:1026E8008072C3F8FC20D3F8FC2042F08072C3F853
:1026F800FC20A3F55D431A6822F001021A601A68EB
:1027080042F001021A6000225A60704700ED00E0B2
:102718000649074B074A1B68B3FBF2F310B54C6830
:1027280043434A68121B9A42FBD310BD001000E0D5
:102738003C00002040420F001FB50223CDE90131C3
:1027480001A801236946039308F000F800280CBF8C
:102758000420052005B05DF804FB014608B50120FA
:1027680007F0AEFF00280CBF0420052008BD08B5FF
:10277800FFF7E2FF031F5842584108BD08B5FFF7AD
:10278800ECFF031F5842584108BD00002DE9F047EF
:10279800294B2A4D01280E4614462949294A0FBFBC
:1027A80079277827AA461D4606BF88469A46904646
:1027B80007F03AFF39462846FFF7D9FF28B9002421
:1027C80007F044FF2046BDE8F087002E08BF4FF40D
:1027D800FC64073424F0070405F11007B1463444BB
:1027E800AAEB050AA1450BD14FF011324FF0FF3388
:1027F8002846FFF7C3FF041E18BF0124A400DFE723
:102808006EB90AEB0703D3E90023B3F1FF3F08BF12
:10281800B2F1FF3F06D1083709F10809E2E7D9E923
:102828000023F2E7B84505D93846FFF7A7FF002887
:10283800F1D1C4E70324C3E700C0030800C80308B4
:10284800FFCF0308FFC7030810B507F0EDFE0948DE
:102858007821FFF78CFF044638B107487921FFF744
:1028680086FF041E18BF0124A40007F0EFFE2046CF
:1028780010BD00BF00C0030800C8030830B5084DEC
:10288800002340F2EF749AB2914201D8042030BD7F
:10289800A34203D05A5DC2540133F4E70320F6E79C
:1028A80010C0030838B504460D4672B60A460146FC
:1028B8000020FFF76BFF62B6042806D172B601202C
:1028C8002A462146FFF762FF62B638BD38B5124B7B
:1028D8001C68D3F80058B4F1113F09D1B5F1113F84
:1028E80017D0002211460120BDE83840FFF74EBF3F
:1028F800B5F1113F03D1002211461046F4E7FFF766
:10290800A3FF042804D12C4001340CBF022001206D
:1029180038BD0420FCE700BF00C00308044B9A68D8
:102928009107FCD518739A68D207FCD5187B7047B5
:102938000000015870B50C46451E8E18B44200D1EF
:1029480070BD15F8010FFFF7E9FF04F8010BF5E773
:10295800084611461A46FFF7EDBF000070B5064E4F
:1029680004464518A54200D170BD3078FFF7D6FF60
:1029780004F8010BF6E700BF3400002008461146B2
:10298800FFF7ECBF38B504464518AC4200D138BD56
:1029980014F8010BFFF7C2FFF7E708461146FFF7E7
:1029A800F1BF000010B58CB02822002102A809F060
:1029B80003F94FF0B0431C4C5A6E42F001025A66BC
:1029C8005B6E03F001030193019BFFF7BBFD082237
:1029D80008924FF48272002303924FF40072CDE9FB
:1029E8000533CDE909330293079207234FF4E062D8
:1029F80002A920460B93049208F0EEFD636823F0C9
:102A080010036360636823F008036360236843F07E
:102A180040032360A3689B07FCD5237B034BFF225D
:102A28001A700CB010BD00BF00000158340000201F
:102A38001B4B10B4DC69A00611D51A6891060ED597
:102A4800184819495A6A038809880133C3F30A03E5
:102A580089B299421FBF1549D2B2CA54038010489F
:102A68001F232206036215D503681B0612D5104BD7
:102A7800104A1988138889B29BB299420CD01388DE
:102A88000133C3F30903138013880B4A9BB2D35C49
:102A9800DBB2836210BC704710BCFEF7EEBF00BF0C
:102AA80000380140BC2A0020BA2A0020BA2200209F
:102AB800C02E0020BE2E0020BE2A00200E490F4A3C
:102AC8000B8812880133C3F3090392B29A4211D0DA
:102AD8000B4AD0540B4A0B8002F5006353E8003FC1
:102AE80043F0800302F5006040E800310029F3D18B
:102AF8000120704700207047C02E0020BE2E002005
:102B0800BE2A00200030014038B504464518AC42C2
:102B180000D138BD14F8010BFFF7D0FFF7E70846DE
:102B28001146FFF7F1BF0000054B064A1B881288C3
:102B38009B1A98B21B0444BF00F5006080B270472E
:102B4800BC2A0020BA2A0020FFF7EEBF0848094A2D
:102B58000188138889B29BB29942F9D0138801334E
:102B6800C3F30A0313801388034A9BB2D05C7047EF
:102B7800BC2A0020BA2A0020BA220020FFF7E6BFAC
:102B880070B588B00C4606461546002120226846D6
:102B980009F012F8231E18BF01231B03CDE90235E3
:102BA80069460C23034801960494059308F000FF36
:102BB80008B070BD0038014010B5064C236823F0FA
:102BC80001032360FFF7DCFF236843F00103236060
:102BD80010BD00BF00380140002208461146FFF72B
:102BE800EBBF000073B53B4C236823F0010323605F
:102BF800082501264FF48040FEF733FF4021CDE938
:102C08000056354803230A22FFF738FB03231A46E8
:102C1800CDE9005630488021FFF730FB00221146ED
:102C28004FF46140FFF7ACFF636823F4904363609F
:102C3800A36823F02A03A360284BB02283F8242337
:102C480010225A602046FEF718FF254A02F5006355
:102C580053E8003F23F0400302F5006040E80031EC
:102C68000029F3D1402323621E4B19801E4B198083
:102C780002F5006353E8003F23F0200302F50060EB
:102C880040E800310029F3D1184B1980184B1980FE
:102C9800104B5A6822F400625A609A6822F00802BF
:102CA8009A605A6822F480425A609A6822F0220296
:102CB8009A609A6842F480529A601A6842F0010257
:102CC8001A60DA699102FCD5DA695202F9D502B0C4
:102CD80070BD00BF003801400004004800E100E07A
:102CE80000300140BE2E0020C02E0020BA2A00204D
:102CF800BC2A002008B5FFF775FFBDE80840FFF7BC
:102D0800BFB8FFF7F7BF0000084BDA6892070CD48A
:102D1800074A012111805A6A10325A636FF0020281
:102D28001A61DA6842F00202DA607047004801402E
:102D3800641E0020324A13699B0710B526D56FF030
:102D4800020313612F4B1B88516B11FA83F35363F2
:102D58002D4B198889B2002946D01988013189B2CA
:102D68001980198889B2022911D84FF090434FF47D
:102D780000729A62254A13880133C3F3080313804B
:102D88001388234A9BB2D35C224A138010BD19884A
:102D980089B20A290FD81F4B1A8812F0010F4FF079
:102DA80090424FF4007114BF916191621A88C2F386
:102DB8004E021A80EAE7198889B20B294FF0904130
:102DC8004FF40070886109D1134A11880F4A12889C
:102DD80089B292B29142D9D00122EAE7D16821F0B2
:102DE8000201D1600022E4E74FF090404FF40074F4
:102DF8008461D06820F00200D0601980C6E700BF67
:102E080000480140601E0020641E00206820002049
:102E1800661E0020662000206A20002009490A4A10
:102E280008B50B8812880133C3F3080392B29A429B
:102E380006D0064AD0540B80FFF766FF012008BD74
:102E48000020FCE76A20002068200020661E002081
:102E580038B504464518AC4200D138BD14F8010B0A
:102E6800FFF7DCFFF7E708461146FFF7F1BF000060
:102E7800B0F5614F0D4A0E4B0CD0B0F5E13F10D0C4
:102E8800B0F5165F0DD172B640F24131118040F2B3
:102E9800E24203E072B68B211180D0221A8062B61A
:102EA800704772B6452111805422F7E7601E002052
:102EB800621E002010B5032388B005224FF400716C
:102EC8004FF09040FFF75FFA194C4FF090434FF4E2
:102ED80000729A61204601224FF0FF31FFF7B4FAE1
:102EE80020220021684608F067FE6A460121204634
:102EF80008F0E6FB0F4AD2F8183823F00403C2F8AA
:102F080018386FF0020323610B4B902283F81D23BE
:102F18004FF000521A604FF4E130FFF7A9FF074A5B
:102F280000231380064A1380064A138008B010BD98
:102F3800004801400040014000E100E06820002016
:102F48006A200020641E0020FFF7B4BF024B1A68F5
:102F5800024B1A60704700BFE42E00209403002043
:102F6800054A064B1968136899421DBF01330120B1
:102F780013600020704700BF94030020E42E002057
:102F8800034A044B11681B780B441360704700BF59
:102F9800E42E0020400000200148FFF75EBA00BF81
:102FA80000440140014B586A80B270470044014018
:102FB80008B5FFF7F1FFBDE80840FFF7C7BF70B5D8
:102FC80004460D46164607F02FFB083D04EBC606DF
:102FD800B44204D1042407F039FB204670BD55F8EB
:102FE800082FD4E900016B68994208BF904201D1CB
:102FF8000834EDE72046FFF7C1FB0028F8D1044666
:10300800E9E700001FB503788BB10A4B1B68B3F5DD
:10301800FA6F0CD30023002203700023CDE90023AC
:10302800CDE90223406802226946FFF7C8FF05B0D0
:103038005DF804FBE42E00200123F0B50380444B27
:10304800444AD3E9005104464348914208BF8542A7
:1030580085B04FF0000202D1227005B0F0BD3AA150
:10306800D1E900013D4F6260C3E900013C484FF0DF
:10307800AA33D0E90021B1F1FF3F08BFB2F1FF3F09
:10308800D0E9026505D0994208BF9A4201D00A43A7
:1030980009D1B5F1FF3F08BFB6F1FF3F0DD09D4202
:1030A80008BF9E4209D01030B842E2D172B67A21E8
:1030B8002B48FFF75CFB62B629486060D0E9003214
:1030C800CDE90032B2F1FF3F08BFB3F1FF3FD0E9CD
:1030D800025109D1B1F1FF3F08BFB5F1FF3F22D13D
:1030E8004FF0AA331A4623E04FF0AA36B24208BF7F
:1030F800B3420BD1B1F1FF3F08BFB5F1FF3F0FD08D
:10310800B14208BFB5420ED10023EBE753EA0207EC
:1031180009D1B14208BFB54205D14FF48071218071
:103128001D46114604E0002323701A461D46194621
:10313800CDE90032CDE9025102226946FFF73FFF8F
:103148008BE700BFAFF3008012345678FEDCBA90EC
:1031580020000020FEDCBA901234567800D803080C
:1031680000D003084FF080431A6991070AD56FF021
:1031780002021A615A6B6432DA63084A596B128880
:103188000A445A634FF080431A69120705D56FF055
:1031980008021A61024B01221A707047640000206D
:1031A800910300200A490B8803B9FEE772B64FF075
:1031B800804309885A6A114464325963DA636FF0AC
:1031C80002021A616FF008021A6162B6704700BF06
:1031D8006400002000B5032289B04FF0FF314FF0A2
:1031E8008040FFF731F920220021684608F0E4FC0E
:1031F80064236A4601214FF08040039308F060FA87
:10320800C8236A464FF480714FF08040039308F05A
:1032180057FA054BA02283F81B234FF000621A606F
:1032280009B05DF804FB00BF00E100E04FF0804307
:10323800DA6842F00202DA60DA6842F00802DA601C
:103248007047000010B501EB8101084B01EB8101CB
:1032580089001980064B044600221A70FFF7BAFF4E
:103268002046BDE81040FFF7E1BF00BF6400002022
:1032780091030020F8B51C4C1C4FC0220021201DD2
:1032880008F09AFC1623062563800F23A3802A469C
:103298004323394660192580FEF79AF90123C4E9CA
:1032A80013333F230226A4F854302A4643233946D1
:1032B80004F15600A4F84A60FEF78AF90C4BC4F8EA
:1032C8009C300C49A4F89A60002304F1AC00C4E9CE
:1032D800293384F8A03008F011FC7F2384F8C1302A
:1032E800052384F8C230F8BD800200207CC20008A3
:1032F8000F0001007EBE000870B5094E05460C4659
:10330800415C304608F011FC034628B1831B0133A9
:10331800DBB2282B28BF0023F35C2B5570BD00BF00
:1033280094C2000870B50C461146064608F0E6FB44
:1033380044B10025052130460135FFF7DDFFEBB22A
:103348009C42F7D870BD0000F7B5054605F1110697
:10335800214C224A014636016846FFF7E3FFB01CBC
:103368006946204408F0CAFB264404EB05120023F2
:1033780002277772A2F81A31142202FB05400421B1
:10338800012280F850104FF4807540F20111A0F826
:103398004A70C264A0F8522080F85520A0F8565010
:1033A800A0F8581040F2032084F83430E784A5626E
:1033B800A08584F82E2084F8303084F83330C4F89F
:1033C8003A30C4F83E30C4F84230A4F84610A4F8A5
:1033D800481003B0F0BD00BFC400002032BE000892
:1033E800F7B50546B14CB24A05F111060146370159
:1033F8006846FFF797FFB81C274469462044FEF744
:1034080021F87B7AAB4A072B88BF022304EB06100E
:1034180088BF7B721188437A41FA03F3DF070FD420
:103428000223437261B14807C1F3800308D441FA0B
:1034380003F7FF07D8B240F1D88104EB061358729E
:1034480004EB05112B0191F81A01052802D9002077
:1034580081F81A01E718508897F81A1140FA01F113
:10346800C90711D4012187F81A1168B18707C0F379
:10347800400109D440FA01FC1CF0010FCFB200F062
:10348800B981E11881F81A71E11891F81B01032834
:1034980002D9002081F81B0104EB0616717A012974
:1034A80003D9042901D000219180E618908896F864
:1034B8001B1140FA01F111F001010ED186F81B1120
:1034C80058B110F0010108D140FA01F7FF07CEB258
:1034D80040F19581234483F81B61142303FB0541C4
:1034E80091F84A00052802D9022081F84A0003FB16
:1034F800054393F84B10042902D9002183F84B1097
:10350800142303FB0543B2F84A1093F84B0041FA21
:1035180000F0C00712D4012083F84B0071B188076E
:10352800C1F340030AD441FA03F6F707D8B240F1D1
:103538006B81142303FB054383F84B00142303FB1F
:10354800054393F84C10032902D9012183F84C1044
:10355800142000FB0540B2F84C1090F84C3041FAAA
:1035680003F313F0010310D180F84C3069B111F066
:1035780001030AD141FA03F6F607D8B240F14981AE
:10358800142303FB054383F84C00142303FB054372
:1035980093F84E10012902D9002183F84E10142007
:1035A80000FB0540B2F84E1090F84E3041FA03F394
:1035B80013F0010310D180F84E3069B111F0010306
:1035C8000AD141FA03F6F707D8B240F1278114234C
:1035D80003FB054383F84E00142303FB054393F8CC
:1035E8004F10022902D9002183F84F10142000FB44
:1035F8000540B2F8503090F84F1043FA01F111F03D
:10360800010110D180F84F106BB113F001010AD1FC
:1036180043FA01F6F607C8B240F10581142101FB0F
:10362800054181F84F00142101FB054090F84D60D9
:10363800022E02D9002680F84D6001FB054191F861
:103648005000052802D9042081F85000142101FBFC
:10365800054090F85260012E02D9012680F8526088
:1036680001FB054191F85500012802D9012081F894
:103678005500142101FB054191F85300022802D995
:10368800002081F85300142606FB0546B2F85200C4
:1036980096F8531040FA01F111F0010117D186F89C
:1036A8005310A0B110F0010111D105E0C4000020B1
:1036B80032BE00088002002040FA01F7FF07CEB2B0
:1036C80040F1B680142101FB054181F853601421B3
:1036D80001FB054090F856600C2E02D9002680F8B0
:1036E800566001FB054191F84C00012809D191F879
:1036F8004F60022E05D1DF0740F19F80002381F83B
:103708004F30142303FB0543012183F8571040F27F
:103718000111A3F8581094F82630052B02D902237A
:1037280084F8263094F82730042B02D9002384F833
:103738002730B2F89A0094F8273040FA03F313F0D0
:10374800010FAB4B0ED1012184F8271050B1860729
:10375800C0F3400106D440FA01F7FF07CEB271D595
:1037680083F8276094F82810022902D9002184F8E8
:10377800281094F82910032902D9012184F8291066
:10378800B2F89C1094F8292041FA02F212F00102D2
:103798000CD184F8292049B111F0010206D141FA6F
:1037A80002F6F607D0B251D583F8290094F82A20FA
:1037B8000C2A02D9002284F82A2093F832200C2AF5
:1037C80002D9002283F8322093F82B20042A02D948
:1037D800002283F82B2000228649104611F9014F58
:1037E80014F1780F36DA087036E00133102B7FF4C5
:1037F8001EAE25E6013110297FF43CAE44E60131C6
:1038080010297FF461AE68E60133102B7FF48BAE8C
:1038180094E60133102B7FF4ADAEB6E60133102BDE
:103828007FF4CFAED8E6013110297FF4F1AEFAE685
:10383800013110297FF440AF49E713F0020318BFA4
:1038480003465CE70131102985D18BE70132102A44
:10385800A5D1ABE7782CC6DC0132D2B20C2ABDD197
:1038680065490022012011F8014F0132022CD2B221
:1038780088BF0870042AF6D193F83420012A02D9A7
:10388800002283F834205D4AB2F89E1093F8342061
:1038980041FA02F212F001020CD183F8342049B146
:1038A80011F0010206D141FA02F4E407D0B211D5B1
:1038B80083F8340093F82C20052A02D9032283F8D0
:1038C8002C2093F82D20032A08D80AD1002283F847
:1038D800342006E00132102AE5D1EBE7022283F812
:1038E8002D2093F82E20022A02D9012283F82E20B7
:1038F80093F83020022A02D9002283F8302093F866
:1039080033200C2A02D9002283F8332093F835207B
:10391800042A02D9002283F83520142202FB05313B
:1039280091F85A00012802D9002081F85A0002FBB8
:10393800053292F85C10052902D9052182F85C103D
:10394800142202FB053102FB053291F85B000528C1
:1039580084BF002081F85B0092F85B0092F85C104D
:10396800884288BF82F85B1093F83620012A02D972
:10397800002283F8362093F83820052A02D9052238
:1039880083F8382093F83720052A84BF002283F86B
:10399800372093F8371093F83820914288BF83F87E
:1039A8003720142202FB053102FB053291F85D0035
:1039B800012888BF002003EB051588BF81F85D004A
:1039C800FF2182F8511082F8541083F82F104FF01D
:1039D800FF3283F831104FF6FF711A629A84C5F8E6
:1039E8001C21A5F8201183F8391003B0F0BD00BFE1
:1039F800C4000020FD0000200901002080020020F2
:103A0800034670B50846052B04D8DFE803F01D040B
:103A180021191D21FEE720261F250F22174CA37010
:103A28002277013B0122A4F84860A4F84A50A27604
:103A3800A273042B10D8DFE803F010181B1B180022
:103A480009266F250722E9E7142632250A22E5E729
:103A5800352613251922E1E7FEE700232371237495
:103A6800FDF7CAFF6073607670BD22712274F7E7B4
:103A7800002323712374A376A373F1E76800002061
:103A8800044B012283F85120A3F85220A3F85420B4
:103A9800704700BF680000202DE9F043774D784C4F
:103AA80000F1110805EB081702378BB006463846B7
:103AB800FDF7E4FC4FEA061900900421684605EB7F
:103AC8000616FEF717F896F81B31E0832BB103EBC7
:103AD800031303EB03231844E08305EB08135B7A15
:103AE800062B40F0A880E38B03F5B5432533E38329
:103AF80005EB081895F82700FFF7C2FF98F809109A
:103B080061708B1FA944012B8CBF0023012399F8F6
:103B18001A0184F85630FFF773FF99F81B21E18BDF
:103B2800009BE1806182A36063612AB14FF011308C
:103B380000FB0233A360636195F82600514B616274
:103B480013F9203023732376002384F82A30637B0B
:103B580084F8292023B93846FDF7B0FC84F82A00F8
:103B68006078FDF749FF484A84F82800128802F077
:103B78000101970748BF41F00201A185560742BFDE
:103B8800A18D41F00401A1850346100742BFA18D14
:103B980041F01001A185D10642BFA18D41F020015D
:103BA800A185920642BFA28D42F00802A285374A3B
:103BB80001AE02F1200C10685168374603C708327D
:103BC80062453E46F7D110683860A278304E06212B
:103BD8000AA801FB0303134413F8247C84F820701B
:103BE80016E90F0086E80F0040F2E2433846A4F8D1
:103BF8004C30FCF757FF4FF07F51FCF7A7FFFDF75C
:103C080091F97F08B4F84820052F4FF47A73B3FB75
:103C1800F2F3A4F8403095F82C30C0B238BF05272D
:103C2800A4F84E0084F85070052B1AD8DFE803F08A
:103C38000B2216191C1F072B7FF45AAFE38BA3F531
:103C4800B543263B53E74FF416536364002384F8C7
:103C58005730A4F858300BB0BDE8F0834FF4164342
:103C6800F3E74FF46143F0E74FF4E133EDE74FF446
:103C78006133EAE74FF49643E7E700BFC40000204A
:103C8800680000207CC2000880020020E8BB000811
:103C98009800002002484FF4DE72FF2107F08CBF25
:103CA800C400002002484FF4DE71FEF7FBBD00BFE0
:103CB800C400002002484FF4DE71FEF7DFBD00BFEC
:103CC800C400002008B5FFF7F5FF034B1878BDE8DE
:103CD8000840FFF785BB00BF6800002038B5FFF734
:103CE800D9FFFEF7F3FD04280CD0FFF7D3FFFEF74A
:103CF800EDFD042803D1FFF7DDFF042806D0FFF708
:103D0800C9FF03E0FFF7D6FF0428EED1264927486C
:103D1800264C102207F024FF38B1254910222046EE
:103D280007F01EFF08B1FFF7B5FFA38AB3F5215FBF
:103D380028D008D30025E8B20135FFF705FB0A2D86
:103D4800F9D10023E3774FF42153A3820125226997
:103D58001549164842F6A1039A424FF010021CBFBB
:103D68002361012507F0FCFE70B10F490F481022AE
:103D7800FDF753FC0F4910480822FDF74EFCFFF7EA
:103D880091FF03E00025E2E7002DF8D10023E37757
:103D98000A4C2370FFF76EFA2078FFF721FB207892
:103DA800BDE83840FFF778BE39BE0008C4000020DF
:103DB8004ABE00085BBE00087602002068000020AA
:103DC8000129F7B5054600D9FEE70B4E06EB0113AE
:103DD8001C460F016278F15D03619B7806F09AF842
:103DE800E3790193A379009322796379E1782846EE
:103DF80006F0B7F803B0F0BDFCD80008836810B52A
:103E0800044603B9FEE70A781A70002106F044F860
:103E18004FF47A70FEF77CFC2046012106F053F837
:103E2800A36820461978FFF7CBFF10BD38B5836823
:103E380004466BB1024652F8183BDD6900F11903DC
:103E4800A847217E20460222BDE8384006F0EBB89C
:103E580038BD000070B58160897A86B0044601B12A
:103E6800012106F030F8204606F0AFF9204606F0AA
:103E780087F9217BFF2903D0FA22204606F08CF926
:103E8800A3685B7A013B042B04D8DFE803F0043E07
:103E98003E414100FEE7E922E121204606F0BAF959
:103EA8000121204606F049F99621204606F086F9B8
:103EB8003821204606F098F9204606F09DF9A368B7
:103EC800204693F90810FFF7B1FFA3689D7A15B350
:103ED80019782046FFF774FF00221146204606F0A5
:103EE8000CF80023009340F2032220464FF6FF719E
:103EF80006F066F820464FF6FF7106F088F820466F
:103F080006B0BDE8704006F028B9DB22D721C4E727
:103F18006F226B21C1E75E880E4B63614CF2503310
:103F2800009320460C4919230B2206F081F901233E
:103F3800CDE903335B23CDE901531023194620460D
:103F48000095042206F0B2F93146204606F0D2F96F
:103F5800C2E700BFDCD80008A086010010B50446FF
:103F680006F0FBF820464FF6FF71BDE8104006F05A
:103F78004EB8000038B58168036891F90810DD690A
:103F8800044600F1190300F11802A847A3689A7AB9
:103F980042B11A78012A00D9FEE7044B03EB021359
:103FA800236138BD024B6361FBE700BFFCD8000802
:103FB800DCD80008836810B5044683B103691BB9CF
:103FC80043690BB9FFF7D6FFA3689B7A1BB1236936
:103FD800B3F90C0010BD6369B3F91C00FAE7184681
:103FE800F8E7836810B5044643B103691BB9436910
:103FF8000BB9FFF7BFFF94F9190010BD1846FCE78D
:1040080008B5836843B9FFF725FF7D20FEF780FBDD
:10401800BDE80840FEF7FABA08BD0000F8B5044646
:104028000846202811461D46BDF818C09DF81C20DA
:104038009DF8203000D9FEE7052DA57100D9FEE7CF
:104048002B4F57F8356006B9FEE707EBC507A660A2
:104058003E797F7927730027E67184F8D550A4F854
:104068000EC084F8D470BCF1000F00D1FEE7864280
:104078009CBF06F1FF36F0B2052D60742DD0012DDE
:1040880032D802F1FF35EDB21DD0022D16D85D1ED3
:10409800032D0DD80C2801D90C256574657C854243
:1040A80000D960742046FDF7A0FB00232374F8BDF7
:1040B800122884BF122363740023EFE7042B88BF00
:1040C80000230022EEE7022D04D80C2803D90C2384
:1040D800637400E000220023E4E7531E022BF9D8A2
:1040E8000828F8D90823F3E72046FDF725FBDCE785
:1040F8004CC2000890F8D43053B190F8D520074B43
:1041080003EBC20153F83230497953F82100704764
:10411800037C00EB8300406B704700BF4CC2000873
:1041280013B5194B0288DB8B9A42044627D1837852
:1041380013F0D00F25D18379812B22D84FF6FF7346
:104148000D2201460DF10600ADF80630FDF7BAFC68
:10415800B4F80D20BDF806309A420ED14C2204F175
:104168000D01FDF7AFFCB4F85900BDF80630C01AD0
:1041780018BF0120800002B010BD0320FBE701201A
:10418800F9E70220F7E700BF680000200A7ACB7938
:1041980002F0070243EA022303804B7A0A7A03F00B
:1041A8003F035B0143EAD20343808B7A4A7A9B0040
:1041B80043EA9213CA7A02F0010243EA8223838017
:1041C8000B7BCA7A03F00F03DB0143EA5203C38077
:1041D8000B7BC3F30112012A11D813F0300F14BF5F
:1041E800012300239B0203830B7B7F2B0AD813F048
:1041F800C00F14BF012300239B024383704740F282
:10420800FF73F0E740F2FF73F7E70A7ACB7902F021
:10421800070243EA022303804B7A0A7A03F03F033A
:104228005B0143EAD20343808B7A4A7A9B0043EAD4
:104238009213CA7A02F0010243EA822383800B7B3D
:10424800CA7A03F00F03DB0143EA5203C3800A7CF6
:10425800CB7B02F0070243EA022303814B7C0A7CF2
:1042680003F03F035B0143EAD20343818B7C4A7C22
:104278009B0043EA9213CA7C02F0010243EA8223BC
:1042880083810B7DCA7C03F00F03DB0143EA5203F1
:10429800C3814B7DDB0003828B7DDB004382CB7DBA
:1042A800DB0083820B7EDB00C3820B7BC3F301122E
:1042B800012A2BD813F0300F14BF012300239B02CF
:1042C80003830B7B7F2B24D813F0C00F14BF01236B
:1042D80000239B0243830B7DC3F30112012A1BD8E1
:1042E80013F0300F14BF012300239B0283830B7D3F
:1042F8007F2B14D813F0C00F14BF012300239B0297
:10430800C3834FF4806303844384704740F2FF7390
:10431800D6E740F2FF73DDE740F2FF73E6E740F2CD
:10432800FF73EDE737B5214BDB8B03804A78837841
:1043380062F3C30383704A79C37862F30003C370DE
:104348008A79437962F386134371044691F902002E
:104358000D46FCF75FFFE37860F34703E370EA7804
:10436800237962F3060323712A79DBB202F0010292
:1043780003F07F0343EAC21323712A796379C2F3F6
:10438800450223F03F031343637159224FF6FF732D
:1043980021460DF10600ADF80630FDF793FBBDF898
:1043A8000630A4F8593003B030BD00BF68000020C3
:1043B8002DE9F3419DF820601546522E88464FF0AE
:1043C8005B024FF0000104461F4628BF522607F043
:1043D800F3FB2D4BDB8B23802A78A37862F302034F
:1043E800A3706978C90001F00801DBB203F0070384
:1043F80041EA08111943A1706A79E37862F300036E
:10440800E370AA79637962F38613637195F9020000
:10441800FCF700FFE37860F34703E370EA78237959
:1044280062F3060323712A79DBB202F0010203F07A
:104438007F0343EAC21323712A796379C2F34502E1
:1044480023F03F0313436371A379224666F34703BE
:1044580002F8063F3E443B46B34210D14FF6FF7385
:10446800592221460DF10600ADF80630FDF72AFB6A
:10447800BDF80630A4F8593002B0BDE8F08113F851
:10448800011B02F8011FE7E76800002007B5009349
:1044980013460A460121FFF78BFF03B05DF804FBC2
:1044A80030B53A4B027893F8261061F30302027094
:1044B80093F8271061F30712027093F828104278D6
:1044C80061F30302427093F8291061F307124270F6
:1044D80093F82A10827861F30302827093F83210FD
:1044E800827961F30302827193F82B10827861F369
:1044F8000712827093F83410C27961F30302C27113
:1045080093F82C10C27861F30302C27093F82D104F
:1045180061F30712C27093F82E10027961F3030257
:104528000271427993F8301061F30302427193F8F3
:104538003310827961F30712827193F83510C279CA
:1045480061F30712C27103F1390100F10A0200F1A7
:10455800160411F9015F02F8015FA242F9D193F83C
:104568004610C27D61F30102C27593F8471061F3EA
:104578008302C27593F8481061F30512C27593F867
:10458800493063F38712C27530BD00BFC4000020F4
:104598000278344BC2F3030230B583F82620027840
:1045A800C2F3031283F827204278C2F3030283F888
:1045B80028204278C2F3031283F829208278C2F3B4
:1045C800030283F82A208279C2F3030283F8322097
:1045D8008278C2F3031283F82B20C279C2F3030254
:1045E80083F83420C278C2F3030283F82C20C278FF
:1045F800C2F3031283F82D200279C2F3030283F871
:104608002E204279C2F3030283F830208279C2F364
:10461800031283F83320C279C2F3031283F83520DA
:1046280003F1390100F10A0200F1160412F9015FE1
:1046380001F8015FA242F9D1C27DC2F3010283F8F9
:104648004620C27DC2F3810283F84720C27DC2F3AF
:10465800011283F84820C27DC2F3811283F84920F1
:1046680030BD00BFC400002070B5522698B0324655
:1046780004460D4603A8002107F09EFA212342F6BE
:10468800A1008DF80C30FCF7B7FFADF80E004FF421
:104698002150FCF7B1FF1C49ADF8100014220DF1B0
:1046A8001200FCF7BAFF1948FFF79BFC184B8DF86E
:1046B800260093F851308DF827300AA8FFF7F0FE4E
:1046C8004FF68073ADF84630124A134BCDE91223EA
:1046D800124B149347F6FF73ADF85430104BB3F8F0
:1046E8009A208DF85620B3F89C20B3F89E308DF8A8
:1046F80057208DF85830009603AB2A4602212046F1
:10470800FFF756FE18B070BD61BE00086C2000208F
:104718006800002001000A00190064009E00FF7F65
:104728008002002038B5104D044600F11B01062216
:1047380005F58970FCF7D2FF94F82130C3F3030321
:1047480085F8193194F82130C3F3031385F81A3129
:1047580094F82230C3F3030385F81B3104F12500D4
:10476800BDE83840FFF714BFC40000200B4A0C49CD
:10477800126882600A6802614A680A4942610A68E6
:1047880082614A68C26100234EF660228380837189
:104798008381038402600385704700BFE42E0020F4
:1047A8006DBE000876BE000810B5044C04492046CA
:1047B800FFF724FB2046FFF7D1FB10BD6C2000203B
:1047C8006C00002038B5174D0446A878697805288C
:1047D8001CD14FF6FF732385FFF712F96B7801227E
:1047E8009A40238D23EA020323850F490F48FFF7D8
:1047F80007FC0E48FFF7B2FB0C486FF07F01FFF78C
:1048080015FB2046BDE83840FFF7CEBF00232385BF
:104818000220FFF7F5F86A7801239340228D1343AD
:104828009BB2E1E7680000206C0000206C200020AB
:1048380008B590F8203002468BB9FDF716FF10B97D
:1048480082F8210008BD92F8213001335BB2312B88
:1048580082F82130F6DD012382F82030F2E7FDF7F7
:1048680004FF18B1322382F82130EBE792F82130A7
:10487800013B5BB2002B82F82130D8BF82F82000C0
:10488800E0E700000A4B90F820201B6872B18268AC
:104898009B1AB3F57A6F01D901234371037923B9C0
:1048A800437913B101230371037370478360F5E7FC
:1048B800E42E00200346007B821E012A4FF00002EE
:1048C80002D893F8201009B91A7370471046704738
:1048D8000A4A38B5138801339BB2502B04460D465B
:1048E80001D8138038BD002305491380FDF77CFCEF
:1048F80029462046FDF778FCF4E700BF9C0300201A
:104908007FBE00082DE9F84F154604460F466B494F
:104918006B4EFDF769FC29462046FDF765FC694B9F
:104928000022012F1A800FD11023B362082746F204
:10493800A810B761FDF7ECFEB762FDF7E9FE29465E
:104948002046FFF7C5FFF2E7BB1E08220C2B00F23A
:10495800A880DFE803F03141521C07A6A6A66262D0
:1049680062626200564E4FF008081027C6F8188099
:1049780046F2A810B762FDF7CBFEC6F82880B761EB
:10498800FDF7C6FE29462046FFF7A2FFEDE74C4E8D
:104998004FF008081027C6F8188046F2A810B7612B
:1049A800FDF7B6FEC6F82880B762FDF7B1FE2946C6
:1049B8002046FFF78DFFEDE7B262414E102746F221
:1049C800A810B761FDF7A4FEB762FDF7A1FE29465E
:1049D8002046FFF77DFFF2E71023B361384E082722
:1049E80046F2A810B761FDF793FEB762FDF790FE97
:1049F80029462046FFF76CFFF2E7B261304E1027D8
:104A080046F2A810B761FDF783FEB762FDF780FE96
:104A180029462046FFF75CFFF2E7A7F1090BDFF80C
:104A2800A0805FFA8BFB00264FF0080A5E453CBF6A
:104A38001023C8F818304FF0040946F2A810C8F837
:104A480018A0FDF765FEC8F828A0FDF761FE09F17A
:104A5800FF3929462046FFF73BFF19F0FF09ECD143
:104A68001023C8F828304FF0040946F2A810C8F8F7
:104A780018A0FDF74DFEC8F828A0FDF749FE09F17A
:104A8800FF3929462046FFF723FF19F0FF09ECD12B
:104A98000136A7F10803F6B2DBB2B34238BF0026ED
:104AA800C4E71023B261B3614CF25030FDF730FE19
:104AB80029462046FFF70CFFF6E700BF7FBE000837
:104AC800000400489C03002008B5437802789A4205
:104AD80013D0052B8ABF052303700370027888BFA3
:104AE8004370064B064813F92210064B19731976C2
:104AF800836813B11972FFF799F908BD7CC20008E1
:104B08006C2000206800002010B50AB9437010BD61
:104B1800541E0B2CFBD80332D2B231F91220C83AFA
:104B280003FB022240F2716192FBF1F212B222EA17
:104B3800E2729A42C8BF1AB24270E8E70A460146D2
:104B480010B9024805F079B9704700BF6C20002001
:104B580070B50D4616461C46014688B9FDF747FD57
:104B6800094833462A4605F041F907484FF6FF71D0
:104B780005F04DFAA1010448BDE8704005F060BA9F
:104B88000148FFF7EBF970BD6C2000202DE9F041DA
:104B9800194C05465B270E463A460021204607F089
:104BA8000BF8AB692360EB696360144B14491B78FD
:104BB8009A1E53425341627A63F3000262726FF0A5
:104BC8005E02A27228220023E27204F10E0014226F
:104BD80023736373FCF721FD59212046FCF78AFFF4
:104BE800084BA4F859003A46214630461B7FBDE8D9
:104BF800F041FFF7ADBF00BFEB1C00208B03002086
:104C080061BE00086800002037B50C4638B91A485C
:104C1800836833B9812281F8A02081F8A23003B0DB
:104C280030BD9D7ADDB101F1A2020DF1060105F05A
:104C38003DFA94F9A230002B04DABDF8062013449B
:104C4800ADF80630BDF90630002B0FDB4FF6FF73C9
:104C5800ADF80630BDF8063084F8A030DFE70DF176
:104C6800060105F058FB84F8A250EBE77F33F1DA30
:104C78004FF68173ECE700BF6C2000200A4608B5A8
:104C880001460148FFF73EFE2C00002000B591B018
:104C98000446684616461D4606F030FF1849684621
:104CA80006F034FF304604F0CFFF0146684606F0B0
:104CB8002DFF1449684606F029FF134B684653F840
:104CC8002510124D06F022FF1149684606F01EFF16
:104CD8009DF84830684655F8231006F017FF0D492F
:104CE800684606F013FF9DF84C30684655F82310C7
:104CF80006F00CFF08486A462146FFF703FE00BF8E
:104D080081BE000888BE00080000002010000020B6
:104D18008DBE000894BE00082C000020024608B58D
:104D280001480021FFF7EEFD2C0000200023FF22A0
:104D3800037043708370C27003717047C178034673
:104D480029B9827801710132827001207047007898
:104D580001281ED0022805D0C8B99A7818710132E6
:104D68009A70F2E798785A784240D20704D4013012
:104D7800002298701A71E8E7FF2902D10020187103
:104D880070471A790132D2B291421A71EFD30020DA
:104D98007047FF29F2D01A790132D2B291421A71C2
:104DA800F5D29A7801329A7000221A717047000081
:104DB8000E48C3691A0617D503681B0614D50C4B91
:104DC8000C4A1988138889B29BB299420AD0138871
:104DD8000133DBB213801388074A9BB2D35CDBB282
:104DE80083627047FCF749BE704700BF004400402B
:104DF800B8220020B6220020B62100200E490F4A12
:104E08000B8812880133DBB292B29A4212D00C4A54
:104E1800D0540B804FF0402202F5806353E8003FE6
:104E280043F0800302F5806040E800310029F3D1A7
:104E38000120704700207047B8220020B6220020C9
:104E4800B621002038B504464518AC4200D138BD1B
:104E580014F8010BFFF7D2FFF7E708461146FFF7F2
:104E6800F1BF000070B588B00C4606461546002113
:104E78002022684606F0A0FE231E18BF01231B034C
:104E8800CDE9023569460C2303480196049405933D
:104E980006F08EFD08B070BD0044004010B5064C09
:104EA800236823F001032360FFF7DCFF236843F046
:104EB8000103236010BD00BF0044004008B531B1B4
:104EC800002211460348FFF7E9FFFDF7B7FB012071
:104ED80008BD00BF801A060008B541B14FF4005262
:104EE80004484FF48061FFF7D9FFFDF797FB0120D5
:104EF80008BD00BFA086010008B531B100221146E7
:104F08000348FFF7CBFFFDF789FB012008BD00BF71
:104F18009A5B060008B541B14FF4005204484FF4BB
:104F28008061FFF7BBFFFDF789FB012008BD00BFCB
:104F3800A086010013B52F4C236823F001032360DA
:104F48004FF40030FCF781FD08230120CDE9003043
:104F58000A22032304214FF09040FDF78FF9002225
:104F680011462548FFF77EFF636823F4904363608A
:104F7800A36823F02A03A360204BC02283F82523CB
:104F880020225A602046FCF778FD4FF0402101F5B9
:104F9800806353E8003F23F0400301F5806040E858
:104FA8000032002AF3D140232362154B1A80154B97
:104FB8001A80636823F400636360A36823F008031E
:104FC800A360636823F480436360A36823F022032B
:104FD800A360A36843F48053A360236843F00103EC
:104FE8002360044BDA699102FCD5DA695202F9D5DB
:104FF80002B010BD00440040A086010000E100E0BE
:10500800B6220020B822002030B51C4C85B00E22F4
:1050180000210546684606F0CFFDB4F8A030ADF88B
:1050280000302046FCF7A2F88DF802002046FCF775
:1050380094F8B4F8A4308DF803001148ADF80430A2
:10504800FEF7CFFF94F8A6308DF8073094F8A93012
:105058008DF80830B4F8AA30ADF80A30094B8DF84D
:1050680006009B788DF80C306946012328468DF898
:105078000D3004F092F805B030BD00BFA41D00202B
:105088006C200020680000200148FEF78BB800BFA4
:10509800A11D0020F8B5154D0E4607465B2329468D
:1050A800304614462A46FFF749FDD7E90413286815
:1050B8006A689A4208BF884209D0002430460C49E1
:1050C800FFF7A2FD002C0CBF01200320F8BD5921D9
:1050D8002846FCF70FFDB5F859308342EDD114B1DD
:1050E800FFF7D2FFEAE70124E8E700BFA520002088
:1050F800A41D002013B5012104460844FCF7FAFC5E
:10510800A178ADF806000DF10600FCF7CFFCE178B8
:10511800FCF7CCFC2179FCF7C9FC6179FCF7C6FCEB
:10512800A179FCF7C3FC04F108010322FCF7CAFCCF
:10513800627804F10C01FCF7C5FC94F82311FCF724
:10514800B5FCBDF80630A4F80C3102B010BD000063
:105158000038024B18BF0120187070474803002020
:1051680070B58C4652BB042B5CD89EB22BB3524907
:1051780091F8283015464A6A0333DBB2D20081F829
:1051880028304A6213E0083BDBB281F82830BCF8CB
:1051980000E0BEF5817F0EF1010441D24A6AACF805
:1051A800004022FA03F300F80E3091F82830072B5C
:1051B800E9D80135AAB29642DDD870BDFF2AFCD1E4
:1051C800032B54D89EB2002BF7D03B4991F82830D6
:1051D8004FF0000E4A6A04331201DBB242F00202B9
:1051E80081F828304A6212E0083BDBB281F82830A7
:1051F800BCF80020B2F5817F02F1010511D24C6A9A
:10520800ACF8005024FA03F3835491F82830072BA4
:10521800EAD80EF1010E1FFA8EF29642DAD870BD66
:10522800FEE7FEE724494A6A03F5C06343EA4232CF
:1052380091F828304A620D33DBB281F8283012E049
:10524800083BDBB281F82830BCF80020B2F5817F3A
:1052580002F101050AD24C6AACF8005024FA03F3B3
:10526800835491F82830072BEAD870BDFEE712491D
:105278004A6A03F5E06343EA423391F828204B6217
:1052880002F10D03DBB281F8283010E0083BDBB2F5
:1052980081F82830BCF80020B2F5817F0AD24C6A28
:1052A800DC40531CACF80030845491F82830072BAC
:1052B800ECD870BDFEE700BFA80500202DE9F04F2F
:1052C8000D466A4C0021FF2629800670802683B08F
:1052D800616284F82810A6779A46002B00F0B68001
:1052E80003F1FF3B2B8812FA8BFB571E02F1FF09D3
:1052F80088460A46FF2B17F8016F0FD8B1B19642BE
:105308000DD108F101081FFA88F89A4540F28A8001
:10531800BB4500F08B80B945ECD1FEE7FEE75FFAAC
:1053280088F329460192FFF71BFF019A731EDBB22F
:10533800FD2B2AD83F2B52D906F14103DBB23F2B74
:1053480029D894F82810636A0136F6B20831C9B230
:1053580046EA032384F82810636211E00839C9B2C9
:1053680084F828102B88B3F5817F03F1010C35D21E
:10537800666AA5F800C026FA01F1C15494F828100D
:105388000729EBD82B880021BFE74FF001082B88AD
:1053980032464146B9E794F82810636A3F36F6B2B8
:1053A8000931C9B246EA432384F82810636211E040
:1053B8000839C9B284F828102B88B3F5817F03F126
:1053C800010C0AD2666AA5F800C026FA01F1C15498
:1053D80094F828100729EBD8D4E7FEE7FEE794F8FD
:1053E8002810636A7F36F6B20831C9B246EA032349
:1053F80084F82810636211E00839C9B284F82810CB
:105408002B88B3F5817F03F1010C0AD2666AA5F8EF
:1054180000C026FA01F1C15494F828100729EBD8E6
:10542800B0E7FEE7002003B0BDE8F08FB1B994F80B
:10543800282062B1616AC2F108020124914004FA8D
:1054480002F2013A0A4319192980C2542B889A4555
:1054580094BF0020012003B0BDE8F08F5FFA88F305
:105468002946FFF77DFE2B88E1E700BFA80500204D
:105478002DE9F04F47F26F730022827003800B789A
:10548800A3F1FE03B3FA83F35B0983708A780D46B0
:1054980012F001011CBF43F080038370D5F820216E
:1054A80022F07F4222F0FF0285B0044612B143F099
:1054B80008038370AA68C2F31702FF2A1ED9B2F53F
:1054C800803F18D363F07F03A37041F002014FF0CF
:1054D800020E09234FF00A0C0822E1700B20CDF8C8
:1054E80004C01E4617464FF007094FF0060A4FF052
:1054F800050B042117E043F00203A370180600F11E
:10550800DF8008234FF0090C07220A204FF0000E15
:10551800CDF804C01E4617464FF006094FF0050A9D
:105528004FF0040B032195F8018004F8018004EB87
:105538000108297904F80B10697904F80A10A97987
:1055480004F80910A178090709D595F82111A15483
:1055580095F82211A1550346674662460646A96892
:10556800A154A278900707D5BA1C1F46AB68C3F3AD
:105578000F23A35596B23346BEF1000F05D05A1C2F
:105588001F46AB7AA35596B23346A278D10606D504
:105598005A1C1F4695F82331A35596B233464A4AFA
:1055A800127803F1010914FA89FA05F10C0B42B1DA
:1055B8006B785A460DF10E015046FFF77FFE002822
:1055C8005CD16A78504659461FFA82FA06F0BAFA50
:1055D80022783E4B6178D243D2B2072F9A5C82EA96
:1055E8000102995CA27882EA0102995CE27882EA77
:1055F8000102995C227982EA0102995C627982EA65
:105608000102995CA27982EA0102995CE27982EA54
:1056180001029A5C1BD0217A4A40082F9A5C16D066
:10562800617A4A40092F9A5C11D0A17A4A400A2F20
:105638009A5C0CD0E17A4A400B2F9A5C07D0217B08
:105648004A400C2F9A5C1EBF617B4A409A5CA25567
:105658001AFA89F39BB2B3F5947F0ED2B5F80C21F0
:10566800E254981CB5F80C115A1C92B280B2090A7F
:10567800B0F5947FA1540AD3FEE7FEE7A378BDF8FE
:105688000EA043F04003A37088F800A0A0E7AA7812
:10569800D20702D405B0BDE8F08FD5F81071D5F85F
:1056A8001811D5F81461275022180F3356609160ED
:1056B80098B295F81C111173B0F5947FEAD3FEE700
:1056C8004FF0000E05E700BF48030020C0C20008E5
:1056D8002DE9F84FB14C15460F4680460146B048B3
:1056E80006F030FA00228023B5F5817F3A802284C3
:1056F800626284F822304FD2A94E84F828204FF0F5
:10570800FF099246012A76D8B4F820C0654540F2D0
:10571800B180616A16F80C3002F108000CF1010C36
:10572800C0B243EA0123A4F820C0A0F1020C23FA76
:105738000CF1063201F003015FFA82FE022963626E
:1057480084F828E000F0BD80032944D0012924D141
:10575800BEF1060F0DD8228C954240F28B80B15CC9
:1057680000F1060E41EA032301325FFA8EFE22841D
:105778006362AEF1070E23FA0EF303F07F037D2B6D
:1057880084F828E076D83A88FF2A23D84133511C78
:10579800398008F8023019E0FEE7BEF1000F6BD13E
:1057A800228C954266D9B15C013241EA03232284F6
:1057B800072284F828201A06636200F1C8803B8813
:1057C800FF2B06D85A1C3A8008F803A094F8282022
:1057D80098E7FEE7FEE7AEF1060E5FFA8EF284F870
:1057E80028203A8823FA0EF3FF2A03F03F0301D852
:1057F800413BCCE7FEE7636AA2F1020C23FA0CF105
:1058080001F003015FFA8CFE022984F828E003D036
:1058180003291CD0104699E7BEF1050F51D8218CF9
:105828008D4227D9705C02F1060E40EA032301314C
:105838005FFA8EFE63622184AEF1060E23FA0EF340
:1058480084F8282003F03F033A8801339FE7BEF12C
:10585800050FC0D8218C8D420CD9705C02F1060E60
:1058680040EA032301315FFA8EFE21846362AEF1C0
:10587800060EB4E7BDE8F88F0CF1FF3123FA01F109
:105888000EF1FF32D2B2C90784F8282097D5F2B9B1
:10589800228C9542EED9B15C013241EA032322847D
:1058A8000722636284F8282013F0800F40F08C8070
:1058B8003B88FF2B00F287805A1C3A8008F8039037
:1058C80084E7AEF1060E636A5FFA8EF2B6E7013A34
:1058D80023FA02F1AEF10202D2B2C80784F82820F6
:1058E800E6D5002A5ED1228C9542C3D9B15C41EA43
:1058F80003230132072118062284636284F82810E2
:1059080058BF08222AD4B4F820C06545B2D9073256
:10591800D0B216F80C2042EA03220CF101032384CA
:1059280062621346083884F82810C34038885FFA42
:1059380083FB00EB0B03FF2B0FDC40445A4600218E
:1059480006F03AF93B880BEB03023A803EE7062261
:1059580084F8282013F0400FA8E7FEE7084608223D
:10596800218C8D4286D916F801C007324CEA0323F0
:105978000131D2B22184636284F82800083A23FAFC
:1059880002F238885FFA82FB00EB0B03FF2B03DC83
:1059980040445A46FF21D3E7FEE700BFA805002090
:1059A8007C040020511EAEF1030023FA01F1C0B2BD
:1059B800C90784F8280011D407280DD9AEF10B01C6
:1059C800636AC9B2AEE7FEE7511EC8B223FA01F115
:1059D800C90784F8280001D4014694E70728BFD9ED
:1059E800A0F108010246C8B2C6E700BF2DE9F04F92
:1059F8005788B7F58F7F8BB0144606460BD900221F
:105A0800227000226F2B628000F025810023337002
:105A18000BB0BDE8F08F12780E2A0D4624D80E2A56
:105A280000F2D58001A151F822F000BF0B5A0008FE
:105A3800E35B0008D75B0008D75B0008E35B00085E
:105A4800E35B0008E35B0008E35B0008E35B000836
:105A5800E35B00083B5C0008D75B0008D75B0008E5
:105A6800D75B0008175C0008692A40F2AE806A2AF2
:105A780040F0AD80A74FF98A4A1E92B2002900F083
:105A880021810332DFF890E207EB020CB91CFF22F8
:105A980011F8010B424061451EF80220F8D19342EB
:105AA80000F0FE804FF0000984F80090C4F80290DE
:105AB800A4F80690B7F81680B8F1020FA6D997F89F
:105AC80004A0BAF16F0F00F05C83B8F1030F9DD00A
