:020000040800F2
:1000000000500020399A0008219A0008239A00081D
:10001000259A0008279A0008299A00080000000085
:100020000000000000000000000000002B9A000803
:100030002D9A0008000000002F9A0008319A00084D
:10004000819A0008819A0008819A0008819A000824
:10005000819A0008819A0008819A0008819A000814
:10006000819A0008819A0008819A0008819A000804
:10007000819A0008819A0008819A0008819A0008F4
:10008000819A0008819A0008819A0008819A0008E4
:10009000819A0008819A0008819A0008819A0008D4
:1000A000819A0008819A0008819A0008819A0008C4
:1000B00095290008819A0008E1250008819A000826
:1000C000819A0008819A0008819A0008819A0008A4
:1000D000819A0008DD22000891450008819A0008F5
:1000E00019770008819A0008819A00080000000032
:1000F0000000000000000000000000000000000000
:0C01000000000000000000005FF808F1A3
:1001100010F8012B11F8013B012A28BF9A42F7D0B1
:10012000D01A7047034613F8012B002AFBD1181A86
:100130000138704780F0004002E000BF81F00041CC
:1001400042001FBF5FEA410392EA030F7FEA226C7D
:100150007FEA236C6AD04FEA1262D2EB1363C1BF0D
:10016000D218414048404140B8BF5B42192B88BF7C
:10017000704710F0004F40F4000020F07F4018BF9F
:10018000404211F0004F41F4000121F07F4118BFBF
:10019000494292EA030F3FD0A2F1010241FA03FC67
:1001A00010EB0C00C3F1200301FA03F100F000434F
:1001B00002D5494260EB4000B0F5000F13D3B0F117
:1001C000807F06D340084FEA310102F10102FE2A86
:1001D00051D2B1F1004F40EBC25008BF20F00100F6
:1001E00040EA03007047490040EB0000013A28BF95
:1001F000B0F5000FEDD2B0FA80FCACF1080CB2EB18
:100200000C0200FA0CF0AABF00EBC2505242184395
:10021000BCBFD0401843704792F0000F81F400013A
:1002200006BF80F400000132013BB5E74FEA41030D
:100230007FEA226C18BF7FEA236C21D092EA030F79
:1002400004D092F0000F08BF0846704790EA010FF3
:100250001CBF0020704712F07F4F04D1400028BF20
:1002600040F00040704712F100723CBF00F5000002
:10027000704700F0004343F0FE4040F40000704738
:100280007FEA226216BF08467FEA236301464202E4
:1002900006BF5FEA412390EA010F40F480007047F7
:1002A0004FF0000304E000BF10F0004348BF40429D
:1002B0005FEA000C08BF704743F0964301464FF0D9
:1002C00000001CE050EA010208BF70474FF0000335
:1002D0000AE000BF50EA010208BF704711F0004376
:1002E00002D5404261EB41015FEA010C02BF844646
:1002F0000146002043F0B64308BFA3F18053A3F5A5
:100300000003BCFA8CF2083AA3EBC25310DB01FAEB
:1003100002FC634400FA02FCC2F12002BCF1004F6F
:1003200020FA02F243EB020008BF20F00100704700
:1003300002F1200201FA02FCC2F1200250EA4C0054
:1003400021FA02F243EB020008BF20EADC7070479A
:100350004FF0FF0C1CEAD0521EBF1CEAD15392EAA8
:100360000C0F93EA0C0F6FD01A4480EA010C400284
:1003700018BF5FEA41211ED04FF0006343EA5010DE
:1003800043EA5111A0FB01310CF00040B1F5000F20
:100390003EBF490041EAD3715B0040EA010062F1CF
:1003A0007F02FD2A1DD8B3F1004F40EBC25008BFB9
:1003B00020F00100704790F0000F0CF0004C08BFD7
:1003C00049024CEA502040EA51207F3AC2BFD2F1A4
:1003D000FF0340EAC250704740F400004FF00003B2
:1003E000013A5DDC12F1190FDCBF00F000407047EC
:1003F000C2F10002410021FA02F1C2F1200200FA2A
:1004000002FC5FEA310040F1000053EA4C0308BFF0
:1004100020EADC70704792F0000F00F0004C02BF41
:10042000400010F4000F013AF9D040EA0C0093F0BC
:10043000000F01F0004C02BF490011F4000F013B16
:10044000F9D041EA0C018FE70CEAD15392EA0C0F84
:1004500018BF93EA0C0F0AD030F0004C18BF31F0EF
:10046000004CD8D180EA010000F00040704790F0C5
:10047000000F17BF90F0004F084691F0000F91F069
:10048000004F14D092EA0C0F01D142020FD193EA2F
:100490000C0F03D14B0218BF084608D180EA0100B7
:1004A00000F0004040F0FE4040F40000704740F093
:1004B000FE4040F4400070474FF0FF0C1CEAD05261
:1004C0001EBF1CEAD15392EA0C0F93EA0C0F69D0BD
:1004D000A2EB030280EA010C49024FEA402037D028
:1004E0004FF0805343EA111143EA10130CF000401F
:1004F0008B4238BF5B0042F17D024FF4000C8B420F
:1005000024BF5B1A40EA0C00B3EB510F24BFA3EBEE
:10051000510340EA5C00B3EB910F24BFA3EB9103BE
:1005200040EA9C00B3EBD10F24BFA3EBD10340EA18
:10053000DC001B0118BF5FEA1C1CE0D1FD2A3FF65E
:1005400050AF8B4240EBC25008BF20F00100704713
:100550000CF0004C4CEA50207F32C2BFD2F1FF03B6
:1005600040EAC250704740F400004FF00003013AE7
:1005700037E792F0000F00F0004C02BF400010F48B
:10058000000F013AF9D040EA0C0093F0000F01F09F
:10059000004C02BF490011F4000F013BF9D041EAC1
:1005A0000C0195E70CEAD15392EA0C0F08D14202F4
:1005B0007FF47DAF93EA0C0F7FF470AF084676E7C7
:1005C00093EA0C0F04D14B023FF44CAF08466EE7A0
:1005D00030F0004C18BF31F0004CCAD130F000426E
:1005E0007FF45CAF31F000437FF43CAF5FE700BFC6
:1005F0004FF0FF3C06E000BF4FF0010C02E000BFEF
:100600004FF0010C4DF804CD4FEA40024FEA410390
:100610007FEA226C18BF7FEA236C11D001B052EA46
:10062000530C18BF90EA010F58BFB2EB030088BF0C
:10063000C81738BF6FEAE17018BF40F0010070477B
:100640007FEA226C02D15FEA402C05D17FEA236C5D
:10065000E4D15FEA412CE1D05DF8040B704700BFA4
:10066000844608466146FFE70FB5FFF7C9FF00283B
:1006700048BF10F1000F0FBD4DF808EDFFF7F4FF74
:100680000CBF012000205DF808FB00BF4DF808ED0D
:10069000FFF7EAFF34BF012000205DF808FB00BF30
:1006A0004DF808EDFFF7E0FF94BF012000205DF852
:1006B00008FB00BF4DF808EDFFF7D2FF94BF012003
:1006C00000205DF808FB00BF4DF808EDFFF7C8FFFC
:1006D00034BF012000205DF808FB00BF4FEA400254
:1006E000B2F1FE4F0FD34FF09E03B3EB12620DD960
:1006F0004FEA002343F0004310F0004F23FA02F0CA
:1007000018BF404270474FF00000704712F1610F70
:1007100001D1420205D110F0004008BF6FF0004047
:1007200070474FF00000704742000ED2B2F1FE4F0A
:100730000BD34FF09E03B3EB126209D44FEA0023B0
:1007400043F0004323FA02F070474FF00000704777
:1007500012F1610F01D1420202D14FF0FF30704718
:100760004FF00000704700BF0348044B834202D0A3
:10077000034B03B118477047480000204800002091
:10078000000000000548064B1B1AD90F01EBA3011E
:10079000491002D0034B03B11847704748000020AE
:1007A000480000200000000010B5064C237843B933
:1007B000FFF7DAFF044B13B10448AFF300800123C5
:1007C000237010BD480000200000000004AA0008AB
:1007D00008B5054B1BB105490548AFF30080BDE8DE
:1007E0000840FFF7CFBF00BF000000004C00002012
:1007F00004AA00080022427082700122C270022204
:10080000B1FA81F102710322490901704271704706
:1008100043788B421FD0012941700AD0022910D0A1
:10082000C1B90123C3700223817003710323437193
:100830007047037843B1012383700223C370002300
:10084000F3E70378002BF6D0022383700023C370F4
:100850000123EAE7FEE770470B8882B0ADF800306D
:100860004B880239ADF80230CB88ADF804300B89E3
:10087000ADF80630431C053013F8012F0DF1080CBC
:100880000CEB420232F8082C834221F8022FF3D1FC
:1008900002B0704708448078704738B54FF07F3316
:1008A0007F22C0F8A03000254FF6FF730446A0F861
:1008B000A43080F8A62080F8A950A0F8AA30AC3067
:1008C00000F049FCA4F8B85038BD70B51546044690
:1008D0001E46114600F07FFC294604F1140000F08A
:1008E0007AFC294604F1280000F075FC294604F141
:1008F0003C0000F070FC294604F1500000F06BFC55
:10090000294604F1640000F066FC294604F17800F1
:1009100000F061FC294604F18C0000F05CFC04F15D
:10092000AC0032464FF4FA734FF4FA6100F0F9FB71
:100930002046BDE87040FFF7B0BF704700F052BCE2
:10094000143000F04FBC283000F04CBC90F8A430BC
:1009500013B990F9A000704790F9A100704790F882
:10096000A43013B990F9A200704790F9A300704722
:1009700010B5044607F02EF938B104F1140000F068
:1009800035FC012838BF0120C0B210BD10B50446A7
:1009900007F020F938B104F1500000F027FC0128DD
:1009A00038BF0120C0B210BD4FF47A71AC3000F0F6
:1009B000D9BB0021AC3000F0D5BB08B5AC3000F09D
:1009C000E2FBB0F57A7FA8BF4FF47A7020EAE070BE
:1009D00008BD10B5044600F0DFFB04F1140000F080
:1009E000DBFB04F1280000F0D7FB04F13C0000F031
:1009F000D3FB04F1500000F0CFFB04F1640000F0E1
:100A0000D7FB04F1780000F0D3FB94F8B93013B1B0
:100A1000013B84F8B93010BD7F2807D0002807DAE1
:100A200010F1800F06D04042C0B2704700207047DE
:100A3000012070477F20704710B1404240B270479C
:100A40007F2070477F280FD010F1310F0EDA10F1A0
:100A5000780F0DDBFE23783040B258434623233015
:100A6000B0FBF3F0C0B27047FF207047FE20704724
:100A7000002070477F2805D031B1002806DA4042B7
:100A8000C0B27047FF207047FE20704700207047BB
:100A90007F2811D010F1310F10DA10F1780F10DB30
:100AA00040F2A963783040B2584346232330B0FB6C
:100AB000F3F0AC3080B270470020704740F25570C0
:100AC0007047AC20704763289FBF40F2A96358432A
:100AD000642332309DBFB0FBF3F0AC3080B240F203
:100AE000557070474FF4F063A0F58060584340F2B2
:100AF000FF7390FBF3F000F5787080B27047FFF75A
:100B0000F1BF4FF49663A0F58060584340F2FF7345
:100B100090FBF3F000F2DC5080B27047A0F58060EB
:100B2000D0EB001048BF033040F38F00704703281C
:100B300012DD0C2812DD0F2812DD122812DD162816
:100B400012DD192812DD1C2812DD1F2812DD2128D4
:100B5000CCBFFF200620704700207047012070475F
:100B60000220704708207047032070470720704715
:100B7000042070470520704705289ABF014B185C78
:100B8000FF207047A0AA00087F281ABF4042C0B2C9
:100B9000002070477F2811D010F1320F10DA884200
:100BA00010DD6423401A5843C1F1FF2101F57F0194
:100BB000CE31313090FBF1F0C0B27047FF2070476A
:100BC0006420704700207047014B4840185C704714
:100BD000A8AA000852B110B4054C0A4411F8013B10
:100BE00058408A42205CF9D110BC7047704700BF62
:100BF000A8AA0008002805DB212805DC044B33F8EF
:100C000010007047002070474FF4FA60704700BF33
:100C1000D2AB0008392808D822280ED9094B23382E
:100C2000C0B2C34003F0010070475F2807D06138AD
:100C300019288CBF00200120704700207047012038
:100C4000704700BF01EC7F00F8B5024600245F2723
:100C5000451E461D15F8010FFF2804BF0134E4B2FC
:100C6000FFF7D8FF00B92F70AE42F3D1062C04D1A4
:100C700019B10B6813608B88938000239371F8BDC2
:100C80002DE9F843012500264FF02808DFF82C90C5
:100C9000471E441D17F8011F084809F064FE03466B
:100CA00010B1A0EB0903DBB2A3FB05329E19A742EA
:100CB000A5FB0853EED13046BDE8F883A8AB000889
:100CC00010B54179A1F13000C3B2092B07D8052333
:100CD000B0FBF3F303EB8303C01AC0B210BD044CA6
:100CE000204609F040FE0028F1D0001BC0B2EEE71C
:100CF000A8AB000870B50446FFF714FA02B2002052
:100D0000551E03B2AB4204EB030103DAE65C01308B
:100D1000302EF6D0D21A2046BDE87040013209F0DC
:100D20004FBE0000432B28BF43232DE9F0470C465C
:100D300096B0154600211A469846074609F05AFE15
:100D40000021412205A8049109F054FEDFF87C90AF
:100D5000DFF87CA004EB4505AC4210D104A8FFF7F6
:100D6000E1F928B1002200F158036B4403F8492C43
:100D7000384604A909F0E0FD16B0BDE8F08747F653
:100D8000FF7334F9020B9842E8D0002812DC514678
:100D9000684609F0D1FD04A8FFF7C4F90646684685
:100DA000FFF7C0F90644B045D6D3694604A809F058
:100DB000CBFDD1E7694680B208F033FB6846FFF708
:100DC00099FF4946684609F0BFFDE4E757AA0008C5
:100DD00052AA0008F0B589B06D4600242F468E1C3B
:100DE000E1B28A4204D83946FFF79CFF09B0F0BD52
:100DF00036F82410013425F8021BF1E742F2107393
:100E0000B0FBF3F2642103FB1200B0FBF1F301FB32
:100E1000130000EB023000EB831080B2704770B516
:100E20000E4600210546144609F0E4FD00239AB25F
:100E3000944200D870BDF25C002AFBD0EA54013322
:100E4000F5E70000072914D8DFE801F00407090BD3
:100E50000D0F11110849FFF7E2BF0849FBE70849E8
:100E6000F9E70849F7E70849F5E70849F3E70849CA
:100E7000F1E70849EFE700BF5CAA000861AA000893
:100E800066AA00086BAA000870AA000875AA0008E4
:100E90007AAA00087FAA0008052911D8DFE801F026
:100EA0000306080A0C0E0749FFF7B9BF0649FBE71E
:100EB0000649F9E70649F7E70649F5E70649F3E782
:100EC0000649F1E781AA000886AA00088BAA000853
:100ED00090AA000895AA000899AA00087FAA00080D
:100EE00070B50E46144600210132054609F082FD18
:100EF00000239AB2944200D870BDF25C002AFBD065
:100F0000EA540133F5E77D23438043F23903C3609C
:100F1000002309B201808180C38003727047000002
:100F200002680449044B01FB023323F000430360D1
:100F3000180C7047FD430300C39E2600F0B5002542
:100F400097B001608580044656222946684609F01C
:100F500051FD0126627CAA4209D80023802104F1B8
:100F6000B400237417B0BDE8F04009F043BD20463B
:100F7000FFF7D6FFE77900217B1B90FBF3F2EC46ED
:100F800002FB13000A46C0B2CBB29F421CD800231A
:100F9000227B9A42DED0A2796119033A012A05D94F
:100FA00025B191F91120D2B9012BD3D98B74A26844
:100FB00052F82310583304EB85026B44013551631A
:100FC00003F8586CEDB2C5E71CF801EBBEF1000F59
:100FD00003D18242DCD00132D2B20131D4E7501EBB
:100FE0008342E3DB01329342E0DCB3E72DE9F047D3
:100FF000154696B0013D0160027104464371EDB2A1
:1010000056220021684609F0F5FC022D98BF4FF0EA
:1010100003094FF0000794F807808ABF4FF00109D9
:10102000B8FBF9F800253E464FF0010A627CB24257
:1010300009D80023802104F1B400237416B0BDE860
:10104000F04709F0D7BC2046FFF76AFFA8EB06037C
:1010500090FBF3F2002102FB1300EC460A46C0B2FB
:10106000CBB2984506D91CF801EBBEF1000F21D197
:1010700082421DD1434528BF434609FB0351227BD1
:10108000C9B28A42D2D016B1B7B9012BCED9A219B2
:101090009174A2681F4652F8211004EB8602516336
:1010A00003F158026A44013602F858ACF6B2BDE7C3
:1010B0000132D2B20131D3E77A1E9342E7DB7A1CC8
:1010C0009342E4DCB2E70023C0E90133C360037458
:1010D0007047F0B5047C0360012C11D94FF47A7786
:1010E00044688568141B7C43C6684D1B05FB164489
:1010F0002B4494FBF3F33344C360C0E90121F0BDFA
:101100001CB90123C4600374F7E74FF47A74436891
:10111000D31A634384680C1B93FBF4F3C36002236C
:10112000F1E72DE9F041044610461D461646884673
:10113000FFF7B6F8074606EB0800FFF7B1F80146DF
:101140003846FFF7B9F9656020602846FFF7ACF82C
:10115000A060BDE8F08110B504464068FFF7A4F830
:10116000A06010BD38B5044685680846FFF79CF8B6
:101170002946FEF7E3FF2168FFF7EAF82946FEF764
:10118000DFFFA06038BD08B54FF07C518068FEF7E6
:10119000D7FFFFF7A3FA08BD6421D0E90123D31AD2
:1011A000C3604B43418A8260B3FBF1F30374704721
:1011B000D0E90123D31AC0E90223704743682BB159
:1011C0006421C2684A43B2FBF3F2D3B20374002332
:1011D000C3604360704700234182C0E9023343602B
:1011E000037470474368013343607047007C704765
:1011F00043680B4443607047072800D9FEE7014B62
:10120000185C70474CAC0008052800D9FEE7014B7C
:10121000185C704754AC0008704770470020704756
:101220000020704700207047704700207047002062
:1012300070470000054B82B0DA690243DA61DB696E
:1012400003400193019B02B0704700BF00100240B1
:10125000054B82B09A6902439A619B6903400193EE
:10126000019B02B0704700BF0010024000F10C0368
:1012700053E8003F23F0800300F10C0141E8003205
:10128000002AF3D1704700000B4B0C4A1B6830B4A6
:10129000A2FB03239B0C00FB03F2094D02F5FA723B
:1012A000A5FB0252074992094C684B681B1B9342ED
:1012B000FBD330BC704700BF3C00002083DE1B43E3
:1012C000D34D6210001000E0044B1888044B80B22C
:1012D0001B889BB2C01A18BF01207047BC2A00208F
:1012E000BA2A00200288044B5140C9B233F81130A9
:1012F00083EA122303807047F4C400089AB110B443
:10130000B0F800C0084C0A4411F8013B83EA0C0312
:10131000DBB234F81330914283EA1C2CA0F800C0F1
:10132000F2D110BC70477047F4C400084FF6FF7349
:1013300037B50446ADF806304518AC4203D1BDF8C8
:10134000060003B030BD14F8011B0DF10600FFF7D5
:10135000C9FFF2E708B51E20FFF796FF4FF4805251
:10136000034B28205A61BDE80840FFF78DBF00BF3E
:10137000000C014008B56420FFF786FF4FF480524F
:10138000024B1A61BDE80840FFF77EBF000C014028
:1013900008B5FFF799FF003818BF012008BD0120EC
:1013A0007047002070470020704700207047000001
:1013B0000278024B51405B5C03707047D8B0000864
:1013C000FF230370704700BF704770B50B78054668
:1013D00003704B780C4643700B78FD2B38D10A26EE
:1013E0008B788370CB78C3700B7903714B79437121
:1013F0008B7983718B68C3718B68C3F30F2303727E
:101400008B7A4372627804F10C01A81909F0B8FADA
:101410006378B4F80C213344EA54B4F80C115A1C24
:1014200092B2090AA954A278981CD20780B20ED5AC
:1014300004F58872054404F58E7452F8041BA24228
:1014400045F8041BF9D112780F332A7098B270BD99
:1014500000238B700B79062683704B79C3708B79D0
:1014600003718B684371CDE72C2208B50021034836
:1014700009F0C0FA0022024B1A7008BDA80500202E
:10148000480300202DE9F04113780446037092F8D8
:101490000180FD2B0F46154680F8018054D10A26A5
:1014A00093788370D378C370137903715379437140
:1014B000937983716B7A127A1B0403EB0223EA7926
:1014C000134423F07F43A268A91963F31702A260B3
:1014D00004F10C00424609F053FA7A7B904507D29A
:1014E00008F10C000021A2EB0802204409F082FA66
:1014F00063781E44AB195A78AB5D03EB0223A4F862
:101500000C31A378DB070ED50236B6B2354404F5AC
:10151000887305F10C0255F8041B954243F8041B2F
:10152000F9D12A781A70BB7A84F82131FB7A84F8D1
:1015300022313B7B84F823317B7B84F824313B7858
:1015400084F82031BDE8F08100234380937806269B
:101550000371D3784371137983715379B3E7000032
:1015600070B50F4C0F4D0646062204F10A0105F531
:101570008970FFF7B5FC237CC3F30302C3F30313A5
:1015800085F81A31637C85F81921C3F3030385F8C4
:101590001B31637ADB0744BF0223337370BD00BF86
:1015A000A5200020C400002070B504462420E2706D
:1015B000207022465820BDF8145023711B0A637115
:1015C0002B0AA1706070A57102F8073F049B59199E
:1015D0008B420CD16A1D92B2E11C0020FFF7FAFA8F
:1015E00005F10806A05505F1090080B270BD13F899
:1015F000010B02F8010FEBE710B502780A4BD2435A
:10160000D2B244789A5C90F802E062409A5C90F81A
:1016100003C082EA0E029A5C017982EA0C029A5CAB
:101620004A40985C10BD00BFD8B00008F8B53C290E
:101630000446BDF81C5036D0A1F12106714271411B
:101640004900D00748BF41F0080192074FF024023B
:1016500022704FF06F02E3704FEA132348BF41F04E
:1016600010012371A61C2B0A6270A170A371304671
:101670006571FFF7C1FF2246069B02F8070F591953
:101680008B4212D1A91D304689B2FFF74FFE05F1FA
:10169000080705F10903E0559BB2000AE05405F183
:1016A0000A0080B2F8BD0121CBE713F8010B02F864
:1016B000010FE5E76FF02002084B1A605B68084AEB
:1016C00002F60C0353E8003F43F0200302F60C003F
:1016D00040E800310029F3D1704700BF00380140D5
:1016E0000030014050294FEA10122CD018D8302970
:1016F0002CD00DD810292CD041F6786343F6F04059
:10170000202908BF034617489040B0FBF3F070470C
:1017100041F6786347F61220402908BF0346F2E7F6
:10172000802919D008D8602918D041F678630E486E
:10173000702908BF0346E6E741F678630B48902915
:1017400008BF0346DFE74AF2E423DCE745F2401333
:10175000D9E742F6A003D6E7054BD4E74FF224437E
:10176000D1E700BF40420F0048E8010020A1070078
:1017700090D003002DE9F04F0C4651880546B1F595
:101780008C7F85B011D300211170D91CC9B20129F9
:1017900095BF01210023518053809CBF237011709D
:1017A00000232B7005B0BDE8F08F10780E2800F2F2
:1017B0008B8001A656F820F08B170008F51700085B
:1017C0001D18000837180008C9180008C9180008B3
:1017D000C9180008C9180008C9180008C918000865
:1017E000C9180008C9180008C9180008C918000855
:1017F00049180008481C5080635421789BB2FD2989
:1018000006D10C330A21D380022391801370C7E7DD
:1018100006210833D38091800E23F7E7481C5080BF
:10182000D807635442BFD1880D31D180012B8CBFC2
:1018300000230323EAE7002B01F1010050806354E9
:1018400014BF00230E23E1E7481C508063545388E3
:10185000D1888B4232D300235380137002236980D6
:101860002B702378FD2B35D163792B72A3796B72A2
:10187000637A227A1B0403EB0223E27913446B6040
:10188000637803F10C026A80A278D10701D519337D
:101890006B80002640F285120C206968DFF8E88032
:1018A0006E81B31801335B0800FB03F758F807702B
:1018B000B94218D25A1EB242F3D816E092889A4220
:1018C0003FF66EAF01236CE70023137053809380C3
:1018D000D38066E7E3782B7223796B7263796B6050
:1018E00063780833D4E71E46E5D80C27774358F8C9
:1018F0000730994227D123782046FD2B0CBF4FF0AB
:101900000A094FF0060910F801BF474409EB0B0321
:10191000591E89B20193FFF709FD97F804A0ADF8AD
:101920000E0051460DF10E00FFF7DCFC019BE218A2
:101930005278E35C03EB0223BDF80E209BB29A427F
:1019400003D005232DE703232BE7BB79DA0706D560
:10195000FA79934582BF04EB09018A5CAA729B075E
:1019600009D50C2303FB068362781B7A9A4282BF57
:101970004C44E35CEB720C2303FB06835B7985F834
:101980000CA06B730EE700BFD8B10008F0B5FD23C3
:101990000546044685B005F80C3B8DF8043090F8F8
:1019A000243103F10C020244012B42D8002663705B
:1019B00066808DF805308B7A0DF1050023718DF866
:1019C00008308B7AADF8066001338B726379092198
:1019D0008DF80930A3798DF80A30A368C3F3170393
:1019E0001A128DF80B301B148DF80D308DF80C2069
:1019F000FFF79CFC677829463A46ADF802000DF1E6
:101A00000200FFF77BFC94F82311FFF76BFC94F8BE
:101A10002421BDF802309742A4F80C3110D231468F
:101A200007F10C00D21B204405B0BDE8F04008F0DF
:101A3000E1BF12F8010D0028B8D1013BDBB2B3E7DA
:101A400005B0F0BD0023044A1380044A1380044A01
:101A50001380044A13807047BA2A0020BC2A002051
:101A6000BE2E0020C02E002007B503688DF8071099
:101A700001221B690DF10701984703B05DF804FBD3
:101A800070B5044608460D46FEF74CFB2368294610
:101A900082B21B692046BDE8704018470120FFF75D
:101AA000D7BB00000D4B984202D10420FFF7D0BBFA
:101AB0000B4B984205D003F58063984203D1102068
:101AC000F4E70820F2E7074B984201D12020EDE728
:101AD000054B984200D070474020E7E700080140DE
:101AE000000C014000140140001801400B4B9842CB
:101AF00003D14FF40060FFF7ABBBB0F1804F04D0CF
:101B0000074B984204D1022000E00120FFF792BB6E
:101B1000044B984201D10420F8E77047002C0140A3
:101B200000040040000800402DE9F0410C46154635
:101B300086B007461022002102A81E469DF8348078
:101B400008F058FF01940B2D07D8DFE805F00E0EC2
:101B5000070A1414141616161B1DFEE70823029319
:101B600003E00823029301230593032E0ED8DFE838
:101B700006F01E200E1E0123F1E701230293042329
:101B80000493F2E70923EAE70923F7E7FEE70123D5
:101B90000393B8F1000F02D03846FFF783FF053DED
:101BA000042D0BD8DFE805F007110A071100032305
:101BB000EEE70223ECE7C4F30F247C61384601A969
:101BC00008F08AFB06B0BDE8F081C4F30F243C6145
:101BD000F4E713B54FF0010C0024CDE9004CFFF7FA
:101BE000A3FF02B010BD000030B50023154687B03A
:101BF0000446ADF80630FFF779FF042D04D8DFE87E
:101C000005F02A2E04323B00FEE71C4B1C4A1B68E1
:101C1000B3FBF2F39BB20022013BCDE90221204647
:101C200001A9ADF804300492059208F0B9FC2368CC
:101C300023F080032360A36823F4804323F0070389
:101C4000A360636823F070036360A36823F08003DC
:101C5000A36007B030BD094B0A4A1B68D8E7074BA1
:101C6000094A1B68D4E7054B064A1B68B3FBF2F32D
:101C700003EB83035B00CDE70123CCE73C000020AE
:101C800080A8120140420F0000127A0010B50446ED
:101C9000FFF7AAFF236843F00103236010BD002271
:101CA0004FF0FF31FFF7F2BF1F4B10B55B681F4CC1
:101CB000236007F0E7FE1E4808F0BEFA1D4808F052
:101CC000BBFA1D4808F0B8FA1C4808F069FD1C482A
:101CD00008F066FD1B4808F063FD1B4808F010FC87
:101CE00008F07EFB4FF0E022002318491361536196
:101CF00093614A6822F003024A6072B64FF0FF31E6
:101D00009A0002F16042013302F56142082BC2F8E9
:101D10008010C2F88011F3D162B6034B1B6883F3C5
:101D2000088823689847FEE700F0FF1F440300205F
:101D300000080140000C0140001001400038014043
:101D400000440040004800400030014000100240C4
:101D50000749084A881AEFF30883521A1A44013ACD
:101D6000013B984288BF0022AA2108F043BE00BF71
:101D7000005000200004000010B50323062206498D
:101D80000648FFF726FFBDE810400323022204495E
:101D90000448FFF71EBF00BF400040040010014090
:101DA0008000800400080140104A4FF470415369DC
:101DB00023F4704391FAA1F153610D4B5A6822F458
:101DC00000425A601A6822F400421A60DA6822F46B
:101DD0000042DA609A6842F400429A60D022054BD1
:101DE00083F828234FF480725A6070470000014046
:101DF0000004014000E100E04FF40042034B5A614F
:101E00001A6842F400421A60704700BF00040140A3
:101E10000023032201490248FFF7DBBE2000200413
:101E200000100140024B9868C043C0F34030704737
:101E30000010014038B50A4D0A4C0023052240F637
:101E400008012846FFF7C5FE0023052240F20221C3
:101E50002046FFF7BEFE08236B610223636138BD95
:101E6000000C0140001001400549CB681A04DB4317
:101E700002F4002203F0080313430B61704700BF14
:101E8000000C01400549CB681A04DB4302F4003220
:101E900003F0020313430B61704700BF00100140C1
:101EA000032208B50A4900230A48FFF792FE1022D0
:101EB000002308498868013A80045CBF0133DBB223
:101EC00012F0FF02F6D10C2B01D9FFF7EDFE08BD91
:101ED00020002004001001400C4BD3F8FC2022F01D
:101EE0008072C3F8FC20D3F8FC2042F08072C3F863
:101EF000FC20A3F55D431A6822F001021A601A68FB
:101F000042F001021A6000225A60704700ED00E0C2
:101F1000064B074A1B680749B3FBF2F3434310B56E
:101F20004C684A68121B9A42FBD310BD3C0000204B
:101F300040420F00001000E02DE9F84381464CF2CA
:101F400050300E4617461D4607F082FE88BBB9F199
:101F5000010F06D0B9F1020F0CBF4FF002094FF08C
:101F600004094FF00008144A136943F00103136198
:101F70004FEA0814C4F12002A4F1200305FA02F28A
:101F800027FA04F4144325FA03F31C43A4B24CF2D9
:101F9000503026F8184007F05BFE28B908F1010818
:101FA0005FFA88F39945E3D8034A136923F00103E4
:101FB0001361BDE8F88300BF002002407FB5012314
:101FC0000022CDE9040301A902A8CDE9022307F00C
:101FD0007BFE00280CBF0420052007B05DF804FB41
:101FE0000A4608B5014600230220FFF7A5FF002896
:101FF0000CBF0420052008BD08B5FFF7DFFF031F55
:102000005842584108BD08B5FFF7EAFF031F584280
:10201000584108BD2DE9F047264B274D01280FBF39
:102020007D267C26AA461D460F4614462349244A8F
:1020300006BF89469A46914607F0EEFD314628468E
:10204000FFF7DAFF28B9002407F0F8FD2046BDE8C5
:10205000F087002F08BF4FF478744FF00008033466
:10206000C4F38F0405F11006AAEB050A1FFA88F3E2
:102070009C4209D84FF011312846FFF7C4FF041ED7
:1020800018BF0124A400DFE73FB95AF806104B1C23
:1020900006D108F101080436E8E757F82810F6E7FA
:1020A0004E4505D23046FFF7AEFF0028F1D1CAE712
:1020B0000324C9E700F0010800F40108FFF7010854
:1020C000FFF3010810B507F0A7FD7C210848FFF7D2
:1020D00093FF044638B17D210648FFF78DFF041EAB
:1020E00018BF0124A40007F0A9FD204610BD00BFC1
:1020F00000F0010800F4010830B5002340F2EF348D
:10210000064D9AB2914201D8042030BDA34203D0BB
:102110005A5DC2540133F4E70320F6E710F00108DA
:1021200038B504460D4672B60A4601460020FFF750
:1021300071FF62B6042806D172B601202A462146F4
:10214000FFF768FF62B638BD38B5124B1C68D3F88C
:102150000054B4F1113F09D1B5F1113F17D000225D
:1021600001201146BDE83840FFF754BFB5F1113FDB
:1021700003D1002211461046F4E7FFF7A3FF04281D
:1021800004D12C4001340CBF0220012038BD0420B2
:10219000FCE700BF00F00108034B18739A68D207F0
:1021A000FCD5187B704700BF0038004038B5441E8E
:1021B0008D18A94200D138BD14F8010FFFF7ECFFCC
:1021C00001F8010BF5E7084611461A46FFF7EEBF86
:1021D00038B50446054D0144A14200D138BD2878E8
:1021E000FFF7DAFF04F8010BF6E700BF3400002028
:1021F00008461146FFF7ECBF10B5044601448C4277
:1022000000D110BD14F8010BFFF7C6FFF7E7084631
:102210001146FFF7F1BF000070B58CB0294C2822A1
:10222000002102A808F0E6FBFFF738FC4FF48040DD
:10223000FFF700F82449204603230622FFF7C9FCD4
:10224000062501264FF48053204623610A220323EA
:102250001E49CDE90056FFF767FC204603230A22FA
:102260001B49CDE90056FFF75FFC032320461A46C1
:102270001849CDE90056FFF757FC082200230892C1
:102280004FF48272CDE90533CDE90933029303920D
:1022900004934FF400720723A4F55444204602A986
:1022A0000B93079208F050F9236843F04003236032
:1022B000A3689B07FCD5FF22237B074B1A700CB049
:1022C00070BD00BF000C014010001004200020046D
:1022D0008000800440004004340000201C4B10B4F7
:1022E0001A68940611D5D96888060ED5194C1A4873
:1022F0005968238800880133C3F30A0380B29842E7
:102300001FBF1648C9B2C1542380110744BF104BE8
:102310005B68120616D50E48C3681B0612D5104B13
:10232000104A1988138889B29BB299420CD013883D
:102330000133C3F30903138013880B4A9BB2D35CA8
:10234000DBB2436010BC704710BCFEF78FBF00BF0C
:1023500000380140BC2A0020BA2A0020BA220020FE
:10236000C02E0020BE2E0020BE2A00200E490F4A9B
:102370000B8812880133C3F3090392B29A4211D039
:102380000B4AD0540B4A0B8002F60C0353E8003F73
:1023900043F0800302F60C0040E800310029F3D13D
:1023A0000120704700207047C02E0020BE2E002064
:1023B000BE2A00200030014038B504464518AC4222
:1023C00000D138BD14F8010BFFF7D0FFF7E708463E
:1023D0001146FFF7F1BF0000054B064A1B88128823
:1023E0009B1A98B21B0444BF00F5006080B270478E
:1023F000BC2A0020BA2A0020FFF7EEBF0848094A8D
:102400000188138889B29BB29942F9D013880133AD
:10241000C3F30A0313801388034A9BB2D05C70474E
:10242000BC2A0020BA2A0020BA220020FFF7E6BF0B
:10243000002300B589B0CDE90633CB1A18BF0123BC
:102440001B03CDE902320C2301900491034801A93A
:10245000059308F0D7F909B05DF804FB0038014096
:1024600010B5064CE36823F40053E360FFF7E0FF88
:10247000E36843F40053E36010BD00BF003801403F
:10248000002208461146FFF7EBBF000073B53A4C37
:102490000825E368012623F40053E360FFF7FEFA02
:1024A0004FF48040FEF7D4FE00F1804003230A225F
:1024B000CDE90056314900F54840FFF735FB0323CD
:1024C000CDE900561A462E492E48FFF72DFB002273
:1024D0004FF461401146FFF7ABFFB022236923F4AC
:1024E00090432361636923F02A036361264B83F8D9
:1024F000252320225A602046FEF7B8FE234A02F622
:102500000C0353E8003F23F0400302F60C0040E8C0
:1025100000310029F3D16FF0400323601C4B198078
:102520001C4B198002F60C0353E8003F23F02003F4
:1025300002F60C0040E800310029F3D16FF02002D0
:102540000D4B1A60144A1180144A11801A6922F442
:1025500000621A615A6922F008025A611A6922F46B
:1025600080421A615A6922F022025A61DA6842F402
:102570000052DA6002B070BD00380140020002046F
:10258000040004040008014000E100E000300140C4
:10259000BE2E0020C02E0020BA2A0020BC2A002017
:1025A00008B5FFF773FFBDE80840FFF783B8FFF7F2
:1025B000F7BF0000084BDA6892070CD40121074AE4
:1025C00011805A6A10325A636FF002021A61DA6897
:1025D00042F00202DA60704700080040641E0020EA
:1025E0002E4A10B513699B0725D56FF002031361BE
:1025F0002B4B1B88516B9BB20B445363294B2A49CD
:10260000188880B2002840D01888013080B2188025
:10261000188880B202280FD84FF40063234A4B6118
:1026200013880133C3F3080313801388204A9BB235
:10263000D35C204A138010BD188880B20A280DD8B8
:102640001C4B1A8812F0010F4FF4006214BF0A618C
:102650004A611A88C2F34E021A80ECE7188880B2E9
:102660000B284FF40060086109D1134A11880F4A02
:1026700089B2128892B29142DDD00122ECE7D16892
:1026800021F00201D1600022E6E74FF400640C6102
:10269000D16821F00201D1601880CCE70008004029
:1026A000601E0020641E00200008014068200020F9
:1026B000661E0020662000206A20002009490A4A80
:1026C00008B50B8812880133C3F3080392B29A420B
:1026D00006D0064AD0540B800120FFF76BFF08BDDF
:1026E0000020FCE76A20002068200020661E0020F1
:1026F00038B504464518AC4200D138BD14F8010B7A
:10270000FFF7DCFFF7E708461146FFF7F1BF0000CF
:10271000B0F5614F0D4A0E4B0CD0B0F5E13F10D033
:10272000B0F5165F0DD172B640F24131118040F222
:10273000E24203E072B68B211180D0221A8062B689
:10274000704772B6452111805422F7E7601E0020C1
:10275000621E002010B51D4C88B0204603230522C0
:102760001B49FFF736FA4FF400632361A4F5803468
:10277000204601224FF0FF31FFF788FA2022002186
:10278000684608F037F96A460121204607F040FF05
:102790004FF08043D3F81828902122F00402C3F8A8
:1027A00018286FF0020222610A4A82F81E13136091
:1027B0004FF4E130FFF7ACFF0023074A1380074ACC
:1027C0001380074A138008B010BD00BF0008014005
:1027D0000800080400E100E0682000206A200020D2
:1027E000641E0020FFF7B6BF024B1A68024B1A6046
:1027F000704700BFE42E002094030020054A064BDA
:102800001968136899421DBF01330120136000202D
:10281000704700BF94030020E42E0020034A044BBD
:1028200011681B780B441360704700BFE42E002032
:10283000400000200148FFF732BA00BF000400400A
:10284000014B586A80B270470004004008B5FFF79A
:10285000F1FFBDE80840FFF7C7BF2DE9F04116467C
:1028600005468846002707F0D7F9B6B2BBB29E42AC
:1028700001D804240DE058F827102B688B4202D1B0
:1028800004350137F2E72846FFF7BDFB0446002870
:10289000F6D107F0D3F92046BDE8F081037807B5FB
:1028A0006BB1084B1B68B3F5FA6F08D30023022203
:1028B000037069464068CDE90033FFF7CEFF03B0EF
:1028C0005DF804FBE42E0020012337B52C4A038079
:1028D00004462C4B2C48D3E90051914208BF854255
:1028E0004FF0000202D1227003B030BD22A1D1E925
:1028F0000001C3E90001254825496260D0E90032A2
:102900005D1C03D0B3F1AA3F00D023B9551C0CD0F5
:10291000B2F1AA3F09D008308842EFD172B67E21C9
:102920001A48FFF769FB62B618486060036842689E
:10293000591C009304D1551C1BD14FF0AA3311E050
:10294000B3F1AA3F06D1511C0BD0B2F1AA3F10D16E
:10295000002307E06BB9B2F1AA3F0AD14FF48072AD
:1029600022801A46CDE9003269460222FFF775FF40
:10297000BAE700232370F4E712345678FEDCBA90ED
:10298000FEDCBA90200000201234567800F80108CE
:1029900000FC01084FF080431A6991070AD56FF0D7
:1029A00002021A615A6B6432DA63084A596B128860
:1029B0000A445A634FF080431A69120705D56FF035
:1029C00008021A610122024B1A707047640000204D
:1029D000910300200A490B8803B9FEE772B64FF055
:1029E000804309885A6A114464325963DA636FF08C
:1029F00002021A616FF008021A6162B6704700BFE6
:102A00006400002000B5032289B04FF0FF314FF081
:102A10008040FFF73BF920220021684607F0EAFFDB
:102A200064236A4601214FF08040039307F0F0FDD4
:102A3000C8236A464FF480714FF08040039307F03B
:102A4000E7FDA022044B83F81C234FF080521A604C
:102A500009B05DF804FB00BF00E100E04FF08043E7
:102A6000DA6842F00202DA60DA6842F00802DA60FC
:102A70007047000010B50022044601EB8101074BAE
:102A800001EB810189001980054B1A70FFF7BAFF2D
:102A90002046BDE81040FFF7E1BF00BF6400002002
:102AA0009103002070B51D4CC0220021201D07F0AD
:102AB000A1FF06232380202363800F23184E0422C6
:102AC0003146A380A01D4323FEF784F90123C4E906
:102AD00013333F23022504223146A4F8543004F175
:102AE00056004323A4F84A50FEF774F94FF001133F
:102AF000C4F89C3000230B4904F1AC00C4E929332D
:102B000084F8A030A4F89A5007F016FF7F2384F8C9
:102B1000C130052384F8C23070BD00BF80020020A0
:102B20009CB00008A5AC000870B5094E05460C46DF
:102B3000415C304607F017FF034628B1831B013381
:102B4000DBB2282B28BF0023F35C2B5570BD00BFE0
:102B5000ACB0000870B50C461146064607F0ECFE16
:102B600044B10025052130460135FFF7DDFFEBB20A
:102B70009C42F7D870BD0000F7B5054605F1110677
:102B8000214C0146214A68463601FFF7E3FFB01C9D
:102B90006946204407F0D0FE0227002304EB05120B
:102BA00026447772A2F81A311422042102FB054050
:102BB00001224FF4807580F8501040F20111A0F806
:102BC0004A20C264A0F8522080F85520A0F8565040
:102BD000A0F8581040F2032084F83430E284A56253
:102BE000A08584F82E2084F8307084F83330C4F83F
:102BF0003A30C4F83E30C4F84230A4F84610A4F885
:102C0000481003B0F0BD00BFC40000205AAC00085B
:102C1000F7B5054605F111060146B04AB04C6846C5
:102C20003701FFF797FFB81C694627442044FEF799
:102C30000BF87B7AAB4A072B88BF022304EB061004
:102C400088BF7B721188437A41FA03F3DF070FD400
:102C50000223437261B14807C1F3800308D441FAEB
:102C600003F7FF07D8B240F1D78104EB061358727F
:102C700004EB051191F81A012B01052802D9002057
:102C800081F81A01E718508897F81A1140FA01F1F3
:102C9000C90711D4052187F81A1168B18706C0F356
:102CA000401109D440FA01FC1CF0010FCFB200F032
:102CB000B881E11881F81A71E11891F81B01032815
:102CC00002D9002081F81B0104EB0616717A012954
:102CD00003D9042901D000219180E618908896F844
:102CE0001B1140FA01F111F001010ED186F81B1100
:102CF00058B110F0010108D140FA01F7FF07CEB238
:102D000040F19481234483F81B61142303FB0541A4
:102D100091F84A00032802D9012081F84A0003FBF8
:102D2000054393F84B10042902D9002183F84B1076
:102D3000142303FB0543B2F84A1093F84B0041FA01
:102D400000F0C00712D4012083F84B0071B188074E
:102D5000C1F340030AD441FA03F6F707D8B240F1B1
:102D60006A81142303FB054383F84B00142303FB00
:102D7000054393F84C10032902D9012183F84C1024
:102D8000142000FB0540B2F84C1090F84C3041FA8A
:102D900003F313F0010310D180F84C3069B111F046
:102DA00001030AD141FA03F6F607D8B240F148818F
:102DB000142303FB054383F84C00142303FB054352
:102DC00093F84E10012902D9002183F84E101420E7
:102DD00000FB0540B2F84E1090F84E3041FA03F374
:102DE00013F0010310D180F84E3069B111F00103E6
:102DF0000AD141FA03F6F707D8B240F1268114232D
:102E000003FB054383F84E00142303FB054393F8AB
:102E10004F10022902D9002183F84F10142000FB23
:102E20000540B2F8503090F84F1043FA01F111F01C
:102E3000010110D180F84F106BB113F001010AD1DC
:102E400043FA01F6F607C8B240F10481142101FBF0
:102E5000054181F84F00142101FB054090F84D60B9
:102E6000022E02D9002680F84D6001FB054191F841
:102E70005000052802D9042081F85000142101FBDC
:102E8000054090F85260012E02D9012680F8526068
:102E900001FB054191F85500012802D9012081F874
:102EA0005500142101FB054191F85300022802D975
:102EB000002081F85300142606FB0546B2F85200A4
:102EC00096F8531040FA01F111F0010117D186F87C
:102ED0005310A0B110F0010111D105E05AAC000867
:102EE000C40000208002002040FA01F7FF07CEB2A4
:102EF00040F1B580142101FB054181F85360142194
:102F000001FB054090F856600C2E02D9002680F88F
:102F1000566001FB054191F84C00012809D191F858
:102F20004F60022E05D1DF0740F19E80002381F81B
:102F30004F301423012140F2011003FB054383F8B5
:102F40005710A3F8580094F82630032B01D984F8C1
:102F5000261094F82730042B02D9002384F8273058
:102F6000B2F89A0094F8273040FA03F313F0010FF7
:102F7000AE4B0ED1012184F8271050B18607C0F363
:102F8000400106D440FA01F7FF07CEB271D583F8AD
:102F9000276094F82810022902D9002184F828100B
:102FA00094F82910032902D9012184F82910B2F8D4
:102FB0009C1094F8292041FA02F212F001020CD17F
:102FC00084F8292049B111F0010206D141FA02F634
:102FD000F607D0B251D583F8290094F82A200C2A9C
:102FE00002D9002284F82A2093F832200C2A02D930
:102FF000002283F8322093F82B20042A02D90022E1
:1030000083F82B2000221046894911F9014F14F151
:10301000780F36DA087036E00133102B7FF41FAEDC
:1030200026E6013110297FF43DAE45E60131102935
:103030007FF462AE69E60133102B7FF48CAE95E627
:103040000133102B7FF4AEAEB7E60133102B7FF4C3
:10305000D0AED9E6013110297FF4F2AEFBE60131A2
:1030600010297FF441AF4AE713F0020318BF03466B
:103070005DE70131102985D18BE70132102AA5D1F6
:10308000ABE7782CC6DC0132D2B20C2ABDD10022CB
:103090000120684911F8014F0132022CD2B288BFD9
:1030A0000870042AF6D193F83420012A02D90022AC
:1030B00083F83420604AB2F89E1093F8342041FA25
:1030C00002F212F001020CD183F8342049B111F060
:1030D000010206D141FA02F4E407D0B211D583F817
:1030E000340093F82C20052A02D9032283F82C20DF
:1030F00093F82D20032A08D80AD1002283F834201F
:1031000006E00132102AE5D1EBE7022283F82D20F8
:1031100093F82E20022A02D9012283F82E2093F858
:103120003020022A02D9022283F8302093F833207B
:103130000C2A02D9002283F8332093F83520042A80
:1031400002D9002283F83520142202FB053191F8C0
:103150005A00012802D9002081F85A0002FB0532EA
:1031600092F85C10032902D9032182F85C10142222
:1031700002FB053191F85B0002FB0532032884BF96
:10318000002081F85B0092F85B0092F85C108842A6
:1031900088BF82F85B1093F83620012A02D90022FA
:1031A00083F8362093F83820032A02D9032283F8C3
:1031B000382093F83720032A84BF002283F8372071
:1031C00093F8371093F83820914288BF83F837205E
:1031D000142202FB053191F85D00012802D900207C
:1031E00081F85D0002FB053393F85420062A02D9CA
:1031F000012283F854201421FF220C4B01FB0531DE
:1032000083F82F2081F8512083F831204FF6FF7189
:103210004FF0FF3203EB05151A629A84C5F81C21A2
:10322000A5F8201183F8391003B0F0BDC4000020C8
:10323000FD0000200901002080020020034670B537
:103240000846052B04D8DFE803F01D0421191D21D1
:10325000FEE720261F250F22164C22770122A3709D
:10326000013BA4F84860A4F84A50A276A273042B4C
:1032700011D8DFE803F00F111919110009266F2585
:103280000722E9E7142632250A22E5E73526132529
:103290001922E1E7FEE7FEE7002323712374FDF71F
:1032A000ABFF6073607670BD002323712374A37637
:1032B000A373F4E7680000200122044B83F8512037
:1032C000A3F85220A3F85420704700BF68000020E4
:1032D0002DE9F043774D00F1110805EB081702378F
:1032E0008BB006463846FDF7CBFC042100906846BB
:1032F000FEF71CF84FEA061905EB06166E4C96F819
:103300001B31E0832BB103EB031303EB03231844BE
:10331000E08305EB08135B7A062B40F0A980E38B72
:1033200003F5B5432533E38395F8270005EB08182B
:10333000FFF7C2FF98F80910A9448B1F012B8CBF1F
:103340000023012399F81A01617084F85630FFF7C1
:1033500075FFE18B009B99F81B21E1806182A360DE
:1033600063612AB14FF0113000FB0233A360636147
:1033700095F82600514B616213F9203084F829201A
:1033800023732376002384F82A30637B23B93846DD
:10339000FDF796FC84F82A006078FDF72DFF484A77
:1033A0000346128884F8280002F00101970748BFFD
:1033B00041F00201A185560748BFA18D01AE44BF6F
:1033C00041F00401A185100742BFA18D41F0100119
:1033D000A185D10642BFA18D41F02001A1859206B1
:1033E00042BFA28D42F00802A285364A02F1200CAB
:1033F000374610685168083203C762453E46F7D128
:1034000006211068304E38600AA801FB0303A27839
:10341000134413F8247C84F8207016E90F0086E822
:103420000F0040F2E2433846A4F84C30FCF73CFF72
:103430004FF07F51FCF78CFFFDF776F94FF47A736C
:10344000B4F848207F08B3FBF2F3052F38BF0527F7
:10345000A4F8403095F82C30C0B2A4F84E0084F89F
:103460005070052B1AD8DFE803F00B2216191C1F29
:10347000072B7FF459AFE38BA3F5B543263B52E707
:103480004FF416536364002384F85730A4F858307F
:103490000BB0BDE8F0834FF41643F3E74FF46143FC
:1034A000F0E74FF4E133EDE74FF46133EAE74FF42F
:1034B0009643E7E7C4000020680000209CB00008A5
:1034C000800200201CAA0008980000204FF4DE7241
:1034D000FF21014807F08EBAC40000204FF4DE71CE
:1034E0000148FEF71DBE00BFC40000204FF4DE718E
:1034F0000148FEF701BE00BFC400002008B5FFF779
:10350000F5FF034B1878BDE80840FFF781BB00BF0B
:103510006800002038B5FFF7D9FFFEF715FE042834
:103520000CD0FFF7D3FFFEF70FFE042803D1FFF7FF
:10353000DDFF042806D0FFF7C9FF03E0FFF7D6FF41
:103540000428EED110222649264807F027FA254CF8
:1035500038B110222046244907F020FA08B1FFF7BD
:10356000B5FFA38AB3F5215F28D008D30025E8B2C0
:103570000135FFF701FB0A2DF9D10023E3774FF462
:1035800021530125A38242F6A103226914499A42DC
:1035900014484FF010021CBF0125236107F0FEF90B
:1035A00070B110220E490F48FDF739FC08220F496F
:1035B0000F48FDF734FCFFF791FF03E00025E2E739
:1035C000002DF8D10023E3770A4C2370FFF76AFA45
:1035D0002078FFF71DFB2078BDE83840FFF778BE64
:1035E00061AC0008C400002072AC000883AC000885
:1035F000760200206800002010B5C01A9DF908402E
:10360000023880F30400A042A8BF204602330870AD
:103610001844107010BD07B5084611461A460F230E
:1036200000930023FFF7E8FF03B05DF804FB37B514
:103630000C4605468B784A78097806F070F8E379ED
:1036400028460193A3792279E1780093637906F003
:1036500096F861782078FEF745F8A86103B030BD90
:1036600010B5C46804B9FEE70A78227002B1FEE71B
:1036700002490161FFF7DBFF10BD00BFF4C600087F
:10368000C36837B50446A3B1024652F8153B5D69DD
:1036900000F11603A84732233F220B21204605F0F4
:1036A00094FF09237022009380212046637D06F059
:1036B000C4F803B030BD00004B7A73B5043B012B56
:1036C0008CBF002301230446DB00C160037505F0B5
:1036D000ADFF237D0DF1070263F07F038DF8073006
:1036E00001232046194605F025FF204605F0A4FFDA
:1036F000E3681D4E1B78227D06EB03135D782046A0
:10370000294605F0B6FF2946204605F0C7FF0322EB
:103710002021204605F0A7FF04230C222621204665
:1037200005F053FFE368204693F90810FFF7A8FF60
:10373000E3681D7805B1FEE7314620462661FFF7B4
:1037400076FF2A462946204605F0DCFF20462B4618
:10375000C022C82106F03FF8FF21204602B0BDE894
:10376000704006F055B800BFF4C6000810B5044616
:1037700005F062FF2046BDE81040FF2106F048B882
:1037800038B504460368C1685D6991F9081000F115
:10379000160300F11502A847E3681B7803B1FEE7A2
:1037A000034B902160202361FDF79CFFA06138BD91
:1037B000F4C60008C36810B504463BB103690BB9F1
:1037C000FFF7DEFF2369B3F90C0010BD1846FCE7D4
:1037D000C36810B5044633B103690BB9FFF7D0FFD6
:1037E00094F9160010BD1846FCE708B5C36843B944
:1037F000FFF762FF7D20FEF78BFBBDE80840FEF778
:10380000FBBA08BDF8B504460846202811461D46F7
:10381000BDF818C09DF81C209DF8203000D9FEE7A7
:10382000052DA57100D9FEE72B4F57F8356006B975
:10383000FEE707EBC507A6603E797F79E67127733F
:10384000002784F8D550A4F80EC084F8D470BCF1D9
:10385000000F00D1FEE786429CBF06F1FF36F0B2B2
:10386000052D60742DD0012D32D802F1FF35EDB257
:103870001DD0022D16D85D1E032D0DD80C2801D9A0
:103880000C256574657C854200D960742046FDF77F
:10389000ADFB00232374F8BD122884BF1223637488
:1038A0000023EFE7042B88BF00230022EEE7022D60
:1038B00004D80C2803D90C23637400E000220023F1
:1038C000E4E7531E022BF9D80828F8D90823F3E7B8
:1038D0002046FDF733FBDCE76CB0000890F8D430ED
:1038E00053B190F8D520074B03EBC201497953F847
:1038F000323053F821007047037C00EB8300406BAB
:10390000704700BF6CB0000813B5194B0288DB8B01
:1039100004469A4227D1837813F0D00F25D18379BA
:10392000812B22D84FF6FF730D2201460DF10600C0
:10393000ADF80630FDF7E2FCB4F80D20BDF8063016
:103940009A420ED14C2204F10D01FDF7D7FCB4F8D8
:103950005900BDF80630C01A18BF0120800002B01F
:1039600010BD0320FBE70120F9E70220F7E700BFC5
:10397000680000200A7ACB7902F0070243EA0223AA
:1039800003804B7A0A7A03F03F035B0143EAD203D8
:1039900043808B7A4A7A9B0043EA9213CA7A02F0F8
:1039A000010243EA822383800B7BCA7A03F00F0370
:1039B000DB0143EA5203C3800B7BC3F30112012AEC
:1039C00011D813F0300F14BF012300239B0203838F
:1039D0000B7B7F2B0AD813F0C00F14BF01230023E9
:1039E0009B024383704740F2FF73F0E740F2FF739E
:1039F000F7E70A7ACB7902F0070243EA0223038051
:103A00004B7A0A7A03F03F035B0143EAD203438017
:103A10008B7A4A7A9B0043EA9213CA7A02F0010237
:103A200043EA822383800B7BCA7A03F00F03DB0116
:103A300043EA5203C3800A7CCB7B02F0070243EACD
:103A4000022303814B7C0A7C03F03F035B0143EAC2
:103A5000D20343818B7C4A7C9B0043EA9213CA7C4D
:103A600002F0010243EA822383810B7DCA7C03F0CA
:103A70000F03DB0143EA5203C3814B7DDB0003826A
:103A80008B7DDB004382CB7DDB0083820B7EDB0002
:103A9000C3820B7BC3F30112012A2BD813F0300F22
:103AA00014BF012300239B0203830B7B7F2B24D8AD
:103AB00013F0C00F14BF012300239B0243830B7D2F
:103AC000C3F30112012A1BD813F0300F14BF0123D6
:103AD00000239B0283830B7D7F2B14D813F0C00F30
:103AE00014BF012300239B02C3834FF4806303842C
:103AF0004384704740F2FF73D6E740F2FF73DDE77F
:103B000040F2FF73E6E740F2FF73EDE737B5214B74
:103B10000446DB8B0D4603804A78837862F3C30347
:103B200083704A79C37862F30003C3708A7943795A
:103B300062F38613437191F90200FCF76DFFE3789D
:103B4000214660F34703E370EA7823790DF106001C
:103B500062F3060323712A79DBB202F0010203F05B
:103B60007F0343EAC21323712A796379C2F34502C2
:103B700023F03F03134363714FF6FF735922ADF8EF
:103B80000630FDF7BBFBBDF80630A4F8593003B092
:103B900030BD00BF680000202DE9F3410446154602
:103BA00088469DF820605B22522E4FF000011F4690
:103BB00028BF522606F01EFF2D4BDB8B23802A7870
:103BC000A37862F30203A3706978DBB2C90001F045
:103BD000080103F0070341EA08111943A1706A794B
:103BE000E37862F30003E370AA79637962F38613E2
:103BF000637195F90200FCF70FFFE37860F3470368
:103C0000E370EA78237962F3060323712A79DBB241
:103C100002F0010203F07F0343EAC21323712A7901
:103C20006379C2F3450223F03F03134322466371D5
:103C3000A37966F3470302F8063F3B463E44B3428E
:103C400010D14FF6FF73592221460DF10600ADF851
:103C50000630FDF753FBBDF80630A4F8593002B02A
:103C6000BDE8F08113F8011B02F8011FE7E700BF70
:103C70006800002007B5009313460A460121FFF7AC
:103C80008BFF03B05DF804FB30B53A4B027893F834
:103C9000261000F1160461F30302027093F8271056
:103CA00061F30712027093F82810427861F303025F
:103CB000427093F8291061F30712427093F82A10AA
:103CC000827861F30302827093F83210827961F393
:103CD0000302827193F82B10827861F307128270CD
:103CE00093F83410C27961F30302C27193F82C1077
:103CF000C27861F30302C27093F82D1061F30712CA
:103D0000C27093F82E10027961F3030202714279B6
:103D100093F8301061F30302427193F83310827903
:103D200061F30712827193F83510C27961F30712BB
:103D3000C27103F1390100F10A0211F9015F02F8C1
:103D4000015FA242F9D193F84610C27D61F30102EE
:103D5000C27593F8471061F38302C27593F8481057
:103D600061F30512C27593F8493063F38712C27587
:103D700030BD00BFC40000200278344BC2F3030200
:103D800030B583F82620027803F13901C2F303121B
:103D900083F82720427800F11604C2F3030283F867
:103DA00028204278C2F3031283F829208278C2F3D4
:103DB000030283F82A208279C2F3030283F83220B7
:103DC0008278C2F3031283F82B20C279C2F3030274
:103DD00083F83420C278C2F3030283F82C20C2781F
:103DE000C2F3031283F82D200279C2F3030283F891
:103DF0002E204279C2F3030283F830208279C2F385
:103E0000031283F83320C279C2F3031283F83520FA
:103E100000F10A0212F9015FA24201F8015FF9D133
:103E2000C27DC2F3010283F84620C27DC2F3810243
:103E300083F84720C27DC2F3011283F84820C27D77
:103E4000C2F3811283F8492030BD00BFC4000020B6
:103E500070B5522698B0324604460D4603A800219C
:103E600006F0C8FD212342F6A1008DF80C30FCF7C6
:103E7000C5FFADF80E004FF42150FCF7BFFF142230
:103E80001B49ADF810000DF11200FCF7C8FF1948EE
:103E9000FFF79EFC184B8DF8260093F851300AA8C6
:103EA0008DF82730FFF7F0FE0123144AADF84630B5
:103EB000134B0221CDE912236FF08023149347F6B0
:103EC000FF73ADF854300F4B2046B3F89A208DF8AD
:103ED0005620B3F89C20B3F89E308DF857208DF80B
:103EE00058302A46009603ABFFF756FE18B070BD57
:103EF00089AC00086C200020680000200A0019002E
:103F00003200FF7F8002002038B504460F4D00F1DB
:103F10001B01062205F58970FCF7E2FF94F82130B9
:103F200004F12500C3F3030385F8193194F8213017
:103F3000C3F3031385F81A3194F82230C3F3030353
:103F400085F81B31BDE83840FFF716BFC4000020DC
:103F50000B4A0C491268002382600A688380026160
:103F60004A68094942610A68837182614A688381AB
:103F7000C2614EF66022038402600385704700BF71
:103F8000E42E002094AC00089DAC000810B5044C51
:103F900004492046FFF764FB2046FFF7E7FB10BD0E
:103FA0006C2000206C00002038B5174D0446A8781E
:103FB000697805281BD14FF6FF732385FFF73EF97B
:103FC00001226B789A40238D23EA020323850F494F
:103FD0000F48FFF70AFC0E48FFF7C8FB0C4800210A
:103FE000FFF74EFB2046BDE83840FFF7CFBF002368
:103FF00002202385FFF722F901236A789340228D5E
:1040000013439BB2E2E700BF680000206C00002071
:104010006C20002008B590F8203002468BB9FDF7DF
:1040200001FF10B982F8210008BD92F82130013358
:104030005BB2312B82F82130F6DD012382F820308B
:10404000F2E7FDF7EFFE18B1322382F82130EBE7FB
:1040500092F82130013B5BB2002B82F82130D8BFAF
:1040600082F82000E0E700000A4B90F820201B684F
:1040700072B182689B1AB3F57A6F01D9012343713B
:10408000037923B9437913B1012303710373704793
:104090008360F5E7E42E00200346007B821E012AA0
:1040A0004FF0000202D893F8201009B91A73704734
:1040B000104670470A4A38B51388044601339BB24C
:1040C000502B0D4601D8138038BD002305491380BD
:1040D000FDF7D6FC29462046FDF7D2FCF4E700BFE9
:1040E0009C030020A6AC00082DE9F74F16460546B4
:1040F0000F467349FDF7C4FC31462846FDF7C0FC66
:104100000022704B012F704C1A8010D10822022718
:104110006E4B5A6146F2A8102761FDF7F9FE676100
:10412000FDF7F6FE31462846FFF7C4FFF2E7BB1E57
:1041300002220C2B00F2B680DFE803F03747581F4D
:1041400007B4B4B46868686868004FF008085F4F47
:104150004FF0020946F2A810C4F81090C7F8148076
:10416000FDF7D6FEC4F81490C7F81080FDF7D0FE16
:1041700031462846FFF79EFFEAE74FF00808534F05
:104180004FF0020946F2A810C4F81090C7F810804A
:10419000FDF7BEFEC4F81490C7F81480FDF7B8FE12
:1041A00031462846FFF786FFEAE708276261474C59
:1041B00046F2A8102761FDF7ABFE6761FDF7A8FE88
:1041C00031462846FFF776FFF2E7082202273F4BE9
:1041D0001A6146F2A8102761FDF79AFE6761FDF7A4
:1041E00097FE31462846FFF765FFF2E70827226170
:1041F000364C46F2A8102761FDF78AFE6761FDF78D
:1042000087FE31462846FFF755FFF2E7A7F1090878
:104210005FFA88F34FF0080A4FF00008DFF8AC901F
:10422000009304224FF0020B009B984538BFC9F859
:1042300010A0019246F2A810C4F810B0FDF768FE75
:10424000C4F814B0FDF764FE31462846FFF732FF8C
:10425000019A013A12F0FF02EBD104224FF0020B57
:10426000C9F814A0019246F2A810C4F810B0FDF7E6
:104270004FFEC4F814B0FDF74BFE31462846FFF759
:1042800019FF019A013A12F0FF02EBD108F1010384
:10429000A7F108025FFA83F8D2B2424538BF4FF067
:1042A0000008BEE722610822084B1A614CF2503028
:1042B000FDF72EFE31462846FFF7FCFEF6E700BF6D
:1042C000A6AC00089C03002000100140000C014037
:1042D00008B5437802789A4213D0032B8ABF032390
:1042E00003700370027888BF4370064B064813F9C9
:1042F0002210064B19731976C36813B11972FFF7B0
:10430000BFF908BD9CB000086C20002068000020A8
:1043100010B50AB9437010BD541E0B2CFBD80332E4
:10432000D2B231F9122040F27161C83A03FB022285
:1043300092FBF1F212B222EAE2729A42C8BF1AB2BA
:104340004270E8E70A46014610B9024805F05EB936
:10435000704700BF6C20002010B513460C46014684
:1043600078B92246094805F041F9FF21074805F0D0
:104370004FFA064805F074FABDE810407D20FDF7BD
:10438000C7BD0248FFF7F2F910BD00BF6C20002046
:104390002DE9F0415B270546184C0E463A460021B0
:1043A000204606F027FBAB6904F10E002360EB69A1
:1043B00013496360134B1B789A1E53425341627A30
:1043C00063F3000262726FF05E02A2722822002381
:1043D000E272142223736373FCF721FD59212046F6
:1043E000FCF7A4FF084BA4F859003A462146304692
:1043F000BDE8F0411B7FFFF7AFBF00BFEB1C002003
:1044000089AC00088B0300206800002013B50C461F
:1044100038B91148C36833B9812281F8A23081F8D4
:10442000A02002B010BD037D01F1A2020DF1060132
:1044300005F022FABDF90630002B08DB4FF6FF73BA
:10444000ADF80630BDF8063084F8A030E9E77F33D8
:10445000F8DA4FF68173F3E76C2000200A4608B5BE
:1044600001460148FFF740FE2C000020164600B52B
:1044700091B0044668461D4606F05EFA1849684643
:1044800006F062FA304605F009F80146684606F083
:104490005BFA1449684606F057FA134B684653F81E
:1044A000251006F051FA1149684606F04DFA104DF4
:1044B0009DF84830684655F8231006F045FA0D4936
:1044C000684606F041FA9DF84C30684655F82310CE
:1044D00006F03AFA6A4621460748FFF705FE00BF94
:1044E000A8AC0008AFAC000800000020B4AC000885
:1044F00010000020BBAC00082C0000200246002168
:1045000008B50148FFF7F0FD2C0000200023FF2232
:10451000037043708370C27003717047C1780346A3
:1045200029B98278017101328270012070470078C8
:1045300001281ED0022805D0C8B99A781871013216
:104540009A70F2E798785A784240D20704D4002251
:10455000013098701A71E8E7FF2902D10020187124
:1045600070471A790132D2B291421A71EFD300200A
:104570007047FF29F2D01A790132D2B291421A71F2
:10458000F5D29A7801329A7000221A7170470000B1
:104590000E4803681A0617D5C3681B0614D50C4BC2
:1045A0000C4A1988138889B29BB299420AD01388A1
:1045B0000133DBB213801388074A9BB2D35CDBB2B2
:1045C00043607047FCF752BE704700BF0044004094
:1045D000B8220020B6220020B62100200E490F4A42
:1045E0000B8812880133DBB292B29A4212D00C4A85
:1045F000D0544FF040220B8002F20C4353E8003FAE
:1046000043F0800302F20C4040E800310029F3D16E
:104610000120704700207047B8220020B6220020F9
:10462000B621002038B504464518AC4200D138BD4B
:1046300014F8010BFFF7D2FFF7E708461146FFF722
:10464000F1BF0000002300B589B0CDE90633CB1AD5
:1046500018BF01231B03CDE902320C230190049102
:10466000034801A9059306F0CDF809B05DF804FBF5
:104670000044004010B5064CE36823F40053E360A7
:10468000FFF7E0FFE36843F40053E36010BD00BFB1
:104690000044004008B531B14FF400524FF480613E
:1046A0000248FFF7E7FF012008BD00BFA086010018
:1046B00013B52D4C40F20441E36823F40053E3604A
:1046C000FDF7ECF94FF40030FCF7B4FD08230122AC
:1046D00000F18040CDE90032A0F5784003230A22A2
:1046E000FDF722FA002221481146FFF7ABFFC02256
:1046F000236923F490432361636923F02A036361F0
:104700001B4B83F8262340225A602046FCF7AEFD5F
:104710004FF0402101F20C4353E8003F23F04003E7
:1047200001F20C4040E80032002AF3D16FF0400360
:104730002360104B1A80104B1A80236923F4006306
:104740002361636923F008036361236923F48043D1
:104750002361636923F022036361E36843F4005338
:10476000E36002B010BD00BF00440040A08601001D
:1047700000E100E0B6220020B822002030B51C4C39
:1047800085B00E2200210546684606F033F9B4F8DC
:10479000A0302046ADF80030FCF7EAF88DF80200B2
:1047A0002046FCF7DCF8B4F8A4308DF8030011487B
:1047B000ADF80430FFF70CF894F8A6308DF8060039
:1047C0008DF8073094F8A93069468DF80830B4F8B0
:1047D000AA302846ADF80A30074B9B788DF80C308C
:1047E00001238DF80D3004F002F905B030BD00BF93
:1047F000A41D00206C200020680000200148FEF766
:10480000E9B800BFA11D0020F8B50E460746144DBB
:104810005B232946304614462A46FFF793FDD7E925
:10482000041328686A689A4208BF884209D00024A5
:1048300030460C49FFF7EAFD002C0CBF0120032095
:10484000F8BD59212846FCF771FDB5F8593083426F
:10485000EDD114B1FFF7D2FFEAE70124E8E700BF8A
:10486000A5200020A41D002013B501210446084402
:10487000FCF75CFDA178ADF806000DF10600FCF731
:1048800031FDE178FCF72EFD2179FCF72BFD6179F4
:10489000FCF728FDA179FCF725FD04F108010322AE
:1048A000FCF72CFD627804F10C01FCF727FD94F86D
:1048B0002311FCF717FDBDF80630A4F80C3102B047
:1048C00010BD0000003818BF0120014B1870704760
:1048D0004803002070B586464ABB042B5AD89EB2C6
:1048E00023B315464F4A92F82830506A0333DBB29F
:1048F000C00082F82830506212E0083BDBB282F838
:104900002830B1F800C0BCF5817F0CF101043FD222
:10491000506A0C8020FA03F30EF80C3092F828301D
:10492000072BEAD80135A8B28642DED870BDFF2A2F
:10493000FCD1032B52D89EB2002BF7D04FF0000CC5
:10494000384A92F82830506A04330001DBB240F054
:10495000020082F82830506211E0083BDBB282F896
:1049600028300888B0F5817F00F1010511D2546A22
:104970000D8024FA03F30EF8003092F82830072B4C
:10498000EBD80CF1010C1FFA8CF08642DBD870BD1D
:10499000FEE7FEE7234A03F5C063506A43EA40306E
:1049A00092F8283050620D33DBB282F8283011E0E3
:1049B000083BDBB282F828300888B0F5817F00F12F
:1049C00001050AD2546A0D8024FA03F30EF8003070
:1049D00092F82830072BEBD870BDFEE7114A03F59B
:1049E000E063506A43EA403392F82800536200F1D2
:1049F0000D03DBB282F828300FE0083BDBB282F80F
:104A000028300888B0F5817F0AD2546ADC40431C04
:104A10000B800EF8004092F82830072BEDD870BDBF
:104A2000FEE700BFA80500202DE9F04F0027FF2674
:104A30008025694C0F809946067083B0A577676220
:104A400084F82870002B00F0B88003F1FF3A1FFAB9
:104A50008AFA83469244561E02F1FF0838463A46C7
:104A60000B88FF2B16F8015F0DD898B195420BD13A
:104A70000137BFB2994540F28B80B24500F08C807F
:104A8000B045EED1FEE7FEE75846FBB20192FFF7D4
:104A900021FF019A6B1EDBB2FD2B2BD83F2B53D984
:104AA00005F14103DBB23F2B29D894F82800636A53
:104AB0000135EDB20830C0B245EA032384F828007E
:104AC000636212E00838C0B284F828000B88B3F59E
:104AD000817F03F1010C36D2656AA1F800C025FA86
:104AE00000F00BF8030094F828000728EAD800200B
:104AF0000B88BFE701272A4638460B88BAE794F8A7
:104B00002800636A3F35EDB20930C0B245EA43235D
:104B100084F82800636212E00838C0B284F82800E4
:104B20000B88B3F5817F03F1010C0BD2656AA1F804
:104B300000C025FA00F00BF8030094F828000728BD
:104B4000EAD8D4E7FEE7FEE794F82800636A7F35E9
:104B5000EDB20830C0B245EA032384F8280063624E
:104B600012E00838C0B284F828000B88B3F5817FC2
:104B700003F1010C0BD2656AA1F800C025FA00F020
:104B80000BF8030094F828000728EAD8AFE7FEE7FF
:104B9000002003B0BDE8F08FB8B994F828206AB1BE
:104BA000606A0124C2F10802904004FA02F2013A5C
:104BB0000243181908800BF803200B88994594BF0D
:104BC0000020012003B0BDE8F08FFBB25846FFF78C
:104BD00081FE0B88E1E700BFA805002047F26F7354
:104BE00000222DE9F04F827003800B780D46A3F16F
:104BF000FE03B3FA83F35B0983708A78044612F0EC
:104C000001011CBF43F080038370D5F8202185B0DB
:104C100022F07F4222F0FF0212B143F008038370BA
:104C2000AA68C2F31702FF2A18D9B2F5803F12D33F
:104C3000022063F07F03A3700143E17009260B2279
:104C40000A2108234FF0070C4FF0060E4FF005081D
:104C50004FF0040912E043F00203A370180600F1BC
:104C6000F68008260A220921002007234FF0060CAF
:104C70004FF0050E4FF004084FF0030995F801A01E
:104C8000374604F809A095F804A09B4604F808A04C
:104C900095F80580019104F80E8095F806E0A1448E
:104CA00004F80CE094F802C01CF0080F0AD095F844
:104CB00021C18B4604F803C00B4695F82211164615
:104CC000E1551746AA68E254A378990708D5AB685E
:104CD0000BF10202C3F30F23E35597B2B3463E46EE
:104CE00028B1AB7AB346E355771CBFB23E46A378F2
:104CF000DA0606D595F82331B346E355771CBFB2E3
:104D00003E46544B01361B781FFA86F8A04405F145
:104D10000C0A43B1524640466B780DF10E01FFF785
:104D200083FE002870D16A78514693B240460193C1
:104D300005F026FE2278484BD243D2B2617894F82F
:104D400007809A5C94F802A04A4041469A5C94F825
:104D500003908AEA020A13F80A2094F804E089EA28
:104D6000020913F8092094F805C08EEA020E13F820
:104D70000E20A0798CEA020C13F80C20BBF1070F6F
:104D800080EA02001A5C81EA02015A5C25D0217A8D
:104D9000BBF1080F82EA01029A5C1ED0617ABBF176
:104DA000090F82EA01029A5C17D0A17ABBF10A0FBF
:104DB00082EA01029A5C10D0E17ABBF10B0F82EA21
:104DC00001029A5C09D0217BBBF10C0F82EA01023F
:104DD0009A5C1EBF617B4A409A5C019BE2551E446F
:104DE000B6B2B6F5947F0ED2B5F80C31B01CA3550F
:104DF000B5F80C2180B2731C120A9BB2B0F5947FF7
:104E0000E2540BD3FEE7FEE7A37843F04003A37020
:104E1000BDF80E30019389F800308BE7AB78DB07E3
:104E200002D405B0BDE8F08FD5F81821D5F810717F
:104E3000D5F81411231827500F3659609A6095F849
:104E40001C21B0B2B0F5947F1A73EAD3FEE70020BC
:104E5000F3E600BF48030020D8B000082DE9F84F62
:104E6000804615460F46B048414605F089FD0022B0
:104E70008023AE4CB5F5817F3A8084F822302284BD
:104E800062624FD24FF0FF099246A74E84F8282065
:104E9000012A76D8B4F820C0654540F2B180616A35
:104EA00016F80C3002F108000CF1010CC0B243EA14
:104EB0000123A4F820C0A0F1020C23FA0CF1063261
:104EC00001F003015FFA82FE0229636284F828E0A0
:104ED00000F0BD80032944D0012924D1BEF1060F82
:104EE0000DD8228C954240F28B80B15C00F1060E09
:104EF00041EA032301325FFA8EFE22846362AEF13F
:104F0000070E23FA0EF303F07F037D2B84F828E0CD
:104F100076D83A88FF2A23D84133511C398008F8C3
:104F2000023019E0FEE7BEF1000F6BD1228C9542F2
:104F300066D9072184F82810B15C013241EA0323C5
:104F400022841A06636200F1C8803B88FF2B06D8D2
:104F50005A1C3A8008F803A094F8282098E7FEE746
:104F6000FEE7AEF1060E5FFA8EF284F828203A884A
:104F700023FA0EF3FF2A03F03F0301D8413BCCE7AD
:104F8000FEE7636AA2F1020C23FA0CF101F00301BF
:104F90005FFA8CFE022984F828E003D003291CD094
:104FA000104699E7BEF1050F51D8218C8D4227D9C3
:104FB000705C02F1060E40EA032301315FFA8EFEB7
:104FC00063622184AEF1060E23FA0EF384F82820E2
:104FD00003F03F033A8801339FE7BEF1050FC0D8C5
:104FE000218C8D420CD9705C02F1060E40EA03233D
:104FF00001315FFA8EFE21846362AEF1060EB4E7E2
:10500000BDE8F88F0CF1FF3123FA01F10EF1FF3208
:10501000D2B2C90784F8282097D5F2B9218C8D42E5
:10502000EED90722705C013140EA032321846362D8
:1050300084F8282013F0800F40F08C803B88FF2BF1
:1050400000F287805A1C3A8008F8039084E7AEF19A
:10505000060E636A5FFA8EF2B6E7013A23FA02F1AE
:10506000AEF10202D2B2C80784F82820E6D5002AA1
:105070005ED1228C9542C3D90721B05C013240EA4F
:10508000032318062284636258BF082284F828107C
:105090002AD4B4F820C06545B2D90732D0B216F888
:1050A0000C2042EA03220CF10103238413466262BE
:1050B000083884F82810C34038885FFA83FB00EB77
:1050C0000B03FF2B0FDC5A460021404405F092FCF5
:1050D0003B880BEB03023A803EE7062213F0400FB9
:1050E00084F82820A8E7FEE708460822218C8D4294
:1050F00086D916F801C007324CEA03230131D2B237
:105100002184636284F82800083A23FA02F238887E
:105110005FFA82FB00EB0B03FF2B03DC5A46FF21F7
:105120004044D3E7FEE700BF7C040020A805002030
:10513000511EAEF1030023FA01F1C0B2C90784F891
:10514000280011D407280DD9AEF10B01636AC9B24A
:10515000AEE7FEE7511EC8B223FA01F1C90784F891
:10516000280001D4014694E70728BFD9A0F108011F
:105170000246C8B2C6E700BF2DE9F04F0D46518880
:105180001446B1F58F7F06468BB00BD900222270F2
:1051900000226F2B628000F02381002333700BB05C
:1051A000BDE8F08F12780E2A24D80E2A00F2D5809E
:1051B00001A050F822F000BF915100086753000889
:1051C0005B5300085B5300086753000867530008EF
:1051D00067530008675300086753000867530008C7
:1051E000BD5300085B5300085B5300085B53000885
:1051F0009B530008692A40F2AE806A2A40F0AD80D5
:10520000A64FF98A4A1E92B2002900F01F8103328C
:1052100007EB020CFF22DFF888E2B91C11F8010B42
:10522000424061451EF80220F8D1934200F0FC8014
:105230004FF0000884F80080C4F80280A4F80680CB
:10524000B7F81690B9F1020FA7D997F804B0BBF1DF
:105250006F0F00F06083B9F1030F9ED07A796F2A47
:1052600000F07683B9F1040F97D0BA796F2A00F075
:105270007583B9F1050F90D0FA796F2A00F06B832E
:10528000B9F1060F89D03A7A6F2A00F07383B9F129
:10529000070F82D07A7A6F2A00F06983B9F1080F7C
:1052A0003FF47BAFBA7A6F2A00F05E83B9F1090F41
:1052B0003FF473AFFA7A6F2A00F05383B9F10A0F03
:1052C0003FF46BAF3A7B6F2A00F05A83B9F10B0FB2
:1052D0003FF463AF7A7B6F2A00F05583B9F10C0F6E
:1052E0003FF45BAFBA7B6F2A00F08D81B9F10D0FEF
:1052F0003FF453AFFA7B6F2A00F04883B9F10E0FE9
:105300003FF44BAF3A7C6F2A00F07083B9F10F0F76
:105310003FF443AF7A7C6F2A00F06583B9F1100F38
:105320003FF43BAFBA7C6F2A00F05A83B9F1110FFA
:105330003FF433AFFA7C6F2A00F04F83B9F1120FBC
:105340003FF42BAF3A7D6F2A00F05383B9F1130F6E
:105350003FF423AFFEE7632A05D800232370C4F887
:105360000230E3801AE74D4FFA8A122A14D8511CF2
:105370003A44F98293702278092A39D9A2F164015A
:1053800005293FF60AAF653A042A00F27883DFE880
:1053900002F06B81635F6700FEE74A1C62806B541A
:1053A000E38862889A4243D300220221B3F5947FB6
:1053B000628022703170738074D3FEE74A1C374ECE
:1053C00062806B54A088727F618883189942FFF6CF
:1053D000E6AE33785F0600F1B8810E232370DEE677
:1053E0002E490A808B7001226423CA822370D4E67E
:1053F000002A3FF4D2AE013A082A3FF6CEAE01A110
:1054000051F822F0435500089B5100089B510008B9
:1054100035540008355400086F550008CF55000872
:10542000AB5500088D5500080A2201232270B5E60D
:105430000123B3E66288B2F5947F06D2511C6180E5
:10544000AB54237801332370A7E6FEE7FF22ECE696
:105450000722FB762270A0E66822BB7622709CE6CB
:105460006A223B77227098E600227A7062883B704D
:10547000B2F5947F0DD203F00103033B511C618010
:10548000AB5497F90030002BB4BF6623012323707F
:1054900083E6FEE701227B7022707EE6A8050020ED
:1054A000D8B000082B78FD2B00F02D81EB783372FB
:1054B0002B7973726B7973606A780832728040F26C
:1054C00085100022FE210446DFF8B0C2728101344B
:1054D00099424FEA540400F2E580C0F0F0808B421C
:1054E00040F02A812B78FD2B00F023814FF0060B32
:1054F000284610F801AF62000BEB0A0909F1FF31F1
:1055000089B20192FBF712FFDFF8708204EB4407C7
:1055100008EB87073979ADF8080002A80191FBF77D
:10552000E1FE05EB0902527815F80930019903EB09
:105530000223BDF808209BB29A4200F0C2800523E6
:105540002CE66288B2F5947F3A830FD2511C6180B9
:10555000AB543A787B7712F0010200F01D820622EC
:105560000833E380A2800423237016E6FEE76288F6
:10557000B2F5947F09D2511C6180AB543B781F0770
:105580004CBF67230723237007E6FEE76288B2F566
:10559000947F09D2511C6180AB543B78DD064CBF2F
:1055A00069236A232370F8E5FEE76288B2F5947FE9
:1055B0000CD2511C6180AB547B7813F0020340F095
:1055C000E8816288B2F5947FE4D3FEE7FEE7628863
:1055D000B2F5947F15D2511C6180AB543B787A7838
:1055E000134313F0020340F0C8816288B2F5947F40
:1055F00008D2511C6180AB546288B2F5947FC9D344
:10560000FEE7FEE7FEE74FF00C08B9F1120F00D9F4
:10561000FEE709F1010B1FFA8BFB07EB090C0DF1FB
:10562000080A8CF802305A4650465549A7F816B079
:1056300005F0A6F900233B800123FB826F23BB709A
:105640006423237008F101035B45BFF4A6AD09F1A3
:10565000FF310AEB08034FF06A0E4FF007094FF0D5
:10566000010A00224FF0690BA1EB08010DF10900BE
:1056700089B2404401440191F88A122811D813F8E4
:10568000011F00F1010C3844A7F816C08170207882
:10569000092800F20D81002874D101999942EBD1BB
:1056A0007BE5FEE7601E1418824204F1010745D233
:1056B00027F0010101EB57015CF8211007E72246B2
:1056C000F1E7BB79DA0706D5FA79924582BF52191C
:1056D00012F80B20B2729B070BD56300234408EB32
:1056E00083031B7A6A789A4282BF5B1913F80B30E6
:1056F000F3724FEA4409A14408EB890898F8053091
:10570000317373734BE56B793372AB7973726B7A68
:10571000297AEA791B0403EB0123134473606A7846
:1057200002F10C017180A978C9077FF5C8AE193262
:10573000C4E64FF00A0BDBE603232FE50F4902EB2B
:105740004200144651F82010C9E602A92844FFF788
:1057500085FB737FBDF808106288CB1A9BB21A4490
:105760006280727F1A447277E2881344E380338B3D
:10577000B3F5947F01D2E9542FE6FEE7D8B10008D3
:10578000AA0500200138082887D80FF2080C5CF819
:1057900020F000BFD55700089B5600089B56000814
:1057A000B9570008B95700088F5800084F5800082B
:1057B00027580008055800086088B0F5947F08D283
:1057C00000F1010CA4F802C02954217801312170A4
:1057D00063E7FEE76088B0F5947F388311D200F16B
:1057E000010CA4F802C029543878797710F0010030
:1057F00000F01C810831E1800621A1800421217084
:105800004BE7FEE76088B0F5947F0BD200F1010C06
:10581000A4F802C029543978C90600F1048184F83B
:1058200000E03AE7FEE76088B0F5947F0ED200F121
:10583000010CA4F802C02954797811F0020140F05B
:10584000EE806088B0F5947FE0D3FEE7FEE76088E5
:10585000B0F5947F19D200F1010CA4F802C02954CC
:1058600039787878014311F0020140F0D5806088E2
:10587000B0F5947F0AD200F1010CA4F802C02954BB
:105880006088B0F5947FC1D3FEE7FEE7FEE760884D
:10589000B0F5947F0BD200F1010CA4F802C029549A
:1058A0003978080700F1B58084F80090F5E6FEE746
:1058B000A0F1640CBCF1050F3FF6EFAE653804288B
:1058C00000F2E680DFE800F00E0A05032500F97615
:1058D000EAE7B9764FF068012170DEE6797084F866
:1058E00000A0DAE660883970B0F5947F7A700FD244
:1058F00001F00101033900F1010CA4F802C02954A0
:1059000097F900100029ACBF514666212170C4E60A
:10591000FEE7397783E7B9F1120F3FF679AE07EB6F
:10592000090C09F101020DF1080A92B28CF802305B
:1059300050465F49FA8205F023F80123FB82642375
:10594000A7F8008087F802B04FF0020823707EE6C7
:105950004FF0030859E64FF0050856E64FF00408EB
:1059600053E64FF0090850E64FF008084DE64FF0B7
:1059700007084AE64FF0060847E6082323700CE4C0
:105980004FF00A0841E64FF00B083EE64FF00D08D5
:105990003BE60923237000E40C33E3800A2361888B
:1059A000A380B1F5947F16D27B78481C03F00103E5
:1059B00060806B546188B1F5947F0DD2481C608083
:1059C0006A5413B1E3880D33E380E388B3F5947F21
:1059D000FFF4C9ADFEE7FEE7FEE74FF0110814E65D
:1059E0004FF0100811E64FF00F080EE64FF00E08CA
:1059F0000BE6B9F1120F3FF60BAEB944BA7089F855
:105A000002300021012264233980FA822370FFF7DB
:105A1000C4BB6721217040E6082121703DE64FF0AC
:105A20000901217039E684F800B036E60C31E180D6
:105A30000A21B4F802C0A180BCF5947F1DD2797808
:105A40000CF1010801F00101A4F8028005F80C1026
:105A5000B4F802C0BCF5947F10D20CF10108A4F890
:105A6000028005F80C0011B1E1880D31E180E18878
:105A7000B1F5947FFFF4C2AEFEE7FEE7FEE7772BB9
:105A80000DD000232370C4F80230E380FFF785BBFC
:105A9000772908D02270C4F80220E280FDE5652352
:105AA0002370FFF77ABB4FF065012170F5E500BF69
:105AB000AA0500202DE9F8431F46184B164693F817
:105AC000302004463AB393F82B301FB11BB31F1F8D
:105AD00018BF0127A1F1020804F5E36901F11E05D1
