:020000040800F2
:1000000000C001203D130108151301081713010852
:10001000191301081B1301081D130108000000003B
:100020000000000000000000000000001F13010895
:100030002113010800000000231301082513010803
:100040008D1301088D1301088D1301088D1301080C
:100050008D1301088D1301088D13010881EA000832
:100060008D1301088D1301088D13010849470008FD
:100070003D4700088D1301088D1301088D130108F9
:100080008D1301088D1301088D1301088D130108CC
:100090008D1301088D1301088D1301088D130108BC
:1000A0008D130108996300088D1301088D13010851
:1000B0008D130108BD4800088D1301088D13010838
:1000C0008D1301088D1301088D1301088D1301088C
:1000D0008D1301089D3E0008097C00083541000889
:1000E0008D1301088D1301088D1301088D1301086C
:1000F0008D1301088D1301088D1301088D1301085C
:10010000000000008D130108000000008D1301089D
:10011000B53B00088D1301088D1301088D130108EC
:100120008D1301088D1301088D1301088D1301082B
:100130008D13010800000000000000008D1301086D
:100140008D1301088D13010800000000000000005D
:10015000000000000000000000000000000000009F
:100160000000000000000000000000008D130108E6
:100170008D1301088D1301088D1301088D130108DB
:100180008D1301088D13010800000000000000001D
:1001900000000000000000008D1301088D1301080D
:1001A00000000000000000008D1301081D4400083D
:1001B00025470008314700088D1301088D130108F9
:1001C0008D1301088D1301088D1301088D1301088B
:0801D0008D1301088D130108D5
:1001D80010F8012B11F8013B012A28BF9A42F7D0E9
:1001E800D01A7047034613F8012B002AFBD1181ABE
:1001F8000138704781F0004102E000BF83F00043FE
:1002080030B54FEA41044FEA430594EA050F08BFA9
:1002180090EA020F1FBF54EA000C55EA020C7FEA6D
:10022800645C7FEA655C00F0E2804FEA5454D4EBEA
:100238005555B8BF6D420CDD2C4480EA020281EAB4
:10024800030382EA000083EA010180EA020281EAEC
:100258000303362D88BF30BD11F0004F4FEA01313E
:100268004FF4801C4CEA113102D0404261EB41014D
:1002780013F0004F4FEA03334CEA133302D05242D3
:1002880063EB430394EA050F00F0A780A4F101048F
:10029800D5F1200E0DDB02FA0EFC22FA05F28018C9
:1002A80041F1000103FA0EF2801843FA05F35941AF
:1002B8000EE0A5F120050EF1200E012A03FA0EFC2E
:1002C80028BF4CF0020C43FA05F3C01851EBE37158
:1002D80001F0004507D54FF0000EDCF1000C7EEB75
:1002E80000006EEB0101B1F5801F1BD3B1F5001FB3
:1002F8000CD349085FEA30004FEA3C0C04F10104D2
:100308004FEA445212F5800F80F09A80BCF1004FFA
:1003180008BF5FEA500C50F1000041EB045141EA7C
:10032800050130BD5FEA4C0C404141EB0101013C45
:1003380028BFB1F5801FE9D291F0000F04BF014634
:100348000020B1FA81F308BF2033A3F10B03B3F106
:1003580020020CDA0C3208DD02F1140CC2F10C0296
:1003680001FA0CF021FA02F10CE002F11402D8BFF4
:10037800C2F1200C01FA02F120FA0CFCDCBF41EAC0
:100388000C019040E41AA2BF01EB0451294330BD8F
:100398006FEA04041F3C1CDA0C340EDC04F114046C
:1003A800C4F1200220FA04F001FA02F340EA030043
:1003B80021FA04F345EA030130BDC4F10C04C4F189
:1003C800200220FA02F001FA04F340EA0300294669
:1003D80030BD21FA04F0294630BD94F0000F83F4B3
:1003E800801306BF81F480110134013D4EE77FEA96
:1003F800645C18BF7FEA655C29D094EA050F08BFE2
:1004080090EA020F05D054EA000C04BF19461046C2
:1004180030BD91EA030F1EBF0021002030BD5FEA06
:10042800545C05D14000494128BF41F0004130BD2E
:1004380014F580043CBF01F5801130BD01F0004582
:1004480045F0FE4141F470014FF0000030BD7FEAF5
:10045800645C1ABF194610467FEA655C1CBF0B46F0
:10046800024650EA013406BF52EA033591EA030F07
:1004780041F4002130BD00BF90F0000F04BF0021FF
:10048800704730B54FF4806404F132044FF0000532
:100498004FF0000150E700BF90F0000F04BF0021AB
:1004A800704730B54FF4806404F1320410F0004511
:1004B80048BF40424FF000013EE700BF42004FEA0C
:1004C800E2014FEA31014FEA02701FBF12F07F4389
:1004D80093F07F4F81F06051704732F07F4208BF40
:1004E800704793F07F4F04BF41F40021704730B547
:1004F8004FF4607401F0004521F000411CE700BF93
:1005080050EA010208BF704730B54FF000050AE015
:1005180050EA010208BF704730B511F0004502D516
:10052800404261EB41014FF4806404F132045FEA18
:10053800915C3FF4D8AE4FF003025FEADC0C18BFC1
:1005480003325FEADC0C18BF033202EBDC02C2F1B3
:10055800200300FA03FC20FA02F001FA03FE40EA45
:100568000E0021FA02F11444BDE600BF70B54FF049
:10057800FF0C4CF4E06C1CEA11541DBF1CEA135527
:1005880094EA0C0F95EA0C0F00F0DEF82C4481EA8F
:10059800030621EA4C5123EA4C5350EA013518BFAF
:1005A80052EA033541F4801143F4801338D0A0FB9C
:1005B80002CE4FF00005E1FB02E506F00042E0FB49
:1005C80003E54FF00006E1FB03569CF0000F18BF4F
:1005D8004EF0010EA4F1FF04B6F5007F64F54074F7
:1005E80004D25FEA4E0E6D4146EB060642EAC6218A
:1005F80041EA55514FEAC52040EA5E504FEACE2EF7
:10060800B4F1FD0C88BFBCF5E06F1ED8BEF1004FF9
:1006180008BF5FEA500E50F1000041EB045170BD75
:1006280006F0004646EA010140EA020081EA0301B9
:10063800B4EB5C04C2BFD4EB0C0541EA045170BDB5
:1006480041F480114FF0000E013C00F3AB8014F12F
:10065800360FDEBF002001F0004170BDC4F1000478
:10066800203C35DA0C341BDC04F11404C4F12005F9
:1006780000FA05F320FA04F001FA05F240EA020054
:1006880001F0004221F0004110EBD37021FA04F68A
:1006980042EB06015EEA430E08BF20EAD37070BD44
:1006A800C4F10C04C4F1200500FA04F320FA05F0A3
:1006B80001FA04F240EA020001F0004110EBD370A5
:1006C80041F100015EEA430E08BF20EAD37070BD15
:1006D800C4F1200500FA05F24EEA020E20FA04F3EE
:1006E80001FA05F243EA020321FA04F001F000419D
:1006F80021FA04F220EA020000EBD3705EEA430E0E
:1007080008BF20EAD37070BD94F0000F0FD101F03C
:100718000046400041EB010111F4801F08BF013C75
:10072800F7D041EA060195F0000F18BF704703F0B3
:100738000046520043EB030313F4801F08BF013D3A
:10074800F7D043EA0603704794EA0C0F0CEA1355F6
:1007580018BF95EA0C0F0CD050EA410618BF52EAB0
:100768004306D1D181EA030101F000414FF00000B6
:1007780070BD50EA410606BF1046194652EA4306C4
:1007880019D094EA0C0F02D150EA013613D195EA38
:100798000C0F05D152EA03361CBF104619460AD180
:1007A80081EA030101F0004141F0FE4141F470018A
:1007B8004FF0000070BD41F0FE4141F4780170BD7A
:1007C80070B54FF0FF0C4CF4E06C1CEA11541DBFDF
:1007D8001CEA135594EA0C0F95EA0C0F00F0A7F8E1
:1007E800A4EB050481EA030E52EA03354FEA01310E
:1007F80000F088804FEA03334FF0805545EA131321
:1008080043EA12634FEA022245EA111545EA1065E8
:100818004FEA00260EF000419D4208BF964244F17F
:10082800FD0404F5407402D25B084FEA3202B61A9E
:1008380065EB03055B084FEA32024FF480104FF472
:10084800002CB6EB020E75EB030E22BFB61A7546E6
:1008580040EA0C005B084FEA3202B6EB020E75EB79
:10086800030E22BFB61A754640EA5C005B084FEAE1
:100878003202B6EB020E75EB030E22BFB61A7546AE
:1008880040EA9C005B084FEA3202B6EB020E75EBB9
:10089800030E22BFB61A754640EADC0055EA060E7A
:1008A80018D04FEA051545EA16754FEA06164FEABD
:1008B800C30343EA52734FEAC2025FEA1C1CC0D169
:1008C80011F4801F0BD141EA00014FF000004FF0F6
:1008D800004CB6E711F4801F04BF01430020B4F1B7
:1008E800FD0C88BFBCF5E06F3FF6AFAEB5EB030C6F
:1008F80004BFB6EB020C5FEA500C50F1000041EB6C
:10090800045170BD0EF0004E4EEA113114EB5C0438
:10091800C2BFD4EB0C0541EA045170BD41F480110B
:100928004FF0000E013C90E645EA060E8DE60CEA13
:10093800135594EA0C0F08BF95EA0C0F3FF43BAF30
:1009480094EA0C0F0AD150EA01347FF434AF95EAE7
:100958000C0F7FF425AF104619462CE795EA0C0FCB
:1009680006D152EA03353FF4FDAE1046194622E798
:1009780050EA410618BF52EA43067FF4C5AE50EA72
:1009880041047FF40DAF52EA43057FF4EBAE12E762
:100998004A0011D212F5001211D20DD56FF47873F6
:1009A800B3EB62520ED44FEAC12343F0004343EA4B
:1009B800505323FA02F070474FF00000704750EA96
:1009C800013002D14FF0FF3070474FF00000704700
:1009D80053B94AB9002908BF00281CBF4FF0FF319E
:1009E8004FF0FF3000F00CB8ADF1080C6DE904CE03
:1009F80014F066FEDDF804E0DDE9022304B0704778
:100A0800704700BF0348044B834202D0034B03B135
:100A18001847704778030020780300200000000082
:100A28000548064B1B1AD90F01EBA301491002D048
:100A3800034B03B118477047780300207803002060
:100A48000000000010B5064C237843B9FFF7DAFF21
:100A5800044B13B10448AFF300800123237010BD89
:100A680078030020000000009059010808B5054BE4
:100A78001BB105490548AFF30080BDE80840FFF702
:100A8800CFBF00BF000000007C0300209059010880
:100A98000022427082700122C270B1FA81F10222F2
:100AA80049090271032201704271704743788B42F1
:100AB8001FD0012941700AD0022910D0C1B90123E1
:100AC800C370817002230371032343717047037855
:100AD80043B1012383700223C3700023F3E7037833
:100AE800002BF6D0022383700023C3700123EAE7AA
:100AF800FEE7704782B00B88ADF800304B88ADF840
:100B080002308B88ADF80430CB88ADF80630023956
:100B1800431C053013F8012F0DF1080C0CEB4202B1
:100B2800834232F8082C21F8022FF3D102B0704723
:100B380010B50C461146FFF7B9FF2146BDE8104035
:100B4800FFF7D8BF0B4B10B54FF07F32C0E9232316
:100B58004FF47F43A0F89430FF23044680F8963082
:100B6800983000F088FC002384F8A43084F8A8307A
:100B780010BD00BFFFFF7F0013B504461146CDE945
:100B8800002300F09EFC009904F1140000F099FC89
:100B9800009904F1280000F094FC009904F13C004D
:100BA80000F08FFC009904F1500000F08AFC0099D5
:100BB80004F1640000F085FC009904F1780000F06D
:100BC80080FC019A4FF4FA734FF4FA6104F198002B
:100BD80000F03CFC2046FFF7B5FF002384F8A53061
:100BE8004FF47F43A4F8A63002B010BD022380F86A
:100BF800A8307047704700F06BBC143000F068BC38
:100C080008B5503000F06EFC292200F11403B3FB44
:100C1800F2F313F0FF0302D1031E18BF0123184695
:100C280008BD08B5643000F05DFC292200F114030A
:100C3800B3FBF2F313F0FF0302D1031E18BF012325
:100C4800184608BD90F8903013B990F98C00704799
:100C580090F98D00704790F8903013B990F98E0094
:100C6800704790F98F00704710B504460EF08CF865
:100C780050B194F8A83043B904F13C0000F02CFCC2
:100C8800012838BF0120C0B210BD6420FCE790F8ED
:100C9800A83013B990F893007047642070477830F3
:100CA80000F022BC783000F027BC10B5044600F0F4
:100CB800E9FB04F1140000F0E5FB04F1280000F062
:100CC800E1FB04F13C0000F0DDFB04F1500000F012
:100CD800E5FB04F1640000F0E1FB04F1780000F0AA
:100CE800E3FB94F8A83013B1013B84F8A83010BD99
:100CF8007F2807D0002807DA10F1800F06D040427D
:100D0800C0B2704700207047012070477F207047AD
:100D180010B1404240B270477F2070477F280FD003
:100D280010F1310F0EDA10F1780F0DDB7830FE2359
:100D380040B2584323304623B0FBF3F0C0B27047AB
:100D4800FF207047FE20704700207047012805DD0E
:100D580040F2FE73984203DC80B27047012070476E
:100D680040F2FF707047A0F57870C0EBC02040F2E9
:100D7800AE7390FBF3F000F58060FFF7E7BFFFF775
:100D8800F2BF032812DD0C2812DD0F2812DD12280D
:100D980012DD162812DD192812DD1C2812DD1F2885
:100DA80012DD2128CCBFFF200620704700207047A5
:100DB80001207047022070470820704703207047C1
:100DC80007207047042070470520704705289ABF00
:100DD800014B185CFF207047045A010805289ABF88
:100DE800014B185CFF2070470A5A01087F2803D07E
:100DF800002803DAC0B2704700207047FF20704710
:100E08007F2811D010F1320F10DA884210DD401A15
:100E18006423C1F1FF21584301F57F01CE31313000
:100E280090FBF1F0C0B27047FF2070476420704714
:100E380000207047014B4140585C7047105A010828
:100E48005AB110B4054C0A4411F8013B58408A4283
:100E5800205CF9D15DF8044B70477047105A0108BF
:100E6800392808D822280ED9094B2338C0B2C340E4
:100E780003F0010070475F2807D0613819288CBF3C
:100E8800002001207047002070470120704700BFF4
:100E980001EC7F00F8B50246451E461D00245F2779
:100EA80015F8010FFF2804BF0134E4B2FFF7D8FF9B
:100EB80000B92F70AE42F3D1062C04D119B10B68DA
:100EC80013608B88938000239371F8BD2DE9F84354
:100ED800DFF83490471E441D012500264FF02808EE
:100EE80017F8011F084814F0D6FA034610B1A0EB12
:100EF8000903DBB2A3FB05329E19A742A5FB0853E1
:100F0800EED13046BDE8F883105B010810B5417991
:100F1800A1F13000C3B2092B07D80523B0FBF3F3C6
:100F280003EB8303C01AC0B210BD044C204614F072
:100F3800B2FA0028F1D0001BC0B2EEE7105B01083E
:100F4800F0B5094B094F821D2826B1FBF3F4272C75
:100F580094BF3D5D302502F8015D824203FB141108
:100F6800B3FBF6F3F1D1F0BD00801A06105B01085F
:100F780070B50446FFF736F902B20023551E18B2C1
:100F8800A84204FA83F104DA265C302E03F1010347
:100F9800F5D0121A01322046BDE8704014F0E2BACA
:100FA8002DE9F047432B28BF432396B00C4615463E
:100FB80000211A469846074614F0EEFA002141220D
:100FC80005A8049114F0E8FADFF87C90DFF87CA01B
:100FD80004EB4505AC4210D104A8FFF703F928B18A
:100FE80000F158036B44002203F8492C04A9384641
:100FF80014F03AFA16B0BDE8F08734F9020B47F658
:10100800FF739842E8D0002812DC5146684614F075
:101018002BFA04A8FFF7E6F806466846FFF7E2F859
:101028000644B045D6D3694604A814F025FAD1E79A
:10103800694680B20FF0DFFC6846FFF799FF494622
:10104800684614F019FAE4E7FF590108FA5901084B
:10105800F0B589B06D4600242F468E1CE1B28A4255
:1010680004D83946FFF79CFF09B0F0BD36F82410C4
:1010780025F8021B0134F1E742F210736421B0FB3A
:10108800F3F203FB1200B0FBF1F301FB130000EBDA
:10109800023000EB831080B27047020B00F03F0370
:1010A80042F2107101FB0233C0F38510642202FB87
:1010B800003070472DE9F04142F2107388B0B1FB5F
:1010C800F3F603FB16141F49DFF87C80054614F07D
:1010D800CBF96946F0B20FF06BFC6846FFF748FFA2
:1010E8006946284614F0C8F94146284614F0C4F960
:1010F80064276946B4FBF7F6F0B20FF059FC68466E
:10110800FFF736FF6946284614F0B6F907FB164480
:101118004146284614F0B0F96946E0B20FF048FCA1
:101128009DF801308DF800309DF802308DF80130BF
:101138006946002328468DF8023014F09DF908B05E
:10114800BDE8F081FA740108A76901082DE9F04F9C
:101158004FF0000A8BB0074654465646D0465546CF
:10116800D146D3465FFA8AF238460192FFF73AF839
:10117800019A013090420AD8642303FB05F042F239
:10118800107303FB090040440BB0BDE8F08F052C39
:1011980014D8012303FA04F111F02A0011D111F037
:1011A800150F0BD0BA5CA2F13001092906D81C44EE
:1011B8008DF808208DF80900E4B21E460AF1010AEC
:1011C800D0E7B95CA1F13002092A0DD806F128034D
:1011D800721C0DEB03060AAB06F8201C53FA82F1C9
:1011E800D6B201F820BCE9E7032C0AD0052C0DD0B3
:1011F800012C03D102A814F0ABF981460134E4B202
:10120800DCE702A814F0A4F90546F7E702A814F0F1
:101218009FF98046F2E770B50E4600210546144650
:1012280014F0BAF900239AB2944200D870BDF25C67
:10123800002AFBD0EA540133F5E770B50E46144690
:1012480000210132054614F0A7F900239AB294420E
:1012580000D870BDF25C002AFBD0EA540133F5E7F0
:1012680030B50024A3B2934201D3012005E0055D07
:101278000B5D1DB9B3FA83F0400930BD1BB19D4227
:1012880004F10104EED00020F7E77D23438043F208
:10129800390309B2C360002301808180C3800372CF
:1012A8007047000002680449044B01FB023323F035
:1012B80000430360180C7047FD430300C39E2600DB
:1012C800F0B5002597B0016085800446562229466E
:1012D800684614F061F90126627CAA4209D8002305
:1012E800802104F1B400237417B0BDE8F04014F075
:1012F80053B92046FFF7D6FFE7797B1B002190FB07
:10130800F3F202FB1300C0B2EC460A46CBB29F428E
:101318001DD80023227B9A42DED0A279033A012A03
:1013280004EB050105D925B191F91120D2B9012B9A
:10133800D2D98B74A26852F82310583304EB850273
:101348006B440135516303F8586CEDB2C4E71CF8DF
:1013580001EBBEF1000F03D18242DBD00132D2B2E1
:101368000131D3E7501E8342E3DB01329342E0DCD4
:10137800B2E72DE9F047154696B0013D01600271CC
:1013880004464371EDB256220021684614F004F970
:101398000027022D84BF4FF0010900253E464FF07B
:1013A800010A94F807809CBF4FF00309B8FBF9F8CD
:1013B800627CB24209D80023802104F1B40023746E
:1013C80016B0BDE8F04714F0E7B82046FFF76AFF0B
:1013D800A8EB0603002190FBF3F202FB1300C0B256
:1013E800EC460A46CBB2984506D91CF801EBBEF18B
:1013F800000F22D182421ED1434528BF4346227B9B
:1014080003FB095101F0FF018A42D1D016B1B7B9E7
:10141800012BCDD9A2191F469174A26852F8211048
:1014280004EB86020136516303F158026A44F6B2AE
:1014380002F858ACBCE70132D2B20131D2E77A1EC9
:101448009342E7DB7A1C9342E4DCB1E707EE902A8B
:101458000A44F8EE676A07EE902AF8EE677A436066
:1014680086EEA77A07EE903AF8EEE77A80ED007AF2
:10147800C0ED027A7047D0ED017AF8EEE77AC0ED58
:10148800027A7047D0E901236421D31AC3608260CD
:101498004B43418AB3FBF1F303747047D0E901234E
:1014A800D31AC0E90223704743682BB1C26864218C
:1014B8004A43B2FBF3F2D3B203740023C360436020
:1014C80070470023C0E902334182436003747047C8
:1014D8004368013343607047007C70474368194490
:1014E80041607047C068704711B1C3680133C36079
:1014F8004368013343607047007C7047072800D970
:10150800FEE7014B185C7047645B01080023038009
:10151800837080F82930704703781BB1002202706D
:1015280018467047437813B100224270F8E7837871
:1015380013B100228270F3E790F82930002BEFD026
:10154800002280F82920EBE701707047017070478E
:1015580041707047817070478170426070470B46D8
:10156800837011460830202213F0DFBF40687047AF
:101578000830704780F8291070470000C0F17F00DC
:1015880080B27F2821D8C1F13F0189B23F291CD8F8
:101598004FEAD10C0D4B00EBCC1080B24FF0010C90
:1015A800A3F81EC0034401F0070112F0010F0CFA62
:1015B80001FC93F8202004D04CEA020C83F820C0E8
:1015C800704722EA0C0283F8202070479803002015
:1015D8007F281ED83F291CD84FEAD10C0D4B00EBB1
:1015E800CC1080B24FF0010CA3F81EC0034401F0E8
:1015F800070112F0010F0CFA01FC93F8202004D027
:101608004CEA020C83F820C0704722EA0C0283F8E7
:1016180020207047980300207F2921D8C0F13F007F
:1016280080B23F281CD84FEAD00C0E4B01EBCC11EE
:1016380089B24FF0010CA3F81EC00B4400F007005C
:1016480012F0010F0CFA00FC93F8202004D04CEAA9
:10165800020C83F820C0704722EA0C0283F820208D
:10166800704700BF98030020C1F17F0189B27F292C
:101678001ED83F281CD84FEAD00C0E4B01EBCC11DA
:1016880089B24FF0010CA3F81EC00B4400F007000C
:1016980012F0010F0CFA00FC93F8202004D04CEA59
:1016A800020C83F820C0704722EA0C0283F820203D
:1016B800704700BF9803002030B5124CE38B83B00D
:1016C8001BB125881DB10023E38303B030BD0E4B49
:1016D80093E8030003220090ADF8041028466946F9
:1016E80003F03AF803220DEB0201284603F034F820
:1016F8004FF4806204F12001402003F043F80028F1
:10170800E1D0E2E798030020A859010808B503F0E2
:101718004BF8023818BF012008BD00BF104BD88015
:1017280003281AD8DFE800F0191102170D4A9A6049
:101738004FF0400C8020002158804FF480620A4806
:10174800A3F804C0D98313F027BF084A9A604FF062
:10175800800C4020EFE7064AF8E7064AE7E700BFB3
:101768009803002085150008B803002071160008AA
:1017780021160008D9150008054B4FF0010C4FF44D
:101788008062002103F12000A3F81EC013F004BFFB
:1017980098030020024B89B29B6880B2184700BFAB
:1017A800980300202DE9F04F85B01F460192BDF93E
:1017B8003830BDF83C90FA1D48BF07F10E02D21030
:1017C800002B8046029232DD002F30DD0B441BB225
:1017D8000393DFF860B0002300931D468EB2DDE965
:1017E8000012002302EB010A13F0070F9CB24FEA24
:1017F800E3034FEA45050CBF1AF80350EDB204EBBA
:10180800080015F0800F4A46314680B202D0DBF856
:1018180008309847013423B29F42E5D1009B029AD1
:10182800134401360093039B31B29942D6D105B0D7
:10183800BDE8F08F98030020002A2DE9F8431F46E1
:1018480012DB0FD084B22244DFF848808DB296B202
:1018580020460134D8F808303A462946A4B29847B9
:10186800A642F5D1BDE8F883DFF8288084B2564255
:101878001FFA81F9002085B2601B80B2D8F80830C1
:101888003A4649469847681C00B2B042F3DBBDE8C7
:10189800F88300BF98030020002A2DE9F8431F466B
:1018A80012DB0FD08CB22244DFF8488085B296B2A2
:1018B80021460134D8F808303A462846A4B2984759
:1018C800A642F5D1BDE8F883DFF828808CB25642ED
:1018D8001FFA80F900218DB2611B89B2D8F808304F
:1018E8003A4648469847691C09B2B142F3DBBDE85D
:1018F800F88300BF980300202DE9F04F1F1E83B026
:10190800B4BF07F1010807F1FF38002ABDF830A07D
:1019180000901FFA88F848DB96B206F1FF339BB2B5
:10192800019300F09780BDF800904B4D4E448CB267
:10193800B6B2CB4658460BF1010BAB68524621466E
:101948001FFA8BFB98475E45F4D1A0441FFA88F82C
:10195800484609F10109AB68524641461FFA89F920
:1019680098474E45F4D1002F4EDB1BD02744BDF8D5
:101978000080394DBFB2264631460136AB68524623
:101988004046B6B29847B742F6D1019B98441FFA31
:1019980088F821460134AB6852464046A4B29847BD
:1019A800A742F6D103B0BDE8F08F531C9BB22A4D75
:1019B800BDF8009001938CB256424FF0000B1FFA0D
:1019C8008BFBA9EB0B000BF1010BAB6880B2524605
:1019D80021460FFA8BFB98475E45F0DCA0441FFABE
:1019E80088F84FF0000B1FFA8BFBA9EB0B000BF1EB
:1019F800010BAB6880B2524641460FFA8BFB984701
:101A08005E45F0DC002FB0DABDF80090124D7F4241
:101A180000239EB2A11BAB68524689B2484698473C
:101A2800731C1BB2BB42F4DB019B99441FFA89F972
:101A380000231FFA83F8A4EB0801AE68524689B266
:101A48004846B04708F101031BB2BB42F1DB03B0C3
:101A5800BDE8F08F8CB286E7980300202DE9F04F9F
:101A6800002B83B00B44BDF83060019391463ADBFC
:101A780099421CDA87B207EB02081FFA88F8B9F115
:101A8800000F17DB6FD0424D1FFA81FB3C46204602
:101A98000134AB6832465946A4B29847A045F6D1FE
:101AA800019B0BF1010B0FFA8BF19942E7DB03B0B5
:101AB800BDE8F08F364DC9F1000A1FFA81FB0024FA
:101AC800A4B2381B0134AB683246594680B224B2FE
:101AD80098475445F4DB019B0BF1010B0FFA8BF18E
:101AE8009942CCDBE3E79942E1DD84B2A718B9F16A
:101AF800000FBFB219DB40D0254D1FFA81FBA0466D
:101B0800404608F10108AB68324659461FFA88F882
:101B180098474745F4D1019B0BF1FF3B0FFA8BF136
:101B28008B42C4DAB9F1000FE5DA194DC9F10008A2
:101B38001FFA81FB4FF0000A1FFA8AFAA4EB0A0089
:101B48000AF1010AAB683246594680B20FFA8AFA9E
:101B58009847C245F0DB019B0BF1FF3B0FFA8BF175
:101B68008B42DFDBA3E71FFA81FB019B0BF1010B23
:101B78000FFA8BF1994282DB99E71FFA81FB019BEF
:101B88000BF1FF3B0FFA8BF18B42CBDB8FE700BFEA
:101B980098030020014B01229A8370479803002084
:101BA800014B00229A83704798030020014B9861EB
:101BB800704700BF98030020014B00229A617047CC
:101BC80098030020014B01229A8270479803002055
:101BD800014B00229A82704798030020014B98819C
:101BE800704700BF98030020014BD881704700BFA1
:101BF80098030020014B9881D981704798030020F1
:101C0800024B9A8910449881704700BF98030020BE
:101C18000A282DE9F84F4FD01F283ED9DFF8FCA03D
:101C2800BAF90C50BAF80230AA1D20389A42C0B24C
:101C380035DAADB205F10608BAF80E600FFA88F386
:101C4800AAF80C30BAF81C30A6F106091FFA89F96F
:101C580002361FFA88F8002B38D02F4F062303FBD3
:101C68000077B6B2013FBAF9143017F801BF1BB1BB
:101C78006FEA0B0B5FFA8BFB4C46214601345A4640
:101C8800DAF808302846A4B29847B4424FEA5B0B0A
:101C9800F3D10135ADB24545E5D1BDE8F88FBAF8C5
:101CA8000E60BAF81020164408360623B6B2AAF811
:101CB8000E6000259846C3E7184AD389118A0B4459
:101CC800002008339081D381BDE8F88F124F062396
:101CD80003FB00771FFA86FB013FBAF9143017F8A7
:101CE800016F0BB1F643F6B24C4616F0010F2146D0
:101CF8004FEA56064FF00102284602D0DAF80830BB
:101D080098470134A4B25C45EFD10135ADB24545E1
:101D1800E3D1BDE8F88F00BF6C5B01089803002091
:101D28002DE9F04FDFF880A1DAF818300A28997AFF
:101D380087B07DD01A7A904277D35C7A844274D384
:101D4800D3E90038871A08EBC702BAF8120092F9EB
:101D58000560BAF90C40029313799578BAF802C075
:101D68000344A0192844ADB204956045D57892F98A
:101D7800062003929BB269DCA4B21A1992B2AAF89F
:101D88000C20BAF91420BAF90E90002A70D1BAF8CA
:101D98001C1001297DD0B2FA82FB38F837804FEA4F
:101DA8005B1B002D41D0049F002F3ED0BDF80C30A6
:101DB8001FFA89F91D4434444B44A944A2B29EB287
:101DC8001FFA89F3039205930025049BFC1A039BD1
:101DD800A4B203F1FF39234613F0070F08BF029D91
:101DE80004F1010404BF15F8085008F10103A4B276
:101DF80004EB090008BF1FFA83F82B065A46314640
:101E080080B202D5DAF8083098476D00BC42ADB20E
:101E1800E1D1049B039A1F44D31A9BB20136039362
:101E2800059BB6B2B342BFB2CFD107B0BDE8F08FC1
:101E3800BAF80E30BAF81000034400220B44AAF88E
:101E48000C20AAF80E3007B0BDE8F08FBAF80E20C3
:101E5800BAF81000024411441A46AAF80C20BAF93C
:101E680014200FFA81F9AAF80E900024002A8ED0C7
:101E780002331AB2039B701E591E494420440123A1
:101E880009B200B20093AB1CFFF7E8FDBAF91420C1
:101E980081E7023300921AB2039B701E591E49440F
:101EA800204409B200B2EEE798030020034B9B6977
:101EB8000BB1FFF735BFFFF7ABBE00BF980300209B
:101EC80038B50446007878B1084D04E0FFF728FFDC
:101ED80014F8010F40B1AB69002BF7D1FFF798FE5A
:101EE80014F8010F0028F6D138BD00BF9803002070
:101EF800F8B5204EB5690446002D31D00378297A0B
:101F080095F809E0002B32D0778A00229942A3EB9A
:101F1800010C09D89E4507D36B6803EBCC033A4400
:101F28001B7913FA82F292B210F8013F002BEDD11F
:101F380073889B1A03EBD3735B10B381207870B15D
:101F48003DB1FFF7EDFE14F8010F40B1B569002D62
:101F5800F7D1FFF75DFE14F8010F0028F6D1F8BDA0
:101F6800FEF740F900EB4002520092B2E0E71A4651
:101F7800DEE700BF9803002070B52E4C82B02080A9
:101F8800C8B100212C4A2D4BC4F802204FF4C020C0
:101F9800C4E90301A3604FF480624FF4803304F175
:101FA8002000E180A161A182E36113F0F5FA00232A
:101FB800E38302B070BD05463C2002F0C7FB204910
:101FC8002022284602F0C8FB1B4A1C4B2688C4F86E
:101FD80002204FF4C022C4E90325A36029464FF428
:101FE80080334FF4806204F12000E580A561A5826A
:101FF800E36113F0D1FA002ED9D1124B93E8030014
:1020080003220090ADF804103046694602F0A4FBA4
:1020180003220DEB0201304602F09EFB4FF4806272
:1020280004F12001402002F0ADFB0028BFD002B02F
:1020380070BD00BF9803002080004000D91500083B
:10204800AC5D0108A859010880EAE073022910B5BF
:10205800A3EBE07304467DD162B90028ACBF7F22B0
:102068003F229342A8BF1346002C184601DA43F0DA
:10207800400010BD012A1FD1632B05DC5800002C3D
:10208800F7DA40F48070F4E740F2F542934211DC4D
:1020980007EE903A9FED6A0AF8EEE77A27EE800A93
:1020A80012F074F8FCEEC07A17EE900A400040F087
:1020B8000100E4E7FF20E2E7022A40F0BF80632B3B
:1020C80005DC9800002CD4DA40F40070D1E7B3F5B1
:1020D8007A7F11DA07EE903A9FED590AF8EEE77A1F
:1020E80027EE800A12F052F8FCEEC07A17EE900A3A
:1020F800800040F00100E5E742F20F72934211D8E8
:1021080007EE903A9FED4F0AF8EEE77A27EE800A3D
:1021180012F03CF8FCEEC07A17EE900A800040F00E
:102128000200CFE7484A934211D807EE903A9FED54
:10213800470AF8EEE77A27EE800A12F027F8FCEE55
:10214800C07A17EE900A830043F00300BAE740F222
:10215800FF10B7E7032971D1012A20D1B3F57A7F9F
:1021680005DA5800002C84DA40F4006081E7B3F502
:10217800205F11DA07EE903A9FED310AF8EEE77A20
:1021880027EE800A12F002F8FCEEC07A17EE900AE9
:10219800430043F00100E5E740F2FF70E2E7022A5E
:1021A8004CD1B3F57A7F06DA9800002CBFF661AF00
:1021B80040F480505DE742F20F72934211DC07EE63
:1021C800903A9FED1F0AF8EEE77A27EE800A11F0A1
:1021D800DDFFFCEEC07A17EE900A830043F00100A1
:1021E800E3E71B4A934211D807EE903A9FED150A90
:1021F800F8EEE77A27EE800A11F0C8FFFCEEC07A05
:1022080017EE900A830043F00200CEE7B3F57A2F69
:1022180011D207EE903A9FED0D0AF8EEE77A27EE15
:10222800800A11F0B3FFFCEEC07A17EE900A830023
:1022380043F00300B9E740F6FF70B6E7002018E75F
:10224800CDCCCC3D0AD7233C17F001006F12833A5E
:102258009F86010000234360038170470A2310B55D
:102268000446838002F0EAFA2368E0809B682046EF
:102278009847208110BD038970B504469BB18588B5
:1022880045B1013DADB285806DB903681B68BDE8F5
:102298007040184702F0D2FAE388C01A238980B246
:1022A800834201D2258170BD236820465B68EEE732
:1022B800002303607047000038B5084B09291B78D4
:1022C80028BF09218B4204460D4602D10023036032
:1022D80038BD02F0A7FA25712060F9E7B807002099
:1022E800036810B504460BB9002010BD02F09AFA35
:1022F8002368C01A40F2EE239842F5D90023054A14
:102308002360127823799A42EED0034A0120D377CA
:10231800EBE700BFB807002014080020FF23437133
:1023280000230171837103818372704738B5037983
:1023380004460D465BB14179A94208D041B1012953
:102348000AD00023A371657155B1012D0FD038BD96
:1023580003689B689847F4E703680021DB68F9E79E
:1023680023689B68012120469847A071EFE72368FE
:102378002946DB68F7E770477047704700207047C9
:1023880000207047002070477047002070470020E9
:1023980070470000054BDA6C0243DA64DB6C82B0EC
:1023A80003400193019B02B0704700BF0010024038
:1023B800054B9A6D02439A659B6D82B00340019369
:1023C800019B02B0704700BF00100240054B1A6E17
:1023D80002431A661B6E82B003400193019B02B050
:1023E800704700BF0010024050E8003F43F0200350
:1023F80040E80032002AF7D1704750E8003F43F028
:10240800800340E80032002AF7D1704750E8003FC7
:1024180023F0200340E80032002AF7D1704750E843
:10242800003F23F0400340E80032002AF7D170470C
:1024380050E8003F23F0800340E80032002AF7D13B
:10244800704770470288044B5140C9B233F81130C5
:1024580083EA12230380704778A50108A2B110B45B
:10246800B0F800C0094C0A4411F8013B83EA0C0398
:10247800DBB2914234F8133083EA1C2CA0F800C078
:10248800F2D15DF8044B7047704700BF78A501088A
:1024980037B54FF6FF730446ADF806304518AC4221
:1024A80003D1BDF8060003B030BD14F8011B0DF1CF
:1024B8000600FFF7C7FFF2E71629A8BF16216FF03D
:1024C80008008142B8BF01461170197070470000BA
:1024D800044B1888044B1B8880B29BB2C01A18BFE3
:1024E80001207047F6430020F4430020044A0023EB
:1024F8001380044A1380044A1380044A13807047E7
:10250800F4430020F6430020F8450020FA45002057
:1025180000207047044B1888044B1B8880B29BB27C
:10252800C01A18BF01207047FE470020FC47002052
:10253800044B1888044B1B8880B29BB2C01A18BF82
:10254800012070470658002004580020044A002340
:102558001380044A1380044A1380044A1380704786
:102568000458002006580020085A00200A5A002063
:10257800002070470023A0F87032A0F86E32704730
:102588000023A0F85C32A0F85A3270470020704748
:102598000020704700207047002070470278024BE7
:1025A80051405B5C0370704794800108FF230370FF
:1025B800704700BF7047B0F86E32B0F870229B1AAF
:1025C80098B21B0444BF00F5006080B2003818BF01
:1025D80001207047A0F11400EDE7B0F87032B0F8B0
:1025E8006E229A421FBFC218B0F8721292F8742273
:1025F800013316BF0B400022A0F870321046704716
:10260800A0F11400E9E770B50B7803704B784370BC
:102618000B78FD2B05460C4638D18B788370CB7828
:10262800C3700B7903714B7943718B7983718B6814
:10263800C3718B68C3F30F2303728B7A43720A2624
:10264800627804F10C01A81912F03CFF6378B4F821
:102658000C213344981CEA545A1CB4F80C1192B259
:10266800090AA954A278D20780B20ED504F5887257
:10267800054404F58E7452F8041B45F8041BA24265
:10268800F9D112782A700F3398B270BD00238B707D
:102698000B7983704B79C3708B7903718B684371A5
:1026A8000626CDE738B54A78352A0D46044601F1A5
:1026B8000C010AD812F006FF68780021C0F1360232
:1026C8002044BDE8384012F067BF403551F8043B5C
:1026D80040F8043BA942F9D10B88038038BD38B5CE
:1026E8004A781B2A0C46054601F10C010AD812F05B
:1026F800E9FE60780021C0F11C022844BDE838409A
:1027080012F04ABF283451F8043B45F8043BA14273
:10271800F9D138BD38B54A78082A0D46044601F182
:102728000C010AD812F0CEFE68780021C0F1090227
:102738002044BDE8384012F02FBFEB6803604B68B7
:1027480043600B7A037238BD38B54A78072A0C46BD
:10275800054601F10C010AD812F0B4FE6078002198
:10276800C0F108022844BDE8384012F015BFE368FC
:1027780003604B68436038BD38B54A783B2A0C463D
:10278800054601F10C010AD812F09CFE6078002180
:10279800C0F13C022844BDE8384012F0FDBE483480
:1027A80051F8043B45F8043BA142F9D138BD00007B
:1027B80008B52C220348002112F0EEFE024B00223D
:1027C8001A7008BD90130020980A00202DE9F041E6
:1027D8001378037092F8018080F80180FD2B04467D
:1027E8000F46154654D193788370D378C370137904
:1027F800037153794371937983716B7A127A1B044D
:1028080003EB0223EA79134423F07F430A26A268E4
:1028180063F31702A260A919424604F10C0012F0F2
:1028280051FE7A7B904507D208F10C00A2EB080212
:102838000021204412F0B0FE63781E44AB195A7888
:10284800AB5D03EB0223A4F80C31A378DB070ED5AC
:10285800023615FA86F304F5887203F10C0153F871
:10286800040B42F8040B8B42F9D11B781370BB7A26
:1028780084F82131FB7A84F822313B7B84F82331B8
:102888007B7B84F824313B7884F82031BDE8F081E3
:102898000023438093780371D3784371137983714C
:1028A80053790626B3E738B54A78132A0C46054605
:1028B80001F10C010AD812F005FE60780021C0F180
:1028C80014022844BDE8384012F066BE203451F89E
:1028D800043B45F8043BA142F9D138BD044A4109FB
:1028E800012300F01F00834042F82130704700BFE9
:1028F80000E100E02DE9F04F0C465188B1F58C7FDE
:10290800054685B04FF000000ED31070D91CC9B22F
:10291800012995BF01210023518053809CBF23705A
:10292800117000232B7049E016780E2E00F2938068
:1029380001A757F826F000BF152900087D290008CF
:10294800A5290008CD2900085F2A00085F2A000889
:102958005F2A00085F2A00085F2A00085F2A00082B
:102968005F2A00085F2A00085F2A00085F2A00081B
:10297800DF290008481C508063542178FD299BB248
:1029880006D10C330A21D380918002231370C8E743
:1029980008330621D38091800E23F7E7481C508026
:1029A8006354D80742BFD1880D31D180012B4FF035
:1029B80000018CBF0B46032313702970002005B05B
:1029C800BDE8F08F481C5080635400218B4214BF2F
:1029D8000B460E23F0E7481C508063545388D18877
:1029E8008B4232D300235380137002232B706980EB
:1029F8002378FD2B35D163792B72A3796B72637AB7
:102A0800227A1B0403EB0223E27913446B60637898
:102A180003F10C026A80A278D10701D519336B80C3
:102A280000266968DFF8FC806E8140F285120C2070
:102A3800B31801335B0800FB03F758F80770B94275
:102A480018D25A1EB242F3D816E092889A423FF63C
:102A580068AF012366E7107050809080D08028709E
:102A6800ACE7E3782B7223796B7263796B606378D8
:102A78000833D4E71E46E5D80C27774358F80730C3
:102A8800994227D123782046FD2B10F801BF0CBFAF
:102A98004FF00A094FF0060909EB0B03591E89B2DA
:102AA80047440193FFF7F4FC97F804A0ADF80E0033
:102AB80051460DF10E00FFF7C5FC019BE218E35CDF
:102AC800527803EB0223BDF80E209BB29A420AD03B
:102AD800052300E003232B701846023801288CBF19
:102AE800002001206BE7BB79DA0706D5FA79934510
:102AF80082BF04EB09018A5CAA729B0709D50C23E3
:102B080003FB068362781B7A9A4282BF4C44E35CDB
:102B1800EB720C2303FB068385F80CA05B796B73BF
:102B28000220DAE7948101080148436AFFF75CBC98
:102B38000044004008B5FFF7F7FF024B00221A7265
:102B480008BD00BF301E002008B5FFF7EDFF024B9F
:102B580000221A7208BD00BFD00B002010B5044631
:102B6800FEF70AFE06210020FFF744F80C48FFF79D
:102B78001DF82046FDF736FBC0B208284FF01B00B1
:102B880008D8FFF731F82046FFF7B2F9BDE8104042
:102B9800FFF712B8FFF728F82046FFF791F9F5E795
:102BA8009C7701080A4A0B4B12680B49A3FB0232B7
:102BB8003220920C00FB02F2084B486802F5FA72C8
:102BC800A3FB023292094B681B1A9A42FBD8704742
:102BD800FC02002083DE1B43001000E0D34D62108E
:102BE80008B5FFF7DFFF4FF0904308229A6108BD50
:102BF8004FF0904308229A62FFF7D4BF30B587B0F0
:102C0800034601AC00F1100518685968224603C252
:102C18000833AB421446F7D10024094D8DF814400F
:102C2800A96801A8FDF7D4FA10B920B207B030BDE1
:102C380001343A2C05F10C05F2D14FF0FF30F5E7DD
:102C48003000002002780A4B90F801C08178D24306
:102C5800D2B29A5C82EA0C0290F803C09A5C4A40AD
:102C6800995C027981EA0C01595C4A40985C70478A
:102C78009480010800F1080353E8003F23F06063E3
:102C880000F1080141E80032002AF3D1704700F151
:102C9800080353E8003F23F0604300F1080141E8CE
:102CA8000032002AF3D17047028810B58488531C7B
:102CB800234044889C421EBF12189171038010BDA6
:102CC800411A88B20B0444BF00F5007080B2704707
:102CD80070B5104C0025234626782EB166788E42B2
:102CE80002D1A67896420BD001350C2D04F10404CC
:102CF800F2D1002413F824501DB101340C2CF9D161
:102D080070BD012503F8245003EB8403D870597073
:102D18009A70F5E79D0A00202DE9F8430B460D79D6
:102D28005A7A9E7ADF7A204B097A1B5CDB070446C5
:102D380000D50DB9FFF7CCFF00231C491A48984667
:102D48004FF0010E9C4201F8018B25D02DB9027875
:102D5800920702D501F801EC1EE0154A4FF0000C6D
:102D680092F80090B9F1000F0FD092F803909945AE
:102D78000BD1002EEED092F80190B14505D1002F6D
:102D8800E8D092F80290B945E4D00CF1010CBCF1FE
:102D98000C0F02F10402E3D10133DBB2042B00F182
:102DA8000100CFD1BDE8F883CD0A0020990A0020A0
:102DB8009D0A0020F0B50546FD2305F80C3B85B0BB
:102DC80004468DF8043090F8243103F10C020244D3
:102DD800012B42D80026637066808DF805308B7A07
:102DE80023718DF808308B7AADF8066001338B7249
:102DF80063798DF80930A3798DF80A30A368C3F395
:102E080017031A128DF80B3009211B140DF1050058
:102E18008DF80D308DF80C20FFF73AFB6778ADF888
:102E280002003A4629460DF10200FFF717FB94F815
:102E38002311FFF707FB94F82421BDF80230A4F80A
:102E48000C31974210D207F10C00D21B31462044B6
:102E580005B0BDE8F04012F09FBB12F8010D002844
:102E6800B8D1013BDBB2B3E705B0F0BD704770479E
:102E780007B503688DF807101B6901220DF10701DA
:102E8800984703B05DF804FB13B504460846019162
:102E9800FDF7A8F9236801991B6982B2204602B0A0
:102EA800BDE810401847000010B5524B5A6A037A23
:102EB800044692B263B18389D31A9BB2B3F5FA7F01
:102EC80084BF00230372837A4F2B84BF00230372CD
:102ED800237AA281082B34D8DFE803F00533333393
:102EE80033333C45500094F80A345BB9EE2901D0DD
:102EF800C82902D1012384F80A34EC2904BF02232B
:102F080084F80A3494F80A34012B1BD1EE2901D035
:102F1800C8291BD10123B4F80804A37206236175DC
:102F2800237270B1012809D00DF0F2FD0146324834
:102F3800FFF7AAFF31493048FFF7A6FF0023A4F89E
:102F4800083410BD022B01D1EC29E2E7B4F80834AB
:102F58000133F4E7A37A5A1C2344A27259756172AB
:102F680007232372EDE7A27A531C2244DBB2A37233
:102F78005175627A9A42E4D20823F2E7A37A5A1C7E
:102F88002344A2725975E37D162B04D1012384F8DA
:102F980065300923E5E76369194A03F0FF23934283
:102FA80003D1012384F86730F3E7164A93421CD112
:102FB800A37E102B19D1E37E022B08D0052B0DD050
:102FC800012BE6D1227EEE2A08BF84F86A30237EE0
:102FD800EE2BDED1012384F86B30DAE7012384F885
:102FE8006830237F84F86930D3E7012384F866309A
:102FF800CFE700BF000400402C000020CC5D010892
:1030080000C8002800C8003208B5FFF73DFF08BD1A
:10301800B0F1904F08B5014607D10120FFF7BAF982
:10302800114B99420BD1202014E0104B98420BD041
:1030380003F58063984209D10420FFF7ABF90C4BE4
:10304800994210D1402005E00220E7E7094B984259
:1030580004D10820BDE80840FFF79CB9064B984208
:10306800DED11020F6E708BD00140048000400482F
:1030780000180048000C00480010004808B5224B12
:10308800984201460BD14FF40060FFF79FF91F4BA0
:1030980099420DD1BDE808402020FFF789B9B0F169
:1030A800804F0ED01A4B98420FD10220FFF780F9BB
:1030B800184B99420FD14FF40050BDE80840FFF774
:1030C80085B90120FFF774F9E1E7134B984208D15D
:1030D8000420FFF76DF9114B99420CD14FF4803061
:1030E800EBE70F4B9842D2D11020FFF761F90D4B57
:1030F800994206D008BD0C4B9942F8D14FF40030E4
:10310800DBE74FF48020D8E7002C01400014004092
:103118000004004000340140000800400040014025
:10312800001000400048014000440140B0F1A04FA9
:1031380003D14FF40050FFF72DB9054B9842F8D052
:1031480003F54073984202D14FF48040F3E770478B
:10315800000100502DE9F04387B00E46054614469D
:103168000021142201A89DF838809DF83C901F4644
:1031780012F012FA00960B2C07D8DFE804F00707C4
:103188000A121414141616161A1CFEE703230193C8
:1031980001E002230493032F11D8DFE807F011138D
:1031A80021110123F6E70123F1E70123019303939A
:1031B800F1E70223EBE7022301930123F7E7FEE798
:1031C80002230293B8F1100F0CD8DFE808F02D2D78
:1031D8000C11131517191B1D1F21232527292B0037
:1031E8000123EEE7FEE701230593022301931EE086
:1031F8000223F9E70323F7E70423F5E70523F3E7B9
:103208000623F1E70723EFE70823EDE70923EBE7B8
:103218000A23E9E70B23E7E70C23E5E70D23E3E7B8
:103228000E23E1E70F23DFE7B8F1000FDDD1B9F195
:10323800000F02D02846FFF7EBFE053C042C05D80A
:10324800DFE804F0030B04030B00AE62694628466E
:1032580010F0E0F907B0BDE8F083AE61F6E713B50A
:103268004FF0010C0024CDE9004CFFF773FF02B0CA
:1032780010BD13B50124CDE900349DF81030FFF7D7
:1032880069FF02B010BD000070B586B00023164675
:1032980004460D46ADF80630FFF7F0FE042E04D8BC
:1032A800DFE806F0303404384100FEE71F4B204ABF
:1032B8001B68B3FBF2F39BB20022013B01A9204635
:1032C800ADF80430CDE902250492059210F062FCB5
:1032D800236823F080032360A36823F4A03323F03A
:1032E8000703A360636823F0007323F0700363602F
:1032F800636823F470036360A36823F08003A3600A
:1033080006B070BD094B0B4A1B68D2E7074B0A4A47
:103318001B68CEE7054B074A1B68B3FBF2F303EBC8
:1033280083035B00C7E70123C6E700BFFC02002058
:1033380080A8120140420F008096980010B50446FC
:10334800FFF7A2FF236843F00103236010BD0022AA
:103358004FF0FF31FFF7F2BF294B10B5294C5B68DE
:1033680023600EF011F84FF0904010F0F3F8264863
:1033780010F0F0F8254810F0EDF8254810F01EFE82
:10338800244810F01BFE244810F018FE234810F0C3
:1033980015FE234810F012FE224810F08FFB224839
:1033A80010F08CFB10F07CFA4FF0E02200231F494C
:1033B8001361536193618A6822F0030242F00102AB
:1033C8008A6072B64FF0FF319A0002F1604202F54E
:1033D80061420133082BC2F88010C2F88011F3D182
:1033E80062B6134A136823F0070343F0010313601E
:1033F800034B1B6883F3088823689847FEE700BFE0
:103408000000FF1F940A002000040048000800483C
:10341800003801400044004000480040004C004093
:103428000050004000300140003C004000100240C5
:103438000000014030B500248FB00546182221460F
:1034480008A8CDE90144039412F0A6F801A928467A
:1034580010F03EF84FF44033B5F1A04FCDE90544E4
:103468000794049319D00E4A0E480F4B954208BF93
:10347800184604A90FF0FEFF00234FF40052CDE9CF
:103488000833CDE90B230A9308A94FF48053284643
:103498000D9310F033F80FB030BD0348E9E700BFD3
:1034A800000100500007005000030050F0B404462B
:1034B8008D0904F1300705F00C0501F01F011846CD
:1034C8001F267B598E4023EA0603C2F3846606FA58
:1034D80001F10B43D10D7B5101F0040104F11405F6
:1034E800C2F304576E580723BB4033436B50D4F8DC
:1034F800B0300499C2F3120223EA0203C4F8B030D0
:103508000122F0BC0023FFF7AABE0000054AD2F84A
:10351800883023F0405343F00053C2F88830FFF757
:1035280005BE00BF00100240D0F8C03023F47F531E
:1035380023F03F03C0F8C030036923F480330361EC
:10354800036923F4806323F003030361836823F092
:10355800204323F03F038360836823F0104323F064
:103568003F0343F080538360836823F0004323F0D4
:103578003F0343F001038360704700000749084A8E
:10358800881AEFF30883521A1A44013A013B984209
:1035980088BF0022AA2111F0FFBF00BF00C0012090
:1035A8000004000010B50323062210214FF09040BC
:1035B800FFF755FE0222114603234FF09040FFF714
:1035C8004EFE03231A4604214FF09040FFF747FEB2
:1035D8000648032305222021FFF741FEBDE81040DD
:1035E8000248032305221021FFF739BE00080048CE
:1035F8004FF090431869C0F38000704708B5FFF793
:10360800F7FF00B908BD00BFF9E70000024B102220
:103618009A6220229A61704700080048024B2022D3
:103628009A6210229A617047000800480F4A93680E
:10363800F02123F0F00391FAA1F193600C4B5A6842
:1036480022F002025A601A6822F002021A60DA684E
:1036580022F00202DA609A6842F002029A60054B90
:10366800D02283F807230720FFF738B9000001406C
:103678000004014000E100E0034B02225A611A688D
:1036880042F002021A607047000401400248002319
:1036980003228021FFF7E3BD00040048034B1869AB
:1036A80080F08000C0F3C010704700BF00040048DD
:1036B80010B5002305224FF400414FF09040FFF76A
:1036C800CEFD0848002305224FF48051FFF7C7FDBF
:1036D800BDE810400023052201214FF09040FFF77C
:1036E800BEBD00BF000800484FF090414B691A0466
:1036F800DB4302F0004203F4004313438B6170473D
:1037080005494B691A04DB4302F0805203F48053E5
:1037180013438B61704700BF00080048114B1869BC
:10372800114B1B6C9BB2C72B14D9A3F5E472B2F5ED
:10373800C77F11D9A3F27452B2F5C77F0ED9A3F689
:103748000213B3F5C77F0BD980F40050C0F34030A3
:103758000001704702207047042070470820704716
:1037680001207047000800480001005010B50E48BD
:10377800002306220221FFF772FD0C4800230522D0
:103788004FF48071FFF76BFD0848002303224FF4C4
:103798008041FFF764FDBDE8104004480023032280
:1037A8000821FFF75CBD00BF00040048000800487E
:1037B800044A13691069C3F38033C0F3C00003EBF4
:1037C80040007047000800480C4BD3F8FC2022F05A
:1037D8008072C3F8FC20D3F8FC2042F08072C3F852
:1037E800FC20A3F55D431A6822F001021A601A68EA
:1037F80042F001021A6000225A60704700ED00E0B2
:10380800064A074B51681B6810B5064CB3FBF4F326
:10381800584353685B1A8342FBD310BD001000E085
:10382800FC02002040420F0037B5134D134C002313
:1038380003224FF400512846FFF711FD2046FFF7F9
:1038480065FE2046FFF7F6FD04230D4A0093062186
:103858002B462046FFF72AFE2046FFF765FE642028
:10386800FFF7CEFFA36823F0004323F03F0343F0A4
:103878000403A36003B030BD0008004800010050F5
:10388800000180217FB50123CDE90413002201A99D
:1038980002A8CDE902230EF08DF800280CBF042001
:1038A800052007B05DF804FB014608B500200DF0BF
:1038B800EBFF00280CBF0420052008BD08B5FFF762
:1038C800E1FF031F5842584108BD08B5FFF7ECFF58
:1038D800031F5842584108BD2DE9F3472A4B2B4D89
:1038E800012814462A482B4A0E4617BFAA46FB2130
:1038F800FA211D46019106BF9A46804690460DF072
:103908007DFF01992846FFF7D9FF30B900240DF053
:1039180087FF204602B0BDE8F087002E08BF4FF4AD
:10392800FC64073424F0070405F11007B146344459
:10393800AAEB050AA1450BD14FF011324FF0FF3326
:103948002846FFF7C2FF003818BF01208400DEE7D1
:103958006EB90AEB0703D3E90023B3F1FF3F08BFB1
:10396800B2F1FF3F06D1083709F10809E2E7D9E9C2
:103978000023F2E7B84505D93846FFF7A6FF002827
:10398800F1D1C3E70324C2E700D0070800D807082D
:10399800FFDF0708FFD7070810B50DF02FFF09480C
:1039A800FA21FFF78BFF58B10748FB21FFF786FF85
:1039B800003818BF012084000DF032FF204610BDEA
:1039C8000446F9E700D0070800D8070830B5084DC5
:1039D800002340F2EF749AB2914201D8042030BD1E
:1039E800A34203D05A5DC2540133F4E70320F6E73B
:1039F80010D0070813B50A46044672B6019101466D
:103A08000020FFF769FF62B60428019A05D172B653
:103A180001202146FFF760FF62B602B010BD00002A
:103A280038B5124B1C68D3F80058B4F1113F09D1CE
:103A3800B5F1113F17D0002211460120BDE83840EA
:103A4800FFF74ABFB5F1113F03D1002211461046D6
:103A5800F4E7FFF7A1FF042804D12C4001340CBF80
:103A68000220012038BD0420FCE700BF00D0070871
:103A7800034B18739A68D207FCD5187B704700BFB0
:103A88000030014038B5441E8D18A94200D138BD18
:103A980014F8010FFFF7ECFF01F8010BF5E70846F2
:103AA80011461A46FFF7EEBF38B5064D04460144E5
:103AB800A14200D138BD2878FFF7DAFF04F8010BDE
:103AC800F6E700BFF002002008461146FFF7ECBFFA
:103AD80010B5014404468C4200D110BD14F8010B06
:103AE800FFF7C6FFF7E708461146FFF7F1BF0000EA
:103AF80010B58CB02822002102A811F04DFD4FF41A
:103B08008050FEF763FC0821032306224FF0904003
:103B1800FFF7A5FB4FF090400324082383610A2296
:103B2800009406232021FFF7A4FB009406230A2211
:103B380080214FF09040FFF79CFB2246009406231B
:103B480040214FF09040FFF794FB1822154C089243
:103B58004FF48272002303924FF40072CDE90533CB
:103B6800CDE909330293079207234FF4E06202A9D3
:103B780020460B9304920FF0D3FF636823F01003E1
:103B88006360636823F008036360236843F04003BD
:103B98002360A3689B07FCD5237B034BFF221A7085
:103BA8000CB010BD00300140F00200201C4B10B4D6
:103BB800DC69A00611D51A6891060ED519481A496C
:103BC8005A6A038809880133C3F30A0389B2994200
:103BD8001FBF1649D2B2CA54038011481F232206B8
:103BE800036215D503681B0612D5114B114A1988B3
:103BF800138889B29BB299420DD013880133C3F35D
:103C08000803138013880C4A9BB2D35CDBB283622F
:103C18005DF8044B70475DF8044BFEF709BC00BF24
:103C2800004C0040F6430020F4430020F43B002001
:103C3800FA450020F8450020F84300200A490B4ABD
:103C480008B50B8812880133C3F3080392B29A426D
:103C580007D0074AD05407480B80FEF7CEFB012057
:103C680008BD0020FCE700BFFA450020F845002009
:103C7800F8430020004C004038B504464518AC42D3
:103C880000D138BD14F8010BFFF7D8FFF7E7084655
:103C98001146FFF7F1BF0000054B064A1B88108844
:103CA8000133C3F3080380B2181A18BF0120704704
:103CB800FA450020F845002008B5FFF7EDFFB0FAF7
:103CC80080F0400908BD0000054B064A1B88128891
:103CD8009B1A98B21B0444BF00F5006080B270477D
:103CE800F6430020F4430020FFF7EEBF0848094AD6
:103CF8000188138889B29BB29942F9D0138801339D
:103D0800C3F30A0313801388034A9BB2D05C70473D
:103D1800F6430020F4430020F43B0020FFF7E6BF01
:103D280070B588B00C460646154600212022684624
:103D380011F032FC231E18BF01231B03CDE9023505
:103D480069460C23034801960494059310F086F9FC
:103D580008B070BD004C004010B5064C236823F035
:103D680001032360FFF7DCFF236843F001032360AE
:103D780010BD00BF004C0040002208461146FFF766
:103D8800EBBF000037B5354C236823F0010303254A
:103D980023604FF40020FEF70BFB4FF4806130489E
:103DA800009506230A22FFF764FA06232C4800959B
:103DB8002A464FF40061FFF75CFA002211464FF4DF
:103DC800E130FFF7ADFF636823F490436360A368B5
:103DD80023F02A03A360236823F0005323602046BE
:103DE800FEF755FFFEF746FF1E4BB02283F834233B
:103DF8003420FEF773FD2046FEF71AFBFEF70FFB93
:103E080040232362184B00211980184B1980FEF7B4
:103E1800FDFA174B1980174B1980636823F4006368
:103E28006360A36823F00803A360636823F48043F6
:103E38006360A36823F02203A360A36843F480535C
:103E4800A360236843F001032360E3699A02FCD569
:103E5800E3695B02F9D503B030BD00BF004C0040F8
:103E68000008004800E100E0F8450020FA4500207D
:103E7800F4430020F643002008B5FFF783FF03480A
:103E8800436ABDE80840FEF7AFBA00BF004C0040E7
:103E9800FFF7F2BF1C4B10B4DC69A00611D51A68F5
:103EA80091060ED519481A495A6A038809880133B8
:103EB800C3F3080389B299421FBF1649D2B2CA5444
:103EC800038011481F232206036215D503681B06C9
:103ED80012D5114B114A1988138889B29BB299429D
:103EE8000DD013880133C3F30A03138013880C4AD7
:103EF8009BB2D35CDBB283625DF8044B70475DF81C
:103F0800044BFEF795BA00BF00380140FE47002079
:103F1800FC470020FC4500200250002000500020F3
:103F2800004800200A490B4A08B50B88128801335B
:103F3800C3F30A0392B29A4207D0074AD0540748FB
:103F48000B80FEF75AFA012008BD0020FCE700BFED
:103F58000250002000500020004800200038014096
:103F680038B504464518AC4200D138BD14F8010BE9
:103F7800FFF7D8FFF7E708461146FFF7F1BF000043
:103F8800054B064A1B8810880133C3F30A0380B225
:103F9800181A18BF01207047025000200050002056
:103FA80008B5FFF7EDFFB0FA80F0400908BD000042
:103FB8000848094A0188138889B29BB29942F9D006
:103FC80013880133C3F3080313801388034A9BB291
:103FD800D05C7047FE470020FC470020FC450020CD
:103FE800FFF7E6BF70B588B00C46064615460021B7
:103FF8002022684611F0D0FA231E18BF01231B03A4
:10400800CDE9023569460C230348019604940593CB
:1040180010F024F808B070BD0038014037B5364CB0
:10402800236823F00103032523604FF48040FEF743
:10403800CDF94FF4007108230A224FF09040009503
:10404800FFF717F908232A464FF480614FF0904094
:104058000095FFF70EF9002211464FF4E130FFF703
:10406800C1FF636823F490436360A36823F02A03C5
:10407800A360236823F0005323602046FEF707FE61
:10408800FEF7F8FD1D4BB02283F825232520FEF707
:1040980025FC2046FEF7CCF9FEF7C1F94023236240
:1040A800174B00211980174B1980FEF7AFF9164BF3
:1040B8001980164B1980636823F400636360A36852
:1040C80023F00803A360636823F480436360A36854
:1040D80023F02203A360A36843F48053A3602368FA
:1040E80043F001032360E3699A02FCD5E3695B02AC
:1040F800F9D503B030BD00BF0038014000E100E051
:104108000050002002500020FC470020FE470020FD
:1041180008B5FFF783FF0348436ABDE80840FEF788
:1041280063B900BF00380140FFF7F2BF1C4B10B461
:10413800DC69A00611D51A6891060ED519481A49E6
:104148005A6A038809880133C3F30A0389B299427A
:104158001FBF1649D2B2CA54038011481F23220632
:10416800036215D503681B0612D5114B114A19882D
:10417800138889B29BB299420DD013880133C3F3D7
:104188000803138013880C4A9BB2D35CDBB28362AA
:104198005DF8044B70475DF8044BFEF749B900BF62
:1041A8000048004006580020045800200450002011
:1041B8000A5A0020085A0020085800200A490B4AC9
:1041C80008B50B8812880133C3F3080392B29A42E8
:1041D80007D0074AD05407480B80FEF70EF9012094
:1041E80008BD0020FCE700BF0A5A0020085A00203A
:1041F800085800200048004038B504464518AC422D
:1042080000D138BD14F8010BFFF7D8FFF7E70846CF
:104218001146FFF7F1BF0000054B064A1B881088BE
:104228000133C3F3080380B2181A18BF012070477E
:104238000A5A0020085A002008B5FFF7EDFFB0FA27
:1042480080F0400908BD0000054B064A1B8812880B
:104258009B1A98B21B0444BF00F5006080B27047F7
:104268000658002004580020FFF7EEBF0848094A06
:104278000188138889B29BB29942F9D01388013317
:10428800C3F30A0313801388034A9BB2D05C7047B8
:10429800065800200458002004500020FFF7E6BF0D
:1042A80070B588B00C46064615460021202268469F
:1042B80011F072F9231E18BF01231B03CDE9023543
:1042C80069460C2303480196049405930FF0C6FE33
:1042D80008B070BD0048004010B5064C236823F0B4
:1042E80001032360FFF7DCFF236843F00103236029
:1042F80010BD00BF00480040002208461146FFF7E5
:10430800EBBF000037B5354C236823F001030325C4
:1043180023604FF48020FEF74BF84FF4806130485B
:10432800009508230A22FEF7A4FF08232C480095CD
:104338002A464FF40061FEF79CFF002211464FF415
:10434800E130FFF7ADFF636823F490436360A3682F
:1043580023F02A03A360236823F000532360204638
:10436800FEF795FCFEF786FC1E4BF02283F8272308
:104378002720FEF7B3FA2046FEF75AF8FEF74FF863
:1043880040232362184B00211980184B1980FEF72F
:104398003DF8174B1980174B1980636823F40063A5
:1043A8006360A36823F00803A360636823F4804371
:1043B8006360A36823F02203A360A36843F48053D7
:1043C800A360236843F001032360E3699A02FCD5E4
:1043D800E3695B02F9D503B030BD00BF0048004077
:1043E8000004004800E100E0085A00200A5A0020B2
:1043F800045800200658002008B5FFF783FF03483B
:10440800436ABDE80840FDF7EFBF00BF0048004021
:10441800FFF7F2BF0E48C3691A0618D503681B06D2
:1044280015D50C4B0C4A1988138889B29BB299424E
:104438000BD013880133C3F3080313801388074A8A
:104448009BB2D35CDBB283627047FDF7F1BF704764
:10445800008000400E5C00200C5C00200C5A0020FC
:104468000A490B4A08B50B8812880133C3F30803BD
:1044780092B29A4207D0074AD05407480B80FDF7FA
:10448800BCFF012008BD0020FCE700BF0E5C002037
:104498000C5C00200C5A00200080004038B504460F
:1044A8004518AC4200D138BD14F8010BFFF7D8FF0E
:1044B800F7E708461146FFF7F1BF000070B588B06E
:1044C8000C460646154600211C2201A811F064F886
:1044D800231E18BF01231B03CDE9033501A90C23B3
:1044E80003480296059406930FF02EF908B070BDA4
:1044F800008000401FB52C4C2C48236823F0010392
:1045080023602B4BDA6D42F00102DA65DB6D03F0B4
:1045180001030393039B032300930A220923022127
:10452800FEF7A7FE002211464FF4E130FFF7C6FF61
:10453800236823F0005323602046FEF7A8FBFEF70C
:1045480099FB1C4BF02283F85B235B20FEF7C6F92E
:104558002046FDF76DFFFDF762FF174A40232362EF
:1045680000231380154A1380636823F40063636093
:10457800A36823F00803A360636823F4804363609F
:10458800A36823F02203A360A36843F48053A360C5
:10459800236843F001032360E3699A02FCD5E369C9
:1045A8005B02F9D504B010BD008000400008004847
:1045B8000010024000E100E00C5C00200E5C0020CE
:1045C800FFF798BF70B586B00224064609232E4827
:1045D80000940B224FF40071FEF74BFE03234FF4B7
:1045E800807100940B224FF09040FEF742FE316834
:1045F800264B99420AD103F5CC339A6D42F080429A
:104608009A659B6D03F080430393039B204D214CD7
:10461800002380221020C5E90233C5E90423C5E937
:104628000633C4E90203C4E90423C4E906332B6250
:104638002362164B994225D103F5CC3328469A6C50
:1046480042F004029A649A6C02F004020492049AFA
:104658009A6C42F001029A649B6C0F4A03F00103C2
:104668000593059B1423C5E900230CF075FF0B493E
:10467800F56315232046C4E90013AE620CF06CFF05
:10468800B463A66206B070BD000800480078004018
:10469800BC1300201C140020080002401C0002402B
:1046A80038B51A4C1A4B236001220023C4E90232A0
:1046B8002046184A6260C4E90433C4E90733A36199
:1046C8000DF06CFB014600BB20460EF0EBFA0146EC
:1046D800D8B920460EF00CFBB8B90F4CF02584F879
:1046E8005C535C20FEF7FAF884F85D535D20FEF712
:1046F800F5F884F80C530C20FEF7F0F884F80B5307
:10470800BDE838400B20FEF7E9B838BD7C1400201E
:10471800007800409B2D801000E100E001480DF07A
:1047280094BD00BF7C14002001480EF0AFB800BF54
:104738007C14002001480CF0FEBF00BF1C140020B0
:1047480001480CF0F8BF00BFBC130020014B1870E3
:10475800704700BFD01400201FB5084B1C7800918B
:104768004FF0FF33CDE901230123024604FA03F198
:1047780003480DF065FB04B010BD00BFD014002045
:104788007C14002013B5064B1C780123CDE90012D8
:10479800024604FA03F103480DF02CFC02B010BDE8
:1047A800D01400207C140020044B054819780A22F4
:1047B8004FF0FF3349000DF0ABBC00BFD014002010
:1047C8007C14002008B5FFF76BFF024B00221A701B
:1047D80008BD00BFD0140020024B1A68024B1A60B3
:1047E800704700BF3C5C002058110020054A064B6A
:1047F8001968136899421DBF013301201360002016
:10480800704700BF581100203C5C0020034A04494F
:10481800136809680B441360704700BF3C5C0020B4
:1048280000030020014B1868704700BF3C5C002063
:104838000148FEF78CBD00BF00040040014B586AD8
:1048480080B270470004004008B5FFF7F1FFBDE8EB
:104858000840FFF7C1BF0000044BDA6822F00202EB
:10486800DA606FF002021A61704700BF000400406E
:1048780008B500220260FFF7EFFF044BF02283F82F
:104888001D23BDE808401D20FEF728B800E100E020
:1048980008B5036853B1FFF7DFFF054B5A6A1144A7
:1048A80089B25963DA6842F00202DA6008BD00BFD3
:1048B80000040040074B1A69920709D56FF00202FD
:1048C8001A61DA6822F00202DA60034B1B681847A3
:1048D800704700BF00040040E839002038B51C4C80
:1048E800C0220021201D10F057FE162306226380E7
:1048F8000F23A0181749A38043232280FCF7A8FBA5
:10490800154B14490B22C4E913233F230225A4F8AD
:1049180054300622432304F15600A4F84A50FCF709
:1049280097FB4FF48033C4F89C300C49A4F89A5094
:10493800002304F1AC00C4E9293384F8A03010F056
:1049480093FD7F2384F8C130052384F8C23038BD35
:10495800D0090020787701080700FFFF1F5E0108D3
:1049680070B5094E05460C46415C304610F093FD83
:10497800034628B1831B0133DBB2282B28BF002351
:10498800F35C2B5570BD00BF6880010870B50C46FC
:104998001146064610F068FD44B100250521304651
:1049A8000135FFF7DDFFEBB29C42F7D870BD000080
:1049B80073B5054605F11106214C224A0146360118
:1049C8006846FFF7E3FFB01C6946204410F04CFD31
:1049D800264404EB0511002302227272A1F81A3151
:1049E800142101FB05400425012180F850504FF4A3
:1049F800807640F20115A0F84A20C164A0F8521050
:104A080080F85510A0F85660A0F8585040F20320DE
:104A180084F83430E284A662A08584F82E1084F8E5
:104A2800302084F83330C4F83A30C4F83E30C4F843
:104A38004230A4F84650A4F8485002B070BD00BFF8
:104A480014080020DA5D0108F7B50446B14DB24AF2
:104A580004F11106014637016846FFF797FFB81CB5
:104A68002F4469462844FCF715FA7B7AAB4A072B92
:104A780088BF022305EB061088BF7B721188437A32
:104A880041FA03F3DF070FD40223437261B14807E9
:104A9800C1F3800308D441FA03F7FF07D8B240F105
:104AA8000A8205EB0613587205EB0411230191F8ED
:104AB8001A01052802D9002081F81A01EF18508838
:104AC80097F81A1140FA01F1C90711D4012187F8A2
:104AD8001A1168B18707C0F3400109D440FA01FCF4
:104AE8001CF0010FCFB200F0EB81E91881F81A71C0
:104AF800E91891F81B01032802D9002081F81B014D
:104B080005EB0616717A012903D9042901D0002181
:104B18009180EE18908896F81B1140FA01F111F077
:104B280001010ED186F81B1158B110F0010108D10E
:104B380040FA01F7FF07CEB240F1C7812B4483F852
:104B48001B61142303FB045191F84A00052802D97C
:104B5800022081F84A0003FB045393F84B10042900
:104B680002D9002183F84B10142303FB0453B2F835
:104B78004A1093F84B0041FA00F0C00712D4012004
:104B880083F84B0071B18807C1F340030AD441FA96
:104B980003F6F707D8B240F19D81142303FB0453B1
:104BA80083F84B00142303FB045393F84C10032998
:104BB80002D9012183F84C10142000FB0450B2F8EC
:104BC8004C1090F84C3041FA03F313F0010310D164
:104BD80080F84C3069B111F001030AD141FA03F6AB
:104BE800F607D8B240F17B81142303FB045383F802
:104BF8004C00142303FB045393F84E10012902D9E7
:104C0800002183F84E10142000FB0450B2F84E1017
:104C180090F84E3041FA03F313F0010310D180F8F5
:104C28004E3069B111F001030AD141FA03F6F707D2
:104C3800D8B240F15981142303FB045383F84E0082
:104C4800142303FB045393F84F10022902D90021BF
:104C580083F84F10142000FB0450B2F8503090F83D
:104C68004F1043FA01F111F0010110D180F84F10F3
:104C78006BB113F001010AD143FA01F6F607C8B285
:104C880040F13781142101FB045181F84F001421B0
:104C980001FB045090F84D60022E02D9002680F8DE
:104CA8004D6001FB045191F85000052802D90420F9
:104CB80081F85000142101FB045090F85260012E35
:104CC80002D9012680F8526001FB045191F8550081
:104CD800012802D9012081F85500142101FB045153
:104CE80091F85300022802D9002081F853001426B5
:104CF80006FB0456B2F8520096F8531040FA01F138
:104D080011F0010117D186F85310A0B110F001017C
:104D180011D105E014080020DA5D0108D00900204F
:104D280040FA01F7FF07CEB240F1E880142101FBF9
:104D3800045181F85360142101FB045090F8566027
:104D48000C2E02D9002680F8566001FB045191F818
:104D58004C00012809D191F84F60022E05D1DE07D9
:104D680040F1D180002381F84F30142303FB045312
:104D780093F85710052902D9012183F857101423F5
:104D880003FB0453B2F8541093F8570041FA00F0AB
:104D9800C60712D4012083F8570071B18F07C1F3F9
:104DA80040030AD441FA03F6F607D8B240F1B080BE
:104DB800142303FB045383F85700142303FB045103
:104DC80091F85800032802D9012081F8580003FB04
:104DD800045393F85910022902D9012183F8591074
:104DE80095F82630052B02D9022385F8263095F848
:104DF8002730042B02D9002385F82730B2F89A10FF
:104E080095F8273041FA03F313F0010FB14B0ED197
:104E1800012285F8272051B18807C1F3400206D442
:104E280041FA02F5EF07D0B277D583F8270093F857
:104E38002820022A02D9002283F8282093F8292062
:104E4800032A02D9012283F82920A34893F82920AC
:104E5800B0F89C1041FA02F212F001020CD183F86A
:104E6800292049B111F0010206D141FA02F6F607EC
:104E7800D5B257D583F8295093F82A200C2A02D99D
:104E8800002283F82A2093F832200C2A02D9002223
:104E980083F8322093F82B20042A02D9002283F8C1
:104EA8002B2000228D49154611F9016F16F1780F54
:104EB8003CDA0D703CE00133102B7FF4ECADF3E5E8
:104EC800013110297FF40AAE12E6013110297FF46E
:104ED8002FAE36E60133102B7FF459AE62E601336C
:104EE800102B7FF47BAE84E60133102B7FF49DAE4C
:104EF800A6E6013110297FF4BFAEC8E601311029BA
:104F08007FF40EAF17E713F0020318BF03462AE732
:104F18000133102B7FF446AF4FE70132102A7FF49C
:104F28007FAF84E70132102A9FD1A5E7782EC0DC35
:104F38000132D2B20C2AB7D169490022012511F8F1
:104F4800016F0132022ED2B288BF0D70042AF6D149
:104F580093F83420012A02D9002283F83420B0F8CB
:104F68009E1093F8342041FA02F212F001020CD19B
:104F780083F8342049B111F0010206D141FA02F553
:104F8800EF07D0B211D583F8340093F82C20052A06
:104F980002D9032283F82C2093F82D20032A08D85D
:104FA8000AD1002283F8342006E00132102AE5D124
:104FB800EBE7022283F82D2093F82E20022A02D94B
:104FC800012283F82E2093F83020022A02D90222E7
:104FD80083F8302093F833200C2A02D9002283F872
:104FE800332093F83520042A02D9002283F835208B
:104FF800142202FB043191F85A00012802D900203A
:1050080081F85A0002FB043292F85C10052902D993
:10501800052182F85C10142202FB043102FB0432E1
:1050280091F85B00052884BF002081F85B0092F8A6
:105038005B0092F85C10884288BF82F85B1093F896
:105048003620012A02D9002283F8362093F8382026
:10505800052A02D9052283F8382093F83720052A33
:1050680084BF002283F8372093F8371093F838204C
:10507800914288BF83F83720142202FB043191F84B
:105088005D00012802D9002081F85D0002FB04338D
:1050980093F85420062A02D9012283F854200D4B94
:1050A800142101FB0431FF2203EB041481F8512081
:1050B80083F82F204FF6FF7183F831204FF0FF322D
:1050C8001A629A84C4F81C21A4F8201183F83910B4
:1050D80003B0F0BD14080020D00900204D080020BE
:1050E80059080020034670B50846052B04D8DFE8A8
:1050F80003F01D0421191D21FEE720261F250F227C
:10510800174CA3702277013B0122A4F84860A4F849
:105118004A50A276A273042B10D8DFE803F01018C7
:105128001B1B180009266F250722E9E714263225DC
:105138000A22E5E7352613251922E1E7FEE70023D1
:1051480023712374FCF7DAF96073607670BD2271FD
:105158002274F7E7002323712374A376A373F1E77E
:10516800B8070020044B012283F85120A3F85220ED
:10517800A3F85420704700BFB80700202DE9F0437A
:105188008C4D8D4C00F1110805EB081702378DB0D6
:1051980006463846FBF79AFE0421029002A8FDF75E
:1051A80077F905EB0613E08393F81B314FEA0619EC
:1051B8002BB103EB031303EB03231844E08305EB44
:1051C80008135B7A062B40F0BA80E38B03F5B543EE
:1051D8002533E383142303FB065305EB081893F8E0
:1051E8004B00FFF7BFFF98F8091061708B1FA944A7
:1051F800012B8CBF0023012399F81A0184F856303B
:10520800FFF770FF99F81B21E18B029BE180618217
:10521800A36063612AB14FF0113000FB0233A36031
:105228006361142303FB0653616293F84A00634BDE
:1052380084F8292013F9203023732376002384F877
:105248002A30637B23B93846FBF760FE84F82A00CE
:105258006078FCF753F95A4A84F82800128802F05B
:105268000101970748BF41F00201A1850346500795
:1052780042BFA18D41F00401A185110742BFA18D54
:1052880041F01001A185D70642BFA18D41F0200150
:10529800A185900642BFA28D42F00802A285494A24
:1052A80003AF02F1200E10685168BC46ACE8030059
:1052B800083272456746F6D11068CCF80000A2782B
:1052C800414F06210CA801FB03031344B7EE087AEB
:1052D80013F824CC84F820C007EE90CAF8EEE77AD9
:1052E80017E90F0067EE877A87E80F00FCEEE77A88
:1052F80040F2E243CDED017AA4F84C309DF8043039
:10530800B4F84820A4F84E304FF47A73B3FBF2F3A4
:10531800A4F84030142303FB06534FEA5C0CBCF19D
:10532800050F93F8503038BF4FF0050C84F850C083
:10533800052B33D8DFE803F00B382C2F3235072B39
:105348007FF448AFE38BA3F5B543263B41E74FF421
:1053580016536364002384F8573084F859301423B3
:1053680003FB065090F84C30032B03D090F84F20E5
:10537800022A02D1012284F85720591E4A424A4182
:1053880084F8582094F857208AB1012B0FD1FEE7F2
:105398004FF41643DDE74FF46143DAE74FF4E133A6
:1053A800D7E74FF46133D4E74FF49643D1E70DB014
:1053B800BDE8F08314080020B807002078770108BA
:1053C800D0090020AE590108E807002002484FF430
:1053D800DE72FF2110F0E0B81408002002484FF4F4
:1053E800DE71FEF707BB00BF1408002002484FF427
:1053F800DE71FEF7EBBA00BF1408002008B5FFF70E
:10540800F5FF034B1878BDE80840FFF71DBB00BF48
:10541800B807002038B5FFF7D9FFFEF701FB0428CD
:105428000CD0FFF7D3FFFEF7FBFA042803D1FFF7F0
:10543800DDFF042806D0FFF7C9FF03E0FFF7D6FF1A
:105448000428EED12F4930482F4C102210F05BF879
:1054580038B12E491022204610F055F808B1FFF750
:10546800B5FFA38AB3F5215F28D008D30025E8B299
:105478000135FFF79DFA0A2DF9D10023E3774FF4A0
:105488002153A382012522691E491F4842F6A10320
:105498009A424FF010021CBF2361012510F033F827
:1054A80070B1184918481022FBF7B5FE1849194879
:1054B8000822FBF7B0FEFFF791FF03E00025E2E7C3
:1054C800002DF8D1E37F104A092B84BF0023E3772E
:1054D800E17F1420002300FB0144013394F84C00C1
:1054E80082F84C000A2B02F11402F6D10A4C217002
:1054F800FFF7F4F92078FFF7A7FA2078BDE83840DD
:10550800FFF73CBEE15D010814080020F25D0108C8
:10551800035E0108C6090020B80700200129F7B575
:10552800054600D9FEE70B4E06EB01131C460F019A
:105538006278F15D03619B780BF064FCE379019379
:10554800A379009322796379E17828460BF081FCEE
:1055580003B0F0BD98A70108836810B5044603B9E5
:10556800FEE70A781A7000210BF00EFC4FF47A70EF
:10557800FEF746F9204601210BF01DFCA3682046E2
:105588001978FFF7CBFF10BD38B5836804466BB1B7
:10559800024652F8183BDD6900F11903A847217E3D
:1055A80020460222BDE838400BF0B5BC38BD0000EB
:1055B80070B58160897A86B0044601B101210BF08B
:1055C800FAFB20460BF07AFD20460BF052FD217BBA
:1055D800FF2903D0FA2220460BF057FDA3685B7A17
:1055E800013B042B04D8DFE803F0043E3E414100B0
:1055F800FEE7E922E12120460BF084FD0121204647
:105608000BF014FD962120460BF051FD3821204661
:105618000BF063FD20460BF067FDA368204693F965
:105628000810FFF7B1FFA3689D7A15B319782046D3
:10563800FFF774FF0022114620460BF0D6FB00232B
:10564800009340F2032220464FF6FF710BF030FC26
:1056580020464FF6FF710BF052FC204606B0BDE81D
:1056680070400BF0F3BCDB22D721C4E76F226B211B
:10567800C1E75E880E4B63614CF2503300932046BD
:105688000C4919230B220BF04BFD0123CDE9033301
:105698005B23CDE9015310231946204600950422C7
:1056A8000BF07CFD314620460BF09CFDC2E700BFA5
:1056B80078A70108A086010010B504460BF0C6FCC7
:1056C80020464FF6FF71BDE810400BF018BC0000F3
:1056D80038B58168036891F90810DD69044600F15E
:1056E800190300F11802A847A3689A7A42B11A78F8
:1056F800012A00D9FEE7044B03EB0213236138BDEE
:10570800024B6361FBE700BF98A7010878A701086F
:1057180010B50A4CA06858B1236923B9636913B955
:105728002046FFF7D5FFA3689B7A23B123699868C1
:10573800A0F57A7010BD63699869F9E7C838002048
:10574800836810B5044683B103691BB943690BB973
:10575800FFF7BEFFA3689B7A1BB12369B3F90C005E
:1057680010BD6369B3F91C00FAE71846F8E78368C7
:1057780010B5044643B103691BB943690BB9FFF778
:10578800A7FF94F9190010BD1846FCE708B583680F
:1057980043B9FFF70DFF7D20FEF732F8BDE808405A
:1057A800FDF76ABF08BD0000F8B504460846202882
:1057B8001146BDF818C09DF81C209DF8205000D94E
:1057C800FEE7052BA37100D9FEE72C4F57F833608D
:1057D80006B9FEE707EBC307A6603E797F79277312
:1057E8000027E67184F8D530A4F80EC084F8D47088
:1057F800BCF1000F00D1FEE786429CBF06F1FF36E0
:10580800F0B2052B60742ED0012B33D802F1FF3390
:10581800DBB21ED0022B17D86B1E032B0ED80C2818
:1058280001D90C236374637C834200D960742B46CE
:105838002046FBF79EFD00232374F8BD122884BF81
:10584800122363740025EEE7042D88BF002500228B
:10585800EDE7022B04D80C2803D90C23637400E06D
:1058680000220023E4E7531E022BF9D80828F8D9B0
:105878000823F3E72046FBF723FDDCE7447701081C
:1058880090F8D43053B190F8D520074B03EBC20100
:1058980053F83230497953F821007047037C00EB04
:1058A8008300406B704700BF4477010838B5044651
:1058B8001546084609490FF0D7FD04EB850292ED1D
:1058C8000D0ADFED077AB8EE400A20EE270A0EF03F
:1058D8005DFCFCEEC07A17EE900A38BD095E01083F
:1058E80000007A3A2DE9F3419DF824701646402FBE
:1058F80088464FF05B024FF0000104461D4628BF62
:1059080040270FF049FE904BDB8B23803278A37839
:1059180062F30203A3707378DB0003F0080343EA21
:105928000811A37803F007031943A1707279E3788B
:1059380062F30003E370B279637962F386136371EB
:1059480096F90200FBF7D4F9E37860F34703E370B4
:10595800F279237962F300032371327A62F3460302
:1059680023713279DBB202F0010203F07F0343EACC
:10597800C213237132796379C2F3450223F03F03DE
:1059880013436371A37967F34703A3712B78AA784C
:10599800E3716B7802F01F0203F0070343EAC203C6
:1059A80023726A88637AC2F3451223F03F031343D4
:1059B80063722A79DBB202F0030203F03F0343EA81
:1059C80082136372AB88C3F38703A3726A79E37A9D
:1059D800C2F3800223F001031343E372AA79DBB216
:1059E80002F07F0203F0010343EA4203E372EA880C
:1059F800237BC2F3C31223F00F03134323732B7AC1
:105A0800AA7AE3736B7A02F01F0203F0070343EAF2
:105A1800C20323746A89637CC2F3451223F03F03EF
:105A2800134363742A7BDBB202F0030203F03F03E3
:105A380043EA82136374AB89C3F38703A3746A7B55
:105A4800E37CC2F3800223F001031343E374AA7BCF
:105A5800DBB202F07F0203F0010343EA4203E3747E
:105A6800EA89237DC2F3C31223F00F03134323757E
:105A78002B8ADB0863756B8ADB08A375AB8ADB08A6
:105A8800E375EB8ADB0823762B8BB3F5C06F4ED218
:105A9800B3F5007F94BF00230123227B63F3051233
:105AA80022736B8BB3F5C06F43D2B3F5007F94BFFD
:105AB80000230123227B63F387122273AB8BB3F598
:105AC800C06F38D2B3F5007F94BF00230123227D35
