:020000040800F2
:1000000000000120D9E50008C3E50008C5E50008A7
:10001000C7E50008C9E50008CBE5000800000000BE
:10002000000000000000000000000000CDE5000816
:10003000CFE5000800000000D1E50008D3E5000886
:1000400029E6000829E6000829E6000829E6000854
:1000500029E6000829E6000829E6000829E6000844
:1000600029E6000829E6000829E6000829E6000834
:1000700029E6000829E6000829E6000829E6000824
:1000800029E6000829E6000829E6000829E6000814
:100090000000000029E6000829E6000829E600081B
:1000A00029E6000829E6000829E6000829E60008F4
:1000B000CD3B0008E538000829E6000829E60008DD
:1000C00029E6000829E6000829E6000829E60008D4
:1000D00045330008F56900081536000829E60008D0
:1000E00029E6000829E6000829E6000829E60008B4
:1000F00029E60008000000000000000029E60008D2
:1001000029E6000829E60008C5C2000829E600081B
:1001100029E6000829E6000829E6000829E6000883
:1001200029E6000829E6000829E6000829E6000873
:0801300029E6000829E6000899
:1001380010F8012B11F8013B012A28BF9A42F7D089
:10014800D01A7047034613F8012B002AFBD1181A5E
:100158000138704781F0004102E000BF83F000439E
:1001680030B54FEA41044FEA430594EA050F08BF4A
:1001780090EA020F1FBF54EA000C55EA020C7FEA0E
:10018800645C7FEA655C00F0E2804FEA5454D4EB8B
:100198005555B8BF6D420CDD2C4480EA020281EA55
:1001A800030382EA000083EA010180EA020281EA8D
:1001B8000303362D88BF30BD11F0004F4FEA0131DF
:1001C8004FF4801C4CEA113102D0404261EB4101EE
:1001D80013F0004F4FEA03334CEA133302D0524274
:1001E80063EB430394EA050F00F0A780A4F1010430
:1001F800D5F1200E0DDB02FA0EFC22FA05F280186A
:1002080041F1000103FA0EF2801843FA05F359414F
:100218000EE0A5F120050EF1200E012A03FA0EFCCE
:1002280028BF4CF0020C43FA05F3C01851EBE371F8
:1002380001F0004507D54FF0000EDCF1000C7EEB15
:1002480000006EEB0101B1F5801F1BD3B1F5001F53
:100258000CD349085FEA30004FEA3C0C04F1010472
:100268004FEA445212F5800F80F09A80BCF1004F9B
:1002780008BF5FEA500C50F1000041EB045141EA1D
:10028800050130BD5FEA4C0C404141EB0101013CE6
:1002980028BFB1F5801FE9D291F0000F04BF0146D5
:1002A8000020B1FA81F308BF2033A3F10B03B3F1A7
:1002B80020020CDA0C3208DD02F1140CC2F10C0237
:1002C80001FA0CF021FA02F10CE002F11402D8BF95
:1002D800C2F1200C01FA02F120FA0CFCDCBF41EA61
:1002E8000C019040E41AA2BF01EB0451294330BD30
:1002F8006FEA04041F3C1CDA0C340EDC04F114040D
:10030800C4F1200220FA04F001FA02F340EA0300E3
:1003180021FA04F345EA030130BDC4F10C04C4F129
:10032800200220FA02F001FA04F340EA0300294609
:1003380030BD21FA04F0294630BD94F0000F83F453
:10034800801306BF81F480110134013D4EE77FEA36
:10035800645C18BF7FEA655C29D094EA050F08BF82
:1003680090EA020F05D054EA000C04BF1946104663
:1003780030BD91EA030F1EBF0021002030BD5FEAA7
:10038800545C05D14000494128BF41F0004130BDCF
:1003980014F580043CBF01F5801130BD01F0004523
:1003A80045F0FE4141F470014FF0000030BD7FEA96
:1003B800645C1ABF194610467FEA655C1CBF0B4691
:1003C800024650EA013406BF52EA033591EA030FA8
:1003D80041F4002130BD00BF90F0000F04BF0021A0
:1003E800704730B54FF4806404F132044FF00005D3
:1003F8004FF0000150E700BF90F0000F04BF00214C
:10040800704730B54FF4806404F1320410F00045B1
:1004180048BF40424FF000013EE700BF42004FEAAC
:10042800E2014FEA31014FEA02701FBF12F07F4329
:1004380093F07F4F81F06051704732F07F4208BFE0
:10044800704793F07F4F04BF41F40021704730B5E7
:100458004FF4607401F0004521F000411CE700BF33
:1004680050EA010208BF704730B54FF000050AE0B6
:1004780050EA010208BF704730B511F0004502D5B7
:10048800404261EB41014FF4806404F132045FEAB9
:10049800915C3FF4D8AE4FF003025FEADC0C18BF62
:1004A80003325FEADC0C18BF033202EBDC02C2F154
:1004B800200300FA03FC20FA02F001FA03FE40EAE6
:1004C8000E0021FA02F11444BDE600BF70B54FF0EA
:1004D800FF0C4CF4E06C1CEA11541DBF1CEA1355C8
:1004E80094EA0C0F95EA0C0F00F0DEF82C4481EA30
:1004F800030621EA4C5123EA4C5350EA013518BF50
:1005080052EA033541F4801143F4801338D0A0FB3C
:1005180002CE4FF00005E1FB02E506F00042E0FBE9
:1005280003E54FF00006E1FB03569CF0000F18BFEF
:100538004EF0010EA4F1FF04B6F5007F64F5407497
:1005480004D25FEA4E0E6D4146EB060642EAC6212A
:1005580041EA55514FEAC52040EA5E504FEACE2E97
:10056800B4F1FD0C88BFBCF5E06F1ED8BEF1004F9A
:1005780008BF5FEA500E50F1000041EB045170BD16
:1005880006F0004646EA010140EA020081EA03015A
:10059800B4EB5C04C2BFD4EB0C0541EA045170BD56
:1005A80041F480114FF0000E013C00F3AB8014F1D0
:1005B800360FDEBF002001F0004170BDC4F1000419
:1005C800203C35DA0C341BDC04F11404C4F120059A
:1005D80000FA05F320FA04F001FA05F240EA0200F5
:1005E80001F0004221F0004110EBD37021FA04F62B
:1005F80042EB06015EEA430E08BF20EAD37070BDE5
:10060800C4F10C04C4F1200500FA04F320FA05F043
:1006180001FA04F240EA020001F0004110EBD37045
:1006280041F100015EEA430E08BF20EAD37070BDB5
:10063800C4F1200500FA05F24EEA020E20FA04F38E
:1006480001FA05F243EA020321FA04F001F000413D
:1006580021FA04F220EA020000EBD3705EEA430EAE
:1006680008BF20EAD37070BD94F0000F0FD101F0DD
:100678000046400041EB010111F4801F08BF013C16
:10068800F7D041EA060195F0000F18BF704703F054
:100698000046520043EB030313F4801F08BF013DDB
:1006A800F7D043EA0603704794EA0C0F0CEA135597
:1006B80018BF95EA0C0F0CD050EA410618BF52EA51
:1006C8004306D1D181EA030101F000414FF0000057
:1006D80070BD50EA410606BF1046194652EA430665
:1006E80019D094EA0C0F02D150EA013613D195EAD9
:1006F8000C0F05D152EA03361CBF104619460AD121
:1007080081EA030101F0004141F0FE4141F470012A
:100718004FF0000070BD41F0FE4141F4780170BD1A
:1007280070B54FF0FF0C4CF4E06C1CEA11541DBF7F
:100738001CEA135594EA0C0F95EA0C0F00F0A7F881
:10074800A4EB050481EA030E52EA03354FEA0131AE
:1007580000F088804FEA03334FF0805545EA1313C1
:1007680043EA12634FEA022245EA111545EA106589
:100778004FEA00260EF000419D4208BF964244F120
:10078800FD0404F5407402D25B084FEA3202B61A3F
:1007980065EB03055B084FEA32024FF480104FF413
:1007A800002CB6EB020E75EB030E22BFB61A754687
:1007B80040EA0C005B084FEA3202B6EB020E75EB1A
:1007C800030E22BFB61A754640EA5C005B084FEA82
:1007D8003202B6EB020E75EB030E22BFB61A75464F
:1007E80040EA9C005B084FEA3202B6EB020E75EB5A
:1007F800030E22BFB61A754640EADC0055EA060E1B
:1008080018D04FEA051545EA16754FEA06164FEA5D
:10081800C30343EA52734FEAC2025FEA1C1CC0D109
:1008280011F4801F0BD141EA00014FF000004FF096
:10083800004CB6E711F4801F04BF01430020B4F157
:10084800FD0C88BFBCF5E06F3FF6AFAEB5EB030C0F
:1008580004BFB6EB020C5FEA500C50F1000041EB0C
:10086800045170BD0EF0004E4EEA113114EB5C04D9
:10087800C2BFD4EB0C0541EA045170BD41F48011AC
:100888004FF0000E013C90E645EA060E8DE60CEAB4
:10089800135594EA0C0F08BF95EA0C0F3FF43BAFD1
:1008A80094EA0C0F0AD150EA01347FF434AF95EA88
:1008B8000C0F7FF425AF104619462CE795EA0C0F6C
:1008C80006D152EA03353FF4FDAE1046194622E739
:1008D80050EA410618BF52EA43067FF4C5AE50EA13
:1008E80041047FF40DAF52EA43057FF4EBAE12E703
:1008F8004A0011D212F5001211D20DD56FF4787397
:10090800B3EB62520ED44FEAC12343F0004343EAEB
:10091800505323FA02F070474FF00000704750EA36
:10092800013002D14FF0FF3070474FF000007047A0
:1009380080F0004002E000BF81F0004142001FBF8C
:100948005FEA410392EA030F7FEA226C7FEA236C95
:100958006AD04FEA1262D2EB1363C1BFD21841408A
:1009680048404140B8BF5B42192B88BF704710F020
:10097800004F40F4000020F07F4018BF404211F0C3
:10098800004F41F4000121F07F4118BF494292EA2B
:10099800030F3FD0A2F1010241FA03FC10EB0C0057
:1009A800C3F1200301FA03F100F0004302D54942E4
:1009B80060EB4000B0F5000F13D3B0F1807F06D391
:1009C80040084FEA310102F10102FE2A51D2B1F189
:1009D800004F40EBC25008BF20F0010040EA03007E
:1009E8007047490040EB0000013A28BFB0F5000FFE
:1009F800EDD2B0FA80FCACF1080CB2EB0C0200FAB4
:100A08000CF0AABF00EBC25052421843BCBFD04002
:100A18001843704792F0000F81F4000106BF80F47C
:100A280000000132013BB5E74FEA41037FEA226C3F
:100A380018BF7FEA236C21D092EA030F04D092F00A
:100A4800000F08BF0846704790EA010F1CBF00203E
:100A5800704712F07F4F04D1400028BF40F000409B
:100A6800704712F100723CBF00F50000704700F0BB
:100A7800004343F0FE4040F4000070477FEA2262E2
:100A880016BF08467FEA23630146420206BF5FEAB3
:100A9800412390EA010F40F4800070474FF00003B3
:100AA80004E000BF10F0004348BF40425FEA000C7A
:100AB80008BF704743F0964301464FF000001CE022
:100AC80050EA010208BF70474FF000030AE000BF78
:100AD80050EA010208BF704711F0004302D54042B6
:100AE80061EB41015FEA010C02BF84460146002028
:100AF80043F0B64308BFA3F18053A3F50003BCFA43
:100B08008CF2083AA3EBC25310DB01FA02FC6344EF
:100B180000FA02FCC2F12002BCF1004F20FA02F2F6
:100B280043EB020008BF20F00100704702F12002E9
:100B380001FA02FCC2F1200250EA4C0021FA02F24A
:100B480043EB020008BF20EADC7070474FF0FF0C4F
:100B58001CEAD0521EBF1CEAD15392EA0C0F93EA4A
:100B68000C0F6FD01A4480EA010C400218BF5FEAEC
:100B780041211ED04FF0006343EA501043EA51115F
:100B8800A0FB01310CF00040B1F5000F3EBF490059
:100B980041EAD3715B0040EA010062F17F02FD2A5D
:100BA8001DD8B3F1004F40EBC25008BF20F0010040
:100BB800704790F0000F0CF0004C08BF49024CEA57
:100BC800502040EA51207F3AC2BFD2F1FF0340EAE9
:100BD800C250704740F400004FF00003013A5DDC5A
:100BE80012F1190FDCBF00F000407047C2F100029B
:100BF800410021FA02F1C2F1200200FA02FC5FEA88
:100C0800310040F1000053EA4C0308BF20EADC70D1
:100C1800704792F0000F00F0004C02BF400010F443
:100C2800000F013AF9D040EA0C0093F0000F01F0F0
:100C3800004C02BF490011F4000F013BF9D041EA12
:100C48000C018FE70CEAD15392EA0C0F18BF93EA14
:100C58000C0F0AD030F0004C18BF31F0004CD8D13E
:100C680080EA010000F00040704790F0000F17BFC5
:100C780090F0004F084691F0000F91F0004F14D00B
:100C880092EA0C0F01D142020FD193EA0C0F03D163
:100C98004B0218BF084608D180EA010000F0004066
:100CA80040F0FE4040F40000704740F0FE4040F441
:100CB800400070474FF0FF0C1CEAD0521EBF1CEAE0
:100CC800D15392EA0C0F93EA0C0F69D0A2EB0302FE
:100CD80080EA010C49024FEA402037D04FF0805398
:100CE80043EA111143EA10130CF000408B4238BF5D
:100CF8005B0042F17D024FF4000C8B4224BF5B1A6B
:100D080040EA0C00B3EB510F24BFA3EB510340EAB8
:100D18005C00B3EB910F24BFA3EB910340EA9C0066
:100D2800B3EBD10F24BFA3EBD10340EADC001B01D6
:100D380018BF5FEA1C1CE0D1FD2A3FF650AF8B427A
:100D480040EBC25008BF20F0010070470CF0004C87
:100D58004CEA50207F32C2BFD2F1FF0340EAC250B2
:100D6800704740F400004FF00003013A37E792F073
:100D7800000F00F0004C02BF400010F4000F013AD1
:100D8800F9D040EA0C0093F0000F01F0004C02BFCC
:100D9800490011F4000F013BF9D041EA0C0195E735
:100DA8000CEAD15392EA0C0F08D142027FF47DAFCE
:100DB80093EA0C0F7FF470AF084676E793EA0C0FBE
:100DC80004D14B023FF44CAF08466EE730F0004CBC
:100DD80018BF31F0004CCAD130F000427FF45CAF4C
:100DE80031F000437FF43CAF5FE700BF4FF0FF3CBA
:100DF80006E000BF4FF0010C02E000BF4FF0010C0D
:100E08004DF804CD4FEA40024FEA41037FEA226CD5
:100E180018BF7FEA236C11D001B052EA530C18BFF7
:100E280090EA010F58BFB2EB030088BFC81738BF5C
:100E38006FEAE17018BF40F0010070477FEA226C4A
:100E480002D15FEA402C05D17FEA236CE4D15FEA46
:100E5800412CE1D05DF8040B704700BF844608467A
:100E68006146FFE70FB5FFF7C9FF002848BF10F13B
:100E7800000F0FBD4DF808EDFFF7F4FF0CBF012080
:100E880000205DF808FB00BF4DF808EDFFF7EAFF0A
:100E980034BF012000205DF808FB00BF4DF808EDC5
:100EA800FFF7E0FF94BF012000205DF808FB00BFBA
:100EB8004DF808EDFFF7D2FF94BF012000205DF840
:100EC80008FB00BF4DF808EDFFF7C8FF34BF01204D
:100ED80000205DF808FB00BF4FEA40024FEA4103DB
:100EE8007FEA226C02D15FEA402C08D17FEA236CAA
:100EF80002D15FEA412C02D14FF0000070474FF059
:100F0800010070474FEA4002B2F1FE4F0FD34FF095
:100F18009E03B3EB12620DD94FEA002343F000435E
:100F280010F0004F23FA02F018BF404270474FF00C
:100F38000000704712F1610F01D1420205D110F093
:100F4800004008BF6FF0004070474FF00000704746
:100F580042000ED2B2F1FE4F0BD34FF09E03B3EB1B
:100F6800126209D44FEA002343F0004323FA02F047
:100F780070474FF00000704712F1610F01D1420233
:100F880002D14FF0FF3070474FF00000704700BFAC
:100F980053B94AB9002908BF00281CBF4FF0FF31D8
:100FA8004FF0FF3000F00CB8ADF1080C6DE904CE3D
:100FB80010F0EAFADDF804E0DDE9022304B0704736
:100FC800704700BF0348044B834202D0034B03B170
:100FD80018477047E8020020E802002000000000DF
:100FE8000548064B1B1AD90F01EBA301491002D083
:100FF800034B03B118477047E8020020E8020020BD
:101008000000000010B5064C237843B9FFF7DAFF5B
:10101800044B13B10448AFF300800123237010BDC3
:10102800E8020020000000005818010808B5054B28
:101038001BB105490548AFF30080BDE80840FFF73C
:10104800CFBF00BF00000000EC02002058180108C4
:101058000022427082700122C270B1FA81F102222C
:1010680049090271032201704271704743788B422B
:101078001FD0012941700AD0022910D0C1B901231B
:10108800C37081700223037103234371704703788F
:1010980043B1012383700223C3700023F3E703786D
:1010A800002BF6D0022383700023C3700123EAE7E4
:1010B800FEE7704782B00B88ADF800304B88ADF87A
:1010C80002308B88ADF80430CB88ADF80630023991
:1010D800431C053013F8012F0DF1080C0CEB4202EC
:1010E800834232F8082C21F8022FF3D102B070475E
:1010F80010B50C461146FFF7B9FF2146BDE8104070
:10110800FFF7D8BF0B4B10B54FF07F32C0E9232350
:101118004FF47F43A0F89430FF23044680F89630BC
:10112800983000F029FC002384F8A43084F8A83013
:1011380010BD00BFFFFF7F0070B51146154604467D
:101148001E4600F03FFC294604F1140000F03AFC6A
:10115800294604F1280000F035FC294604F13C003A
:1011680000F030FC294604F1500000F02BFC294621
:1011780004F1640000F026FC294604F1780000F030
:1011880021FC4FF4FA7332464FF4FA6104F19800E7
:1011980000F0D8FB2046FFF7B5FF002384F8A53000
:1011A8004FF47F43A4F8A63070BD022380F8A8301E
:1011B8007047704700F00DBC143000F00ABC08B549
:1011C800503000F010FC292100F114030246B3FB53
:1011D800F1F313F0FF0002D1101E18BF012008BD63
:1011E80008B5643000F0FFFB292100F11403024622
:1011F800B3FBF1F313F0FF0002D1101E18BF01205A
:1012080008BD90F8903013B990F98C00704790F9A8
:101218008D00704790F8903013B990F98E007047A0
:1012280090F98F00704710B504460BF06DF950B176
:1012380094F8A83043B904F13C0000F0CEFB012833
:1012480038BF0120C0B210BD6420FCE790F8A83078
:1012580013B990F89300704764207047783000F015
:10126800C4BB783000F0C9BB10B5044600F08BFB56
:1012780004F1140000F087FB04F1280000F083FB60
:1012880004F13C0000F07FFB04F1500000F087FB04
:1012980004F1640000F083FB04F1780000F085FBA2
:1012A80094F8A83013B1013B84F8A83010BD7F280A
:1012B80007D0002807DA10F1800F06D04042C0B2EC
:1012C800704700207047012070477F20704710B199
:1012D800404240B270477F2070477F280FD010F1FE
:1012E800310F0EDA10F1780F0DDB7830FE2340B2A3
:1012F800584323304623B0FBF3F0C0B27047FF20B9
:101308007047FE20704700207047012805DD40F235
:10131800FE73984203DC80B270470120704740F2A8
:10132800FF707047A0F57870C0EBC02040F2AE7334
:1013380090FBF3F000F58060FFF7E7BFFFF7F2BF1F
:10134800032812DD0C2812DD0F2812DD122812DD09
:10135800162812DD192812DD1C2812DD1F2812DDBF
:101368002128CCBFFF2006207047002070470120AD
:1013780070470220704708207047032070470720F5
:1013880070470420704705207047000005289ABF61
:10139800014B185CFF207047D418010805289ABF34
:1013A800014B185CFF207047DA1801087F2803D02A
:1013B800002803DAC0B2704700207047FF2070474A
:1013C8007F2811D010F1320F10DA884210DD401A50
:1013D8006423C1F1FF21584301F57F01CE3131303B
:1013E80090FBF1F0C0B27047FF207047642070474F
:1013F80000207047014B4840185C7047E01801080E
:1014080052B110B4054C0A4411F8013B58408A42C5
:10141800205CF9D110BC7047704700BFE018010884
:10142800392808D822280ED9094B2338C0B2C3401E
:1014380003F0010070475F2807D0613819288CBF76
:10144800002001207047002070470120704700BF2E
:1014580001EC7F00F8B50246451E461D00245F27B3
:1014680015F8010FFF2804BF0134E4B2FFF7D8FFD5
:1014780000B92F70AE42F3D1062C04D119B10B6814
:1014880013608B88938000239371F8BD2DE9F8438E
:10149800DFF83490471E441D012500264FF0280828
:1014A80017F8011F08480FF070FF034610B1A0EBB2
:1014B8000903DBB2A3FB05329E19A742A5FB08531B
:1014C800EED13046BDE8F883E019010810B541793E
:1014D800A1F13000C3B2092B07D80523B0FBF3F301
:1014E80003EB8303C01AC0B210BD044C20460FF0B2
:1014F8004CFF0028F1D0001BC0B2EEE7E01901084C
:10150800F0B5094B094F821D2826B1FBF3F4272CAF
:1015180094BF3D5D302502F8015D824203FB141142
:10152800B3FBF6F3F1D1F0BD00801A06E01901080B
:1015380070B50446FEF706FE02B20023551E18B227
:10154800A84204FA83F104DA265C302E03F1010381
:10155800F5D0121A01322046BDE870400FF06ABF7C
:101568002DE9F047432B28BF432396B00C46154678
:1015780000211A46984607460FF076FF00214122BF
:1015880005A804910FF070FFDFF87C90DFF87CA0CD
:1015980004EB4505AC4210D104A8FEF7D3FD28B1F1
:1015A80000F158036B44002203F8492C04A938467B
:1015B8000FF0D4FE16B0BDE8F08734F9020B47F6F9
:1015C800FF739842E8D0002812DC514668460FF0B5
:1015D800C5FE04A8FEF7B6FD06466846FEF7B2FD4E
:1015E8000644B045D6D3694604A80FF0BFFED1E73C
:1015F800694680B20CF053FB6846FFF799FF4946ED
:1016080068460FF0B3FEE4E7CD180108C8180108D2
:10161800F0B589B06D4600242F468E1CE1B28A428F
:1016280004D83946FFF79CFF09B0F0BD36F82410FE
:1016380025F8021B0134F1E742F210736421B0FB74
:10164800F3F203FB1200B0FBF1F301FB130000EB14
:10165800023000EB831080B27047020B00F03F03AA
:1016680042F2107101FB0233C0F38510642202FBC1
:10167800003070472DE9F04142F2107388B0B1FB99
:10168800F3F603FB16141F49DFF87C8005460FF0BC
:1016980065FE6946F0B20CF0DFFA6846FFF748FFCE
:1016A800694628460FF062FE414628460FF05EFE66
:1016B80064276946B4FBF7F6F0B20CF0CDFA684639
:1016C800FFF736FF694628460FF050FE07FB164421
:1016D800414628460FF04AFE6946E0B20CF0BCFAD3
:1016E8009DF801308DF800309DF802308DF80130FA
:1016F8006946002328468DF802300FF037FE08B0FF
:10170800BDE8F0819D2B0108D218010870B50E467E
:101718000021054614460FF0A7FE00239AB2944212
:1017280000D870BDF25C002AFBD0EA540133F5E71B
:1017380070B50E4614460021013205460FF094FE9E
:1017480000239AB2944200D870BDF25C002AFBD004
:10175800EA540133F5E730B50023044698B29042C5
:1017680001D3012005E0E55CC85C1DB9B0FA80F042
:10177800400930BD0028FCD0854203F10103EDD0BB
:101788000020F6E77D23438043F2390309B2C360A2
:10179800002301808180C380037270470268044976
:1017A800044B01FB023323F000430360180C70471D
:1017B800FD430300C39E2600F0B5002597B00160E5
:1017C800858004465622294668460FF04DFE0126BC
:1017D800627CAA4209D80023802104F1B400237452
:1017E80017B0BDE8F0400FF03FBE2046FFF7D6FF28
:1017F800E7797B1B002190FBF3F202FB1300C0B2D8
:10180800EC460A46CBB29F421DD80023227B9A425F
:10181800DED0A279033A012A04EB050105D925B1E6
:1018280091F91120D2B9012BD2D98B74A26852F840
:101838002310583304EB85026B440135516303F8D8
:10184800586CEDB2C4E71CF801EBBEF1000F03D1F0
:101858008242DBD00132D2B20131D3E7501E83423B
:10186800E3DB01329342E0DCB2E72DE9F0471546AD
:1018780096B0013D0160027104464371EDB25622F3
:10188800002168460FF0F0FD0027022D84BF4FF0BD
:10189800010900253E464FF0010A94F807809CBFD5
:1018A8004FF00309B8FBF9F8627CB24209D800236B
:1018B800802104F1B400237416B0BDE8F0470FF09E
:1018C800D3BD2046FFF76AFFA8EB0603002190FB73
:1018D800F3F202FB1300C0B2EC460A46CBB29845BD
:1018E80006D91CF801EBBEF1000F22D182421ED1AD
:1018F800434528BF4346227B03FB095101F0FF0102
:101908008A42D1D016B1B7B9012BCDD9A2191F4639
:101918009174A26852F8211004EB860201365163D3
:1019280003F158026A44F6B202F858ACBCE7013237
:10193800D2B20131D2E77A1E9342E7DB7A1C934296
:10194800E4DCB1E72DE9F041044610461D46164691
:101958008846FFF7A3F8074606EB0800FFF79EF84E
:1019680001463846FFF7A6F9656020602846FFF76C
:1019780099F8A060BDE8F08110B504464068FFF70B
:1019880091F8A06010BDD0E901236421D31AC36087
:1019980082604B43418AB3FBF1F303747047D0E98B
:1019A8000123D31AC0E90223704743682BB1C268E8
:1019B80064214A43B2FBF3F2D3B203740023C36039
:1019C800436070470023C0E90233418243600374D7
:1019D80070474368013343607047007C7047436831
:1019E8000B4443607047C068704711B1C368013346
:1019F800C3604368013343607047007C7047000050
:101A0800072800D9FEE7014B185C7047381A01080F
:101A180000230380837080F82930704703460078DC
:101A280010B100221A707047587810B100225A700D
:101A38007047987810B100229A70704793F829007F
:101A480010B1002283F82920704701707047017097
:101A58007047817070478170426070474068704776
:101A68000830704710B50229044680EAE070A0EB00
:101A7800E47068D15AB9002CACBF7F233F23984249
:101A8800A8BF1846002C01DA40F0400010BD012A1A
:101A98001AD1632805DC4000002CF7DA40F4807086
:101AA800F4E740F2F54398420CDCFEF7F7FF57499C
:101AB800FFF74CF80EF050F9FFF74AFA400040F0F3
:101AC8000100E9E7FF20E7E7022A40F09C8063284D
:101AD80005DC8000002CD9DA40F40070D6E7B0F5B8
:101AE8007A7F0CDAFEF7DAFF4849FFF72FF80EF095
:101AF80033F9FFF72DFA800040F00100EAE742F2DF
:101B08000F7398420CD8FEF7C9FF4149FFF71EF83A
:101B18000EF022F9FFF71CFA800040F00200D9E726
:101B28003C4B98420CD8FEF7B9FF3B49FFF70EF83B
:101B38000EF012F9FFF70CFA800040F00300C9E735
:101B480040F2FF10C6E703295DD1012A1BD1B0F589
:101B58007A7F05DA4000002C98DA40F4006095E7B7
:101B6800B0F5205F0CDAFEF799FF2849FEF7EEFF83
:101B78000EF0F2F8FFF7ECF9400040F00100EAE758
:101B880040F2FF70E7E7022A3DD1B0F57A7F06DA26
:101B98008000002CBFF67AAF40F4805076E742F21E
:101BA8000F7398420CDCFEF779FF1849FEF7CEFF59
:101BB8000EF0D2F8FFF7CCF9800040F00100E8E71A
:101BC800164B98420CD8FEF769FF1149FEF7BEFF85
:101BD8000EF0C2F8FFF7BCF9800040F00200D8E729
:101BE800B0F57A2F0CD2FEF759FF0B49FEF7AEFF7E
:101BF8000EF0B2F8FFF7ACF9800040F00300C8E738
:101C080040F6FF70C5E7002040E700BFCDCCCC3DD3
:101C18000AD7233C17F001006F12833A9F86010010
:101C280000234360038170470A2310B5044683806C
:101C380001F08CFF2368E0809B682046984720814C
:101C480010BD038970B504469BB1858845B1013D37
:101C5800ADB285806DB903681B68BDE87040184750
:101C680001F074FFE388C01A238980B2834201D24D
:101C7800258170BD236820465B68EEE7002303607A
:101C88007047000038B5084B09291B7828BF09217F
:101C98008B4204460D4602D10023036038BD01F093
:101CA80049FF25712060F9E704030020036810B597
:101CB80004460BB9002010BD01F03CFF2368C01A90
:101CC80040F2EE239842F5D90023054A23601278A2
:101CD80023799A42EED0034A0120D377EBE700BF7D
:101CE8000403002060030020FF23437100230171D7
:101CF800837103818372704738B5037904460D46B2
:101D08005BB14179A94208D041B101290AD0002329
:101D1800A371657155B1012D0FD038BD03689B685B
:101D28009847F4E703680021DB68F9E723689B68B4
:101D3800012120469847A071EFE723682946DB6810
:101D4800F7E72DE9F04F077CC37B857CC67C90F8CC
:101D580015E090F8208090F80EC0BF000C4647EAC6
:101D6800931703F03F01437C03F0010247EA8227FF
:101D780005F00F02D20142EA530206F07F031B016D
:101D880043EA1513057D89B06D0045EAD6150EF0B6
:101D98000306059345EA4623867D009306F01F0552
:101DA800AD0145EA9E03C57D90F819E00193ED0069
:101DB80045EA5613057E02930EF0070645EA062308
:101DC800857E039305F03F06760146EADE03C67E6C
:101DD80090F81CE00493B60046EA95160EF001054B
:101DE80046EA8526457F069205F00F0B4FEACB1B86
:101DF8004BEA5E0B90F81EE00EF07F0A4FEA0A1AD3
:101E08004AEA151AC57F6D0045EADE1508F0030E8B
:101E180045EA4E2590F821E00EF01F094FEA89198E
:101E280049EA9809490190F82280407B41EADC019F
:101E38000CF0070C40EA0C204FEAC80848EA5E1884
:101E48000791FFF76FFA079920800846FFF76AFAAB
:101E580060803846FFF766FA069AA0801046FFF7BA
:101E680061FA059BE0801846FFF75CFA208100982C
:101E7800FFF758FA60810198FFF754FAA081029899
:101E8800FFF750FAE0810398FFF74CFA2082049894
:101E9800FFF748FA60823046FFF744FAA0825846B6
:101EA800FFF740FAE0825046FFF73CFA20832846C5
:101EB800FFF738FA60834846FFF734FAA0834046B4
:101EC800FFF730FA4FF48063E0832384638409B01A
:101ED800BDE8F08F2DE9F04104460F4601F036FECB
:101EE8004FF001080546236820461B6898470646B8
:101EF80050B9A37A012B1FD12389ED1A40F6C413D8
:101F08009D42C8BFA07217E0236820465B689847C7
:101F1800A37AA3B90F2814D1A4F80A80E37AE218A7
:101F28000133DBB2182B1073E3720AD93946204605
:101F3800FFF707FF0023A3723046BDE8F081012BAD
:101F4800ECD02581CFE7827922B14379012B01D8E2
:101F5800FFF7C0BF002070477047704770470020E8
:101F68007047704700207047002070477047002076
:101F78007047002070474FF0B04382B0DA6C0243DC
:101F8800DA64DB6C03400193019B02B070474FF0A9
:101F9800B04382B09A6D02439A659B6D03400193EA
:101FA800019B02B070474FF0B04382B0DA6D024334
:101FB800DA65DB6D03400193019B02B070474FF077
:101FC800B04382B01A6E02431A661B6E0340019337
:101FD800019B02B0704750E8003F43F0200340E8FF
:101FE8000032002AF7D1704750E8003F43F08003E1
:101FF80040E80032002AF7D1704750E8003F23F04C
:10200800200340E80032002AF7D1704750E8003F2B
:1020180023F0400340E80032002AF7D1704750E827
:10202800003F23F0800340E80032002AF7D17047D0
:10203800704700000288044B5140C9B233F8113090
:1020480083EA1223038070477C4901089AB110B4CF
:10205800B0F800C0084C0A4411F8013B83EA0C03AD
:10206800DBB2914234F8133083EA1C2CA0F800C08C
:10207800F2D110BC704770477C49010837B54FF65C
:10208800FF730446ADF806304518AC4203D1BDF8DD
:10209800060003B030BD14F8011B0DF10600FFF770
:1020A800C9FFF2E71629A8BF16216FF00800814280
:1020B800B8BF01461170197070470000044B1888AA
:1020C800044B1B8880B29BB2C01A18BF012070470E
:1020D8007A40002078400020044A00231380044AF4
:1020E8001380044A1380044A138070477840002004
:1020F8007A4000207C4200207E4200200020704769
:10210800044B1888044B1B8880B29BB2C01A18BFB6
:102118000120704782440020804400200649074A75
:102128000B8812880133C3F3080392B29A421EBF88
:10213800034AD0540B807047723600207036002056
:10214800703400200023A0F87032A0F86E32704777
:102158000023A0F85C32A0F85A327047044B188864
:10216800044B1B8880B29BB2C01A18BF012070476D
:1021780072360020703600200278024B51405B5CBA
:102188000370704760350108FF230370704700BF74
:102198007047B0F86E32B0F870229B1A98B21B04E0
:1021A80044BF00F5006080B2003818BF01207047B6
:1021B800A0F11400EDE7B0F87022B0F86E12914269
:1021C80003461FBF8118013291F87402B3F87212E6
:1021D8001ABF0A40A3F8702200207047A0F114002B
:1021E800E9E770B50B7803704B7843700B78FD2BDB
:1021F80005460C4638D18B788370CB78C3700B7941
:1022080003714B7943718B7983718B68C3718B68C8
:10221800C3F30F2303728B7A43720A26627804F1A0
:102228000C01A8190FF0C8F86378B4F80C213344EE
:10223800981CEA545A1CB4F80C1192B2090AA95411
:10224800A278D20780B20ED504F58872054404F549
:102258008E7452F8041B45F8041BA242F9D1127877
:102268002A700F3398B270BD00238B700B7983707E
:102278004B79C3708B7903718B6843710626CDE760
:1022880038B54A78352A0D46044601F10C010AD8BA
:102298000FF092F868780021C0F136022044BDE8BA
:1022A80038400FF0E1B8403551F8043B40F8043BA2
:1022B800A942F9D10B88038038BD38B54A781B2A62
:1022C8000C46054601F10C010AD80FF075F8607844
:1022D8000021C0F11C022844BDE838400FF0C4B802
:1022E800283451F8043B45F8043BA142F9D138BDE4
:1022F80038B54A78082A0D46044601F10C010AD877
:102308000FF05AF868780021C0F109022044BDE8AE
:1023180038400FF0A9B8EB6803604B6843600B7A4C
:10232800037238BD38B54A78072A0C46054601F1CC
:102338000C010AD80FF040F860780021C0F10802BB
:102348002844BDE838400FF08FB8E36803604B6855
:10235800436038BD08B52C22034800210FF084F8EB
:10236800024B00221A7008BD340D0020E40500203D
:102378002DE9F0411378037092F8018080F801800C
:10238800FD2B04460F46154654D193788370D378B5
:10239800C3701379037153794371937983716B7A9D
:1023A800127A1B0403EB0223EA79134423F07F43D8
:1023B8000A26A26863F31702A260A919424604F12B
:1023C8000C000EF0F9FF7A7B904507D208F10C005B
:1023D800A2EB0802002120440FF046F863781E445F
:1023E800AB195A78AB5D03EB0223A4F80C31A37840
:1023F800DB070ED5023615FA86F304F5887203F169
:102408000C0153F8040B42F8040B8B42F9D11B78EA
:102418001370BB7A84F82131FB7A84F822313B7B34
:1024280084F823317B7B84F824313B7884F820318D
:10243800BDE8F0810023438093780371D37843711A
:102448001379837153790626B3E738B54A78132A86
:102458000C46054601F10C010AD80EF0ADFF607874
:102468000021C0F114022844BDE838400EF0FCBF3A
:10247800203451F8043B45F8043BA142F9D138BD5A
:102488002DE9F04F0C465188B1F58C7F054685B093
:102498004FF0000010D31070D91CC9B2012995BFA4
:1024A80001210023518053809CBF237011700020AC
:1024B800287005B0BDE8F08F16780E2E00F29080D7
:1024C80001A757F826F000BFA12400080D25000831
:1024D8003525000853250008E9250008E9250008E6
:1024E800E9250008E9250008E9250008E92500088C
:1024F800E9250008E9250008E9250008E92500087C
:1025080065250008481C508063542178FD299BB23A
:1025180006D10C330A21D380918002231370C6E7B9
:1025280008330621D38091800E23F7E7481C50809A
:102538006354D80742BFD1880D31D1800020012BC8
:102548008CBF034603231370B2E7481C5080002059
:102558008342635414BF03460E23F4E7481C50809B
:1025680063545388D1888B4232D30023538013702D
:1025780002232B7069802378FD2B37D163792B7266
:10258800A3796B72637A227A1B0403EB0223E27944
:1025980013446B60637803F10C026A80A278D10758
:1025A80001D519336B8000266968DFF800816E81D8
:1025B80040F285120C20B31801335B0800FB03F7C7
:1025C80058F80770B9421AD25A1EB242F3D818E026
:1025D80092889A423FF66BAF01232B70002068E780
:1025E800107050809080D0802870F7E7E3782B72C5
:1025F80023796B7263796B6063780833D2E71E4680
:10260800E3D80C27774358F80730994227D1237825
:102618002046FD2B10F801BF0CBF4FF00A094FF000
:10262800060909EB0B03591E89B247440193FFF7CA
:1026380025FD97F804A0ADF80E0051460DF10E00E7
:10264800FFF7F8FC019BE218E35C527803EB0223E6
:10265800BDF80E209BB29A4209D0052000E0032065
:102668002870023801288CBF0020012021E7BB799F
:10267800DA0706D5FA79934582BF04EB09018A5C2B
:10268800AA729B0709D50C2303FB068362781B7A81
:102698009A4282BF4C44E35CEB720C2303FB068333
:1026A80085F80CA05B796B730220DAE760360108C5
:1026B8000148436AFFF78FBC004400400A4A0B4BAD
:1026C80012680B49A3FB02323220920C00FB02F283
:1026D800084B486802F5FA72A3FB023292094B686C
:1026E8001B1A9A42FBD870478402002083DE1B43E2
:1026F800001000E0D34D621030B587B0034601AC3E
:1027080000F1100518685968224603C20833AB4225
:102718001446F7D10024094D8DF81440A96801A882
:10272800FDF706FD10B920B207B030BD0134302CDA
:1027380005F10C05F2D14FF0FF30F5E7300000202D
:1027480002780A4B90F801C08178D243D2B29A5CE1
:1027580082EA0C0290F803C09A5C4A40995C0279BC
:1027680081EA0C01595C4A40985C70476035010861
:10277800028810B58488531C234044889C421EBF9D
:1027880012189171038010BD411A88B20B0444BF1E
:1027980000F5007080B2704770B5104C00252346D4
:1027A80026782EB166788E4202D1A67896420BD052
:1027B80001350C2D04F10404F2D1002413F824503F
:1027C8001DB101340C2CF9D170BD012503F824503A
:1027D80003EB8403D87059709A70F5E7E905002077
:1027E8002DE9F8430B460D795A7A9E7ADF7A204B09
:1027F800097A1B5CDB07044600D50DB9FFF7CCFF4F
:1028080000231C491A4898464FF0010E9C4201F8D3
:10281800018B25D02DB90278920702D501F801EC79
:102828001EE0154A4FF0000C92F80090B9F1000F25
:102838000FD092F8039099450BD1002EEED092F864
:102848000190B14505D1002FE8D092F80290B94522
:10285800E4D00CF1010CBCF10C0F02F10402E3D13D
:102868000133DBB2042B00F10100CFD1BDE8F883BE
:1028780019060020E5050020E905002007B50368D2
:102888008DF807101B6901220DF10701984703B065
:102898005DF804FBF0B50546FD2305F80C3B85B053
:1028A80004468DF8043090F8243103F10C020244F8
:1028B800012B42D80026637066808DF805308B7A2C
:1028C80023718DF808308B7AADF8066001338B726E
:1028D80063798DF80930A3798DF80A30A368C3F3BA
:1028E80017031A128DF80B3009211B140DF105007E
:1028F8008DF80D308DF80C20FFF7C0FB6778ADF828
:1029080002003A4629460DF10200FFF79FFB94F8B2
:102918002311FFF78FFB94F82421BDF80230A4F8A7
:102928000C31974210D207F10C00D21B31462044DB
:1029380005B0BDE8F0400EF097BD12F8010D002873
:10294800B8D1013BDBB2B3E705B0F0BD70477047C3
:10295800044AD2F8903023F40043C2F89030FFF7CD
:10296800ADBE00BF0004005808B5FFF7A7FE044A33
:10297800D2F8903043F40043C2F8903008BD00BF4D
:102988000004005870B5044608460D46FDF7DAFB0A
:10299800236882B2294620461B69BDE87040184763
:1029A80010B5524B5A6A037A044692B263B18389CE
:1029B800D31A9BB2B3F5FA7F84BF00230372837ADC
:1029C8004F2B84BF00230372237AA281082B34D8AB
:1029D800DFE803F00533333333333C45500094F8D4
:1029E8000A345BB9EE2901D0C82902D1012384F841
:1029F8000A34EC2904BF022384F80A3494F80A3410
:102A0800012B1BD1EE2901D0C8291BD10123B4F811
:102A18000804A37206236175237270B1012809D0D6
:102A28000BF0CAF901463248FFF7ACFF314930488C
:102A3800FFF7A8FF0023A4F8083410BD022B01D12A
:102A4800EC29E2E7B4F808340133F4E7A37A5A1C16
:102A58002344A2725975617207232372EDE7A27AA3
:102A6800531C2244DBB2A3725175627A9A42E4D2B3
:102A78000823F2E7A37A5A1C2344A2725975E37D0E
:102A8800162B04D1012384F865300923E5E763692F
:102A9800194A03F0FF23934203D1012384F86730D6
:102AA800F3E7164A93421CD1A37E102B19D1E37E7B
:102AB800022B08D0052B0DD0012BE6D1227EEE2A61
:102AC80008BF84F86A30237EEE2BDED1012384F818
:102AD8006B30DAE7012384F86830237F84F86930A3
:102AE800D3E7012384F86630CFE700BF00440140F4
:102AF8002C000020401A010800C8002800C8003235
:102B080008B5FFF73FFF08BDB0F1904F02D1012093
:102B1800FFF731BA084B984205D003F58063984215
:102B280003D10420F4E70220F2E7044B984201D1D4
:102B38008020EDE7704700BF00040048001C0048F3
:102B48000C4B984203D14FF40060FFF738BAB0F14C
:102B5800804F05D0084B984205D14FF40030F4E778
:102B68000120FFF714BA054B984202D14FF4802098
:102B7800EBE77047002C0140004401400048014049
:102B88002DE9F04387B00E4605461446002114226D
:102B980001A89DF838809DF83C901F460EF064FC13
:102BA80000960B2C07D8DFE804F007070A12141464
:102BB800141616161A1CFEE70323019301E00223DC
:102BC8000493032F11D8DFE807F011132111012313
:102BD800F6E70123F1E7012301930393F1E70223C9
:102BE800EBE7022301930123F7E7FEE702230293B1
:102BF800B8F1100F0CD8DFE808F02D2D0C111315C3
:102C080017191B1D1F21232527292B000123EEE758
:102C1800FEE701230593022301931EE00223F9E74F
:102C28000323F7E70423F5E70523F3E70623F1E792
:102C38000723EFE70823EDE70923EBE70A23E9E792
:102C48000B23E7E70C23E5E70D23E3E70E23E1E792
:102C58000F23DFE7B8F1000FDDD1B9F1000F02D083
:102C68002846FFF751FF053C042C05D8DFE804F09F
:102C7800030B04030B00AE62694628460CF06CFB9C
:102C880007B0BDE8F083AE61F6E713B54FF0010C6D
:102C98000024CDE9004CFFF773FF02B010BD00001F
:102CA80007B50E48FFF7A9F9036823F0010303608D
:102CB800436823F400434360036843F0010303605F
:102CC80000220823CDE90032042103230A224FF011
:102CD8009040FFF755FF03B05DF804FB0044004047
:102CE80030B587B0002315460446ADF80630FFF727
:102CF80027FF042D04D8DFE805F02E3204363F0004
:102D0800FEE71E4B1E4A1B68B3FBF2F39BB2002280
:102D1800CDE90221013B01A92046ADF80430049217
:102D280005920CF0EDFD236823F080032360A3686F
:102D380023F4A03323F00703A360636823F0700330
:102D48006360636823F470036360A36823F08003FF
:102D5800A36007B030BD094B0A4A1B68D4E7074B8C
:102D6800094A1B68D0E7054B064A1B68B3FBF2F318
:102D780003EB83035B00C9E70123C8E78402002053
:102D880080A8120140420F0000127A0010B50446D4
:102D9800FFF7A6FF236843F00103236010BD00225C
:102DA8004FF0FF31FFF7F2BF204B10B5204C5B68A6
:102DB80023600BF037FC4FF090400CF08FFA1D4861
:102DC8000CF08CFA1C480CF089FA1C480CF026FF11
:102DD8001B480CF023FF1B480CF034FD0CF072FC70
:102DE8004FF0E02200234FF0B0411361536193612B
:102DF8008A6822F0030242F001028A6072B64FF03C
:102E0800FF319A0002F1604202F561420133082B5A
:102E1800C2F88010C2F88011F3D162B6034B1B6868
:102E280083F3088823689847FEE700BF0000FF1F68
:102E3800E005002000040048000800480038014070
:102E480000440040003001400749084A881AEFF35F
:102E58000883521A1A44013A013B984288BF00225B
:102E6800AA210EF001BB00BF0000012000040000F1
:102E7800044B5A69586910F0020018BFC2F3800069
:102E8800704700BF000400584FF0B042D2F89430A9
:102E980043F40043C2F894304FF47A7300BF013B07
:102EA8009BB2002BFAD14FF0B043D3F8942022F410
:102EB8000042C3F89420D3F894205204FBD40C4B5E
:102EC800D3F8902022F40042C3F890204FF47A728D
:102ED80000BF013A92B2002AFAD1D3F8902042F406
:102EE8000042C3F890204FF400629A61704700BF17
:102EF8000004005810B50323052220214FF090400C
:102F0800FFF7C3FEBDE810400323052210214FF050
:102F18009040FFF7BABE08B5FFF7AAFF003818BF00
:102F2800012008BD08B5FFF7F6FF00B908BD00BFCE
:102F3800F9E74FF0904310229A6220229A61704775
:102F48004FF0904320229A6210229A617047000045
:102F5800024B4FF480225A60704700BF00E100E046
:102F68000248002303220821FFF78FBE000400480F
:102F7800034B186980F00800C0F3C000704700BF19
:102F88000004004810B5084C0023204605224FF4E1
:102F98008061FFF77AFE20460023BDE81040052235
:102FA8002021FFF772BE00BF0004004805494B69A5
:102FB8001A04DB4302F0806203F4806313438B61DD
:102FC800704700BF0004004805494B691A04DB43F9
:102FD80002F4001203F0200313438B61704700BF13
:102FE800000400480C4BD3F8FC2022F08072C3F890
:102FF800FC20D3F8FC2042F08072C3F8FC20A3F533
:103008005D431A6822F001021A601A6842F0010250
:103018001A6000225A60704700ED00E00649074B2D
:10302800074A1B68B3FBF2F310B54C6843434A6880
:10303800121B9A42FBD310BD001000E0840200204E
:1030480040420F001FB50223CDE9013101A8012339
:10305800694603930BF050FC00280CBF04200520A0
:1030680005B05DF804FB014608B501200BF0FEFB36
:1030780000280CBF0420052008BD08B5FFF7E2FFB3
:10308800031F5842584108BD08B5FFF7ECFF031F5E
:103098005842584108BD00002DE9F047294B2A4DF8
:1030A80001280E4614462949294A0FBF792778274F
:1030B800AA461D4606BF88469A4690460BF08AFBEC
:1030C80039462846FFF7D9FF28B900240BF094FBAE
:1030D8002046BDE8F087002E08BF4FF4FC64073493
:1030E80024F0070405F11007B1463444AAEB050A99
:1030F800A1450BD14FF011324FF0FF332846FFF7AF
:10310800C3FF041E18BF0124A400DFE76EB90AEB51
:103118000703D3E90023B3F1FF3F08BFB2F1FF3F34
:1031280006D1083709F10809E2E7D9E90023F2E7EF
:10313800B84505D93846FFF7A7FF0028F1D1C4E7FD
:103148000324C3E700C0030800C80308FFCF03082F
:10315800FFC7030810B50BF03DFB09487821FFF7BE
:103168008CFF044638B107487921FFF786FF041E13
:1031780018BF0124A4000BF03FFB204610BD00BF80
:1031880000C0030800C8030830B5084D002340F20A
:10319800EF749AB2914201D8042030BDA34203D003
:1031A8005A5DC2540133F4E70320F6E710C0030860
:1031B80038B504460D4672B60A4601460020FFF7A8
:1031C8006BFF62B6042806D172B601202A46214652
:1031D800FFF762FF62B638BD38B5124B1C68D3F8EA
:1031E8000058B4F1113F09D1B5F1113F17D00022B1
:1031F80011460120BDE83840FFF74EBFB5F1113F39
:1032080003D1002211461046F4E7FFF7A3FF042874
:1032180004D12C4001340CBF0220012038BD042009
:10322800FCE700BF00C00308044B9A689107FCD56F
:1032380018739A68D207FCD5187B704700000158AC
:1032480070B50C46451E8E18B44200D170BD15F8F5
:10325800010FFFF7E9FF04F8010BF5E708461146EF
:103268001A46FFF7EDBF000070B5064E0446451834
:10327800A54200D170BD3078FFF7D6FF04F8010BE6
:10328800F6E700BF7802002008461146FFF7ECBFBA
:1032980038B504464518AC4200D138BD14F8010BC6
:1032A800FFF7C2FFF7E708461146FFF7F1BF000036
:1032B80010B58CB02822002102A80EF0D5F84FF0E6
:1032C800B0431C4C5A6E42F001025A665B6E03F022
:1032D80001030193019BFFF7D7FD082208924FF4E1
:1032E8008272002303924FF40072CDE90533CDE9D1
:1032F80009330293079207234FF4E06202A920469C
:103308000B9304920CF0C2FA636823F01003636015
:10331800636823F008036360236843F04003236075
:10332800A3689B07FCD5237B034BFF221A700CB0C4
:1033380010BD00BF00000158780200201B4B10B4DC
:10334800DC69A00611D51A6891060ED518481949E6
:103358005A6A038809880133C3F30A0389B2994278
:103368001FBF1549D2B2CA54038010481F23220632
:10337800036215D503681B0612D5104B104A19882D
:10338800138889B29BB299420CD013880133C3F3D6
:103398000803138013880B4A9BB2D35CDBB28362A9
:1033A80010BC704710BCFEF73ABE00BF00380140A1
:1033B8007A40002078400020783800207E420020A3
:1033C8007C4200207C4000200A490B4A08B50B8843
:1033D80012880133C3F3080392B29A4207D0074A0E
:1033E800D05407480B80FEF7FFFD012008BD0020E0
:1033F800FCE700BF7E4200207C4200207C40002089
:103408000038014038B504464518AC4200D138BDF3
:1034180014F8010BFFF7D8FFF7E708461146FFF746
:10342800F1BF0000054B064A1B8810880133C3F31F
:10343800080380B2181A18BF012070477E42002086
:103448007C42002008B5FFF7EDFFB0FA80F0400994
:1034580008BD0000054B064A1B8812889B1A98B2C3
:103468001B0444BF00F5006080B270477A4000201A
:1034780078400020FFF7EEBF0848094A0188138802
:1034880089B29BB29942F9D013880133C3F30A0376
:1034980013801388034A9BB2D05C70477A4000209F
:1034A8007840002078380020FFF7E6BF70B588B074
:1034B8000C46064615460021202268460DF0D4FF2A
:1034C800231E18BF01231B03CDE9023569460C23CF
:1034D80003480196049405930CF0C4FB08B070BD32
:1034E8000038014010B5064C236823F0010323601F
:1034F800FFF7DCFF236843F00103236010BD00BF22
:1035080000380140002208461146FFF7EBBF0000D3
:1035180073B5304C236823F0010323600825012686
:103528004FF48040FEF74BFD4021CDE900562A4874
:1035380003230A22FFF724FB03231A46CDE900568A
:1035480025488021FFF71CFB002211464FF4E1308B
:10355800FFF7ACFF636823F490436360A36823F02C
:103568002A03A3601D4BB02283F8242310225A603B
:103578002046FEF754FDFEF749FD40232362184B11
:1035880000211980174B1980FEF737FD164B19805B
:10359800164B1980636823F400636360A36823F003
:1035A8000803A360636823F480436360A36823F07F
:1035B8002203A360A36843F48053A36023683343C2
:1035C8002360E3699A02FCD5E3695B02F9D502B08E
:1035D80070BD00BF003801400004004800E100E071
:1035E8007C4200207E420020784000207A40002063
:1035F80008B5FFF78DFF0348436ABDE80840FEF7AA
:10360800EABC00BF00380140FFF7F2BF1B4B10B403
:10361800DC69A00611D51A6891060ED51848194913
:103628005A6A038809880133C3F3080389B29942A7
:103638001FBF1549D2B2CA54038010481F2322065F
:10364800036215D503681B0612D5104B104A19885A
:10365800138889B29BB299420CD013880133C3F303
:103668000A03138013880B4A9BB2D35CDBB28362D4
:1036780010BC704710BCFEF7D2BC00BF00800040F1
:10368800824400208044002080420020864C002094
:10369800844C0020844400200A490B4A08B50B8852
:1036A80012880133C3F30A0392B29A4207D0074A39
:1036B800D05407480B80FEF797FC012008BD002076
:1036C800FCE700BF864C0020844C00208444002086
:1036D8000080004038B504464518AC4200D138BDDA
:1036E80014F8010BFFF7D8FFF7E708461146FFF774
:1036F800F1BF0000054B064A1B8810880133C3F34D
:103708000A0380B2181A18BF01207047864C00209F
:10371800844C002008B5FFF7EDFFB0FA80F04009AF
:1037280008BD00000848094A0188138889B29BB27D
:103738009942F9D013880133C3F30803138013881F
:10374800034A9BB2D05C704782440020804400202A
:1037580080420020FFF7E6BF70B588B00C460646E9
:10376800154600211C2201A80DF07EFE231E18BF5D
:1037780001231B03CDE9033501A90C230348029655
:10378800059406930BF06CFE08B070BD00800040F5
:1037980073B5394C236823F00103012023600926FF
:1037A800FEF701FC054601900323344800960A22DF
:1037B8000221FFF7E5F903231A4630482946CDE9E7
:1037C8000065FFF7DDF9002211464FF4E130FFF7FD
:1037D800C3FF236823F00053236004F1080353E870
:1037E800003F23F0604304F1080141E80032002A59
:1037F800F3D104F1080353E8003F23F0606304F1B8
:10380800080242E800310029F3D11D4BB02283F8A9
:10381800262340255D601848FEF701FCFEF7F6FBFD
:10382800184B25621980184B1980FEF7E6FB174BD9
:103838001980174B1980636823F400636360A368D9
:1038480023F00803A360636823F480436360A368DC
:1038580023F02203A360A36843F48053A360236882
:1038680043F001032360C3699A02FCD5C3695B0274
:10387800F9D502B070BD00BF0080004000080048C4
:1038880000E100E0844C0020864C002080440020A9
:103898008244002008B5FFF77BFF0348436ABDE870
:1038A8000840FEF798BB00BF00800040FFF7F2BF5A
:1038B800084BDA6892070CD4074A012111805A6A2A
:1038C80010325A636FF002021A61DA6842F002029B
:1038D800DA6070470048014044310020304A1369DB
:1038E8009B0710B525D56FF0020313612D4B1B887C
:1038F800516B11FA83F353632B4B198889B2002952
:1039080045D01988013189B21980198889B20229EC
:1039180010D84FF0904301229A62244A1388013349
:10392800C3F3080313801388214A9BB2D35C214A4E
:10393800138010BD198889B20A290FD81D4B1A881F
:1039480012F0010F4FF090424FF0010114BF916146
:1039580091621A88C2F34E021A80EAE719884FF07A
:10396800904089B20B294FF00101816109D1124AB7
:1039780010880E4A128880B292B29042D9D019802B
:10398800D7E7D16821F00201D1600022E4E74FF0C7
:10399800904001248461D06820F00200D060EEE7F6
:1039A80000480140403100204431002048330020C5
:1039B80046310020463300204A33002009490A4A8C
:1039C80008B50B8812880133C3F3080392B29A42F0
:1039D80006D0064AD0540B80FFF76AFF012008BDC5
:1039E8000020FCE74A3300204833002046310020FD
:1039F80038B504464518AC4200D138BD14F8010B5F
:103A0800FFF7DCFFF7E708461146FFF7F1BF0000B4
:103A1800B0F5614F0D4A0E4B0CD0B0F5E13F10D018
:103A2800B0F5165F0DD172B640F24131118040F207
:103A3800E24203E072B68B211180D0221A8062B66E
:103A4800704772B6452111805422F7E740310020B3
:103A58004231002030B5032389B0052201214FF0FF
:103A68009040FFF712F9194C4FF0904301259D61E2
:103A78002A4620464FF0FF31FFF788F9202200211F
:103A880068460DF0F1FC6A46294620460BF072FFA5
:103A98000F4AD2F8183823F00403C2F818386FF028
:103AA800020323610B4B902283F81D234FF0005231
:103AB8001A604FF4E130FFF7ABFF074A0023138089
:103AC800064A1380064A138009B030BD00480140F9
:103AD8000040014000E100E0483300204A33002064
:103AE80044310020FFF7B6BF024B1A68024B1A6038
:103AF800704700BFB44C0020200B0020054A064B3D
:103B08001968136899421DBF013301201360002012
:103B1800704700BF200B0020B44C0020034A044B20
:103B280011681B780B441360704700BFB44C002029
:103B380088020020014B1868704700BFB44C002071
:103B48000148FFF72CB900BF00440140014B586AF7
:103B580080B270470044014008B5FFF7F1FFBDE8A7
:103B68000840FFF7C1BF0000044BDA6822F00202E8
:103B7800DA606FF002021A61704700BF004401402A
:103B8800002208B50260FFF7EFFF044BF02283F82C
:103B98001C234FF080521A6008BD00BF00E100E00E
:103BA80008B5036853B1FFF7DFFF054B5A6A1144A4
:103BB80089B25963DA6842F00202DA6008BD00BFD0
:103BC80000440140074B1A69920709D56FF00202B9
:103BD8001A61DA6822F00202DA60034B1B681847A0
:103BE800704700BF004401406C3400202DE9F041CB
:103BF8001D4CDFF87880C0220021201D0DF034FC18
:103C08001623062563800F23A3802A4643234146B3
:103C180060192580FDF7FCFC154B0526C4E9133611
:103C28003F230227A4F854302A464323414604F18F
:103C38005600A4F84A70FDF7EBFC4FF48033C4F843
:103C48009C300C49A4F89A70002304F1AC00C4E934
:103C5800293384F8A0300DF081FB7F2384F8C1302C
:103C680084F8C260BDE8F0811C050020EC2D010835
:103C78000F000300931A010870B5094E05460C465B
:103C8800415C30460DF081FB034628B1831B0133AC
:103C9800DBB2282B28BF0023F35C2B5570BD00BF77
:103CA8003435010870B50C46114606460DF056FB32
:103CB80044B10025052130460135FFF7DDFFEBB2A1
:103CC8009C42F7D870BD000073B5054605F1110692
:103CD800214C224A014636016846FFF7E3FFB01C33
:103CE800694620440DF03AFB264404EB05110023F5
:103CF80002227272A1F81A31142101FB0540042531
:103D0800012180F850504FF4807640F20115A0F858
:103D18004A20C164A0F8521080F85510A0F85660E7
:103D2800A0F8585040F2032084F83430E284A662A8
:103D3800A08584F82E1084F8302084F83330C4F835
:103D48003A30C4F83E30C4F84230A4F84650A4F8DB
:103D5800485002B070BD00BF600300204E1A010831
:103D6800F7B50546B14CB24A05F1110601463701CF
:103D78006846FFF797FFB81C274469462044FDF7BB
:103D880069FB7B7AAB4A072B88BF022304EB06103A
:103D980088BF7B721188437A41FA03F3DF070FD497
:103DA8000223437261B14807C1F3800308D441FA82
:103DB80003F7FF07D8B240F1D88104EB0613587215
:103DC80004EB05112B0191F81A01052802D90020EE
:103DD80081F81A01E718508897F81A1140FA01F18A
:103DE800C90711D4012187F81A1168B18707C0F3F0
:103DF800400109D440FA01FC1CF0010FCFB200F0D9
:103E0800B981E11881F81A71E11891F81B010328AA
:103E180002D9002081F81B0104EB0616717A0129EA
:103E280003D9042901D000219180E618908896F8DA
:103E38001B1140FA01F111F001010ED186F81B1196
:103E480058B110F0010108D140FA01F7FF07CEB2CE
:103E580040F19581234483F81B61142303FB05413A
:103E680091F84A00052802D9022081F84A0003FB8C
:103E7800054393F84B10042902D9002183F84B100D
:103E8800142303FB0543B2F84A1093F84B0041FA98
:103E980000F0C00712D4012083F84B0071B18807E5
:103EA800C1F340030AD441FA03F6F707D8B240F148
:103EB8006B81142303FB054383F84B00142303FB96
:103EC800054393F84C10032902D9012183F84C10BB
:103ED800142000FB0540B2F84C1090F84C3041FA21
:103EE80003F313F0010310D180F84C3069B111F0DD
:103EF80001030AD141FA03F6F607D8B240F1498125
:103F0800142303FB054383F84C00142303FB0543E8
:103F180093F84E10012902D9002183F84E1014207D
:103F280000FB0540B2F84E1090F84E3041FA03F30A
:103F380013F0010310D180F84E3069B111F001037C
:103F48000AD141FA03F6F707D8B240F127811423C2
:103F580003FB054383F84E00142303FB054393F842
:103F68004F10022902D9002183F84F10142000FBBA
:103F78000540B2F8503090F84F1043FA01F111F0B3
:103F8800010110D180F84F106BB113F001010AD173
:103F980043FA01F6F607C8B240F10581142101FB86
:103FA800054181F84F00142101FB054090F84D6050
:103FB800022E02D9002680F84D6001FB054191F8D8
:103FC8005000052802D9042081F85000142101FB73
:103FD800054090F85260012E02D9012680F85260FF
:103FE80001FB054191F85500012802D9012081F80B
:103FF8005500142101FB054191F85300022802D90C
:10400800002081F85300142606FB0546B2F852003A
:1040180096F8531040FA01F111F0010117D186F812
:104028005310A0B110F0010111D105E06003002088
:104038004E1A01081C05002040FA01F7FF07CEB20E
:1040480040F1B680142101FB054181F85360142129
:1040580001FB054090F856600C2E02D9002680F826
:10406800566001FB054191F84C00012809D191F8EF
:104078004F60022E05D1DF0740F19F80002381F8B1
:104088004F30142303FB0543012183F8571040F2F6
:104098000111A3F8581094F82630052B02D90223F1
:1040A80084F8263094F82730042B02D9002384F8AA
:1040B8002730B2F89A0094F8273040FA03F313F047
:1040C800010F8A4B0ED1012184F8271050B18607C1
:1040D800C0F3400106D440FA01F7FF07CEB271D50C
:1040E80083F8276094F82810022902D9002184F85F
:1040F800281094F82910032902D9012184F82910DD
:10410800B2F89C1094F8292041FA02F212F0010248
:104118000CD184F8292049B111F0010206D141FAE5
:1041280002F6F607D0B251D583F8290094F82A2070
:104138000C2A02D9002284F82A2093F832200C2A6B
:1041480002D9002283F8322093F82B20042A02D9BE
:10415800002283F82B2000226549104611F9014FEF
:1041680014F1780F36DA087036E00133102B7FF43B
:104178001EAE25E6013110297FF43CAE44E601313C
:1041880010297FF461AE68E60133102B7FF48BAE03
:1041980094E60133102B7FF4ADAEB6E60133102B55
:1041A8007FF4CFAED8E6013110297FF4F1AEFAE6FC
:1041B800013110297FF440AF49E713F0020318BF1B
:1041C80003465CE70131102985D18BE70132102ABB
:1041D800A5D1ABE7782CC6DC0132D2B20C2ABDD10E
:1041E80044490022012011F8014F0132022CD2B2B9
:1041F80088BF0870042AF6D193F83420012A02D91E
:10420800002283F834203C4AB2F89E1093F83420F8
:1042180041FA02F212F001020CD183F8342049B1BC
:1042280011F0010206D141FA02F4E407D0B211D527
:1042380083F8340093F82C20052A02D9032283F846
:104248002C2093F82D20032A08D80AD1002283F8BD
:10425800342006E00132102AE5D1EBE7022283F888
:104268002D2093F82E20022A02D9012283F82E202D
:1042780093F83020022A02D9022283F8302093F8DA
:1042880033200C2A02D9002283F8332093F83520F2
:10429800042A02D9002283F83520142202FB0531B2
:1042A80091F85A00012802D9002081F85A0002FB2F
:1042B8000532FF2103EB05154FF6FF7082F8511008
:1042C80082F8541083F82F1083F831104FF0FF3123
:1042D800C5F81C11A5F820011962998482F85B00C1
:1042E800A2F85C10D986198703B0F0BD60030020DE
:1042F80099030020A50300201C050020034670B583
:104308000846052B04D8DFE803F01D0421191D21F8
:10431800FEE720261F250F22174CA3702277013BAA
:104328000122A4F84860A4F84A50A276A273042B8C
:1043380010D8DFE803F010181B1B180009266F259A
:104348000722E9E7142632250A22E5E73526132550
:104358001922E1E7FEE7002323712374FDF750FBE0
:104368006073607670BD22712274F7E700232371B1
:104378002374A376A373F1E704030020044B0122FE
:1043880083F85120A3F85220A3F85420704700BFA7
:10439800040300202DE9F043944D954C00F11108D9
:1043A80005EB081702378BB006463846FDF76EF85E
:1043B800042100906846FDF761FE05EB0613E083D3
:1043C80093F81B314FEA06192BB103EB031303EBE8
:1043D80003231844E08305EB08135B7A062B40F0AF
:1043E800B680E38B03F5B5432533E383142303FB3E
:1043F800065305EB081893F84B00FFF7BFFF98F832
:10440800091061708B1FA944012B8CBF0023012365
:1044180099F81A0184F85630FFF770FF99F81B21B4
:10442800E18B009BE1806182A36063612AB14FF058
:10443800113000FB0233A3606361142303FB0653AE
:10444800616293F84A006B4B84F8292013F92030F5
:1044580023732376002384F82A30637B23B93846F4
:10446800FDF734F884F82A006078FDF7C9FA624A43
:1044780084F82800128802F00101970748BF41F02C
:104488000201A1850346500742BFA18D41F00401F6
:10449800A185110742BFA18D41F01001A185D70662
:1044A80042BFA18D41F02001A185900642BFA28D97
:1044B80042F00802A285514A01AF02F1200E1068AD
:1044C8005168BC46ACE80300083272456746F6D12D
:1044D8001068CCF80000A278494F06210AA801FB11
:1044E8000303134413F8248C84F8208017E90F0081
:1044F80087E80F0040F2E2434046A4F84C30FCF74E
:10450800D1FA4FF07F51FCF721FBFCF721FDB4F8FD
:1045180048204FF47A73B3FBF2F3A4F84030142325
:1045280003FB06534FEA5808B8F1050F93F85030CB
:10453800C0B238BF4FF00508A4F84E0084F8508088
:10454800052B33D8DFE803F00B382C2F3235072B37
:104558007FF44CAFE38BA3F5B543263B45E74FF417
:1045680016536364002384F8573084F859301423B1
:1045780003FB065696F84C30032B03D096F84F20D1
:10458800022A02D1012284F85720591E4A424A4180
:1045980084F8582094F857208AB1012B0FD1FEE7F0
:1045A8004FF41643DDE74FF46143DAE74FF4E133A4
:1045B800D7E74FF46133D4E74FF49643D1E7217836
:1045C800142000FB015595F84C10022907D1012150
:1045D80084F8591022B194F859301BB1FEE70AB992
:1045E800012BF8D00BB0BDE8F08300BF60030020BA
:1045F80004030020EC2D01081C0500207018010898
:104608003403002002484FF4DE72FF210CF02CBF67
:104618006003002002484FF4DE71FEF7C9BD00BFF9
:104628006003002002484FF4DE71FEF7ADBD00BF05
:104638006003002008B5FFF7F5FF034B1878BDE8C5
:104648000840FFF78DBB00BF0403002038B5FFF713
:10465800D9FFFEF7C1FD04280CD0FFF7D3FFFEF702
:10466800BBFD042803D1FFF7DDFF042806D0FFF7C0
:10467800C9FF03E0FFF7D6FF0428EED12F493048E1
:104688002F4C10220CF0A6FE38B12E4910222046DD
:104698000CF0A0FE08B1FFF7B5FFA38AB3F5215FC0
:1046A80028D008D30025E8B20135FFF70DFB0A2D05
:1046B800F9D10023E3774FF42153A382012522691E
:1046C8001E491F4842F6A1039A424FF010021CBF30
:1046D800236101250CF07EFE70B11849184810229C
:1046E800FDF714F8184919480822FDF70FF8FFF7E5
:1046F80091FF03E00025E2E7002DF8D1E37F104A9F
:10470800092B84BF0023E377E17F1420002300FBFB
:104718000144013394F84C0082F84C000A2B02F152
:104728001402F6D10A4C2170FFF760FA2078FFF7DF
:1047380017FB2078BDE83840FFF72CBE551A010852
:1047480060030020661A0108771A01081205002084
:10475800040300200129F7B5054600D9FEE70B4EF2
:1047680006EB01131C460F016278F15D03619B782B
:1047780009F09CFCE3790193A3790093227963798A
:10478800E178284609F0B9FC03B0F0BD9C4B01085C
:1047980038B5836804466BB1024652F8183BDD69A8
:1047A80000F11903A847217E20460222BDE83840BF
:1047B80009F005BD38BD000070B58160897A86B002
:1047C800044601B1012109F04AFC204609F0C9FD5F
:1047D800204609F0A1FD217BFF2903D0FA222046BB
:1047E80009F0A6FDA3685B7A013B042B04D8DFE837
:1047F80003F0043E3E414100FEE7E922E121204664
:1048080009F0D4FD0121204609F063FD96212046D8
:1048180009F0A0FD3821204609F0B2FD204609F034
:10482800B7FDA368204693F90810FFF7B1FFA36806
:104838009D7A15B319782046FFF78CFF00221146A0
:10484800204609F026FC0023009340F2032220466C
:104858004FF6FF7109F080FC20464FF6FF7109F012
:10486800A2FC204606B0BDE8704009F042BDDB223C
:10487800D721C4E76F226B21C1E75E880E4B6361C5
:104888004CF25033009320460C4919230B2209F0AF
:104898009BFD0123CDE903335B23CDE901531023AD
:1048A800194620460095042209F0CCFD31462046E1
:1048B80009F0ECFDC2E700BF7C4B0108A0860100AF
:1048C80010B5044609F015FD20464FF6FF71BDE806
:1048D800104009F068BC000038B58168036891F998
:1048E8000810DD69044600F1190300F11802A84711
:1048F800A3689A7A42B11A78012A00D9FEE7044BD4
:1049080003EB0213236138BD024B6361FBE700BF71
:104918009C4B01087C4B010810B50A4CA06858B1A3
:10492800236923B9636913B92046FFF7D5FFA36844
:104938009B7A23B123699868A0F57A7010BD6369E2
:104948009869F9E74C330020836810B5044683B1B1
:1049580003691BB943690BB9FFF7BEFFA3689B7ACC
:104968001BB12369B3F90C0010BD6369B3F91C00CE
:10497800FAE71846F8E7836810B5044643B10369B7
:104988001BB943690BB9FFF7A7FF94F9190010BDCC
:104998001846FCE708B5836843B9FFF70DFF7D208B
:1049A800FEF73CFBBDE80840FEF7D2BA08BD0000A0
:1049B80090F8D43053B190F8D520074B03EBC201DF
:1049C80053F83230497953F821007047037C00EBE3
:1049D8008300406B704700BFBC2D010838B51546F1
:1049E800044604EB8504084606490CF0B7FC606BE6
:1049F800FCF754F80449FCF7A9F80BF0ADF9FCF7FB
:104A0800A7FA38BD7D1A010800007A3A2DE9F3416A
:104A18009DF824701646402F88464FF05B024FF0F1
:104A2800000104461D4628BF40270CF01DFDA24B7F
:104A3800DB8B23803278A37862F30203A37071784A
:104A48004FEA0818C90001F0080108F03008DBB285
:104A580023F0380341EA08011943A1707279E37819
:104A680062F38203E370B279A37962F30003A3715E
:104A780096F90200FCF71BFCE37800F01F0203F034
:104A8800070343EAC203E3702379C0F3411023F01C
:104A9800030303432371F27962F382032371327AA9
:104AA800DBB202F01F0203F0070343EAC2032371DB
:104AB800327A6379C2F3401223F00103134363711E
:104AC800327962F347036371727AA37802F00302C2
:104AD80003F03F0343EA8213A370727AE378C2F3C8
:104AE800800223F001031343E370B27A62F34103B7
:104AF800E370A37967F34703A3712B78AA78E3716E
:104B08006B7802F01F0203F0070343EAC203237223
:104B18006A88637AC2F3451223F03F031343637232
:104B28002A79DBB202F0030203F03F0343EA82135F
:104B38006372AB88C3F38703A3726A79E37AC2F31B
:104B4800800223F001031343E372AA79DBB202F077
:104B58007F0203F0010343EA4203E372EA88237BFE
:104B6800C2F3C31223F00F03134323732B7AAA7AD9
:104B7800E3736B7A02F01F0203F0070343EAC203F0
:104B880023746A89637CC2F3451223F03F031343FD
:104B980063742A7BDBB202F0030203F03F0343EAAB
:104BA80082136374AB89C3F38703A3746A7BE37CC2
:104BB800C2F3800223F001031343E374AA7BDBB240
:104BC80002F07F0203F0010343EA4203E374EA8937
:104BD800237DC2F3C31223F00F03134323752B8ADB
:104BE800DB0863756B8ADB08A375AB8ADB08E375A2
:104BF800EB8ADB0823762B8BB3F5C06F4ED2B3F567
:104C0800007F94BF00230123227B63F305122273E4
:104C18006B8BB3F5C06F43D2B3F5007F94BF00230D
:104C28000123227B63F387122273AB8BB3F5C06F2A
:104C380038D2B3F5007F94BF00230123227D63F3AC
:104C480005122275EB8BB3F5C06F2DD2B3F5007F3B
:104C580094BF00230123227D63F38712089B2275EA
:104C68001F4404F11802BB4220D14FF6FF732146BE
:104C78000DF106000D22ADF80630FDF7E7F92146E3
:104C8800BDF8063021F80D3F4C22FDF7DFF9BDF8DD
:104C98000630A4F8593002B0BDE8F0810223B3E72A
:104CA8000223BEE70223C9E70223D4E713F8011B56
:104CB80002F8011FD7E700BF0403002013B59DF8D1
:104CC8001040CDE9003413460A460021FFF79EFE46
:104CD80002B010BD13B5144B0288DB8B9A42044610
:104CE8001DD1837803F03003102B01D0202B18D16D
:104CF800A379A52B15D84FF6FF730DF1060059229D
:104D08002146ADF80630FDF7A1F9B4F85900BDF811
:104D18000630C01A18BF0120800002B010BD012063
:104D2800FBE70220F9E700BF0403002030B53A4B47
:104D3800027893F8261061F30302027093F82710A3
:104D480061F30712027093F82810427861F30302A6
:104D5800427093F8291061F30712427093F82A10F1
:104D6800827861F30302827093F83210827961F3DA
:104D78000302827193F82B10827861F30712827014
:104D880093F83410C27961F30302C27193F82C10BE
:104D9800C27861F30302C27093F82D1061F3071211
:104DA800C27093F82E10027961F3030202714279FE
:104DB80093F8301061F30302427193F8331082794B
:104DC80061F30712827193F83510C27961F3071203
:104DD800C27103F1390100F10A0200F1160411F958
:104DE800015F02F8015FA242F9D193F84610C27D33
:104DF80061F30102C27593F8471061F38302C2752B
:104E080093F8481061F30512C27593F8493063F3BB
:104E18008712C27530BD00BF600300200278344B92
:104E2800C2F3030230B583F826200278C2F30312D6
:104E380083F827204278C2F3030283F828204278B7
:104E4800C2F3031283F829208278C2F3030283F89D
:104E58002A208279C2F3030283F832208278C2F3CF
:104E6800031283F82B20C279C2F3030283F834209B
:104E7800C278C2F3030283F82C20C278C2F303126B
:104E880083F82D200279C2F3030283F82E20427999
:104E9800C2F3030283F830208279C2F3031283F845
:104EA8003320C279C2F3031283F8352003F13901A4
:104EB80000F10A0200F1160412F9015F01F8015F1E
:104EC800A242F9D1C27DC2F3010283F84620C27D15
:104ED800C2F3810283F84720C27DC2F3011283F82E
:104EE8004820C27DC2F3811283F8492030BD00BF3B
:104EF800600300201FB58DF80C300123019303AB2C
:104F0800009313460A460221FFF780FD05B05DF8BD
:104F180004FB0000F0B5234D012385F8A0300446BA
:104F280085B0B0F80900FCF798FBC5F8A400B4F800
:104F38000B00FCF792FB1422C5F8A80004F10D0140
:104F480005F1AC00FCF7F4FB94F9213085F8C13089
:104F580094F8223085F8C23004F12300FFF75EFF91
:104F68006E4604F1410304F1510718685968324646
:104F780003C20833BB421646F7D10B484323082225
:104F88006946FCF7EDFA94F85130A5F89A3094F890
:104F98005230A5F89C3094F85330A5F89E3005B0EF
:104FA800F0BD00BF1C050020720500202DE9F04768
:104FB80092B0DFF890A0244C0DF108084FF040099A
:104FC80005460E46174600214A4640460CF04CFA64
:104FD8009AF8001004EB011122230DF10A000622B1
:104FE80001F589718DF80830FCF790FB9AF80010EC
:104FF80004EB011205A892F81A3192F8194103F04E
:105008000F0304F00F0444EA031492F81B3103F071
:105018000F0344EA0324BDF8103023F47F6323F020
:105028000F031C43ADF81040FFF780FECDE900895F
:105038003B46324602212846FFF7E8FC12B0BDE89D
:10504800F08700BF0403002060030020034B0449DD
:105058001A68044801FB0200186070472006002007
:105068000D6619005FF36E3C38B50B4A0B4D13788B
:105078002C78A34205D101332B70287800F0010069
:1050880038BD1470FFF7E2FF6FF0004398423CBF51
:1050980001342C70F1E700BF1D0600201E06002019
:1050A8000B4A0C49126882600A6802614A680A4918
:1050B80042610A6882614A68C26100234EF6602232
:1050C800838083718381038402600385704700BFF6
:1050D800B44C0020821A01088B1A010810B50E4C36
:1050E800A36803B9FEE70D4A12791A700021204619
:1050F80008F09EFF4FF47A70FDF790FF20460121DB
:1051080008F0ADFFA36820461978FFF723FB204677
:10511800FFF7D6FB10BD00BF4C330020040300206E
:1051280038B5174D0446A878697805281CD14FF67C
:10513800FF732385FFF7E2F86B7801229A40238DED
:1051480023EA020323850F490F48FFF723FC0E4883
:10515800FFF7B6FB0C486FF07F01FFF719FB2046FD
:10516800BDE83840FFF7BABF002323850220FFF7C8
:10517800C5F86A7801239340228D13439BB2E1E777
:1051880004030020080300204C33002008B590F8E1
:10519800203002468BB9FDF7EBFE10B982F82100EA
:1051A80008BD92F8213001335BB2312B82F82130EF
:1051B800F6DD012382F82030F2E7FDF7D9FE18B1B9
:1051C800322382F82130EBE792F82130013B5BB2C1
:1051D800002B82F82130D8BF82F82000E0E70000D9
:1051E800134B90F820201B68CAB182689B1AB3F54C
:1051F8007A6F01D9012343710379ABB10D4B427B1F
:105208001B781AB1022B1CBF032202739A1E534249
:1052180053414373837953B1032303737047836006
:10522800EAE701230371F8E74379002BF9D17047C6
:10523800B44C0020FD0600200346007B821E012A94
:105248004FF0000202D893F8201009B91A7370477A
:105258001046704770B51D4C1D4E05465B22002157
:1052680020460CF001F92B6923606B696360194BC8
:10527800194D1B7831789A1E53425341627A05EBD7
:10528800011163F30002627201F58971062204F1CB
:105298000A00FCF73BFA337805EB031205EB03151C
:1052A80092F81B1195F8193192F81A2103F00F039F
:1052B80043EA02132374637C204661F303035921F4
:1052C8006374FCF7DBFEA4F8590070BDB13300200D
:1052D80004030020FD060020600300200A4A38B5B8
:1052E800138801339BB2502B04460D4601D8138016
:1052F80038BD002305491380FDF744FB29462046A5
:10530800FDF740FBF4E700BF2A0B0020011C010851
:105318002DE9F84F154604460F466F496F4EFDF7C5
:1053280031FB29462046FDF72DFB6D4B0022012F4E
:105338001A8010D14FF48063B362202746F2A81078
:10534800B761FDF76BFEB762FDF768FE2946204698
:10535800FFF7C4FFF2E7BB1E20220C2B00F2AF8040
:10536800DFE803F03344561D07ADADAD67676767E7
:1053780067005A4E4FF020084FF48067C6F818802F
:1053880046F2A810B762FDF749FEC6F82880B76153
:10539800FDF744FE29462046FFF7A0FFECE74F4EF5
:1053A8004FF020084FF48067C6F8188046F2A8101E
:1053B800B761FDF733FEC6F82880B762FDF72EFE09
:1053C80029462046FFF78AFFECE7B262434E4FF4C6
:1053D800806746F2A810B761FDF720FEB762FDF7B7
:1053E8001DFE29462046FFF779FFF2E74FF4806358
:1053F800B3613A4E202746F2A810B761FDF70EFEBA
:10540800B762FDF70BFE29462046FFF767FFF2E774
:10541800B261324E4FF4806746F2A810B761FDF7CB
:10542800FDFDB762FDF7FAFD29462046FFF756FF56
:10543800F2E7A7F1090BDFF8A4805FFA8BFB0026DF
:105448004FF0200A5E453CBF4FF48063C8F818301F
:105458004FF0040946F2A810C8F818A0FDF7DEFDC1
:10546800C8F828A0FDF7DAFD09F1FF3929462046DA
:10547800FFF734FF19F0FF09ECD14FF48063C8F847
:1054880028304FF0040946F2A810C8F818A0FDF714
:10549800C5FDC8F828A0FDF7C1FD09F1FF39294667
:1054A8002046FFF71BFF19F0FF09ECD10136A7F1E1
:1054B8000803F6B2DBB2B34238BF0026C2E74FF4A6
:1054C8008063B261B3614CF25030FDF7A7FD294605
:1054D8002046FFF703FFF6E7011C01080004004817
:1054E8002A0B002008B5437802789A4213D0052B7E
:1054F8008ABF052303700370027888BF4370064B88
:10550800064813F92210064B19731976836813B1EC
:105518001972FFF73DF908BDEC2D01084C33002046
:105528000403002010B50AB9437010BD541E0B2C9B
:10553800FBD80332D2B231F91220C83A03FB022257
:1055480040F2716192FBF1F212B222EAE2729A42DF
:10555800C8BF1AB24270E8E70A46014610B90248C5
:1055680008F037BD704700BF4C33002070B50D46BA
:1055780016461C46014688B9FDF7DBFC0948334648
:105588002A4608F0FFFC07484FF6FF7108F00BFEAB
:10559800A1010448BDE8704008F01EBE0148FFF7AD
:1055A8008FF970BD4C33002037B50C4638B91A480E
:1055B800836833B9812281F88C2081F88E3003B05A
:1055C80030BD9D7ADDB101F18E020DF1060108F0C2
:1055D80039FE94F98E30002B04DABDF80620134406
:1055E800ADF80630BDF90630002B0FDB4FF6FF7320
:1055F800ADF80630BDF8063084F88C30DFE70DF1E1
:10560800060108F054FF84F88E50EBE77F33F1DA97
:105618004FF68173ECE700BF4C33002070B5114C96
:105628000D4606465B23224621462846FFF794FF8F
:10563800D6E90613206862689A4208BF88420ED1EC
:1056480020465921FCF71AFDB4F85940231A5C4248
:105658005C4128460449FFF7A7FF601C70BD002481
:10566800F7E700BF802F0020943000200A4608B5D5
:1056780001460148FFF74CFE2C00002000B591B010
:105688000446684616461D460BF068FE18496846EB
:105698000BF06CFE304608F0A3FB014668460BF0A1
:1056A80065FE144968460BF061FE134B684653F8D3
:1056B8002510124D0BF05AFE114968460BF056FEA4
:1056C8009DF84830684655F823100BF04FFE0D49F9
:1056D80068460BF04BFE9DF84C30684655F8231091
:1056E8000BF044FE08486A462146FFF711FE00BF4A
:1056F800941A01089B1A0108000000201C000020D1
:10570800A01A0108A71A01082C0000200023037022
:105718008370437003714371C3707047037800222C
:10572800022B427104D0032B09D0012B16D0FEE7BF
:1057380001230371437183784370C3707047837882
:105748004278991AA3EB020218BF012112F0060F42
:1057580014BF0122002201714271EDE70271704706
:1057680002788170002A0CBF022203220270FFF720
:10577800D5BF0000074B282202FB00339B681A782C
:10578800542A05D15878A0F17803584258417047F7
:1057980000207047042E0108074B282202FB003323
:1057A8009B681A78522A05D15878A0F17803584294
:1057B8005841704700207047042E0108074B2822E3
:1057C80002FB00339B681A78542A04D15878783839
:1057D80018BF012070470120704700BF042E010840
:1057E80028230B4A434310B5D1580446FFF7D4FF8A
:1057F80048B92046FFF7BEFF064B1B7828B103EBDC
:10580800830301EB8301084610BD01EB0311FAE79E
:10581800042E0108040300202D2838B505461AD89F
:105828000E4B282202FB00334CB21B79022B0DD001
:10583800FE2B10D1FFF7D4FF0378E4B2A3420AD0BD
:1058480004702846BDE83840FFF7B8BFFFF7C8FF27
:1058580090F90030F2E7002038BD00BF042E01089F
:105868002D2838B504460D4619D80E4B282202FBC0
:1058780000331B79FF2B12D1FFF7B2FF062229460E
:10588800FBF769FF58B92046FFF7AAFF2946062209
:10589800FBF74EFF2046BDE83840FFF78FBF0020DA
:1058A80038BD00BF042E01082DE9F0430746154610
:1058B8002820394A41435018012B046A87B025D162
:1058C8005258364B9A4235D0A3F1CE018A4233D092
:1058D8003349F23B9A4208BF0C46FF238DF800304B
:1058E8004FF0000801262046FAF72CFC5FFA88F9E9
:1058F800484529D806F118036B44AE4203F8188CC2
:1059080030D80020387007B0BDE8F083022BE4D10E
:105918005258224B9A4211D0591C8A4210D0A3F1F6
:10592800CE018A420ED0A3F1F2018A420AD01D4963
:10593800EC3BCFE71C4CD0E7194CCEE71B4CCCE72F
:105948001B4CCAE71B4CC8E714F809302C2B06D1AE
:1059580006F118036B44013603F8188CF6B208F107
:105968000108C0E705F118030DEB0305002315F83E
:10597800182C15F9175C0132D2B29918C9B2A9428C
:1059880007EB030003DB002303700120BBE7615C26
:1059980001700133DBB2F0E7042E0108790400201E
:1059A800AE1A0108E21A0108FF1A0108A81B01082B
:1059B800861B01085C1B0108054B282202FB0033EB
:1059C8005B6A0BB1188870474FF6FF70704700BFCD
:1059D800042E01080B4B282202FB003370B51E6A07
:1059E8003046FAF7AFFB002201461446D5B2631CD5
:1059F800A942D8B200D870BD735D01322C2B08BF04
:105A08000446F3E7042E010838B5104B282202FBA0
:105A1800003301461B79FE2B15D1FFF7CDFF044655
:105A28000846FFF7D7FF0022014601251046D3B2EA
:105A3800994200D838BD05FA02F323421CBF431C23
:105A4800D8B20132F3E7FF20F4E700BF042E0108C3
:105A58002DE9F04F4FF0000A1D4E93B004460F4653
:105A6800D146D6F808805FFA8AF54FF0000B0DE0B2
:105A780018F8030001920BF095FCC3B2019A202B91
:105A880008BF5F2302F8403C0BF1010B5FFA8BF370
:105A980040460193FAF756FB019B03F148029842EE
:105AA8006A44E5D802F8409C394602A8FAF740FB58
:105AB80048B10AF1010ABAF12E0F06F12806D0D131
:105AC8000025284600E00120257013B0BDE8F08FBE
